{
  "_format": "hh-sol-artifact-1",
  "contractName": "SavingsVault",
  "sourceName": "contracts/src/vaults/SavingsVault.sol",
  "abi": [
    {
      "inputs": [
        {
          "internalType": "contract IERC20",
          "name": "asset_",
          "type": "address"
        },
        {
          "internalType": "uint256",
          "name": "maxDeposit_",
          "type": "uint256"
        },
        {
          "internalType": "address",
          "name": "usdyToken_",
          "type": "address"
        },
        {
          "internalType": "address",
          "name": "usdyManager_",
          "type": "address"
        },
        {
          "internalType": "address",
          "name": "priceOracle_",
          "type": "address"
        }
      ],
      "stateMutability": "nonpayable",
      "type": "constructor"
    },
    {
      "inputs": [
        {
          "internalType": "address",
          "name": "spender",
          "type": "address"
        },
        {
          "internalType": "uint256",
          "name": "allowance",
          "type": "uint256"
        },
        {
          "internalType": "uint256",
          "name": "needed",
          "type": "uint256"
        }
      ],
      "name": "ERC20InsufficientAllowance",
      "type": "error"
    },
    {
      "inputs": [
        {
          "internalType": "address",
          "name": "sender",
          "type": "address"
        },
        {
          "internalType": "uint256",
          "name": "balance",
          "type": "uint256"
        },
        {
          "internalType": "uint256",
          "name": "needed",
          "type": "uint256"
        }
      ],
      "name": "ERC20InsufficientBalance",
      "type": "error"
    },
    {
      "inputs": [
        {
          "internalType": "address",
          "name": "approver",
          "type": "address"
        }
      ],
      "name": "ERC20InvalidApprover",
      "type": "error"
    },
    {
      "inputs": [
        {
          "internalType": "address",
          "name": "receiver",
          "type": "address"
        }
      ],
      "name": "ERC20InvalidReceiver",
      "type": "error"
    },
    {
      "inputs": [
        {
          "internalType": "address",
          "name": "sender",
          "type": "address"
        }
      ],
      "name": "ERC20InvalidSender",
      "type": "error"
    },
    {
      "inputs": [
        {
          "internalType": "address",
          "name": "spender",
          "type": "address"
        }
      ],
      "name": "ERC20InvalidSpender",
      "type": "error"
    },
    {
      "inputs": [
        {
          "internalType": "address",
          "name": "receiver",
          "type": "address"
        },
        {
          "internalType": "uint256",
          "name": "assets",
          "type": "uint256"
        },
        {
          "internalType": "uint256",
          "name": "max",
          "type": "uint256"
        }
      ],
      "name": "ERC4626ExceededMaxDeposit",
      "type": "error"
    },
    {
      "inputs": [
        {
          "internalType": "address",
          "name": "receiver",
          "type": "address"
        },
        {
          "internalType": "uint256",
          "name": "shares",
          "type": "uint256"
        },
        {
          "internalType": "uint256",
          "name": "max",
          "type": "uint256"
        }
      ],
      "name": "ERC4626ExceededMaxMint",
      "type": "error"
    },
    {
      "inputs": [
        {
          "internalType": "address",
          "name": "owner",
          "type": "address"
        },
        {
          "internalType": "uint256",
          "name": "shares",
          "type": "uint256"
        },
        {
          "internalType": "uint256",
          "name": "max",
          "type": "uint256"
        }
      ],
      "name": "ERC4626ExceededMaxRedeem",
      "type": "error"
    },
    {
      "inputs": [
        {
          "internalType": "address",
          "name": "owner",
          "type": "address"
        },
        {
          "internalType": "uint256",
          "name": "assets",
          "type": "uint256"
        },
        {
          "internalType": "uint256",
          "name": "max",
          "type": "uint256"
        }
      ],
      "name": "ERC4626ExceededMaxWithdraw",
      "type": "error"
    },
    {
      "inputs": [],
      "name": "EmergencyWithdrawalPenaltyTooHigh",
      "type": "error"
    },
    {
      "inputs": [],
      "name": "EnforcedPause",
      "type": "error"
    },
    {
      "inputs": [],
      "name": "ExceedsMaxDeposit",
      "type": "error"
    },
    {
      "inputs": [],
      "name": "ExceedsMaxSlippage",
      "type": "error"
    },
    {
      "inputs": [],
      "name": "ExpectedPause",
      "type": "error"
    },
    {
      "inputs": [],
      "name": "InsufficientBalance",
      "type": "error"
    },
    {
      "inputs": [],
      "name": "InvalidAmount",
      "type": "error"
    },
    {
      "inputs": [
        {
          "internalType": "address",
          "name": "owner",
          "type": "address"
        }
      ],
      "name": "OwnableInvalidOwner",
      "type": "error"
    },
    {
      "inputs": [
        {
          "internalType": "address",
          "name": "account",
          "type": "address"
        }
      ],
      "name": "OwnableUnauthorizedAccount",
      "type": "error"
    },
    {
      "inputs": [],
      "name": "ReentrancyGuardReentrantCall",
      "type": "error"
    },
    {
      "inputs": [
        {
          "internalType": "address",
          "name": "token",
          "type": "address"
        }
      ],
      "name": "SafeERC20FailedOperation",
      "type": "error"
    },
    {
      "inputs": [],
      "name": "WithdrawalDelayNotMet",
      "type": "error"
    },
    {
      "inputs": [],
      "name": "YieldProtocolCallFailed",
      "type": "error"
    },
    {
      "inputs": [],
      "name": "YieldProtocolNotSet",
      "type": "error"
    },
    {
      "anonymous": false,
      "inputs": [
        {
          "indexed": true,
          "internalType": "address",
          "name": "owner",
          "type": "address"
        },
        {
          "indexed": true,
          "internalType": "address",
          "name": "spender",
          "type": "address"
        },
        {
          "indexed": false,
          "internalType": "uint256",
          "name": "value",
          "type": "uint256"
        }
      ],
      "name": "Approval",
      "type": "event"
    },
    {
      "anonymous": false,
      "inputs": [
        {
          "indexed": true,
          "internalType": "address",
          "name": "sender",
          "type": "address"
        },
        {
          "indexed": true,
          "internalType": "address",
          "name": "owner",
          "type": "address"
        },
        {
          "indexed": false,
          "internalType": "uint256",
          "name": "assets",
          "type": "uint256"
        },
        {
          "indexed": false,
          "internalType": "uint256",
          "name": "shares",
          "type": "uint256"
        }
      ],
      "name": "Deposit",
      "type": "event"
    },
    {
      "anonymous": false,
      "inputs": [
        {
          "indexed": true,
          "internalType": "address",
          "name": "user",
          "type": "address"
        },
        {
          "indexed": false,
          "internalType": "uint256",
          "name": "amount",
          "type": "uint256"
        },
        {
          "indexed": false,
          "internalType": "uint256",
          "name": "penalty",
          "type": "uint256"
        }
      ],
      "name": "EmergencyWithdrawal",
      "type": "event"
    },
    {
      "anonymous": false,
      "inputs": [
        {
          "indexed": false,
          "internalType": "uint256",
          "name": "newLimit",
          "type": "uint256"
        }
      ],
      "name": "MaxDepositLimitUpdated",
      "type": "event"
    },
    {
      "anonymous": false,
      "inputs": [
        {
          "indexed": true,
          "internalType": "address",
          "name": "previousOwner",
          "type": "address"
        },
        {
          "indexed": true,
          "internalType": "address",
          "name": "newOwner",
          "type": "address"
        }
      ],
      "name": "OwnershipTransferred",
      "type": "event"
    },
    {
      "anonymous": false,
      "inputs": [
        {
          "indexed": false,
          "internalType": "address",
          "name": "account",
          "type": "address"
        }
      ],
      "name": "Paused",
      "type": "event"
    },
    {
      "anonymous": false,
      "inputs": [
        {
          "indexed": false,
          "internalType": "uint256",
          "name": "maxSlippageBps",
          "type": "uint256"
        }
      ],
      "name": "SlippageProtectionUpdated",
      "type": "event"
    },
    {
      "anonymous": false,
      "inputs": [
        {
          "indexed": true,
          "internalType": "address",
          "name": "from",
          "type": "address"
        },
        {
          "indexed": true,
          "internalType": "address",
          "name": "to",
          "type": "address"
        },
        {
          "indexed": false,
          "internalType": "uint256",
          "name": "value",
          "type": "uint256"
        }
      ],
      "name": "Transfer",
      "type": "event"
    },
    {
      "anonymous": false,
      "inputs": [
        {
          "indexed": false,
          "internalType": "uint256",
          "name": "usdcAmount",
          "type": "uint256"
        },
        {
          "indexed": false,
          "internalType": "uint256",
          "name": "usdyAmount",
          "type": "uint256"
        }
      ],
      "name": "USDYDeposited",
      "type": "event"
    },
    {
      "anonymous": false,
      "inputs": [
        {
          "indexed": false,
          "internalType": "uint256",
          "name": "usdyAmount",
          "type": "uint256"
        },
        {
          "indexed": false,
          "internalType": "uint256",
          "name": "usdcAmount",
          "type": "uint256"
        }
      ],
      "name": "USDYRedeemed",
      "type": "event"
    },
    {
      "anonymous": false,
      "inputs": [
        {
          "indexed": false,
          "internalType": "address",
          "name": "account",
          "type": "address"
        }
      ],
      "name": "Unpaused",
      "type": "event"
    },
    {
      "anonymous": false,
      "inputs": [
        {
          "indexed": true,
          "internalType": "address",
          "name": "sender",
          "type": "address"
        },
        {
          "indexed": true,
          "internalType": "address",
          "name": "receiver",
          "type": "address"
        },
        {
          "indexed": true,
          "internalType": "address",
          "name": "owner",
          "type": "address"
        },
        {
          "indexed": false,
          "internalType": "uint256",
          "name": "assets",
          "type": "uint256"
        },
        {
          "indexed": false,
          "internalType": "uint256",
          "name": "shares",
          "type": "uint256"
        }
      ],
      "name": "Withdraw",
      "type": "event"
    },
    {
      "anonymous": false,
      "inputs": [
        {
          "indexed": false,
          "internalType": "uint256",
          "name": "delaySeconds",
          "type": "uint256"
        },
        {
          "indexed": false,
          "internalType": "uint256",
          "name": "feeBps",
          "type": "uint256"
        }
      ],
      "name": "WithdrawalConfigUpdated",
      "type": "event"
    },
    {
      "anonymous": false,
      "inputs": [
        {
          "indexed": false,
          "internalType": "uint256",
          "name": "amount",
          "type": "uint256"
        }
      ],
      "name": "YieldCompounded",
      "type": "event"
    },
    {
      "anonymous": false,
      "inputs": [
        {
          "indexed": false,
          "internalType": "uint256",
          "name": "amount",
          "type": "uint256"
        },
        {
          "indexed": false,
          "internalType": "uint256",
          "name": "shares",
          "type": "uint256"
        }
      ],
      "name": "YieldDeposited",
      "type": "event"
    },
    {
      "anonymous": false,
      "inputs": [
        {
          "indexed": true,
          "internalType": "address",
          "name": "protocol",
          "type": "address"
        }
      ],
      "name": "YieldProtocolSet",
      "type": "event"
    },
    {
      "anonymous": false,
      "inputs": [
        {
          "indexed": false,
          "internalType": "uint256",
          "name": "shares",
          "type": "uint256"
        },
        {
          "indexed": false,
          "internalType": "uint256",
          "name": "amount",
          "type": "uint256"
        }
      ],
      "name": "YieldWithdrawn",
      "type": "event"
    },
    {
      "inputs": [],
      "name": "EMERGENCY_PENALTY_BPS",
      "outputs": [
        {
          "internalType": "uint256",
          "name": "",
          "type": "uint256"
        }
      ],
      "stateMutability": "view",
      "type": "function"
    },
    {
      "inputs": [],
      "name": "MAX_BPS",
      "outputs": [
        {
          "internalType": "uint256",
          "name": "",
          "type": "uint256"
        }
      ],
      "stateMutability": "view",
      "type": "function"
    },
    {
      "inputs": [
        {
          "internalType": "address",
          "name": "owner",
          "type": "address"
        },
        {
          "internalType": "address",
          "name": "spender",
          "type": "address"
        }
      ],
      "name": "allowance",
      "outputs": [
        {
          "internalType": "uint256",
          "name": "",
          "type": "uint256"
        }
      ],
      "stateMutability": "view",
      "type": "function"
    },
    {
      "inputs": [
        {
          "internalType": "address",
          "name": "spender",
          "type": "address"
        },
        {
          "internalType": "uint256",
          "name": "value",
          "type": "uint256"
        }
      ],
      "name": "approve",
      "outputs": [
        {
          "internalType": "bool",
          "name": "",
          "type": "bool"
        }
      ],
      "stateMutability": "nonpayable",
      "type": "function"
    },
    {
      "inputs": [],
      "name": "asset",
      "outputs": [
        {
          "internalType": "address",
          "name": "",
          "type": "address"
        }
      ],
      "stateMutability": "view",
      "type": "function"
    },
    {
      "inputs": [
        {
          "internalType": "address",
          "name": "account",
          "type": "address"
        }
      ],
      "name": "balanceOf",
      "outputs": [
        {
          "internalType": "uint256",
          "name": "",
          "type": "uint256"
        }
      ],
      "stateMutability": "view",
      "type": "function"
    },
    {
      "inputs": [],
      "name": "compoundYield",
      "outputs": [],
      "stateMutability": "nonpayable",
      "type": "function"
    },
    {
      "inputs": [
        {
          "internalType": "uint256",
          "name": "shares",
          "type": "uint256"
        }
      ],
      "name": "convertToAssets",
      "outputs": [
        {
          "internalType": "uint256",
          "name": "",
          "type": "uint256"
        }
      ],
      "stateMutability": "view",
      "type": "function"
    },
    {
      "inputs": [
        {
          "internalType": "uint256",
          "name": "assets",
          "type": "uint256"
        }
      ],
      "name": "convertToShares",
      "outputs": [
        {
          "internalType": "uint256",
          "name": "",
          "type": "uint256"
        }
      ],
      "stateMutability": "view",
      "type": "function"
    },
    {
      "inputs": [],
      "name": "decimals",
      "outputs": [
        {
          "internalType": "uint8",
          "name": "",
          "type": "uint8"
        }
      ],
      "stateMutability": "view",
      "type": "function"
    },
    {
      "inputs": [
        {
          "internalType": "uint256",
          "name": "assets",
          "type": "uint256"
        },
        {
          "internalType": "address",
          "name": "receiver",
          "type": "address"
        }
      ],
      "name": "deposit",
      "outputs": [
        {
          "internalType": "uint256",
          "name": "shares",
          "type": "uint256"
        }
      ],
      "stateMutability": "nonpayable",
      "type": "function"
    },
    {
      "inputs": [
        {
          "internalType": "uint256",
          "name": "amount",
          "type": "uint256"
        }
      ],
      "name": "depositToYieldProtocol",
      "outputs": [],
      "stateMutability": "nonpayable",
      "type": "function"
    },
    {
      "inputs": [
        {
          "internalType": "uint256",
          "name": "assets",
          "type": "uint256"
        }
      ],
      "name": "emergencyWithdraw",
      "outputs": [],
      "stateMutability": "nonpayable",
      "type": "function"
    },
    {
      "inputs": [],
      "name": "getRedemptionPrice",
      "outputs": [
        {
          "internalType": "uint256",
          "name": "",
          "type": "uint256"
        }
      ],
      "stateMutability": "view",
      "type": "function"
    },
    {
      "inputs": [],
      "name": "getUSDYBalance",
      "outputs": [
        {
          "internalType": "uint256",
          "name": "",
          "type": "uint256"
        }
      ],
      "stateMutability": "view",
      "type": "function"
    },
    {
      "inputs": [],
      "name": "getYieldRate",
      "outputs": [
        {
          "internalType": "uint256",
          "name": "",
          "type": "uint256"
        }
      ],
      "stateMutability": "view",
      "type": "function"
    },
    {
      "inputs": [
        {
          "internalType": "address",
          "name": "",
          "type": "address"
        }
      ],
      "name": "lastDepositTimestamp",
      "outputs": [
        {
          "internalType": "uint256",
          "name": "",
          "type": "uint256"
        }
      ],
      "stateMutability": "view",
      "type": "function"
    },
    {
      "inputs": [],
      "name": "lastYieldUpdate",
      "outputs": [
        {
          "internalType": "uint256",
          "name": "",
          "type": "uint256"
        }
      ],
      "stateMutability": "view",
      "type": "function"
    },
    {
      "inputs": [
        {
          "internalType": "address",
          "name": "",
          "type": "address"
        }
      ],
      "name": "maxDeposit",
      "outputs": [
        {
          "internalType": "uint256",
          "name": "",
          "type": "uint256"
        }
      ],
      "stateMutability": "view",
      "type": "function"
    },
    {
      "inputs": [],
      "name": "maxDepositLimit",
      "outputs": [
        {
          "internalType": "uint256",
          "name": "",
          "type": "uint256"
        }
      ],
      "stateMutability": "view",
      "type": "function"
    },
    {
      "inputs": [
        {
          "internalType": "address",
          "name": "",
          "type": "address"
        }
      ],
      "name": "maxMint",
      "outputs": [
        {
          "internalType": "uint256",
          "name": "",
          "type": "uint256"
        }
      ],
      "stateMutability": "view",
      "type": "function"
    },
    {
      "inputs": [
        {
          "internalType": "address",
          "name": "owner",
          "type": "address"
        }
      ],
      "name": "maxRedeem",
      "outputs": [
        {
          "internalType": "uint256",
          "name": "",
          "type": "uint256"
        }
      ],
      "stateMutability": "view",
      "type": "function"
    },
    {
      "inputs": [],
      "name": "maxSlippageBps",
      "outputs": [
        {
          "internalType": "uint256",
          "name": "",
          "type": "uint256"
        }
      ],
      "stateMutability": "view",
      "type": "function"
    },
    {
      "inputs": [
        {
          "internalType": "address",
          "name": "owner",
          "type": "address"
        }
      ],
      "name": "maxWithdraw",
      "outputs": [
        {
          "internalType": "uint256",
          "name": "",
          "type": "uint256"
        }
      ],
      "stateMutability": "view",
      "type": "function"
    },
    {
      "inputs": [
        {
          "internalType": "uint256",
          "name": "shares",
          "type": "uint256"
        },
        {
          "internalType": "address",
          "name": "receiver",
          "type": "address"
        }
      ],
      "name": "mint",
      "outputs": [
        {
          "internalType": "uint256",
          "name": "",
          "type": "uint256"
        }
      ],
      "stateMutability": "nonpayable",
      "type": "function"
    },
    {
      "inputs": [],
      "name": "name",
      "outputs": [
        {
          "internalType": "string",
          "name": "",
          "type": "string"
        }
      ],
      "stateMutability": "view",
      "type": "function"
    },
    {
      "inputs": [],
      "name": "owner",
      "outputs": [
        {
          "internalType": "address",
          "name": "",
          "type": "address"
        }
      ],
      "stateMutability": "view",
      "type": "function"
    },
    {
      "inputs": [],
      "name": "pause",
      "outputs": [],
      "stateMutability": "nonpayable",
      "type": "function"
    },
    {
      "inputs": [],
      "name": "paused",
      "outputs": [
        {
          "internalType": "bool",
          "name": "",
          "type": "bool"
        }
      ],
      "stateMutability": "view",
      "type": "function"
    },
    {
      "inputs": [],
      "name": "penaltyRecipient",
      "outputs": [
        {
          "internalType": "address",
          "name": "",
          "type": "address"
        }
      ],
      "stateMutability": "view",
      "type": "function"
    },
    {
      "inputs": [
        {
          "internalType": "uint256",
          "name": "assets",
          "type": "uint256"
        }
      ],
      "name": "previewDeposit",
      "outputs": [
        {
          "internalType": "uint256",
          "name": "",
          "type": "uint256"
        }
      ],
      "stateMutability": "view",
      "type": "function"
    },
    {
      "inputs": [
        {
          "internalType": "uint256",
          "name": "shares",
          "type": "uint256"
        }
      ],
      "name": "previewMint",
      "outputs": [
        {
          "internalType": "uint256",
          "name": "",
          "type": "uint256"
        }
      ],
      "stateMutability": "view",
      "type": "function"
    },
    {
      "inputs": [
        {
          "internalType": "uint256",
          "name": "shares",
          "type": "uint256"
        }
      ],
      "name": "previewRedeem",
      "outputs": [
        {
          "internalType": "uint256",
          "name": "",
          "type": "uint256"
        }
      ],
      "stateMutability": "view",
      "type": "function"
    },
    {
      "inputs": [
        {
          "internalType": "uint256",
          "name": "assets",
          "type": "uint256"
        }
      ],
      "name": "previewWithdraw",
      "outputs": [
        {
          "internalType": "uint256",
          "name": "",
          "type": "uint256"
        }
      ],
      "stateMutability": "view",
      "type": "function"
    },
    {
      "inputs": [],
      "name": "priceOracle",
      "outputs": [
        {
          "internalType": "contract IRedemptionPriceOracle",
          "name": "",
          "type": "address"
        }
      ],
      "stateMutability": "view",
      "type": "function"
    },
    {
      "inputs": [
        {
          "internalType": "uint256",
          "name": "shares",
          "type": "uint256"
        },
        {
          "internalType": "address",
          "name": "receiver",
          "type": "address"
        },
        {
          "internalType": "address",
          "name": "owner",
          "type": "address"
        }
      ],
      "name": "redeem",
      "outputs": [
        {
          "internalType": "uint256",
          "name": "",
          "type": "uint256"
        }
      ],
      "stateMutability": "nonpayable",
      "type": "function"
    },
    {
      "inputs": [],
      "name": "renounceOwnership",
      "outputs": [],
      "stateMutability": "nonpayable",
      "type": "function"
    },
    {
      "inputs": [
        {
          "internalType": "uint256",
          "name": "newLimit",
          "type": "uint256"
        }
      ],
      "name": "setMaxDepositLimit",
      "outputs": [],
      "stateMutability": "nonpayable",
      "type": "function"
    },
    {
      "inputs": [
        {
          "internalType": "uint256",
          "name": "slippageBps",
          "type": "uint256"
        }
      ],
      "name": "setMaxSlippage",
      "outputs": [],
      "stateMutability": "nonpayable",
      "type": "function"
    },
    {
      "inputs": [
        {
          "internalType": "address",
          "name": "recipient",
          "type": "address"
        }
      ],
      "name": "setPenaltyRecipient",
      "outputs": [],
      "stateMutability": "nonpayable",
      "type": "function"
    },
    {
      "inputs": [
        {
          "internalType": "uint256",
          "name": "delaySeconds",
          "type": "uint256"
        },
        {
          "internalType": "uint256",
          "name": "feeBps",
          "type": "uint256"
        }
      ],
      "name": "setWithdrawalConfig",
      "outputs": [],
      "stateMutability": "nonpayable",
      "type": "function"
    },
    {
      "inputs": [
        {
          "internalType": "address",
          "name": "protocol",
          "type": "address"
        }
      ],
      "name": "setYieldProtocol",
      "outputs": [],
      "stateMutability": "nonpayable",
      "type": "function"
    },
    {
      "inputs": [],
      "name": "symbol",
      "outputs": [
        {
          "internalType": "string",
          "name": "",
          "type": "string"
        }
      ],
      "stateMutability": "view",
      "type": "function"
    },
    {
      "inputs": [],
      "name": "totalAssets",
      "outputs": [
        {
          "internalType": "uint256",
          "name": "",
          "type": "uint256"
        }
      ],
      "stateMutability": "view",
      "type": "function"
    },
    {
      "inputs": [],
      "name": "totalSupply",
      "outputs": [
        {
          "internalType": "uint256",
          "name": "",
          "type": "uint256"
        }
      ],
      "stateMutability": "view",
      "type": "function"
    },
    {
      "inputs": [],
      "name": "totalUSDYBalance",
      "outputs": [
        {
          "internalType": "uint256",
          "name": "",
          "type": "uint256"
        }
      ],
      "stateMutability": "view",
      "type": "function"
    },
    {
      "inputs": [],
      "name": "totalYieldEarned",
      "outputs": [
        {
          "internalType": "uint256",
          "name": "",
          "type": "uint256"
        }
      ],
      "stateMutability": "view",
      "type": "function"
    },
    {
      "inputs": [
        {
          "internalType": "address",
          "name": "to",
          "type": "address"
        },
        {
          "internalType": "uint256",
          "name": "value",
          "type": "uint256"
        }
      ],
      "name": "transfer",
      "outputs": [
        {
          "internalType": "bool",
          "name": "",
          "type": "bool"
        }
      ],
      "stateMutability": "nonpayable",
      "type": "function"
    },
    {
      "inputs": [
        {
          "internalType": "address",
          "name": "from",
          "type": "address"
        },
        {
          "internalType": "address",
          "name": "to",
          "type": "address"
        },
        {
          "internalType": "uint256",
          "name": "value",
          "type": "uint256"
        }
      ],
      "name": "transferFrom",
      "outputs": [
        {
          "internalType": "bool",
          "name": "",
          "type": "bool"
        }
      ],
      "stateMutability": "nonpayable",
      "type": "function"
    },
    {
      "inputs": [
        {
          "internalType": "address",
          "name": "newOwner",
          "type": "address"
        }
      ],
      "name": "transferOwnership",
      "outputs": [],
      "stateMutability": "nonpayable",
      "type": "function"
    },
    {
      "inputs": [],
      "name": "unpause",
      "outputs": [],
      "stateMutability": "nonpayable",
      "type": "function"
    },
    {
      "inputs": [],
      "name": "usdyManager",
      "outputs": [
        {
          "internalType": "contract IUSDYManager",
          "name": "",
          "type": "address"
        }
      ],
      "stateMutability": "view",
      "type": "function"
    },
    {
      "inputs": [],
      "name": "usdyToken",
      "outputs": [
        {
          "internalType": "contract IUSDYToken",
          "name": "",
          "type": "address"
        }
      ],
      "stateMutability": "view",
      "type": "function"
    },
    {
      "inputs": [],
      "name": "vaultType",
      "outputs": [
        {
          "internalType": "enum BucketVaultV2.VaultType",
          "name": "",
          "type": "uint8"
        }
      ],
      "stateMutability": "view",
      "type": "function"
    },
    {
      "inputs": [
        {
          "internalType": "uint256",
          "name": "assets",
          "type": "uint256"
        },
        {
          "internalType": "address",
          "name": "receiver",
          "type": "address"
        },
        {
          "internalType": "address",
          "name": "owner",
          "type": "address"
        }
      ],
      "name": "withdraw",
      "outputs": [
        {
          "internalType": "uint256",
          "name": "shares",
          "type": "uint256"
        }
      ],
      "stateMutability": "nonpayable",
      "type": "function"
    },
    {
      "inputs": [
        {
          "internalType": "uint256",
          "name": "shares",
          "type": "uint256"
        }
      ],
      "name": "withdrawFromYieldProtocol",
      "outputs": [],
      "stateMutability": "nonpayable",
      "type": "function"
    },
    {
      "inputs": [],
      "name": "withdrawalDelaySeconds",
      "outputs": [
        {
          "internalType": "uint256",
          "name": "",
          "type": "uint256"
        }
      ],
      "stateMutability": "view",
      "type": "function"
    },
    {
      "inputs": [],
      "name": "withdrawalFeeBps",
      "outputs": [
        {
          "internalType": "uint256",
          "name": "",
          "type": "uint256"
        }
      ],
      "stateMutability": "view",
      "type": "function"
    },
    {
      "inputs": [],
      "name": "yieldEnabled",
      "outputs": [
        {
          "internalType": "bool",
          "name": "",
          "type": "bool"
        }
      ],
      "stateMutability": "view",
      "type": "function"
    },
    {
      "inputs": [],
      "name": "yieldProtocol",
      "outputs": [
        {
          "internalType": "address",
          "name": "",
          "type": "address"
        }
      ],
      "stateMutability": "view",
      "type": "function"
    }
  ],
  "bytecode": "0x60e08060405234620005645760a08162002c1f803803809162000023828562000585565b83398101031262000564578051906001600160a01b0382168203620005645760208101516200005560408301620005a9565b926200007260806200006a60608601620005a9565b9401620005a9565b90604051620000818162000569565b601881527f50616c6d42756467657420536176696e6773205661756c7400000000000000006020820152604051620000b98162000569565b600681526570625341564560d01b602082015281516001600160401b0392838211620004375760035490600182811c9216801562000559575b6020831014620004165781601f849311620004e4575b50602090601f831160011462000459576000926200044d575b50508160011b916000199060031b1c1916176003555b8051918211620004375760045490600182811c921680156200042c575b6020831014620004165781601f849311620003a1575b50602090601f8311600114620003125760009262000306575b50508160011b916000199060031b1c1916176004555b620001a481620005be565b9015620002fd575b60a0526080523315620002e45760058054336001600160a01b03198083168217909355604051969294916001600160a01b03167f8be0079c531659141344cd1fd0a4f28419497f9722a3daafe3b4186f6b6457e0600080a36001600681905560c0526008908155603260095542600f55600d80548516331790556000600a819055600b556010805485166001600160a01b0393841617905560118054851686841617905560128054909416929091169190911790915560078054610100600160b01b0319169290911b610100600160a81b031691909117600160a81b17905561258490816200069b82396080518181816107800152818161086d01528181610da4015281816112f7015281816115c901528181611d6301528181611e7e0152612492015260a0518161160e015260c051816113ef0152f35b604051631e4fbdf760e01b815260006004820152602490fd5b506012620001ac565b01519050388062000183565b6004600090815293507f8a35acfbc15ff81a39ae7d344fd709f28e8600b4aa8c65c6b64bfe7fe36bd19b91905b601f198416851062000385576001945083601f198116106200036b575b505050811b0160045562000199565b015160001960f88460031b161c191690553880806200035c565b818101518355602094850194600190930192909101906200033f565b60046000529091507f8a35acfbc15ff81a39ae7d344fd709f28e8600b4aa8c65c6b64bfe7fe36bd19b601f840160051c810191602085106200040b575b90601f859493920160051c01905b818110620003fb57506200016a565b60008155849350600101620003ec565b9091508190620003de565b634e487b7160e01b600052602260045260246000fd5b91607f169162000154565b634e487b7160e01b600052604160045260246000fd5b01519050388062000121565b600360009081527fc2575a0e9e593c00f959f8c92f12db2869c3395a3b0502d05e2516446f71f85b9350601f198516905b818110620004cb5750908460019594939210620004b1575b505050811b0160035562000137565b015160001960f88460031b161c19169055388080620004a2565b929360206001819287860151815501950193016200048a565b60036000529091507fc2575a0e9e593c00f959f8c92f12db2869c3395a3b0502d05e2516446f71f85b601f840160051c810191602085106200054e575b90601f859493920160051c01905b8181106200053e575062000108565b600081558493506001016200052f565b909150819062000521565b91607f1691620000f2565b600080fd5b604081019081106001600160401b038211176200043757604052565b601f909101601f19168101906001600160401b038211908210176200043757604052565b51906001600160a01b03821682036200056457565b906040516020908181019063313ce56760e01b825260048152620005e28162000569565b5160009485928392916001600160a01b03165afa3d1562000691573d906001600160401b0382116200067d576040519162000627601f8201601f191685018462000585565b82523d858484013e5b8062000671575b62000643575b50508190565b81818051810103126200066d57015160ff8111156200066357806200063d565b6001925060ff1690565b8380fd5b50818151101562000637565b634e487b7160e01b85526041600452602485fd5b6060906200063056fe608060408181526004918236101561001657600080fd5b600092833560e01c918263012caae1146118d45750816301e1d114146118b757816304336bb31461189857816306fdde03146117a357816307a2d13a146113d6578163095ea7b3146116f95781630a28a477146116d957816318160ddd146116ba57816323b872dd1461167d5781632630c12f14611654578163313ce567146115f857816338d52e0f146115b45781633bc725c31461152e5781633f4ba83a146114c4578163402d267d146105a857816343f68a49146114345781634ac032be146113db5781634cdad506146113d65781635312ea8e146112605781635c975abb1461123c578163655d8dec146112045781636e553f651461111f5781636e98928b14610d4a5781636f019e4b14610d2157816370a08231146104c8578163715018a614610cc35781637183941814610ca45781637a62a89514610c0f5781637e393cbe14610be65781638456cb5914610b8b5781638da5cb5b14610b625781638ecf8a59146105045781638f8c8aee14610b435781638f9bcee814610b2657816394bf804d14610af157816395d89b41146109ee578163a83f5152146109c5578163a9059cbb14610994578163aab9ff9a14610977578163b25a7a18146108f2578163b3d7f6b9146108d2578163b460af941461069f578163b63c44e714610680578163ba087652146105f3578163c2752e43146105cc578163c4aa7395146105ad578163c63d75b6146105a8578163c6e6f59214610427578163cc00967914610589578163cd4c73a71461055c578163ce96cb7714610523578163cfc9cd6514610504578163d905777e146104c8578163dd62ed3e1461047a578163dfe608351461042c578163ef8b30f714610427578163f100989914610403578163f1b1c3751461036d578163f2fde38b146102d8575063fd967f47146102b957600080fd5b346102d457816003193601126102d457602090516127108152f35b5080fd5b905034610369576020366003190112610369576102f3611968565b906102fc611a0d565b6001600160a01b03918216928315610353575050600554826bffffffffffffffffffffffff60a01b821617600555167f8be0079c531659141344cd1fd0a4f28419497f9722a3daafe3b4186f6b6457e0600080a380f35b51631e4fbdf760e01b8152908101849052602490fd5b8280fd5b9050346103695760203660031901126103695780359061038b6120ff565b610393611a0d565b60ff60075460a81c16156103f55781156103e7575090816103d47fc2e390771ee2b6cad5cb1244f940b577352851c4d635277c314747be299eba4b9361221b565b82519182526020820152a1600160065580f35b825163162908e360e11b8152fd5b825163666f681360e01b8152fd5b5050346102d457816003193601126102d4576020906104206121e8565b9051908152f35b6119ef565b905034610369576020366003190112610369577f514bf0f65cb844af227a51e123dbb8b5be8fac221f8feeb9d20591e81c46e50b91602091359061046e611a0d565b8160085551908152a180f35b5050346102d457806003193601126102d457602091610497611968565b826104a061197e565b6001600160a01b03928316845260018652922091166000908152908352819020549051908152f35b5050346102d45760203660031901126102d4576020906104206104e9611968565b6001600160a01b031660009081526020819052604090205490565b5050346102d457816003193601126102d4576020906013549051908152f35b5050346102d45760203660031901126102d4576020916104209082906001600160a01b0361054f611968565b1681528085522054611cdd565b5050346102d457816003193601126102d457600754905160089190911c6001600160a01b03168152602090f35b5050346102d457816003193601126102d457602090600e549051908152f35b611994565b5050346102d457816003193601126102d4576020906009549051908152f35b5050346102d457816003193601126102d45760209060ff60075460a81c1690519015158152f35b9050823461067d578290610606366119ba565b6001600160a01b038116845260208490529590922054909493908086116106485750508361064291610639602096611cdd565b94859133611e27565b51908152f35b9251632e52afbb60e21b81526001600160a01b0390941690840190815260208101949094525060408301529081906060010390fd5b80fd5b5050346102d457816003193601126102d4576020906008549051908152f35b91905034610369576106b0366119ba565b939091946106bc6120ff565b6106c46120e1565b85600a5480610898575b50600b548061082f575b50508360ff60075460a81c16610768575b6001600160a01b0386168252602082905290205461070690611cdd565b808611610733575050610728908461071f602096611c59565b94859233611e27565b600160065551908152f35b9251633fa733bb60e21b81526001600160a01b0390941690840190815260208101949094525060408301529081906060010390fd5b516370a0823160e01b815230838201526020816024817f00000000000000000000000000000000000000000000000000000000000000006001600160a01b03165afa9081156108255790859183916107ea575b5091828861070694106107d1575b5091506106e9565b6107de6107e3918a612122565b61221b565b50386107c9565b9150506020813d821161081d575b8161080560209383611a63565b81010312610818575184906107066107bb565b600080fd5b3d91506107f8565b85513d84823e3d90fd5b8197506108426127109161084a9361212f565b048097612122565b9580610857575b806106d8565b600d5461089291906001600160a01b03908116907f000000000000000000000000000000000000000000000000000000000000000016611f62565b38610851565b6001600160a01b0387168352600c602052858320546108b79042612122565b106108c257386106ce565b8451635ca831e160e11b81528390fd5b82843461067d57602036600319011261067d575061042060209235611cb2565b9050346103695760203660031901126103695761090d611968565b610915611a0d565b6001600160a01b03169182156109425750506bffffffffffffffffffffffff60a01b600d541617600d5580f35b906020606492519162461bcd60e51b8352820152600f60248201526e496e76616c6964206164647265737360881b6044820152fd5b5050346102d457816003193601126102d4576020906104206123dd565b5050346102d457806003193601126102d4576020906109be6109b4611968565b6024359033611a85565b5160018152f35b5050346102d457816003193601126102d45760115490516001600160a01b039091168152602090f35b8383346102d457816003193601126102d457805191809380549160019083821c92828516948515610ae7575b6020958686108114610ad457858952908115610ab05750600114610a58575b610a548787610a4a828c0383611a63565b51918291826118f9565b0390f35b81529295507f8a35acfbc15ff81a39ae7d344fd709f28e8600b4aa8c65c6b64bfe7fe36bd19b5b828410610a9d5750505082610a5494610a4a92820101948680610a39565b8054868501880152928601928101610a7f565b60ff19168887015250505050151560051b8301019250610a4a82610a548680610a39565b634e487b7160e01b845260228352602484fd5b93607f1693610a1a565b905034610369578160031936011261036957602092503590610642610b1461197e565b92610b1e81611cb2565b809433611d08565b5050346102d457816003193601126102d457602090516101f48152f35b5050346102d457816003193601126102d457602090600f549051908152f35b5050346102d457816003193601126102d45760055490516001600160a01b039091168152602090f35b5050346102d457816003193601126102d45760207f62e78cea01bee320cd4e420270b5ea74000d11b0c9f74754ebdbfc544b05a25891610bc9611a0d565b610bd16120e1565b600160ff19600754161760075551338152a180f35b833461067d578060031936011261067d57610bff6120ff565b610c07612142565b600160065580f35b8383346102d457806003193601126102d457823560243593610c2f611a0d565b6103e88511610c7257507f7c532154661afd5f579d75e0bcfec458372e7a0127bbfaecb32e275ac844b683929381600a5580600b5582519182526020820152a180f35b606490602084519162461bcd60e51b8352820152600c60248201526b08ccaca40e8dede40d0d2ced60a31b6044820152fd5b5050346102d457816003193601126102d457602090600a549051908152f35b833461067d578060031936011261067d57610cdc611a0d565b600580546001600160a01b031981169091556000906001600160a01b03167f8be0079c531659141344cd1fd0a4f28419497f9722a3daafe3b4186f6b6457e08280a380f35b5050346102d457816003193601126102d45760105490516001600160a01b039091168152602090f35b8383346102d457602080600319360112610369578335610d686120ff565b610d70611a0d565b60075460ff8160a81c161561110f5781156110ff5783516370a0823160e01b815230878201526024916001600160a01b03917f00000000000000000000000000000000000000000000000000000000000000008316919086818681865afa9081156110b4579086918a916110ce575b50106110be57829060081c168651636eb1769f60e11b8152308a82015281858201528681604481865afa9081156110b457928792869288958c91611079575b5085610e2991611b63565b8a5163095ea7b360e01b8187018181526001600160a01b03851696830196875260208701939093529490929186918e9190610e7190869060400103601f198101875286611a63565b84519082875af18c513d8261105d575b505015610ff6575b5050601154895192835285166001600160a01b03168b83019081526020810194909452909283919082908b90829060400103925af18015610fec57610fbf575b5060115416803b15610fbb578580918387518094819363140e25ad60e31b8352888d8401525af19081610fa8575b50610f0c578351636794231b60e11b81528690fd5b64e8d4a5100082029564e8d4a50fff1983880401610f975750507ffd49f7c4c3b1ecffac09696c009c6b5d778c82176185e2da254292b915d8340f8386610f777fa248d81b377afe8736fe397f5a9f8f0d7c581e67ff6ae4037df29a672a92133b9798601354611b63565b60135581519084825285820152a1825191818352820152a1600160065580f35b634e487b7160e01b86526011905284fd5b610fb490969196611a39565b9487610ef7565b8580fd5b610fde90853d8711610fe5575b610fd68183611a63565b810190612203565b5087610ec9565b503d610fcc565b86513d89823e3d90fd5b919350919350885190848983015286820152896044820152604481526080810181811067ffffffffffffffff82111761104b5787949261103e8a9593611044938d5284611fa5565b82611fa5565b8b80610e89565b634e487b7160e01b8b5260418c52868bfd5b9091506110715750823b15155b8e80610e81565b60011461106a565b9350509290935081813d83116110ad575b6110948183611a63565b810103126110a9575185928792869285610e1e565b8880fd5b503d61108a565b88513d8b823e3d90fd5b8651631e9acf1760e31b81528990fd5b809250888092503d83116110f8575b6110e78183611a63565b810103126110a9578590518b610ddf565b503d6110dd565b835163162908e360e11b81528690fd5b835163666f681360e01b81528690fd5b8383346102d457806003193601126102d457823561113b61197e565b926111446120ff565b61114c6120e1565b61115d82611158612451565b611b63565b600854106111f4576020945061117282611c87565b9361117f85848333611d08565b6001600160a01b03168152600c8552829020429055600754829060a81c60ff16806111eb575b6111b7575b5050600160065551908152f35b7fa248d81b377afe8736fe397f5a9f8f0d7c581e67ff6ae4037df29a672a92133b9181519081528486820152a183816111aa565b508115156111a5565b825163e4bac01b60e01b81528590fd5b5050346102d45760203660031901126102d45760209181906001600160a01b0361122c611968565b168152600c845220549051908152f35b5050346102d457816003193601126102d45760209060ff6007541690519015158152f35b8383346102d45760203660031901126102d45782359061127e6120ff565b81156113a35761128d82611c59565b913384528360205282828520541061136a576101f481026101f3198282040161135757906112ec6112e56127107f56da9a5ae0bcf6e7c3fdd78a10550e7d0458de1c39bfb7f6e96a3e92dd344a689594048093612122565b9433611ec3565b6001600160a01b03817f00000000000000000000000000000000000000000000000000000000000000008216611323873383611f62565b81611341575b505050815193845260208401523392a2600160065580f35b61134f92600d541690611f62565b858181611329565b634e487b7160e01b855260118652602485fd5b815162461bcd60e51b81526020818701526013602482015272496e73756666696369656e742073686172657360681b6044820152606490fd5b5162461bcd60e51b8152602081850152600e60248201526d125b9d985b1a5908185b5bdd5b9d60921b6044820152606490fd5b611942565b8383346102d457816003193601126102d4577f00000000000000000000000000000000000000000000000000000000000000009051918382101561142157602083838152f35b634e487b7160e01b815260218452602490fd5b9190503461036957602036600319011261036957813591611453611a0d565b6101f4831161148e5750816020917f0e327decf8cd0c8c1ff089972fca9360ed4f35e93bc2c9c28a9ea0dfb428ea919360095551908152a180f35b6020606492519162461bcd60e51b835282015260116024820152700a6d8d2e0e0c2ceca40e8dede40d0d2ced607b1b6044820152fd5b9050346103695782600319360112610369576114de611a0d565b6007549060ff821615611520575060ff1916600755513381527f5db9ee0a495bf2e6ff9c91a7834c1ba4fdd244a5e8aa4e537bd38aeae4b073aa90602090a180f35b8251638dfc202b60e01b8152fd5b833461067d57602036600319011261067d57611548611968565b611550611a0d565b60078054610100600160b01b031916600883901b610100600160a81b0316176001600160a01b039290921680151560a81b60ff60a81b169290921790557f6d70c8cd6b23bde6c51ca79816ad4d35c700845e43feefc3e65ca0d9cc6f45218280a280f35b5050346102d457816003193601126102d457517f00000000000000000000000000000000000000000000000000000000000000006001600160a01b03168152602090f35b8383346102d457816003193601126102d45760ff7f0000000000000000000000000000000000000000000000000000000000000000169160ff8311611641576020838351908152f35b634e487b7160e01b815260118452602490fd5b5050346102d457816003193601126102d45760125490516001600160a01b039091168152602090f35b5050346102d45760603660031901126102d4576020906109be61169e611968565b6116a661197e565b604435916116b5833383611b86565b611a85565b5050346102d457816003193601126102d4576020906002549051908152f35b82843461067d57602036600319011261067d575061042060209235611c59565b905034610369578160031936011261036957611713611968565b60243590331561178c576001600160a01b031691821561177557508083602095338152600187528181208582528752205582519081527f8c5be1e5ebec7d5bd14f71427d1e84f3dd0314c0f7b2291e5b200ac8c7c3b925843392a35160018152f35b8351634a1406b160e11b8152908101859052602490fd5b835163e602df0560e01b8152808401869052602490fd5b91905034610369578260031936011261036957805191836003549060019082821c92828116801561188e575b602095868610821461187b57508488529081156118595750600114611800575b610a548686610a4a828b0383611a63565b929550600383527fc2575a0e9e593c00f959f8c92f12db2869c3395a3b0502d05e2516446f71f85b5b8284106118465750505082610a5494610a4a9282010194386117ef565b8054868501880152928601928101611829565b60ff191687860152505050151560051b8301019250610a4a82610a54386117ef565b634e487b7160e01b845260229052602483fd5b93607f16936117cf565b5050346102d457816003193601126102d457602090600b549051908152f35b5050346102d457816003193601126102d457602090610420612451565b8490346102d457816003193601126102d457600d546001600160a01b03168152602090f35b6020808252825181830181905290939260005b82811061192e57505060409293506000838284010152601f8019910116010190565b81810186015184820160400152850161190c565b34610818576020366003190112610818576020611960600435611cdd565b604051908152f35b600435906001600160a01b038216820361081857565b602435906001600160a01b038216820361081857565b34610818576020366003190112610818576119ad611968565b5060206040516000198152f35b606090600319011261081857600435906001600160a01b03906024358281168103610818579160443590811681036108185790565b34610818576020366003190112610818576020611960600435611c87565b6005546001600160a01b03163303611a2157565b60405163118cdaa760e01b8152336004820152602490fd5b67ffffffffffffffff8111611a4d57604052565b634e487b7160e01b600052604160045260246000fd5b90601f8019910116810190811067ffffffffffffffff821117611a4d57604052565b916001600160a01b03808416928315611b4a5716928315611b315760009083825281602052604082205490838210611aff575091604082827fddf252ad1be2c89b69c2b068fc378daa952ba7f163c4a11628f55a4df523b3ef958760209652828652038282205586815220818154019055604051908152a3565b60405163391434e360e21b81526001600160a01b03919091166004820152602481019190915260448101839052606490fd5b60405163ec442f0560e01b815260006004820152602490fd5b604051634b637e8f60e11b815260006004820152602490fd5b91908201809211611b7057565b634e487b7160e01b600052601160045260246000fd5b9160018060a01b038093169160009383855260016020526040938486209183169182875260205284862054926000198410611bc5575b50505050505050565b848410611c2957508015611c11578115611bf957855260016020528385209085526020520391205538808080808080611bbc565b8451634a1406b160e11b815260048101879052602490fd5b845163e602df0560e01b815260048101879052602490fd5b8551637dc7a0d960e11b81526001600160a01b039190911660048201526024810184905260448101859052606490fd5b60025460018101809111611b7057611c6f612451565b9060018201809211611b7057611c849261200d565b90565b60025460018101809111611b7057611c9d612451565b9060018201809211611b7057611c8492612043565b611cba612451565b60018101809111611b70576002549060018201809211611b7057611c849261200d565b611ce5612451565b60018101809111611b70576002549060018201809211611b7057611c8492612043565b604080516323b872dd60e01b60208201526001600160a01b0392831660248201819052306044830152606480830187905282529491939192919060a081019067ffffffffffffffff821181831017611a4d57611d88918652837f000000000000000000000000000000000000000000000000000000000000000016611fa5565b16938415611e0f579081611dc07fdcbc1c05240f31ff3ad067ef1ee35ce4997762752e3a095284754544f4c709d79493600254611b63565b600255856000526000602052826000208181540190558560007fddf252ad1be2c89b69c2b068fc378daa952ba7f163c4a11628f55a4df523b3ef60208651858152a382519182526020820152a3565b825163ec442f0560e01b815260006004820152602490fd5b6001600160a01b0380841695818316947ffbde797d201c681b91056529119e0b02407c7bb96a4a2c75c01fc9667232c8db94604094909291611e7691839190828c8b03611eb2575b5050611ec3565b611ea38783857f000000000000000000000000000000000000000000000000000000000000000016611f62565b835196875260208701521693a4565b611ebc9183611b86565b3882611e6f565b906001600160a01b038216908115611b4a5760009282845283602052604084205490828210611f305750817fddf252ad1be2c89b69c2b068fc378daa952ba7f163c4a11628f55a4df523b3ef926020928587528684520360408620558060025403600255604051908152a3565b60405163391434e360e21b81526001600160a01b03919091166004820152602481019190915260448101829052606490fd5b60405163a9059cbb60e01b60208201526001600160a01b03929092166024830152604480830193909352918152611fa391611f9e606483611a63565b611fa5565b565b906000602091828151910182855af115612001576000513d611ff857506001600160a01b0381163b155b611fd65750565b604051635274afe760e01b81526001600160a01b039091166004820152602490fd5b60011415611fcf565b6040513d6000823e3d90fd5b91612019818385612043565b91811561202d57611c849309151590611b63565b634e487b7160e01b600052601260045260246000fd5b909160001983830992808302928380861095039480860395146120d357848311156120ba579082910981600003821680920460028082600302188083028203028083028203028083028203028083028203028083028203028092029003029360018380600003040190848311900302920304170290565b82634e487b71600052156003026011186020526024601cfd5b50508092501561202d570490565b60ff600754166120ed57565b60405163d93c066560e01b8152600490fd5b600260065414612110576002600655565b604051633ee5aeb560e01b8152600490fd5b91908203918211611b7057565b81810292918115918404141715611b7057565b60ff60075460a81c16156121d65761215c600f5442612122565b80156121d35761218a64496cebb80091612185612177612451565b61217f6121e8565b9061212f565b61212f565b04806121935750565b6020816121c37fcfad015a1c9077dd207d62466bb2fe714162b7bda0cca54bb619a967837102ae93600e54611b63565b600e5542600f55604051908152a1565b50565b60405163666f681360e01b8152600490fd5b60ff60075460a81c16156121fe57611c84612355565b600090565b90816020910312610818575180151581036108185790565b64e8d4a510009081810290808204831490151715611b705760135480821161234d575b506010546011546040805163095ea7b360e01b81526001600160a01b039283166004820152602481018590529094928216919060208180604481010381600080975af1801561234357612325575b5060115416803b156102d4578190602486518094819363db006a7560e01b83528860048401525af19081612316575b506122d1578251636794231b60e11b8152600490fd5b9181926123017f0e406aad16cc25060a611a75f6f52784967b3f2bf9ce933b1bee9e6e135d028193601354612122565b6013558304928151908152836020820152a190565b61231f90611a39565b386122bb565b61233c9060203d8111610fe557610fd68183611a63565b503861228c565b86513d85823e3d90fd5b90503861223e565b601254604051634c6afee560e11b815290602090829060049082906001600160a01b03165afa600091816123aa575b5061239057506103e890565b670de0b6b3a7640000106123a45761032090565b6103e890565b90916020823d82116123d5575b816123c460209383611a63565b8101031261067d5750519038612384565b3d91506123b7565b601254604051634c6afee560e11b815290602090829060049082906001600160a01b03165afa6000918161241e575b50611c845750670de0b6b3a764000090565b90916020823d8211612449575b8161243860209383611a63565b8101031261067d575051903861240c565b3d915061242b565b612459612477565b60135480612465575090565b9064e8d4a51000611c84920490611b63565b6040516370a0823160e01b81523060048201526020816024817f00000000000000000000000000000000000000000000000000000000000000006001600160a01b03165afa9081156120015760009161251d575b5060ff60075460a81c166124e557600e54611c8491611b63565b611c849061115864496cebb800612512612501600f5442612122565b61218561250c6121e8565b8661212f565b0491600e5490611b63565b906020823d8211612546575b8161253660209383611a63565b8101031261067d575051386124cb565b3d915061252956fea26469706673582212201f6696f32fba95eedd0086a06452ec96ccf52f9a99e77baa49c577a1aa44b64564736f6c63430008140033",
  "linkReferences": {},
  "deployedLinkReferences": {}
}