{
  "_format": "hh-sol-artifact-1",
  "contractName": "SweepKeeper",
  "sourceName": "contracts/src/SweepKeeper.sol",
  "abi": [
    {
      "inputs": [
        {
          "internalType": "uint256",
          "name": "_minimumSpendableBalance",
          "type": "uint256"
        }
      ],
      "stateMutability": "nonpayable",
      "type": "constructor"
    },
    {
      "inputs": [],
      "name": "AlreadyAuthorized",
      "type": "error"
    },
    {
      "inputs": [],
      "name": "ContractPaused",
      "type": "error"
    },
    {
      "inputs": [],
      "name": "EnforcedPause",
      "type": "error"
    },
    {
      "inputs": [],
      "name": "ExpectedPause",
      "type": "error"
    },
    {
      "inputs": [],
      "name": "InsufficientBalance",
      "type": "error"
    },
    {
      "inputs": [],
      "name": "InvalidBucketAddress",
      "type": "error"
    },
    {
      "inputs": [],
      "name": "InvalidMinimumBalance",
      "type": "error"
    },
    {
      "inputs": [],
      "name": "NotAuthorized",
      "type": "error"
    },
    {
      "inputs": [],
      "name": "NotAuthorizedYet",
      "type": "error"
    },
    {
      "inputs": [],
      "name": "NotMonthEnd",
      "type": "error"
    },
    {
      "inputs": [
        {
          "internalType": "address",
          "name": "owner",
          "type": "address"
        }
      ],
      "name": "OwnableInvalidOwner",
      "type": "error"
    },
    {
      "inputs": [
        {
          "internalType": "address",
          "name": "account",
          "type": "address"
        }
      ],
      "name": "OwnableUnauthorizedAccount",
      "type": "error"
    },
    {
      "inputs": [],
      "name": "ReentrancyGuardReentrantCall",
      "type": "error"
    },
    {
      "inputs": [],
      "name": "TransferFailed",
      "type": "error"
    },
    {
      "anonymous": false,
      "inputs": [
        {
          "indexed": true,
          "internalType": "address",
          "name": "user",
          "type": "address"
        },
        {
          "indexed": false,
          "internalType": "bool",
          "name": "authorized",
          "type": "bool"
        }
      ],
      "name": "AuthorizationChanged",
      "type": "event"
    },
    {
      "anonymous": false,
      "inputs": [
        {
          "indexed": false,
          "internalType": "address",
          "name": "bills",
          "type": "address"
        },
        {
          "indexed": false,
          "internalType": "address",
          "name": "savings",
          "type": "address"
        },
        {
          "indexed": false,
          "internalType": "address",
          "name": "growth",
          "type": "address"
        },
        {
          "indexed": false,
          "internalType": "address",
          "name": "spendable",
          "type": "address"
        }
      ],
      "name": "BucketAddressesUpdated",
      "type": "event"
    },
    {
      "anonymous": false,
      "inputs": [
        {
          "indexed": false,
          "internalType": "uint256",
          "name": "newMinimum",
          "type": "uint256"
        }
      ],
      "name": "GlobalMinimumBalanceUpdated",
      "type": "event"
    },
    {
      "anonymous": false,
      "inputs": [
        {
          "indexed": false,
          "internalType": "uint256",
          "name": "newMinimum",
          "type": "uint256"
        }
      ],
      "name": "MinimumBalanceUpdated",
      "type": "event"
    },
    {
      "anonymous": false,
      "inputs": [
        {
          "indexed": true,
          "internalType": "address",
          "name": "previousOwner",
          "type": "address"
        },
        {
          "indexed": true,
          "internalType": "address",
          "name": "newOwner",
          "type": "address"
        }
      ],
      "name": "OwnershipTransferred",
      "type": "event"
    },
    {
      "anonymous": false,
      "inputs": [
        {
          "indexed": false,
          "internalType": "address",
          "name": "account",
          "type": "address"
        }
      ],
      "name": "Paused",
      "type": "event"
    },
    {
      "anonymous": false,
      "inputs": [
        {
          "indexed": true,
          "internalType": "address",
          "name": "user",
          "type": "address"
        },
        {
          "indexed": false,
          "internalType": "uint256",
          "name": "amount",
          "type": "uint256"
        },
        {
          "indexed": true,
          "internalType": "address",
          "name": "fromBucket",
          "type": "address"
        },
        {
          "indexed": true,
          "internalType": "address",
          "name": "toBucket",
          "type": "address"
        },
        {
          "indexed": false,
          "internalType": "uint256",
          "name": "expectedYield",
          "type": "uint256"
        },
        {
          "indexed": false,
          "internalType": "uint256",
          "name": "timestamp",
          "type": "uint256"
        }
      ],
      "name": "SweepExecuted",
      "type": "event"
    },
    {
      "anonymous": false,
      "inputs": [
        {
          "indexed": false,
          "internalType": "address",
          "name": "account",
          "type": "address"
        }
      ],
      "name": "Unpaused",
      "type": "event"
    },
    {
      "anonymous": false,
      "inputs": [
        {
          "indexed": true,
          "internalType": "address",
          "name": "user",
          "type": "address"
        },
        {
          "indexed": false,
          "internalType": "uint256",
          "name": "newMinimum",
          "type": "uint256"
        }
      ],
      "name": "UserMinimumBalanceUpdated",
      "type": "event"
    },
    {
      "inputs": [],
      "name": "authorizeAutoSweep",
      "outputs": [],
      "stateMutability": "nonpayable",
      "type": "function"
    },
    {
      "inputs": [],
      "name": "billsBucket",
      "outputs": [
        {
          "internalType": "address",
          "name": "",
          "type": "address"
        }
      ],
      "stateMutability": "view",
      "type": "function"
    },
    {
      "inputs": [
        {
          "internalType": "address",
          "name": "user",
          "type": "address"
        }
      ],
      "name": "checker",
      "outputs": [
        {
          "internalType": "bool",
          "name": "canExec",
          "type": "bool"
        },
        {
          "internalType": "bytes",
          "name": "execPayload",
          "type": "bytes"
        }
      ],
      "stateMutability": "view",
      "type": "function"
    },
    {
      "inputs": [
        {
          "internalType": "address",
          "name": "user",
          "type": "address"
        }
      ],
      "name": "executeSweep",
      "outputs": [],
      "stateMutability": "nonpayable",
      "type": "function"
    },
    {
      "inputs": [],
      "name": "getDayOfMonth",
      "outputs": [
        {
          "internalType": "uint256",
          "name": "",
          "type": "uint256"
        }
      ],
      "stateMutability": "view",
      "type": "function"
    },
    {
      "inputs": [],
      "name": "getDaysInMonth",
      "outputs": [
        {
          "internalType": "uint256",
          "name": "",
          "type": "uint256"
        }
      ],
      "stateMutability": "view",
      "type": "function"
    },
    {
      "inputs": [],
      "name": "getHighestYieldBucket",
      "outputs": [
        {
          "internalType": "address",
          "name": "",
          "type": "address"
        },
        {
          "internalType": "uint256",
          "name": "",
          "type": "uint256"
        }
      ],
      "stateMutability": "view",
      "type": "function"
    },
    {
      "inputs": [
        {
          "internalType": "address",
          "name": "user",
          "type": "address"
        }
      ],
      "name": "getLastSweepTimestamp",
      "outputs": [
        {
          "internalType": "uint256",
          "name": "",
          "type": "uint256"
        }
      ],
      "stateMutability": "view",
      "type": "function"
    },
    {
      "inputs": [],
      "name": "getMonth",
      "outputs": [
        {
          "internalType": "uint256",
          "name": "",
          "type": "uint256"
        }
      ],
      "stateMutability": "view",
      "type": "function"
    },
    {
      "inputs": [
        {
          "internalType": "address",
          "name": "user",
          "type": "address"
        }
      ],
      "name": "getSweepableAmount",
      "outputs": [
        {
          "internalType": "uint256",
          "name": "",
          "type": "uint256"
        }
      ],
      "stateMutability": "view",
      "type": "function"
    },
    {
      "inputs": [],
      "name": "getTimeUntilNextSweep",
      "outputs": [
        {
          "internalType": "uint256",
          "name": "",
          "type": "uint256"
        }
      ],
      "stateMutability": "view",
      "type": "function"
    },
    {
      "inputs": [
        {
          "internalType": "address",
          "name": "user",
          "type": "address"
        }
      ],
      "name": "getUserMinimumBalance",
      "outputs": [
        {
          "internalType": "uint256",
          "name": "",
          "type": "uint256"
        }
      ],
      "stateMutability": "view",
      "type": "function"
    },
    {
      "inputs": [],
      "name": "getYear",
      "outputs": [
        {
          "internalType": "uint256",
          "name": "",
          "type": "uint256"
        }
      ],
      "stateMutability": "view",
      "type": "function"
    },
    {
      "inputs": [],
      "name": "globalMinimumBalance",
      "outputs": [
        {
          "internalType": "uint256",
          "name": "",
          "type": "uint256"
        }
      ],
      "stateMutability": "view",
      "type": "function"
    },
    {
      "inputs": [],
      "name": "growthBucket",
      "outputs": [
        {
          "internalType": "address",
          "name": "",
          "type": "address"
        }
      ],
      "stateMutability": "view",
      "type": "function"
    },
    {
      "inputs": [
        {
          "internalType": "address",
          "name": "user",
          "type": "address"
        }
      ],
      "name": "isAuthorized",
      "outputs": [
        {
          "internalType": "bool",
          "name": "",
          "type": "bool"
        }
      ],
      "stateMutability": "view",
      "type": "function"
    },
    {
      "inputs": [],
      "name": "isMonthEnd",
      "outputs": [
        {
          "internalType": "bool",
          "name": "",
          "type": "bool"
        }
      ],
      "stateMutability": "view",
      "type": "function"
    },
    {
      "inputs": [],
      "name": "isPaused",
      "outputs": [
        {
          "internalType": "bool",
          "name": "",
          "type": "bool"
        }
      ],
      "stateMutability": "view",
      "type": "function"
    },
    {
      "inputs": [],
      "name": "lastSweepTimestamp",
      "outputs": [
        {
          "internalType": "uint256",
          "name": "",
          "type": "uint256"
        }
      ],
      "stateMutability": "view",
      "type": "function"
    },
    {
      "inputs": [],
      "name": "minimumSpendableBalance",
      "outputs": [
        {
          "internalType": "uint256",
          "name": "",
          "type": "uint256"
        }
      ],
      "stateMutability": "view",
      "type": "function"
    },
    {
      "inputs": [],
      "name": "owner",
      "outputs": [
        {
          "internalType": "address",
          "name": "",
          "type": "address"
        }
      ],
      "stateMutability": "view",
      "type": "function"
    },
    {
      "inputs": [],
      "name": "pause",
      "outputs": [],
      "stateMutability": "nonpayable",
      "type": "function"
    },
    {
      "inputs": [],
      "name": "paused",
      "outputs": [
        {
          "internalType": "bool",
          "name": "",
          "type": "bool"
        }
      ],
      "stateMutability": "view",
      "type": "function"
    },
    {
      "inputs": [],
      "name": "renounceOwnership",
      "outputs": [],
      "stateMutability": "nonpayable",
      "type": "function"
    },
    {
      "inputs": [],
      "name": "revokeAutoSweep",
      "outputs": [],
      "stateMutability": "nonpayable",
      "type": "function"
    },
    {
      "inputs": [],
      "name": "savingsBucket",
      "outputs": [
        {
          "internalType": "address",
          "name": "",
          "type": "address"
        }
      ],
      "stateMutability": "view",
      "type": "function"
    },
    {
      "inputs": [
        {
          "internalType": "address",
          "name": "_bills",
          "type": "address"
        },
        {
          "internalType": "address",
          "name": "_savings",
          "type": "address"
        },
        {
          "internalType": "address",
          "name": "_growth",
          "type": "address"
        },
        {
          "internalType": "address",
          "name": "_spendable",
          "type": "address"
        }
      ],
      "name": "setBucketAddresses",
      "outputs": [],
      "stateMutability": "nonpayable",
      "type": "function"
    },
    {
      "inputs": [
        {
          "internalType": "uint256",
          "name": "minimum",
          "type": "uint256"
        }
      ],
      "name": "setGlobalMinimumBalance",
      "outputs": [],
      "stateMutability": "nonpayable",
      "type": "function"
    },
    {
      "inputs": [
        {
          "internalType": "uint256",
          "name": "_minimum",
          "type": "uint256"
        }
      ],
      "name": "setMinimumBalance",
      "outputs": [],
      "stateMutability": "nonpayable",
      "type": "function"
    },
    {
      "inputs": [
        {
          "internalType": "uint256",
          "name": "minimum",
          "type": "uint256"
        }
      ],
      "name": "setUserMinimumBalance",
      "outputs": [],
      "stateMutability": "nonpayable",
      "type": "function"
    },
    {
      "inputs": [],
      "name": "spendableBucket",
      "outputs": [
        {
          "internalType": "address",
          "name": "",
          "type": "address"
        }
      ],
      "stateMutability": "view",
      "type": "function"
    },
    {
      "inputs": [
        {
          "internalType": "address",
          "name": "newOwner",
          "type": "address"
        }
      ],
      "name": "transferOwnership",
      "outputs": [],
      "stateMutability": "nonpayable",
      "type": "function"
    },
    {
      "inputs": [],
      "name": "unpause",
      "outputs": [],
      "stateMutability": "nonpayable",
      "type": "function"
    }
  ],
  "bytecode": "0x6080346100c257601f61153938819003918201601f19168301916001600160401b038311848410176100c7578084926020946040528339810103126100c2575133156100a95760008054336001600160a01b0319821681178355604051939290916001600160a01b0316907f8be0079c531659141344cd1fd0a4f28419497f9722a3daafe3b4186f6b6457e09080a3600180558060065560075542600c5561145b90816100de8239f35b604051631e4fbdf760e01b815260006004820152602490fd5b600080fd5b634e487b7160e01b600052604160045260246000fdfe6040608081526004908136101561001557600080fd5b600091823560e01c908163016c683c14610d2a578163045a835514610d0157816314a094a714610cdb57816319d4ad8014610cbc5781631d8f789214610c905781632a1b754614610c4d5781633446e4b414610bfb57816339b6218c14610b9a5781633f4ba83a14610b305781635c975abb146108cd5781635ef462b514610af85781636787a78e14610ad2578163715018a614610a7857816379217cb014610a0057816379ae525a146109da57816384245101146109bc5781638456cb59146109615781638d2abb34146109385781638da5cb5b146109105781639b04cd1c146108f1578163b187bd26146108cd578163b5761420146108a1578163b76c81a214610825578163beb34d1a146107fc578163c0e94a60146107dd578163cbfe0fa8146107b9578163e36ad4411461069c578163eb8bdf7e14610673578163f0e3a2ed146105fe578163f2fde38b14610577578163f6dfc2f1146101f957508063fd08921b146101ce5763fe9fbb801461018e57600080fd5b346101ca5760203660031901126101ca5760209160ff9082906001600160a01b036101b7610da3565b1681526003855220541690519015158152f35b5080fd5b50346101ca57816003193601126101ca576020906101f06201518042046113b9565b50509051908152f35b919050346105735760208060031936011261056f57610216610da3565b9060026001541461056057600260015561022e61139b565b6008546001600160a01b0393908416158015610554575b8015610548575b801561053c575b61052d57838316928387526003835260ff82882054161561051d57610276610fe2565b1561050d57610284906111a5565b9182156104fd5761029361100e565b959086850296858804036104ea5742600c55858952600d835242848a205581600b5416838660648b8d89519586948593632d182be560e21b85528401523060248401528c60448401525af1908115610424578a916104bd575b50156104ad57878383600b54168651928380926338d52e0f60e01b82525afa8a81156104a25785918482878e8c959461045b575b8b5163095ea7b360e01b81526001600160a01b039094169084019081526020810195909552919550859384929083906040015b0393165af18015610424579083929161042e575b5016968351636e553f6560e01b8152858282015286602482015283816044818d8d5af1908115610424578a916103f3575b50156103e55750917fee6c71311e14f2eb7b50ab01cdf6f14ac51b0c7dc6b056bb190804e51c69db739391612710606094600b541697835194855204908301524290820152a46001805580f35b83516312171d8360e31b8152fd5b90508381813d831161041d575b61040a8183610df0565b81010312610419575138610398565b8980fd5b503d610400565b85513d8c823e3d90fd5b61044d90853d8711610454575b6104458183610df0565b810190610e12565b5038610367565b503d61043b565b50505050505081813d831161049b575b6104758183610df0565b81010312610419575189838216820361049857868a848793876103539693610320565b80fd5b503d61046b565b8651903d90823e3d90fd5b83516312171d8360e31b81528890fd5b90508381813d83116104e3575b6104d48183610df0565b810103126104195751386102ec565b503d6104ca565b634e487b7160e01b895260118852602489fd5b8151631e9acf1760e31b81528690fd5b815163ea188f7360e01b81528690fd5b815163ea8e4eb560e01b81528690fd5b5163599238df60e11b81528490fd5b5083600b541615610253565b5083600a54161561024c565b50836009541615610245565b505051633ee5aeb560e01b8152fd5b8380fd5b8280fd5b90503461057357602036600319011261057357610592610da3565b9061059b6112a0565b6001600160a01b039182169283156105e857505082546001600160a01b0319811683178455167f8be0079c531659141344cd1fd0a4f28419497f9722a3daafe3b4186f6b6457e08380a380f35b51631e4fbdf760e01b8152908101849052602490fd5b905034610573578260031936011261057357338352600360205260ff8284205416156106655750338252600360205280822060ff198154169055518181527f5fe3a0cb9aeae856eac34445ace9544f3e15c21fa6f9bffeca60d662a690ca1b60203392a280f35b90516304f2d24d60e01b8152fd5b5050346101ca57816003193601126101ca57600b5490516001600160a01b039091168152602090f35b91905034610573576080366003190112610573576106b8610da3565b906001600160a01b0390602435828116908190036107b557604435928084168094036107b157606435948186168096036107ad576106f46112a0565b1694851580156107a5575b801561079d575b8015610795575b61078757509183917f20d4d74805f9e8a0851357233a6a6b9e3e62b6a78386bc8427057640b9c0a2db95936080956bffffffffffffffffffffffff60a01b86816008541617600855828160095416176009558481600a541617600a55600b541617600b55815194855260208501528301526060820152a180f35b825163599238df60e11b8152fd5b50841561070d565b508315610706565b5081156106ff565b8780fd5b8680fd5b8580fd5b5050346101ca57816003193601126101ca576020906107d661124b565b9051908152f35b5050346101ca57816003193601126101ca576020906007549051908152f35b5050346101ca57816003193601126101ca5760085490516001600160a01b039091168152602090f35b919050346105735760203660031901126105735781359164e8d4a5100083116108935733845260205281818420556005602052808320600160ff19825416179055519081527f6869591b96ab03c56c1c5de17a753bbd17cad8de120c296022b8b8a9523d74b360203392a280f35b905163117d61cd60e21b8152fd5b5050346101ca57816003193601126101ca576020906108c46201518042046113b9565b92519283525050f35b5050346101ca57816003193601126101ca5760209060ff6002541690519015158152f35b5050346101ca57816003193601126101ca576020906006549051908152f35b5050346101ca57816003193601126101ca57905490516001600160a01b039091168152602090f35b5050346101ca57816003193601126101ca5760095490516001600160a01b039091168152602090f35b5050346101ca57816003193601126101ca5760207f62e78cea01bee320cd4e420270b5ea74000d11b0c9f74754ebdbfc544b05a2589161099f6112a0565b6109a761139b565b600160ff19600254161760025551338152a180f35b5050346101ca57816003193601126101ca576020906107d6426112cc565b5050346101ca5760203660031901126101ca576020906107d66109fb610da3565b6111a5565b905034610573578260031936011261057357338352600360205260ff8284205416610a6a57503382526003602052808220600160ff1982541617905551600181527f5fe3a0cb9aeae856eac34445ace9544f3e15c21fa6f9bffeca60d662a690ca1b60203392a280f35b9051633013e93f60e11b8152fd5b8334610498578060031936011261049857610a916112a0565b80546001600160a01b03198116825581906001600160a01b03167f8be0079c531659141344cd1fd0a4f28419497f9722a3daafe3b4186f6b6457e08280a380f35b5050346101ca5760203660031901126101ca576020906107d6610af3610da3565b611172565b5050346101ca5760203660031901126101ca5760209181906001600160a01b03610b20610da3565b168152600d845220549051908152f35b905034610573578260031936011261057357610b4a6112a0565b6002549060ff821615610b8c575060ff1916600255513381527f5db9ee0a495bf2e6ff9c91a7834c1ba4fdd244a5e8aa4e537bd38aeae4b073aa90602090a180f35b8251638dfc202b60e01b8152fd5b9190503461057357602036600319011261057357813591610bb96112a0565b64e8d4a5100083116108935750816020917f87eea5962582a03ea93af9b32f7f4d7dba2011c2985761b85af4c47cdc7c0761936006558160075551908152a180f35b905034610573576020366003190112610573577f4de6d6194ab654009cd34ba95a217ef6c812e4587917905252160d43d5e82fb2916020913590610c3d6112a0565b816007558160065551908152a180f35b5050346101ca57816003193601126101ca57610c8c90610c6b61100e565b91516001600160a01b03909116815260208101919091529081906040820190565b0390f35b5050346101ca57816003193601126101ca57602090610cb36201518042046113b9565b50915191825250f35b5050346101ca57816003193601126101ca57602090600c549051908152f35b5050346101ca57816003193601126101ca57602090610cf8610fe2565b90519015158152f35b5050346101ca57816003193601126101ca57600a5490516001600160a01b039091168152602090f35b5050346101ca57602091602060031936011261049857610d50610d4b610da3565b610e2a565b92909181519485931515845282602085015284518093850152815b838110610d8c57505060608094508284010152601f80199101168101030190f35b808601820151878201606001528694508101610d6b565b600435906001600160a01b0382168203610db957565b600080fd5b6020810190811067ffffffffffffffff821117610dda57604052565b634e487b7160e01b600052604160045260246000fd5b90601f8019910116810190811067ffffffffffffffff821117610dda57604052565b90816020910312610db957518015158103610db95790565b9060ff60025416610fa7576001600160a01b03918216600081815260036020908152604080832054929590939260ff1615610f9957600b541615610f6d5782516314a094a760e01b81528181600481305afa869181610f7a575b50610e9e575050505191610e9783610dbe565b8083529190565b15610f6d578251633cd7292d60e11b8152600481018390528181602481305afa869181610f3e575b50610ed9575050505191610e9783610dbe565b94919492909215610f305760019481519363f6dfc2f160e01b90850152602484015260248352606083019183831067ffffffffffffffff841117610f1c57505290565b634e487b7160e01b81526041600452602490fd5b5193509050610e9783610dbe565b9091508281813d8311610f66575b610f568183610df0565b810103126107b157519038610ec6565b503d610f4c565b50505191610e9783610dbe565b610f92919250833d8511610454576104458183610df0565b9038610e84565b5050505191610e9783610dbe565b6040519150610fb582610dbe565b6000825260009190565b91908203918211610fcc57565b634e487b7160e01b600052601160045260246000fd5b610ff06201518042046113b9565b915050610ffc426112cc565b600119810191908211610fcc57101590565b6008546040805163f100989960e01b8082529093929091906020906001600160a01b039081168287600481845afa96871561116757600097611138575b5081600954169484519281845284846004818a5afa93841561112d576000946110fe575b50600a54169385519182528082600481885afa9586156110f457506000956110c4575b5050938682116110b8575b50508482116110ad575b50509190565b9150925038806110a7565b9095509250388061109d565b9080929550813d83116110ed575b6110dc8183610df0565b81010312610db95751923880611092565b503d6110d2565b513d6000823e3d90fd5b9093508481813d8311611126575b6111168183610df0565b81010312610db95751923861106f565b503d61110c565b86513d6000823e3d90fd5b9096508281813d8311611160575b6111508183610df0565b81010312610db95751953861104b565b503d611146565b84513d6000823e3d90fd5b6001600160a01b031660009081526005602052604090205460ff166111975760065490565b600460205260406000205490565b600b546040516370a0823160e01b81526001600160a01b03838116600483015290929160209184916024918391165afa91821561123f57600092611209575b506111ee90611172565b80821115611202576111ff91610fbf565b90565b5050600090565b9091506020813d602011611237575b8161122560209383610df0565b81010312610db95751906111ee6111e4565b3d9150611218565b6040513d6000823e3d90fd5b611253610fe2565b61129b57620151806112668142046113b9565b915050611272426112cc565b600119810191908211610fcc5761128891610fbf565b818102918183041490151715610fcc5790565b600090565b6000546001600160a01b031633036112b457565b60405163118cdaa760e01b8152336004820152602490fd5b620151806112da91046113b9565b50600181148015611391575b8015611387575b801561137d575b8015611373575b8015611369575b801561135f575b15611315575050601f90565b6002146113225750601e90565b60038116159081611352575b8115611345575b501561134057601d90565b601c90565b6101909150061538611335565b606481061515915061132e565b50600c8114611309565b50600a8114611302565b50600881146112fb565b50600781146112f4565b50600581146112ed565b50600381146112e6565b60ff600254166113a757565b60405163d93c066560e01b8152600490fd5b62023ab190600460038362264965840160021b05809402010590039162164b09622649668401610fa00205926004846105b5020590039161098f926050622649849260028685850184020591600b830598899160301901606402010197600c028203019502059003019056fea264697066735822122065b5ab53a3d85f2aa4ac6af120e830c4641bf281f82a50940e8824162e375c4964736f6c63430008160033",
  "linkReferences": {},
  "deployedLinkReferences": {}
}