{
  "_format": "hh-sol-artifact-1",
  "contractName": "BillsVault",
  "sourceName": "contracts/src/vaults/BillsVault.sol",
  "abi": [
    {
      "inputs": [
        {
          "internalType": "contract IERC20",
          "name": "asset_",
          "type": "address"
        },
        {
          "internalType": "uint256",
          "name": "maxDeposit_",
          "type": "uint256"
        },
        {
          "internalType": "address",
          "name": "lendlePool_",
          "type": "address"
        },
        {
          "internalType": "address",
          "name": "aToken_",
          "type": "address"
        }
      ],
      "stateMutability": "nonpayable",
      "type": "constructor"
    },
    {
      "inputs": [
        {
          "internalType": "address",
          "name": "spender",
          "type": "address"
        },
        {
          "internalType": "uint256",
          "name": "allowance",
          "type": "uint256"
        },
        {
          "internalType": "uint256",
          "name": "needed",
          "type": "uint256"
        }
      ],
      "name": "ERC20InsufficientAllowance",
      "type": "error"
    },
    {
      "inputs": [
        {
          "internalType": "address",
          "name": "sender",
          "type": "address"
        },
        {
          "internalType": "uint256",
          "name": "balance",
          "type": "uint256"
        },
        {
          "internalType": "uint256",
          "name": "needed",
          "type": "uint256"
        }
      ],
      "name": "ERC20InsufficientBalance",
      "type": "error"
    },
    {
      "inputs": [
        {
          "internalType": "address",
          "name": "approver",
          "type": "address"
        }
      ],
      "name": "ERC20InvalidApprover",
      "type": "error"
    },
    {
      "inputs": [
        {
          "internalType": "address",
          "name": "receiver",
          "type": "address"
        }
      ],
      "name": "ERC20InvalidReceiver",
      "type": "error"
    },
    {
      "inputs": [
        {
          "internalType": "address",
          "name": "sender",
          "type": "address"
        }
      ],
      "name": "ERC20InvalidSender",
      "type": "error"
    },
    {
      "inputs": [
        {
          "internalType": "address",
          "name": "spender",
          "type": "address"
        }
      ],
      "name": "ERC20InvalidSpender",
      "type": "error"
    },
    {
      "inputs": [
        {
          "internalType": "address",
          "name": "receiver",
          "type": "address"
        },
        {
          "internalType": "uint256",
          "name": "assets",
          "type": "uint256"
        },
        {
          "internalType": "uint256",
          "name": "max",
          "type": "uint256"
        }
      ],
      "name": "ERC4626ExceededMaxDeposit",
      "type": "error"
    },
    {
      "inputs": [
        {
          "internalType": "address",
          "name": "receiver",
          "type": "address"
        },
        {
          "internalType": "uint256",
          "name": "shares",
          "type": "uint256"
        },
        {
          "internalType": "uint256",
          "name": "max",
          "type": "uint256"
        }
      ],
      "name": "ERC4626ExceededMaxMint",
      "type": "error"
    },
    {
      "inputs": [
        {
          "internalType": "address",
          "name": "owner",
          "type": "address"
        },
        {
          "internalType": "uint256",
          "name": "shares",
          "type": "uint256"
        },
        {
          "internalType": "uint256",
          "name": "max",
          "type": "uint256"
        }
      ],
      "name": "ERC4626ExceededMaxRedeem",
      "type": "error"
    },
    {
      "inputs": [
        {
          "internalType": "address",
          "name": "owner",
          "type": "address"
        },
        {
          "internalType": "uint256",
          "name": "assets",
          "type": "uint256"
        },
        {
          "internalType": "uint256",
          "name": "max",
          "type": "uint256"
        }
      ],
      "name": "ERC4626ExceededMaxWithdraw",
      "type": "error"
    },
    {
      "inputs": [],
      "name": "EmergencyWithdrawalPenaltyTooHigh",
      "type": "error"
    },
    {
      "inputs": [],
      "name": "EnforcedPause",
      "type": "error"
    },
    {
      "inputs": [],
      "name": "ExceedsMaxDeposit",
      "type": "error"
    },
    {
      "inputs": [],
      "name": "ExceedsMaxSlippage",
      "type": "error"
    },
    {
      "inputs": [],
      "name": "ExpectedPause",
      "type": "error"
    },
    {
      "inputs": [],
      "name": "InsufficientBalance",
      "type": "error"
    },
    {
      "inputs": [],
      "name": "InvalidAmount",
      "type": "error"
    },
    {
      "inputs": [
        {
          "internalType": "address",
          "name": "owner",
          "type": "address"
        }
      ],
      "name": "OwnableInvalidOwner",
      "type": "error"
    },
    {
      "inputs": [
        {
          "internalType": "address",
          "name": "account",
          "type": "address"
        }
      ],
      "name": "OwnableUnauthorizedAccount",
      "type": "error"
    },
    {
      "inputs": [],
      "name": "ReentrancyGuardReentrantCall",
      "type": "error"
    },
    {
      "inputs": [
        {
          "internalType": "address",
          "name": "token",
          "type": "address"
        }
      ],
      "name": "SafeERC20FailedOperation",
      "type": "error"
    },
    {
      "inputs": [],
      "name": "WithdrawalDelayNotMet",
      "type": "error"
    },
    {
      "inputs": [],
      "name": "YieldProtocolCallFailed",
      "type": "error"
    },
    {
      "inputs": [],
      "name": "YieldProtocolNotSet",
      "type": "error"
    },
    {
      "anonymous": false,
      "inputs": [
        {
          "indexed": true,
          "internalType": "address",
          "name": "owner",
          "type": "address"
        },
        {
          "indexed": true,
          "internalType": "address",
          "name": "spender",
          "type": "address"
        },
        {
          "indexed": false,
          "internalType": "uint256",
          "name": "value",
          "type": "uint256"
        }
      ],
      "name": "Approval",
      "type": "event"
    },
    {
      "anonymous": false,
      "inputs": [
        {
          "indexed": true,
          "internalType": "address",
          "name": "sender",
          "type": "address"
        },
        {
          "indexed": true,
          "internalType": "address",
          "name": "owner",
          "type": "address"
        },
        {
          "indexed": false,
          "internalType": "uint256",
          "name": "assets",
          "type": "uint256"
        },
        {
          "indexed": false,
          "internalType": "uint256",
          "name": "shares",
          "type": "uint256"
        }
      ],
      "name": "Deposit",
      "type": "event"
    },
    {
      "anonymous": false,
      "inputs": [
        {
          "indexed": true,
          "internalType": "address",
          "name": "user",
          "type": "address"
        },
        {
          "indexed": false,
          "internalType": "uint256",
          "name": "amount",
          "type": "uint256"
        },
        {
          "indexed": false,
          "internalType": "uint256",
          "name": "penalty",
          "type": "uint256"
        }
      ],
      "name": "EmergencyWithdrawal",
      "type": "event"
    },
    {
      "anonymous": false,
      "inputs": [
        {
          "indexed": false,
          "internalType": "uint256",
          "name": "amount",
          "type": "uint256"
        }
      ],
      "name": "LendleSupplied",
      "type": "event"
    },
    {
      "anonymous": false,
      "inputs": [
        {
          "indexed": false,
          "internalType": "uint256",
          "name": "amount",
          "type": "uint256"
        }
      ],
      "name": "LendleWithdrawn",
      "type": "event"
    },
    {
      "anonymous": false,
      "inputs": [
        {
          "indexed": false,
          "internalType": "uint256",
          "name": "newLimit",
          "type": "uint256"
        }
      ],
      "name": "MaxDepositLimitUpdated",
      "type": "event"
    },
    {
      "anonymous": false,
      "inputs": [
        {
          "indexed": true,
          "internalType": "address",
          "name": "previousOwner",
          "type": "address"
        },
        {
          "indexed": true,
          "internalType": "address",
          "name": "newOwner",
          "type": "address"
        }
      ],
      "name": "OwnershipTransferred",
      "type": "event"
    },
    {
      "anonymous": false,
      "inputs": [
        {
          "indexed": false,
          "internalType": "address",
          "name": "account",
          "type": "address"
        }
      ],
      "name": "Paused",
      "type": "event"
    },
    {
      "anonymous": false,
      "inputs": [
        {
          "indexed": false,
          "internalType": "uint256",
          "name": "maxSlippageBps",
          "type": "uint256"
        }
      ],
      "name": "SlippageProtectionUpdated",
      "type": "event"
    },
    {
      "anonymous": false,
      "inputs": [
        {
          "indexed": true,
          "internalType": "address",
          "name": "from",
          "type": "address"
        },
        {
          "indexed": true,
          "internalType": "address",
          "name": "to",
          "type": "address"
        },
        {
          "indexed": false,
          "internalType": "uint256",
          "name": "value",
          "type": "uint256"
        }
      ],
      "name": "Transfer",
      "type": "event"
    },
    {
      "anonymous": false,
      "inputs": [
        {
          "indexed": false,
          "internalType": "address",
          "name": "account",
          "type": "address"
        }
      ],
      "name": "Unpaused",
      "type": "event"
    },
    {
      "anonymous": false,
      "inputs": [
        {
          "indexed": true,
          "internalType": "address",
          "name": "sender",
          "type": "address"
        },
        {
          "indexed": true,
          "internalType": "address",
          "name": "receiver",
          "type": "address"
        },
        {
          "indexed": true,
          "internalType": "address",
          "name": "owner",
          "type": "address"
        },
        {
          "indexed": false,
          "internalType": "uint256",
          "name": "assets",
          "type": "uint256"
        },
        {
          "indexed": false,
          "internalType": "uint256",
          "name": "shares",
          "type": "uint256"
        }
      ],
      "name": "Withdraw",
      "type": "event"
    },
    {
      "anonymous": false,
      "inputs": [
        {
          "indexed": false,
          "internalType": "uint256",
          "name": "delaySeconds",
          "type": "uint256"
        },
        {
          "indexed": false,
          "internalType": "uint256",
          "name": "feeBps",
          "type": "uint256"
        }
      ],
      "name": "WithdrawalConfigUpdated",
      "type": "event"
    },
    {
      "anonymous": false,
      "inputs": [
        {
          "indexed": false,
          "internalType": "uint256",
          "name": "amount",
          "type": "uint256"
        }
      ],
      "name": "YieldCompounded",
      "type": "event"
    },
    {
      "anonymous": false,
      "inputs": [
        {
          "indexed": false,
          "internalType": "uint256",
          "name": "amount",
          "type": "uint256"
        },
        {
          "indexed": false,
          "internalType": "uint256",
          "name": "shares",
          "type": "uint256"
        }
      ],
      "name": "YieldDeposited",
      "type": "event"
    },
    {
      "anonymous": false,
      "inputs": [
        {
          "indexed": true,
          "internalType": "address",
          "name": "protocol",
          "type": "address"
        }
      ],
      "name": "YieldProtocolSet",
      "type": "event"
    },
    {
      "anonymous": false,
      "inputs": [
        {
          "indexed": false,
          "internalType": "uint256",
          "name": "shares",
          "type": "uint256"
        },
        {
          "indexed": false,
          "internalType": "uint256",
          "name": "amount",
          "type": "uint256"
        }
      ],
      "name": "YieldWithdrawn",
      "type": "event"
    },
    {
      "inputs": [],
      "name": "EMERGENCY_PENALTY_BPS",
      "outputs": [
        {
          "internalType": "uint256",
          "name": "",
          "type": "uint256"
        }
      ],
      "stateMutability": "view",
      "type": "function"
    },
    {
      "inputs": [],
      "name": "MAX_BPS",
      "outputs": [
        {
          "internalType": "uint256",
          "name": "",
          "type": "uint256"
        }
      ],
      "stateMutability": "view",
      "type": "function"
    },
    {
      "inputs": [],
      "name": "aToken",
      "outputs": [
        {
          "internalType": "contract IAToken",
          "name": "",
          "type": "address"
        }
      ],
      "stateMutability": "view",
      "type": "function"
    },
    {
      "inputs": [
        {
          "internalType": "address",
          "name": "owner",
          "type": "address"
        },
        {
          "internalType": "address",
          "name": "spender",
          "type": "address"
        }
      ],
      "name": "allowance",
      "outputs": [
        {
          "internalType": "uint256",
          "name": "",
          "type": "uint256"
        }
      ],
      "stateMutability": "view",
      "type": "function"
    },
    {
      "inputs": [
        {
          "internalType": "address",
          "name": "spender",
          "type": "address"
        },
        {
          "internalType": "uint256",
          "name": "value",
          "type": "uint256"
        }
      ],
      "name": "approve",
      "outputs": [
        {
          "internalType": "bool",
          "name": "",
          "type": "bool"
        }
      ],
      "stateMutability": "nonpayable",
      "type": "function"
    },
    {
      "inputs": [],
      "name": "asset",
      "outputs": [
        {
          "internalType": "address",
          "name": "",
          "type": "address"
        }
      ],
      "stateMutability": "view",
      "type": "function"
    },
    {
      "inputs": [
        {
          "internalType": "address",
          "name": "account",
          "type": "address"
        }
      ],
      "name": "balanceOf",
      "outputs": [
        {
          "internalType": "uint256",
          "name": "",
          "type": "uint256"
        }
      ],
      "stateMutability": "view",
      "type": "function"
    },
    {
      "inputs": [],
      "name": "compoundYield",
      "outputs": [],
      "stateMutability": "nonpayable",
      "type": "function"
    },
    {
      "inputs": [
        {
          "internalType": "uint256",
          "name": "shares",
          "type": "uint256"
        }
      ],
      "name": "convertToAssets",
      "outputs": [
        {
          "internalType": "uint256",
          "name": "",
          "type": "uint256"
        }
      ],
      "stateMutability": "view",
      "type": "function"
    },
    {
      "inputs": [
        {
          "internalType": "uint256",
          "name": "assets",
          "type": "uint256"
        }
      ],
      "name": "convertToShares",
      "outputs": [
        {
          "internalType": "uint256",
          "name": "",
          "type": "uint256"
        }
      ],
      "stateMutability": "view",
      "type": "function"
    },
    {
      "inputs": [],
      "name": "decimals",
      "outputs": [
        {
          "internalType": "uint8",
          "name": "",
          "type": "uint8"
        }
      ],
      "stateMutability": "view",
      "type": "function"
    },
    {
      "inputs": [
        {
          "internalType": "uint256",
          "name": "assets",
          "type": "uint256"
        },
        {
          "internalType": "address",
          "name": "receiver",
          "type": "address"
        }
      ],
      "name": "deposit",
      "outputs": [
        {
          "internalType": "uint256",
          "name": "shares",
          "type": "uint256"
        }
      ],
      "stateMutability": "nonpayable",
      "type": "function"
    },
    {
      "inputs": [
        {
          "internalType": "uint256",
          "name": "amount",
          "type": "uint256"
        }
      ],
      "name": "depositToYieldProtocol",
      "outputs": [],
      "stateMutability": "nonpayable",
      "type": "function"
    },
    {
      "inputs": [
        {
          "internalType": "uint256",
          "name": "assets",
          "type": "uint256"
        }
      ],
      "name": "emergencyWithdraw",
      "outputs": [],
      "stateMutability": "nonpayable",
      "type": "function"
    },
    {
      "inputs": [],
      "name": "emergencyWithdrawFromLendle",
      "outputs": [],
      "stateMutability": "nonpayable",
      "type": "function"
    },
    {
      "inputs": [],
      "name": "getATokenBalance",
      "outputs": [
        {
          "internalType": "uint256",
          "name": "",
          "type": "uint256"
        }
      ],
      "stateMutability": "view",
      "type": "function"
    },
    {
      "inputs": [],
      "name": "getSupplyRate",
      "outputs": [
        {
          "internalType": "uint256",
          "name": "",
          "type": "uint256"
        }
      ],
      "stateMutability": "view",
      "type": "function"
    },
    {
      "inputs": [],
      "name": "getYieldRate",
      "outputs": [
        {
          "internalType": "uint256",
          "name": "",
          "type": "uint256"
        }
      ],
      "stateMutability": "view",
      "type": "function"
    },
    {
      "inputs": [
        {
          "internalType": "address",
          "name": "",
          "type": "address"
        }
      ],
      "name": "lastDepositTimestamp",
      "outputs": [
        {
          "internalType": "uint256",
          "name": "",
          "type": "uint256"
        }
      ],
      "stateMutability": "view",
      "type": "function"
    },
    {
      "inputs": [],
      "name": "lastYieldUpdate",
      "outputs": [
        {
          "internalType": "uint256",
          "name": "",
          "type": "uint256"
        }
      ],
      "stateMutability": "view",
      "type": "function"
    },
    {
      "inputs": [],
      "name": "lendlePool",
      "outputs": [
        {
          "internalType": "contract ILendlePool",
          "name": "",
          "type": "address"
        }
      ],
      "stateMutability": "view",
      "type": "function"
    },
    {
      "inputs": [
        {
          "internalType": "address",
          "name": "",
          "type": "address"
        }
      ],
      "name": "maxDeposit",
      "outputs": [
        {
          "internalType": "uint256",
          "name": "",
          "type": "uint256"
        }
      ],
      "stateMutability": "view",
      "type": "function"
    },
    {
      "inputs": [],
      "name": "maxDepositLimit",
      "outputs": [
        {
          "internalType": "uint256",
          "name": "",
          "type": "uint256"
        }
      ],
      "stateMutability": "view",
      "type": "function"
    },
    {
      "inputs": [
        {
          "internalType": "address",
          "name": "",
          "type": "address"
        }
      ],
      "name": "maxMint",
      "outputs": [
        {
          "internalType": "uint256",
          "name": "",
          "type": "uint256"
        }
      ],
      "stateMutability": "view",
      "type": "function"
    },
    {
      "inputs": [
        {
          "internalType": "address",
          "name": "owner",
          "type": "address"
        }
      ],
      "name": "maxRedeem",
      "outputs": [
        {
          "internalType": "uint256",
          "name": "",
          "type": "uint256"
        }
      ],
      "stateMutability": "view",
      "type": "function"
    },
    {
      "inputs": [],
      "name": "maxSlippageBps",
      "outputs": [
        {
          "internalType": "uint256",
          "name": "",
          "type": "uint256"
        }
      ],
      "stateMutability": "view",
      "type": "function"
    },
    {
      "inputs": [
        {
          "internalType": "address",
          "name": "owner",
          "type": "address"
        }
      ],
      "name": "maxWithdraw",
      "outputs": [
        {
          "internalType": "uint256",
          "name": "",
          "type": "uint256"
        }
      ],
      "stateMutability": "view",
      "type": "function"
    },
    {
      "inputs": [
        {
          "internalType": "uint256",
          "name": "shares",
          "type": "uint256"
        },
        {
          "internalType": "address",
          "name": "receiver",
          "type": "address"
        }
      ],
      "name": "mint",
      "outputs": [
        {
          "internalType": "uint256",
          "name": "",
          "type": "uint256"
        }
      ],
      "stateMutability": "nonpayable",
      "type": "function"
    },
    {
      "inputs": [],
      "name": "name",
      "outputs": [
        {
          "internalType": "string",
          "name": "",
          "type": "string"
        }
      ],
      "stateMutability": "view",
      "type": "function"
    },
    {
      "inputs": [],
      "name": "owner",
      "outputs": [
        {
          "internalType": "address",
          "name": "",
          "type": "address"
        }
      ],
      "stateMutability": "view",
      "type": "function"
    },
    {
      "inputs": [],
      "name": "pause",
      "outputs": [],
      "stateMutability": "nonpayable",
      "type": "function"
    },
    {
      "inputs": [],
      "name": "paused",
      "outputs": [
        {
          "internalType": "bool",
          "name": "",
          "type": "bool"
        }
      ],
      "stateMutability": "view",
      "type": "function"
    },
    {
      "inputs": [],
      "name": "penaltyRecipient",
      "outputs": [
        {
          "internalType": "address",
          "name": "",
          "type": "address"
        }
      ],
      "stateMutability": "view",
      "type": "function"
    },
    {
      "inputs": [
        {
          "internalType": "uint256",
          "name": "assets",
          "type": "uint256"
        }
      ],
      "name": "previewDeposit",
      "outputs": [
        {
          "internalType": "uint256",
          "name": "",
          "type": "uint256"
        }
      ],
      "stateMutability": "view",
      "type": "function"
    },
    {
      "inputs": [
        {
          "internalType": "uint256",
          "name": "shares",
          "type": "uint256"
        }
      ],
      "name": "previewMint",
      "outputs": [
        {
          "internalType": "uint256",
          "name": "",
          "type": "uint256"
        }
      ],
      "stateMutability": "view",
      "type": "function"
    },
    {
      "inputs": [
        {
          "internalType": "uint256",
          "name": "shares",
          "type": "uint256"
        }
      ],
      "name": "previewRedeem",
      "outputs": [
        {
          "internalType": "uint256",
          "name": "",
          "type": "uint256"
        }
      ],
      "stateMutability": "view",
      "type": "function"
    },
    {
      "inputs": [
        {
          "internalType": "uint256",
          "name": "assets",
          "type": "uint256"
        }
      ],
      "name": "previewWithdraw",
      "outputs": [
        {
          "internalType": "uint256",
          "name": "",
          "type": "uint256"
        }
      ],
      "stateMutability": "view",
      "type": "function"
    },
    {
      "inputs": [
        {
          "internalType": "uint256",
          "name": "shares",
          "type": "uint256"
        },
        {
          "internalType": "address",
          "name": "receiver",
          "type": "address"
        },
        {
          "internalType": "address",
          "name": "owner",
          "type": "address"
        }
      ],
      "name": "redeem",
      "outputs": [
        {
          "internalType": "uint256",
          "name": "",
          "type": "uint256"
        }
      ],
      "stateMutability": "nonpayable",
      "type": "function"
    },
    {
      "inputs": [],
      "name": "renounceOwnership",
      "outputs": [],
      "stateMutability": "nonpayable",
      "type": "function"
    },
    {
      "inputs": [
        {
          "internalType": "uint256",
          "name": "newLimit",
          "type": "uint256"
        }
      ],
      "name": "setMaxDepositLimit",
      "outputs": [],
      "stateMutability": "nonpayable",
      "type": "function"
    },
    {
      "inputs": [
        {
          "internalType": "uint256",
          "name": "slippageBps",
          "type": "uint256"
        }
      ],
      "name": "setMaxSlippage",
      "outputs": [],
      "stateMutability": "nonpayable",
      "type": "function"
    },
    {
      "inputs": [
        {
          "internalType": "address",
          "name": "recipient",
          "type": "address"
        }
      ],
      "name": "setPenaltyRecipient",
      "outputs": [],
      "stateMutability": "nonpayable",
      "type": "function"
    },
    {
      "inputs": [
        {
          "internalType": "uint256",
          "name": "delaySeconds",
          "type": "uint256"
        },
        {
          "internalType": "uint256",
          "name": "feeBps",
          "type": "uint256"
        }
      ],
      "name": "setWithdrawalConfig",
      "outputs": [],
      "stateMutability": "nonpayable",
      "type": "function"
    },
    {
      "inputs": [
        {
          "internalType": "address",
          "name": "protocol",
          "type": "address"
        }
      ],
      "name": "setYieldProtocol",
      "outputs": [],
      "stateMutability": "nonpayable",
      "type": "function"
    },
    {
      "inputs": [],
      "name": "symbol",
      "outputs": [
        {
          "internalType": "string",
          "name": "",
          "type": "string"
        }
      ],
      "stateMutability": "view",
      "type": "function"
    },
    {
      "inputs": [],
      "name": "totalATokenBalance",
      "outputs": [
        {
          "internalType": "uint256",
          "name": "",
          "type": "uint256"
        }
      ],
      "stateMutability": "view",
      "type": "function"
    },
    {
      "inputs": [],
      "name": "totalAssets",
      "outputs": [
        {
          "internalType": "uint256",
          "name": "",
          "type": "uint256"
        }
      ],
      "stateMutability": "view",
      "type": "function"
    },
    {
      "inputs": [],
      "name": "totalSupply",
      "outputs": [
        {
          "internalType": "uint256",
          "name": "",
          "type": "uint256"
        }
      ],
      "stateMutability": "view",
      "type": "function"
    },
    {
      "inputs": [],
      "name": "totalYieldEarned",
      "outputs": [
        {
          "internalType": "uint256",
          "name": "",
          "type": "uint256"
        }
      ],
      "stateMutability": "view",
      "type": "function"
    },
    {
      "inputs": [
        {
          "internalType": "address",
          "name": "to",
          "type": "address"
        },
        {
          "internalType": "uint256",
          "name": "value",
          "type": "uint256"
        }
      ],
      "name": "transfer",
      "outputs": [
        {
          "internalType": "bool",
          "name": "",
          "type": "bool"
        }
      ],
      "stateMutability": "nonpayable",
      "type": "function"
    },
    {
      "inputs": [
        {
          "internalType": "address",
          "name": "from",
          "type": "address"
        },
        {
          "internalType": "address",
          "name": "to",
          "type": "address"
        },
        {
          "internalType": "uint256",
          "name": "value",
          "type": "uint256"
        }
      ],
      "name": "transferFrom",
      "outputs": [
        {
          "internalType": "bool",
          "name": "",
          "type": "bool"
        }
      ],
      "stateMutability": "nonpayable",
      "type": "function"
    },
    {
      "inputs": [
        {
          "internalType": "address",
          "name": "newOwner",
          "type": "address"
        }
      ],
      "name": "transferOwnership",
      "outputs": [],
      "stateMutability": "nonpayable",
      "type": "function"
    },
    {
      "inputs": [],
      "name": "unpause",
      "outputs": [],
      "stateMutability": "nonpayable",
      "type": "function"
    },
    {
      "inputs": [],
      "name": "vaultType",
      "outputs": [
        {
          "internalType": "enum BucketVaultV2.VaultType",
          "name": "",
          "type": "uint8"
        }
      ],
      "stateMutability": "view",
      "type": "function"
    },
    {
      "inputs": [
        {
          "internalType": "uint256",
          "name": "assets",
          "type": "uint256"
        },
        {
          "internalType": "address",
          "name": "receiver",
          "type": "address"
        },
        {
          "internalType": "address",
          "name": "owner",
          "type": "address"
        }
      ],
      "name": "withdraw",
      "outputs": [
        {
          "internalType": "uint256",
          "name": "shares",
          "type": "uint256"
        }
      ],
      "stateMutability": "nonpayable",
      "type": "function"
    },
    {
      "inputs": [
        {
          "internalType": "uint256",
          "name": "shares",
          "type": "uint256"
        }
      ],
      "name": "withdrawFromYieldProtocol",
      "outputs": [],
      "stateMutability": "nonpayable",
      "type": "function"
    },
    {
      "inputs": [],
      "name": "withdrawalDelaySeconds",
      "outputs": [
        {
          "internalType": "uint256",
          "name": "",
          "type": "uint256"
        }
      ],
      "stateMutability": "view",
      "type": "function"
    },
    {
      "inputs": [],
      "name": "withdrawalFeeBps",
      "outputs": [
        {
          "internalType": "uint256",
          "name": "",
          "type": "uint256"
        }
      ],
      "stateMutability": "view",
      "type": "function"
    },
    {
      "inputs": [],
      "name": "yieldEnabled",
      "outputs": [
        {
          "internalType": "bool",
          "name": "",
          "type": "bool"
        }
      ],
      "stateMutability": "view",
      "type": "function"
    },
    {
      "inputs": [],
      "name": "yieldProtocol",
      "outputs": [
        {
          "internalType": "address",
          "name": "",
          "type": "address"
        }
      ],
      "stateMutability": "view",
      "type": "function"
    }
  ],
  "bytecode": "0x60e080604052346200055f5760808162002ef6803803809162000023828562000580565b8339810103126200055f578051906001600160a01b03821682036200055f5760208101516200006360606200005b60408501620005a4565b9301620005a4565b92604051620000728162000564565b601681527f50616c6d4275646765742042696c6c73205661756c74000000000000000000006020820152604051620000aa8162000564565b6007815266706242494c4c5360c81b602082015281516001600160401b0392838211620004325760035490600182811c9216801562000554575b6020831014620004115781601f849311620004df575b50602090601f8311600114620004545760009262000448575b50508160011b916000199060031b1c1916176003555b8051918211620004325760045490600182811c9216801562000427575b6020831014620004115781601f8493116200039c575b50602090601f8311600114620003115760009262000305575b50508160011b916000199060031b1c1916176004555b6200019681620005b9565b9015620002fc575b60a0526080523315620002e35760058054336001600160a01b03198083168217909355604051959293916001600160a01b03167f8be0079c531659141344cd1fd0a4f28419497f9722a3daafe3b4186f6b6457e0600080a36001600655600060c0526008908155603260095542600f55600d805484163317905562093a80600a5560c8600b556010805484166001600160a01b03868116919091179091556011805490941692169190911790915560078054610100600160b01b0319169290911b610100600160a81b031691909117600160a81b17905561286090816200069682396080518181816107600152818161084d01528181610da2015281816112e6015281816115b8015281816116c401528181611ee401528181611fff015281816123fd015281816125be0152612756015260a051816115fd015260c051816113de0152f35b604051631e4fbdf760e01b815260006004820152602490fd5b5060126200019e565b01519050388062000175565b600460009081527f8a35acfbc15ff81a39ae7d344fd709f28e8600b4aa8c65c6b64bfe7fe36bd19b9350601f198516905b81811062000383575090846001959493921062000369575b505050811b016004556200018b565b015160001960f88460031b161c191690553880806200035a565b9293602060018192878601518155019501930162000342565b60046000529091507f8a35acfbc15ff81a39ae7d344fd709f28e8600b4aa8c65c6b64bfe7fe36bd19b601f840160051c8101916020851062000406575b90601f859493920160051c01905b818110620003f657506200015c565b60008155849350600101620003e7565b9091508190620003d9565b634e487b7160e01b600052602260045260246000fd5b91607f169162000146565b634e487b7160e01b600052604160045260246000fd5b01519050388062000113565b600360009081527fc2575a0e9e593c00f959f8c92f12db2869c3395a3b0502d05e2516446f71f85b9350601f198516905b818110620004c65750908460019594939210620004ac575b505050811b0160035562000129565b015160001960f88460031b161c191690553880806200049d565b9293602060018192878601518155019501930162000485565b60036000529091507fc2575a0e9e593c00f959f8c92f12db2869c3395a3b0502d05e2516446f71f85b601f840160051c8101916020851062000549575b90601f859493920160051c01905b818110620005395750620000fa565b600081558493506001016200052a565b90915081906200051c565b91607f1691620000e4565b600080fd5b604081019081106001600160401b038211176200043257604052565b601f909101601f19168101906001600160401b038211908210176200043257604052565b51906001600160a01b03821682036200055f57565b906040516020908181019063313ce56760e01b825260048152620005dd8162000564565b5160009485928392916001600160a01b03165afa3d156200068c573d906001600160401b03821162000678576040519162000622601f8201601f191685018462000580565b82523d858484013e5b806200066c575b6200063e575b50508190565b81818051810103126200066857015160ff8111156200065e578062000638565b6001925060ff1690565b8380fd5b50818151101562000632565b634e487b7160e01b85526041600452602485fd5b6060906200062b56fe608060408181526004918236101561001657600080fd5b600092833560e01c918262c2d143146119f457508163012caae1146119cb57816301e1d114146119ae57816304336bb31461198f57816306fdde031461189a57816307a2d13a146113c5578163095ea7b3146117f05781630a28a477146117d057816318160ddd146117b157816323b872dd1461177457816324b2631514611643578163313ce567146115e757816338d52e0f146115a35781633bc725c31461151d5781633f4ba83a146114b3578163402d267d1461058857816343f68a49146114235781634ac032be146113ca5781634cdad506146113c55781635312ea8e1461124f5781635c975abb1461122b578163655d8dec146111f35781636e553f651461110e5781636e98928b14610d4957816370a08231146104c7578163715018a614610ceb5781637183941814610ccc5781637a62a89514610c375781637e393cbe14610c0e5781638456cb5914610bb357816384bdc9a814610b965781638da5cb5b14610b6d5781638f8c8aee14610b4e5781638f9bcee814610b3157816394bf804d14610afc57816395d89b41146109f95781639a21a86b146109da578163a0c1f15e146109b1578163a9059cbb14610980578163acaf7bb814610957578163b25a7a18146108d2578163b3d7f6b9146108b2578163b460af941461067f578163b63c44e714610660578163ba087652146105d3578163c2752e43146105ac578163c4aa73951461058d578163c63d75b614610588578163c6e6f59214610426578163cc00967914610569578163cd4c73a71461053c578163ce96cb7714610503578163d905777e146104c7578163dd62ed3e14610479578163dfe608351461042b578163ef8b30f714610426578163f100989914610402578163f1b1c3751461036c578163f2fde38b146102d7575063fd967f47146102b857600080fd5b346102d357816003193601126102d357602090516127108152f35b5080fd5b905034610368576020366003190112610368576102f2611afd565b906102fb611ba2565b6001600160a01b03918216928315610352575050600554826bffffffffffffffffffffffff60a01b821617600555167f8be0079c531659141344cd1fd0a4f28419497f9722a3daafe3b4186f6b6457e0600080a380f35b51631e4fbdf760e01b8152908101849052602490fd5b8280fd5b9050346103685760203660031901126103685780359061038a612280565b610392611ba2565b60ff60075460a81c16156103f45781156103e6575090816103d37fc2e390771ee2b6cad5cb1244f940b577352851c4d635277c314747be299eba4b93612384565b82519182526020820152a1600160065580f35b825163162908e360e11b8152fd5b825163666f681360e01b8152fd5b5050346102d357816003193601126102d35760209061041f612369565b9051908152f35b611b84565b905034610368576020366003190112610368577f514bf0f65cb844af227a51e123dbb8b5be8fac221f8feeb9d20591e81c46e50b91602091359061046d611ba2565b8160085551908152a180f35b5050346102d357806003193601126102d357602091610496611afd565b8261049f611b13565b6001600160a01b03928316845260018652922091166000908152908352819020549051908152f35b5050346102d35760203660031901126102d35760209061041f6104e8611afd565b6001600160a01b031660009081526020819052604090205490565b5050346102d35760203660031901126102d35760209161041f9082906001600160a01b0361052f611afd565b1681528085522054611e5e565b5050346102d357816003193601126102d357600754905160089190911c6001600160a01b03168152602090f35b5050346102d357816003193601126102d357602090600e549051908152f35b611b29565b5050346102d357816003193601126102d3576020906009549051908152f35b5050346102d357816003193601126102d35760209060ff60075460a81c1690519015158152f35b9050823461065d5782906105e636611b4f565b6001600160a01b038116845260208490529590922054909493908086116106285750508361062291610619602096611e5e565b94859133611fa8565b51908152f35b9251632e52afbb60e21b81526001600160a01b0390941690840190815260208101949094525060408301529081906060010390fd5b80fd5b5050346102d357816003193601126102d3576020906008549051908152f35b919050346103685761069036611b4f565b9390919461069c612280565b6106a4612262565b85600a5480610878575b50600b548061080f575b50508360ff60075460a81c16610748575b6001600160a01b038616825260208290529020546106e690611e5e565b80861161071357505061070890846106ff602096611dda565b94859233611fa8565b600160065551908152f35b9251633fa733bb60e21b81526001600160a01b0390941690840190815260208101949094525060408301529081906060010390fd5b516370a0823160e01b815230838201526020816024817f00000000000000000000000000000000000000000000000000000000000000006001600160a01b03165afa9081156108055790859183916107ca575b509182886106e694106107b1575b5091506106c9565b6107be6107c3918a6122a3565b612384565b50386107a9565b9150506020813d82116107fd575b816107e560209383611bce565b810103126107f8575184906106e661079b565b600080fd5b3d91506107d8565b85513d84823e3d90fd5b8197506108226127109161082a936122b0565b0480976122a3565b9580610837575b806106b8565b600d5461087291906001600160a01b03908116907f0000000000000000000000000000000000000000000000000000000000000000166120e3565b38610831565b6001600160a01b0387168352600c6020528583205461089790426122a3565b106108a257386106ae565b8451635ca831e160e11b81528390fd5b82843461065d57602036600319011261065d575061041f60209235611e33565b905034610368576020366003190112610368576108ed611afd565b6108f5611ba2565b6001600160a01b03169182156109225750506bffffffffffffffffffffffff60a01b600d541617600d5580f35b906020606492519162461bcd60e51b8352820152600f60248201526e496e76616c6964206164647265737360881b6044820152fd5b5050346102d357816003193601126102d35760105490516001600160a01b039091168152602090f35b5050346102d357806003193601126102d3576020906109aa6109a0611afd565b6024359033611c06565b5160018152f35b5050346102d357816003193601126102d35760115490516001600160a01b039091168152602090f35b5050346102d357816003193601126102d3576020906012549051908152f35b8383346102d357816003193601126102d357805191809380549160019083821c92828516948515610af2575b6020958686108114610adf57858952908115610abb5750600114610a63575b610a5f8787610a55828c0383611bce565b5191829182611a8e565b0390f35b81529295507f8a35acfbc15ff81a39ae7d344fd709f28e8600b4aa8c65c6b64bfe7fe36bd19b5b828410610aa85750505082610a5f94610a5592820101948680610a44565b8054868501880152928601928101610a8a565b60ff19168887015250505050151560051b8301019250610a5582610a5f8680610a44565b634e487b7160e01b845260228352602484fd5b93607f1693610a25565b905034610368578160031936011261036857602092503590610622610b1f611b13565b92610b2981611e33565b809433611e89565b5050346102d357816003193601126102d357602090516101f48152f35b5050346102d357816003193601126102d357602090600f549051908152f35b5050346102d357816003193601126102d35760055490516001600160a01b039091168152602090f35b5050346102d357816003193601126102d35760209061041f6125a4565b5050346102d357816003193601126102d35760207f62e78cea01bee320cd4e420270b5ea74000d11b0c9f74754ebdbfc544b05a25891610bf1611ba2565b610bf9612262565b600160ff19600754161760075551338152a180f35b833461065d578060031936011261065d57610c27612280565b610c2f6122c3565b600160065580f35b8383346102d357806003193601126102d357823560243593610c57611ba2565b6103e88511610c9a57507f7c532154661afd5f579d75e0bcfec458372e7a0127bbfaecb32e275ac844b683929381600a5580600b5582519182526020820152a180f35b606490602084519162461bcd60e51b8352820152600c60248201526b08ccaca40e8dede40d0d2ced60a31b6044820152fd5b5050346102d357816003193601126102d357602090600a549051908152f35b833461065d578060031936011261065d57610d04611ba2565b600580546001600160a01b031981169091556000906001600160a01b03167f8be0079c531659141344cd1fd0a4f28419497f9722a3daafe3b4186f6b6457e08280a380f35b82843461065d576020806003193601126102d3578335610d67612280565b610d6f611ba2565b60075460ff8160a81c16156110fe5781156110ee5784516370a0823160e01b815230878201526024916001600160a01b037f000000000000000000000000000000000000000000000000000000000000000081169290919086818681875afa9081156110a35790869189916110bd575b50106110ad57819060081c168751636eb1769f60e11b8152308a82015281858201528681604481875afa80156110a3578690899061106e575b610e229250611ce4565b885163095ea7b360e01b8882018181526001600160a01b03851688840190815260208101949094529093919289918b91610e6990869060400103601f198101875286611bce565b84519082895af189513d82611052575b505015610ff5575b5050601054885191825282166001600160a01b03168982019081526020810186905286908290819060400103818a875af18015610feb57610fb4575b506010541690813b15610fb0578591608483928951948593849263617ba03760e01b84528d84015288888401523060448401528160648401525af19182610f82575b5050610f155750505051636794231b60e11b8152fd5b7fa248d81b377afe8736fe397f5a9f8f0d7c581e67ff6ae4037df29a672a92133b9181610f458693601254611ce4565b6012557f7d316160dd9ef0d32c7696b26ef1ea6d3cfd4af79ea6f661a1f41d04f2a44501828451838152a1825191818352820152a1600160065580f35b67ffffffffffffffff8296939611610f9f57508552928680610eff565b634e487b7160e01b83526041885282fd5b8580fd5b8581813d8311610fe4575b610fc98183611bce565b81010312610fe0575180151503610fb05788610ebd565b8680fd5b503d610fbf565b88513d89823e3d90fd5b895190838983015286820152886044820152604481526080810181811067ffffffffffffffff821117611040576110399291611033918c5286612126565b84612126565b8980610e81565b634e487b7160e01b8a5260418c52868afd5b9091506110665750843b15155b8c80610e79565b60011461105f565b50508681813d831161109c575b6110858183611bce565b810103126110985785610e229151610e18565b8780fd5b503d61107b565b89513d8a823e3d90fd5b8751631e9acf1760e31b81528990fd5b809250888092503d83116110e7575b6110d68183611bce565b81010312611098578590518b610ddf565b503d6110cc565b845163162908e360e11b81528690fd5b845163666f681360e01b81528690fd5b8383346102d357806003193601126102d357823561112a611b13565b92611133612280565b61113b612262565b61114c82611147612730565b611ce4565b600854106111e3576020945061116182611e08565b9361116e85848333611e89565b6001600160a01b03168152600c8552829020429055600754829060a81c60ff16806111da575b6111a6575b5050600160065551908152f35b7fa248d81b377afe8736fe397f5a9f8f0d7c581e67ff6ae4037df29a672a92133b9181519081528486820152a18381611199565b50811515611194565b825163e4bac01b60e01b81528590fd5b5050346102d35760203660031901126102d35760209181906001600160a01b0361121b611afd565b168152600c845220549051908152f35b5050346102d357816003193601126102d35760209060ff6007541690519015158152f35b8383346102d35760203660031901126102d35782359061126d612280565b81156113925761127c82611dda565b9133845283602052828285205410611359576101f481026101f3198282040161134657906112db6112d46127107f56da9a5ae0bcf6e7c3fdd78a10550e7d0458de1c39bfb7f6e96a3e92dd344a6895940480936122a3565b9433612044565b6001600160a01b03817f000000000000000000000000000000000000000000000000000000000000000082166113128733836120e3565b81611330575b505050815193845260208401523392a2600160065580f35b61133e92600d5416906120e3565b858181611318565b634e487b7160e01b855260118652602485fd5b815162461bcd60e51b81526020818701526013602482015272496e73756666696369656e742073686172657360681b6044820152606490fd5b5162461bcd60e51b8152602081850152600e60248201526d125b9d985b1a5908185b5bdd5b9d60921b6044820152606490fd5b611ad7565b8383346102d357816003193601126102d3577f00000000000000000000000000000000000000000000000000000000000000009051918382101561141057602083838152f35b634e487b7160e01b815260218452602490fd5b9190503461036857602036600319011261036857813591611442611ba2565b6101f4831161147d5750816020917f0e327decf8cd0c8c1ff089972fca9360ed4f35e93bc2c9c28a9ea0dfb428ea919360095551908152a180f35b6020606492519162461bcd60e51b835282015260116024820152700a6d8d2e0e0c2ceca40e8dede40d0d2ced607b1b6044820152fd5b9050346103685782600319360112610368576114cd611ba2565b6007549060ff82161561150f575060ff1916600755513381527f5db9ee0a495bf2e6ff9c91a7834c1ba4fdd244a5e8aa4e537bd38aeae4b073aa90602090a180f35b8251638dfc202b60e01b8152fd5b833461065d57602036600319011261065d57611537611afd565b61153f611ba2565b60078054610100600160b01b031916600883901b610100600160a81b0316176001600160a01b039290921680151560a81b60ff60a81b169290921790557f6d70c8cd6b23bde6c51ca79816ad4d35c700845e43feefc3e65ca0d9cc6f45218280a280f35b5050346102d357816003193601126102d357517f00000000000000000000000000000000000000000000000000000000000000006001600160a01b03168152602090f35b8383346102d357816003193601126102d35760ff7f0000000000000000000000000000000000000000000000000000000000000000169160ff8311611630576020838351908152f35b634e487b7160e01b815260118452602490fd5b9190503461036857826003193601126103685761165e611ba2565b60115481516370a0823160e01b815230818501526020936001600160a01b03939290919085908290602490829088165afa90811561176a57869161173d575b506116a6578480f35b839060648460105416948785519687948593631a4ca37b60e21b85527f0000000000000000000000000000000000000000000000000000000000000000169084015260001960248401523060448401525af1908115611734575061170b575b80808480f35b813d831161172d575b61171e8183611bce565b8101031261065d573880611705565b503d611714565b513d85823e3d90fd5b90508481813d8311611763575b6117548183611bce565b81010312610fb057513861169d565b503d61174a565b83513d88823e3d90fd5b5050346102d35760603660031901126102d3576020906109aa611795611afd565b61179d611b13565b604435916117ac833383611d07565b611c06565b5050346102d357816003193601126102d3576020906002549051908152f35b82843461065d57602036600319011261065d575061041f60209235611dda565b90503461036857816003193601126103685761180a611afd565b602435903315611883576001600160a01b031691821561186c57508083602095338152600187528181208582528752205582519081527f8c5be1e5ebec7d5bd14f71427d1e84f3dd0314c0f7b2291e5b200ac8c7c3b925843392a35160018152f35b8351634a1406b160e11b8152908101859052602490fd5b835163e602df0560e01b8152808401869052602490fd5b91905034610368578260031936011261036857805191836003549060019082821c928281168015611985575b6020958686108214611972575084885290811561195057506001146118f7575b610a5f8686610a55828b0383611bce565b929550600383527fc2575a0e9e593c00f959f8c92f12db2869c3395a3b0502d05e2516446f71f85b5b82841061193d5750505082610a5f94610a559282010194386118e6565b8054868501880152928601928101611920565b60ff191687860152505050151560051b8301019250610a5582610a5f386118e6565b634e487b7160e01b845260229052602483fd5b93607f16936118c6565b5050346102d357816003193601126102d357602090600b549051908152f35b5050346102d357816003193601126102d35760209061041f612730565b5050346102d357816003193601126102d357600d5490516001600160a01b039091168152602090f35b92915034611a8a5783600319360112611a8a576011546370a0823160e01b84523091840191909152602090839060249082906001600160a01b03165afa918215611a80578392611a49575b6020838351908152f35b9091506020813d8211611a78575b81611a6460209383611bce565b810103126103685760209250519038611a3f565b3d9150611a57565b81513d85823e3d90fd5b8380fd5b6020808252825181830181905290939260005b828110611ac357505060409293506000838284010152601f8019910116010190565b818101860151848201604001528501611aa1565b346107f85760203660031901126107f8576020611af5600435611e5e565b604051908152f35b600435906001600160a01b03821682036107f857565b602435906001600160a01b03821682036107f857565b346107f85760203660031901126107f857611b42611afd565b5060206040516000198152f35b60609060031901126107f857600435906001600160a01b039060243582811681036107f8579160443590811681036107f85790565b346107f85760203660031901126107f8576020611af5600435611e08565b6005546001600160a01b03163303611bb657565b60405163118cdaa760e01b8152336004820152602490fd5b90601f8019910116810190811067ffffffffffffffff821117611bf057604052565b634e487b7160e01b600052604160045260246000fd5b916001600160a01b03808416928315611ccb5716928315611cb25760009083825281602052604082205490838210611c80575091604082827fddf252ad1be2c89b69c2b068fc378daa952ba7f163c4a11628f55a4df523b3ef958760209652828652038282205586815220818154019055604051908152a3565b60405163391434e360e21b81526001600160a01b03919091166004820152602481019190915260448101839052606490fd5b60405163ec442f0560e01b815260006004820152602490fd5b604051634b637e8f60e11b815260006004820152602490fd5b91908201809211611cf157565b634e487b7160e01b600052601160045260246000fd5b9160018060a01b038093169160009383855260016020526040938486209183169182875260205284862054926000198410611d46575b50505050505050565b848410611daa57508015611d92578115611d7a57855260016020528385209085526020520391205538808080808080611d3d565b8451634a1406b160e11b815260048101879052602490fd5b845163e602df0560e01b815260048101879052602490fd5b8551637dc7a0d960e11b81526001600160a01b039190911660048201526024810184905260448101859052606490fd5b60025460018101809111611cf157611df0612730565b9060018201809211611cf157611e059261218e565b90565b60025460018101809111611cf157611e1e612730565b9060018201809211611cf157611e05926121c4565b611e3b612730565b60018101809111611cf1576002549060018201809211611cf157611e059261218e565b611e66612730565b60018101809111611cf1576002549060018201809211611cf157611e05926121c4565b604080516323b872dd60e01b60208201526001600160a01b0392831660248201819052306044830152606480830187905282529491939192919060a081019067ffffffffffffffff821181831017611bf057611f09918652837f000000000000000000000000000000000000000000000000000000000000000016612126565b16938415611f90579081611f417fdcbc1c05240f31ff3ad067ef1ee35ce4997762752e3a095284754544f4c709d79493600254611ce4565b600255856000526000602052826000208181540190558560007fddf252ad1be2c89b69c2b068fc378daa952ba7f163c4a11628f55a4df523b3ef60208651858152a382519182526020820152a3565b825163ec442f0560e01b815260006004820152602490fd5b6001600160a01b0380841695818316947ffbde797d201c681b91056529119e0b02407c7bb96a4a2c75c01fc9667232c8db94604094909291611ff791839190828c8b03612033575b5050612044565b6120248783857f0000000000000000000000000000000000000000000000000000000000000000166120e3565b835196875260208701521693a4565b61203d9183611d07565b3882611ff0565b906001600160a01b038216908115611ccb57600092828452836020526040842054908282106120b15750817fddf252ad1be2c89b69c2b068fc378daa952ba7f163c4a11628f55a4df523b3ef926020928587528684520360408620558060025403600255604051908152a3565b60405163391434e360e21b81526001600160a01b03919091166004820152602481019190915260448101829052606490fd5b60405163a9059cbb60e01b60208201526001600160a01b039290921660248301526044808301939093529181526121249161211f606483611bce565b612126565b565b906000602091828151910182855af115612182576000513d61217957506001600160a01b0381163b155b6121575750565b604051635274afe760e01b81526001600160a01b039091166004820152602490fd5b60011415612150565b6040513d6000823e3d90fd5b9161219a8183856121c4565b9181156121ae57611e059309151590611ce4565b634e487b7160e01b600052601260045260246000fd5b90916000198383099280830292838086109503948086039514612254578483111561223b579082910981600003821680920460028082600302188083028203028083028203028083028203028083028203028083028203028092029003029360018380600003040190848311900302920304170290565b82634e487b71600052156003026011186020526024601cfd5b5050809250156121ae570490565b60ff6007541661226e57565b60405163d93c066560e01b8152600490fd5b600260065414612291576002600655565b604051633ee5aeb560e01b8152600490fd5b91908203918211611cf157565b81810292918115918404141715611cf157565b60ff60075460a81c1615612357576122dd600f54426122a3565b80156123545761230b64496cebb800916123066122f8612730565b612300612369565b906122b0565b6122b0565b04806123145750565b6020816123447fcfad015a1c9077dd207d62466bb2fe714162b7bda0cca54bb619a967837102ae93600e54611ce4565b600e5542600f55604051908152a1565b50565b60405163666f681360e01b8152600490fd5b60ff60075460a81c161561237f57611e056125a4565b600090565b601154604080516370a0823160e01b80825230600483015294919391926020926001600160a01b0392909184908290602490829087165afa90811561257157600091612544575b5080821161253c575b50801561253157908260009392606483601054169188519687938492631a4ca37b60e21b8452877f000000000000000000000000000000000000000000000000000000000000000016600485015260248401523060448401525af160009381612502575b5061244e578451636794231b60e11b8152600490fd5b9080929394916011541695602483518098819382523060048301525afa9485156124f7576000956124aa575b507ffac8b50d2cda6c83b642b77e276420abe241f6e177c52e5561dc3a37037641b692939460125551838152a190565b8281813d83116124f0575b6124bf8183611bce565b81010312610fb0575194507ffac8b50d2cda6c83b642b77e276420abe241f6e177c52e5561dc3a37037641b661247a565b503d6124b5565b50513d6000823e3d90fd5b90938382813d831161252a575b6125198183611bce565b8101031261065d5750519238612438565b503d61250f565b505050915050600090565b9050386123d4565b908482813d831161256a575b61255a8183611bce565b8101031261065d575051386123cb565b503d612550565b86513d6000823e3d90fd5b51906001600160801b03821682036107f857565b51906001600160a01b03821682036107f857565b6010546040516335ea6a7560e01b81526001600160a01b037f00000000000000000000000000000000000000000000000000000000000000008116600483015290916101e091829184916024918391165afa9160009183612641575b5050901560001461261257506101c290565b6001600160801b03166301e1338090818102918183041490151715611cf15769152d02c7e14af6800000900490565b81813d8311612729575b6126558183611bce565b810103126102d3576126696020820161257c565b506126766040820161257c565b916126836060830161257c565b506126906080830161257c565b5061269d60a0830161257c565b5060c082015164ffffffffff81160361065d5760e082015161ffff81160361065d57506101c0816126d46101006127219401612590565b506126e26101208201612590565b506126f06101408201612590565b506126fe6101608201612590565b5061270c610180820161257c565b5061271a6101a0820161257c565b500161257c565b503880612600565b503d61264b565b6040516370a0823160e01b8082523060048301526020906001600160a01b0382846024817f000000000000000000000000000000000000000000000000000000000000000085165afa938415612182576000946127fb575b508290601154169160246040518094819382523060048301525afa918215612182576000926127ca575b50506127c190611e0592611ce4565b600e5490611ce4565b81819392933d83116127f4575b6127e18183611bce565b8101031261065d575051816127c16127b2565b503d6127d7565b90938382813d8311612823575b6128128183611bce565b8101031261065d5750519282612788565b503d61280856fea2646970667358221220f3578b9ff2f4a7f47e4d505c767bfc5ebe960a71b49e53e349a4a2eae9f6e35b64736f6c63430008140033",
  "linkReferences": {},
  "deployedLinkReferences": {}
}