{
  "_format": "hh-sol-artifact-1",
  "contractName": "BillsVault",
  "sourceName": "contracts/src/vaults/BillsVault.sol",
  "abi": [
    {
      "inputs": [
        {
          "internalType": "contract IERC20",
          "name": "asset_",
          "type": "address"
        },
        {
          "internalType": "uint256",
          "name": "maxDeposit_",
          "type": "uint256"
        },
        {
          "internalType": "address",
          "name": "lendlePool_",
          "type": "address"
        },
        {
          "internalType": "address",
          "name": "aToken_",
          "type": "address"
        }
      ],
      "stateMutability": "nonpayable",
      "type": "constructor"
    },
    {
      "inputs": [
        {
          "internalType": "address",
          "name": "spender",
          "type": "address"
        },
        {
          "internalType": "uint256",
          "name": "allowance",
          "type": "uint256"
        },
        {
          "internalType": "uint256",
          "name": "needed",
          "type": "uint256"
        }
      ],
      "name": "ERC20InsufficientAllowance",
      "type": "error"
    },
    {
      "inputs": [
        {
          "internalType": "address",
          "name": "sender",
          "type": "address"
        },
        {
          "internalType": "uint256",
          "name": "balance",
          "type": "uint256"
        },
        {
          "internalType": "uint256",
          "name": "needed",
          "type": "uint256"
        }
      ],
      "name": "ERC20InsufficientBalance",
      "type": "error"
    },
    {
      "inputs": [
        {
          "internalType": "address",
          "name": "approver",
          "type": "address"
        }
      ],
      "name": "ERC20InvalidApprover",
      "type": "error"
    },
    {
      "inputs": [
        {
          "internalType": "address",
          "name": "receiver",
          "type": "address"
        }
      ],
      "name": "ERC20InvalidReceiver",
      "type": "error"
    },
    {
      "inputs": [
        {
          "internalType": "address",
          "name": "sender",
          "type": "address"
        }
      ],
      "name": "ERC20InvalidSender",
      "type": "error"
    },
    {
      "inputs": [
        {
          "internalType": "address",
          "name": "spender",
          "type": "address"
        }
      ],
      "name": "ERC20InvalidSpender",
      "type": "error"
    },
    {
      "inputs": [
        {
          "internalType": "address",
          "name": "receiver",
          "type": "address"
        },
        {
          "internalType": "uint256",
          "name": "assets",
          "type": "uint256"
        },
        {
          "internalType": "uint256",
          "name": "max",
          "type": "uint256"
        }
      ],
      "name": "ERC4626ExceededMaxDeposit",
      "type": "error"
    },
    {
      "inputs": [
        {
          "internalType": "address",
          "name": "receiver",
          "type": "address"
        },
        {
          "internalType": "uint256",
          "name": "shares",
          "type": "uint256"
        },
        {
          "internalType": "uint256",
          "name": "max",
          "type": "uint256"
        }
      ],
      "name": "ERC4626ExceededMaxMint",
      "type": "error"
    },
    {
      "inputs": [
        {
          "internalType": "address",
          "name": "owner",
          "type": "address"
        },
        {
          "internalType": "uint256",
          "name": "shares",
          "type": "uint256"
        },
        {
          "internalType": "uint256",
          "name": "max",
          "type": "uint256"
        }
      ],
      "name": "ERC4626ExceededMaxRedeem",
      "type": "error"
    },
    {
      "inputs": [
        {
          "internalType": "address",
          "name": "owner",
          "type": "address"
        },
        {
          "internalType": "uint256",
          "name": "assets",
          "type": "uint256"
        },
        {
          "internalType": "uint256",
          "name": "max",
          "type": "uint256"
        }
      ],
      "name": "ERC4626ExceededMaxWithdraw",
      "type": "error"
    },
    {
      "inputs": [],
      "name": "EmergencyWithdrawalPenaltyTooHigh",
      "type": "error"
    },
    {
      "inputs": [],
      "name": "EnforcedPause",
      "type": "error"
    },
    {
      "inputs": [],
      "name": "ExceedsMaxDeposit",
      "type": "error"
    },
    {
      "inputs": [],
      "name": "ExceedsMaxSlippage",
      "type": "error"
    },
    {
      "inputs": [],
      "name": "ExpectedPause",
      "type": "error"
    },
    {
      "inputs": [],
      "name": "InsufficientBalance",
      "type": "error"
    },
    {
      "inputs": [],
      "name": "InvalidAmount",
      "type": "error"
    },
    {
      "inputs": [
        {
          "internalType": "address",
          "name": "owner",
          "type": "address"
        }
      ],
      "name": "OwnableInvalidOwner",
      "type": "error"
    },
    {
      "inputs": [
        {
          "internalType": "address",
          "name": "account",
          "type": "address"
        }
      ],
      "name": "OwnableUnauthorizedAccount",
      "type": "error"
    },
    {
      "inputs": [],
      "name": "ReentrancyGuardReentrantCall",
      "type": "error"
    },
    {
      "inputs": [
        {
          "internalType": "address",
          "name": "token",
          "type": "address"
        }
      ],
      "name": "SafeERC20FailedOperation",
      "type": "error"
    },
    {
      "inputs": [],
      "name": "WithdrawalDelayNotMet",
      "type": "error"
    },
    {
      "inputs": [],
      "name": "YieldProtocolCallFailed",
      "type": "error"
    },
    {
      "inputs": [],
      "name": "YieldProtocolNotSet",
      "type": "error"
    },
    {
      "anonymous": false,
      "inputs": [
        {
          "indexed": true,
          "internalType": "address",
          "name": "owner",
          "type": "address"
        },
        {
          "indexed": true,
          "internalType": "address",
          "name": "spender",
          "type": "address"
        },
        {
          "indexed": false,
          "internalType": "uint256",
          "name": "value",
          "type": "uint256"
        }
      ],
      "name": "Approval",
      "type": "event"
    },
    {
      "anonymous": false,
      "inputs": [
        {
          "indexed": true,
          "internalType": "address",
          "name": "sender",
          "type": "address"
        },
        {
          "indexed": true,
          "internalType": "address",
          "name": "owner",
          "type": "address"
        },
        {
          "indexed": false,
          "internalType": "uint256",
          "name": "assets",
          "type": "uint256"
        },
        {
          "indexed": false,
          "internalType": "uint256",
          "name": "shares",
          "type": "uint256"
        }
      ],
      "name": "Deposit",
      "type": "event"
    },
    {
      "anonymous": false,
      "inputs": [
        {
          "indexed": true,
          "internalType": "address",
          "name": "user",
          "type": "address"
        },
        {
          "indexed": false,
          "internalType": "uint256",
          "name": "amount",
          "type": "uint256"
        },
        {
          "indexed": false,
          "internalType": "uint256",
          "name": "penalty",
          "type": "uint256"
        }
      ],
      "name": "EmergencyWithdrawal",
      "type": "event"
    },
    {
      "anonymous": false,
      "inputs": [
        {
          "indexed": false,
          "internalType": "uint256",
          "name": "amount",
          "type": "uint256"
        }
      ],
      "name": "LendleSupplied",
      "type": "event"
    },
    {
      "anonymous": false,
      "inputs": [
        {
          "indexed": false,
          "internalType": "uint256",
          "name": "amount",
          "type": "uint256"
        }
      ],
      "name": "LendleWithdrawn",
      "type": "event"
    },
    {
      "anonymous": false,
      "inputs": [
        {
          "indexed": false,
          "internalType": "uint256",
          "name": "newLimit",
          "type": "uint256"
        }
      ],
      "name": "MaxDepositLimitUpdated",
      "type": "event"
    },
    {
      "anonymous": false,
      "inputs": [
        {
          "indexed": true,
          "internalType": "address",
          "name": "previousOwner",
          "type": "address"
        },
        {
          "indexed": true,
          "internalType": "address",
          "name": "newOwner",
          "type": "address"
        }
      ],
      "name": "OwnershipTransferred",
      "type": "event"
    },
    {
      "anonymous": false,
      "inputs": [
        {
          "indexed": false,
          "internalType": "address",
          "name": "account",
          "type": "address"
        }
      ],
      "name": "Paused",
      "type": "event"
    },
    {
      "anonymous": false,
      "inputs": [
        {
          "indexed": false,
          "internalType": "uint256",
          "name": "maxSlippageBps",
          "type": "uint256"
        }
      ],
      "name": "SlippageProtectionUpdated",
      "type": "event"
    },
    {
      "anonymous": false,
      "inputs": [
        {
          "indexed": true,
          "internalType": "address",
          "name": "from",
          "type": "address"
        },
        {
          "indexed": true,
          "internalType": "address",
          "name": "to",
          "type": "address"
        },
        {
          "indexed": false,
          "internalType": "uint256",
          "name": "value",
          "type": "uint256"
        }
      ],
      "name": "Transfer",
      "type": "event"
    },
    {
      "anonymous": false,
      "inputs": [
        {
          "indexed": false,
          "internalType": "address",
          "name": "account",
          "type": "address"
        }
      ],
      "name": "Unpaused",
      "type": "event"
    },
    {
      "anonymous": false,
      "inputs": [
        {
          "indexed": true,
          "internalType": "address",
          "name": "sender",
          "type": "address"
        },
        {
          "indexed": true,
          "internalType": "address",
          "name": "receiver",
          "type": "address"
        },
        {
          "indexed": true,
          "internalType": "address",
          "name": "owner",
          "type": "address"
        },
        {
          "indexed": false,
          "internalType": "uint256",
          "name": "assets",
          "type": "uint256"
        },
        {
          "indexed": false,
          "internalType": "uint256",
          "name": "shares",
          "type": "uint256"
        }
      ],
      "name": "Withdraw",
      "type": "event"
    },
    {
      "anonymous": false,
      "inputs": [
        {
          "indexed": false,
          "internalType": "uint256",
          "name": "delaySeconds",
          "type": "uint256"
        },
        {
          "indexed": false,
          "internalType": "uint256",
          "name": "feeBps",
          "type": "uint256"
        }
      ],
      "name": "WithdrawalConfigUpdated",
      "type": "event"
    },
    {
      "anonymous": false,
      "inputs": [
        {
          "indexed": false,
          "internalType": "uint256",
          "name": "amount",
          "type": "uint256"
        }
      ],
      "name": "YieldCompounded",
      "type": "event"
    },
    {
      "anonymous": false,
      "inputs": [
        {
          "indexed": false,
          "internalType": "uint256",
          "name": "amount",
          "type": "uint256"
        },
        {
          "indexed": false,
          "internalType": "uint256",
          "name": "shares",
          "type": "uint256"
        }
      ],
      "name": "YieldDeposited",
      "type": "event"
    },
    {
      "anonymous": false,
      "inputs": [
        {
          "indexed": true,
          "internalType": "address",
          "name": "protocol",
          "type": "address"
        }
      ],
      "name": "YieldProtocolSet",
      "type": "event"
    },
    {
      "anonymous": false,
      "inputs": [
        {
          "indexed": false,
          "internalType": "uint256",
          "name": "shares",
          "type": "uint256"
        },
        {
          "indexed": false,
          "internalType": "uint256",
          "name": "amount",
          "type": "uint256"
        }
      ],
      "name": "YieldWithdrawn",
      "type": "event"
    },
    {
      "inputs": [],
      "name": "EMERGENCY_PENALTY_BPS",
      "outputs": [
        {
          "internalType": "uint256",
          "name": "",
          "type": "uint256"
        }
      ],
      "stateMutability": "view",
      "type": "function"
    },
    {
      "inputs": [],
      "name": "MAX_BPS",
      "outputs": [
        {
          "internalType": "uint256",
          "name": "",
          "type": "uint256"
        }
      ],
      "stateMutability": "view",
      "type": "function"
    },
    {
      "inputs": [],
      "name": "aToken",
      "outputs": [
        {
          "internalType": "contract IAToken",
          "name": "",
          "type": "address"
        }
      ],
      "stateMutability": "view",
      "type": "function"
    },
    {
      "inputs": [
        {
          "internalType": "address",
          "name": "owner",
          "type": "address"
        },
        {
          "internalType": "address",
          "name": "spender",
          "type": "address"
        }
      ],
      "name": "allowance",
      "outputs": [
        {
          "internalType": "uint256",
          "name": "",
          "type": "uint256"
        }
      ],
      "stateMutability": "view",
      "type": "function"
    },
    {
      "inputs": [
        {
          "internalType": "address",
          "name": "spender",
          "type": "address"
        },
        {
          "internalType": "uint256",
          "name": "value",
          "type": "uint256"
        }
      ],
      "name": "approve",
      "outputs": [
        {
          "internalType": "bool",
          "name": "",
          "type": "bool"
        }
      ],
      "stateMutability": "nonpayable",
      "type": "function"
    },
    {
      "inputs": [],
      "name": "asset",
      "outputs": [
        {
          "internalType": "address",
          "name": "",
          "type": "address"
        }
      ],
      "stateMutability": "view",
      "type": "function"
    },
    {
      "inputs": [
        {
          "internalType": "address",
          "name": "account",
          "type": "address"
        }
      ],
      "name": "balanceOf",
      "outputs": [
        {
          "internalType": "uint256",
          "name": "",
          "type": "uint256"
        }
      ],
      "stateMutability": "view",
      "type": "function"
    },
    {
      "inputs": [],
      "name": "compoundYield",
      "outputs": [],
      "stateMutability": "nonpayable",
      "type": "function"
    },
    {
      "inputs": [
        {
          "internalType": "uint256",
          "name": "shares",
          "type": "uint256"
        }
      ],
      "name": "convertToAssets",
      "outputs": [
        {
          "internalType": "uint256",
          "name": "",
          "type": "uint256"
        }
      ],
      "stateMutability": "view",
      "type": "function"
    },
    {
      "inputs": [
        {
          "internalType": "uint256",
          "name": "assets",
          "type": "uint256"
        }
      ],
      "name": "convertToShares",
      "outputs": [
        {
          "internalType": "uint256",
          "name": "",
          "type": "uint256"
        }
      ],
      "stateMutability": "view",
      "type": "function"
    },
    {
      "inputs": [],
      "name": "decimals",
      "outputs": [
        {
          "internalType": "uint8",
          "name": "",
          "type": "uint8"
        }
      ],
      "stateMutability": "view",
      "type": "function"
    },
    {
      "inputs": [
        {
          "internalType": "uint256",
          "name": "assets",
          "type": "uint256"
        },
        {
          "internalType": "address",
          "name": "receiver",
          "type": "address"
        }
      ],
      "name": "deposit",
      "outputs": [
        {
          "internalType": "uint256",
          "name": "shares",
          "type": "uint256"
        }
      ],
      "stateMutability": "nonpayable",
      "type": "function"
    },
    {
      "inputs": [
        {
          "internalType": "uint256",
          "name": "amount",
          "type": "uint256"
        }
      ],
      "name": "depositToYieldProtocol",
      "outputs": [],
      "stateMutability": "nonpayable",
      "type": "function"
    },
    {
      "inputs": [
        {
          "internalType": "uint256",
          "name": "assets",
          "type": "uint256"
        }
      ],
      "name": "emergencyWithdraw",
      "outputs": [],
      "stateMutability": "nonpayable",
      "type": "function"
    },
    {
      "inputs": [],
      "name": "emergencyWithdrawFromLendle",
      "outputs": [],
      "stateMutability": "nonpayable",
      "type": "function"
    },
    {
      "inputs": [],
      "name": "getATokenBalance",
      "outputs": [
        {
          "internalType": "uint256",
          "name": "",
          "type": "uint256"
        }
      ],
      "stateMutability": "view",
      "type": "function"
    },
    {
      "inputs": [],
      "name": "getSupplyRate",
      "outputs": [
        {
          "internalType": "uint256",
          "name": "",
          "type": "uint256"
        }
      ],
      "stateMutability": "view",
      "type": "function"
    },
    {
      "inputs": [],
      "name": "getYieldRate",
      "outputs": [
        {
          "internalType": "uint256",
          "name": "",
          "type": "uint256"
        }
      ],
      "stateMutability": "view",
      "type": "function"
    },
    {
      "inputs": [
        {
          "internalType": "address",
          "name": "",
          "type": "address"
        }
      ],
      "name": "lastDepositTimestamp",
      "outputs": [
        {
          "internalType": "uint256",
          "name": "",
          "type": "uint256"
        }
      ],
      "stateMutability": "view",
      "type": "function"
    },
    {
      "inputs": [],
      "name": "lastYieldUpdate",
      "outputs": [
        {
          "internalType": "uint256",
          "name": "",
          "type": "uint256"
        }
      ],
      "stateMutability": "view",
      "type": "function"
    },
    {
      "inputs": [],
      "name": "lendlePool",
      "outputs": [
        {
          "internalType": "contract ILendlePool",
          "name": "",
          "type": "address"
        }
      ],
      "stateMutability": "view",
      "type": "function"
    },
    {
      "inputs": [
        {
          "internalType": "address",
          "name": "",
          "type": "address"
        }
      ],
      "name": "maxDeposit",
      "outputs": [
        {
          "internalType": "uint256",
          "name": "",
          "type": "uint256"
        }
      ],
      "stateMutability": "view",
      "type": "function"
    },
    {
      "inputs": [],
      "name": "maxDepositLimit",
      "outputs": [
        {
          "internalType": "uint256",
          "name": "",
          "type": "uint256"
        }
      ],
      "stateMutability": "view",
      "type": "function"
    },
    {
      "inputs": [
        {
          "internalType": "address",
          "name": "",
          "type": "address"
        }
      ],
      "name": "maxMint",
      "outputs": [
        {
          "internalType": "uint256",
          "name": "",
          "type": "uint256"
        }
      ],
      "stateMutability": "view",
      "type": "function"
    },
    {
      "inputs": [
        {
          "internalType": "address",
          "name": "owner",
          "type": "address"
        }
      ],
      "name": "maxRedeem",
      "outputs": [
        {
          "internalType": "uint256",
          "name": "",
          "type": "uint256"
        }
      ],
      "stateMutability": "view",
      "type": "function"
    },
    {
      "inputs": [],
      "name": "maxSlippageBps",
      "outputs": [
        {
          "internalType": "uint256",
          "name": "",
          "type": "uint256"
        }
      ],
      "stateMutability": "view",
      "type": "function"
    },
    {
      "inputs": [
        {
          "internalType": "address",
          "name": "owner",
          "type": "address"
        }
      ],
      "name": "maxWithdraw",
      "outputs": [
        {
          "internalType": "uint256",
          "name": "",
          "type": "uint256"
        }
      ],
      "stateMutability": "view",
      "type": "function"
    },
    {
      "inputs": [
        {
          "internalType": "uint256",
          "name": "shares",
          "type": "uint256"
        },
        {
          "internalType": "address",
          "name": "receiver",
          "type": "address"
        }
      ],
      "name": "mint",
      "outputs": [
        {
          "internalType": "uint256",
          "name": "",
          "type": "uint256"
        }
      ],
      "stateMutability": "nonpayable",
      "type": "function"
    },
    {
      "inputs": [],
      "name": "name",
      "outputs": [
        {
          "internalType": "string",
          "name": "",
          "type": "string"
        }
      ],
      "stateMutability": "view",
      "type": "function"
    },
    {
      "inputs": [],
      "name": "owner",
      "outputs": [
        {
          "internalType": "address",
          "name": "",
          "type": "address"
        }
      ],
      "stateMutability": "view",
      "type": "function"
    },
    {
      "inputs": [],
      "name": "pause",
      "outputs": [],
      "stateMutability": "nonpayable",
      "type": "function"
    },
    {
      "inputs": [],
      "name": "paused",
      "outputs": [
        {
          "internalType": "bool",
          "name": "",
          "type": "bool"
        }
      ],
      "stateMutability": "view",
      "type": "function"
    },
    {
      "inputs": [],
      "name": "penaltyRecipient",
      "outputs": [
        {
          "internalType": "address",
          "name": "",
          "type": "address"
        }
      ],
      "stateMutability": "view",
      "type": "function"
    },
    {
      "inputs": [
        {
          "internalType": "uint256",
          "name": "assets",
          "type": "uint256"
        }
      ],
      "name": "previewDeposit",
      "outputs": [
        {
          "internalType": "uint256",
          "name": "",
          "type": "uint256"
        }
      ],
      "stateMutability": "view",
      "type": "function"
    },
    {
      "inputs": [
        {
          "internalType": "uint256",
          "name": "shares",
          "type": "uint256"
        }
      ],
      "name": "previewMint",
      "outputs": [
        {
          "internalType": "uint256",
          "name": "",
          "type": "uint256"
        }
      ],
      "stateMutability": "view",
      "type": "function"
    },
    {
      "inputs": [
        {
          "internalType": "uint256",
          "name": "shares",
          "type": "uint256"
        }
      ],
      "name": "previewRedeem",
      "outputs": [
        {
          "internalType": "uint256",
          "name": "",
          "type": "uint256"
        }
      ],
      "stateMutability": "view",
      "type": "function"
    },
    {
      "inputs": [
        {
          "internalType": "uint256",
          "name": "assets",
          "type": "uint256"
        }
      ],
      "name": "previewWithdraw",
      "outputs": [
        {
          "internalType": "uint256",
          "name": "",
          "type": "uint256"
        }
      ],
      "stateMutability": "view",
      "type": "function"
    },
    {
      "inputs": [
        {
          "internalType": "uint256",
          "name": "shares",
          "type": "uint256"
        },
        {
          "internalType": "address",
          "name": "receiver",
          "type": "address"
        },
        {
          "internalType": "address",
          "name": "owner",
          "type": "address"
        }
      ],
      "name": "redeem",
      "outputs": [
        {
          "internalType": "uint256",
          "name": "",
          "type": "uint256"
        }
      ],
      "stateMutability": "nonpayable",
      "type": "function"
    },
    {
      "inputs": [],
      "name": "renounceOwnership",
      "outputs": [],
      "stateMutability": "nonpayable",
      "type": "function"
    },
    {
      "inputs": [
        {
          "internalType": "uint256",
          "name": "newLimit",
          "type": "uint256"
        }
      ],
      "name": "setMaxDepositLimit",
      "outputs": [],
      "stateMutability": "nonpayable",
      "type": "function"
    },
    {
      "inputs": [
        {
          "internalType": "uint256",
          "name": "slippageBps",
          "type": "uint256"
        }
      ],
      "name": "setMaxSlippage",
      "outputs": [],
      "stateMutability": "nonpayable",
      "type": "function"
    },
    {
      "inputs": [
        {
          "internalType": "address",
          "name": "recipient",
          "type": "address"
        }
      ],
      "name": "setPenaltyRecipient",
      "outputs": [],
      "stateMutability": "nonpayable",
      "type": "function"
    },
    {
      "inputs": [
        {
          "internalType": "uint256",
          "name": "delaySeconds",
          "type": "uint256"
        },
        {
          "internalType": "uint256",
          "name": "feeBps",
          "type": "uint256"
        }
      ],
      "name": "setWithdrawalConfig",
      "outputs": [],
      "stateMutability": "nonpayable",
      "type": "function"
    },
    {
      "inputs": [
        {
          "internalType": "address",
          "name": "protocol",
          "type": "address"
        }
      ],
      "name": "setYieldProtocol",
      "outputs": [],
      "stateMutability": "nonpayable",
      "type": "function"
    },
    {
      "inputs": [],
      "name": "symbol",
      "outputs": [
        {
          "internalType": "string",
          "name": "",
          "type": "string"
        }
      ],
      "stateMutability": "view",
      "type": "function"
    },
    {
      "inputs": [],
      "name": "totalATokenBalance",
      "outputs": [
        {
          "internalType": "uint256",
          "name": "",
          "type": "uint256"
        }
      ],
      "stateMutability": "view",
      "type": "function"
    },
    {
      "inputs": [],
      "name": "totalAssets",
      "outputs": [
        {
          "internalType": "uint256",
          "name": "",
          "type": "uint256"
        }
      ],
      "stateMutability": "view",
      "type": "function"
    },
    {
      "inputs": [],
      "name": "totalSupply",
      "outputs": [
        {
          "internalType": "uint256",
          "name": "",
          "type": "uint256"
        }
      ],
      "stateMutability": "view",
      "type": "function"
    },
    {
      "inputs": [],
      "name": "totalYieldEarned",
      "outputs": [
        {
          "internalType": "uint256",
          "name": "",
          "type": "uint256"
        }
      ],
      "stateMutability": "view",
      "type": "function"
    },
    {
      "inputs": [
        {
          "internalType": "address",
          "name": "to",
          "type": "address"
        },
        {
          "internalType": "uint256",
          "name": "value",
          "type": "uint256"
        }
      ],
      "name": "transfer",
      "outputs": [
        {
          "internalType": "bool",
          "name": "",
          "type": "bool"
        }
      ],
      "stateMutability": "nonpayable",
      "type": "function"
    },
    {
      "inputs": [
        {
          "internalType": "address",
          "name": "from",
          "type": "address"
        },
        {
          "internalType": "address",
          "name": "to",
          "type": "address"
        },
        {
          "internalType": "uint256",
          "name": "value",
          "type": "uint256"
        }
      ],
      "name": "transferFrom",
      "outputs": [
        {
          "internalType": "bool",
          "name": "",
          "type": "bool"
        }
      ],
      "stateMutability": "nonpayable",
      "type": "function"
    },
    {
      "inputs": [
        {
          "internalType": "address",
          "name": "newOwner",
          "type": "address"
        }
      ],
      "name": "transferOwnership",
      "outputs": [],
      "stateMutability": "nonpayable",
      "type": "function"
    },
    {
      "inputs": [],
      "name": "unpause",
      "outputs": [],
      "stateMutability": "nonpayable",
      "type": "function"
    },
    {
      "inputs": [],
      "name": "vaultType",
      "outputs": [
        {
          "internalType": "enum BucketVaultV2.VaultType",
          "name": "",
          "type": "uint8"
        }
      ],
      "stateMutability": "view",
      "type": "function"
    },
    {
      "inputs": [
        {
          "internalType": "uint256",
          "name": "assets",
          "type": "uint256"
        },
        {
          "internalType": "address",
          "name": "receiver",
          "type": "address"
        },
        {
          "internalType": "address",
          "name": "owner",
          "type": "address"
        }
      ],
      "name": "withdraw",
      "outputs": [
        {
          "internalType": "uint256",
          "name": "shares",
          "type": "uint256"
        }
      ],
      "stateMutability": "nonpayable",
      "type": "function"
    },
    {
      "inputs": [
        {
          "internalType": "uint256",
          "name": "shares",
          "type": "uint256"
        }
      ],
      "name": "withdrawFromYieldProtocol",
      "outputs": [],
      "stateMutability": "nonpayable",
      "type": "function"
    },
    {
      "inputs": [],
      "name": "withdrawalDelaySeconds",
      "outputs": [
        {
          "internalType": "uint256",
          "name": "",
          "type": "uint256"
        }
      ],
      "stateMutability": "view",
      "type": "function"
    },
    {
      "inputs": [],
      "name": "withdrawalFeeBps",
      "outputs": [
        {
          "internalType": "uint256",
          "name": "",
          "type": "uint256"
        }
      ],
      "stateMutability": "view",
      "type": "function"
    },
    {
      "inputs": [],
      "name": "yieldEnabled",
      "outputs": [
        {
          "internalType": "bool",
          "name": "",
          "type": "bool"
        }
      ],
      "stateMutability": "view",
      "type": "function"
    },
    {
      "inputs": [],
      "name": "yieldProtocol",
      "outputs": [
        {
          "internalType": "address",
          "name": "",
          "type": "address"
        }
      ],
      "stateMutability": "view",
      "type": "function"
    }
  ],
  "bytecode": "0x60e080604052346200055f5760808162002eef803803809162000023828562000580565b8339810103126200055f578051906001600160a01b03821682036200055f5760208101516200006360606200005b60408501620005a4565b9301620005a4565b92604051620000728162000564565b601681527f50616c6d4275646765742042696c6c73205661756c74000000000000000000006020820152604051620000aa8162000564565b6007815266706242494c4c5360c81b602082015281516001600160401b0392838211620004325760035490600182811c9216801562000554575b6020831014620004115781601f849311620004df575b50602090601f8311600114620004545760009262000448575b50508160011b916000199060031b1c1916176003555b8051918211620004325760045490600182811c9216801562000427575b6020831014620004115781601f8493116200039c575b50602090601f8311600114620003115760009262000305575b50508160011b916000199060031b1c1916176004555b6200019681620005b9565b9015620002fc575b60a0526080523315620002e35760058054336001600160a01b03198083168217909355604051959293916001600160a01b03167f8be0079c531659141344cd1fd0a4f28419497f9722a3daafe3b4186f6b6457e0600080a36001600655600060c0526008908155603260095542600f55600d805484163317905562093a80600a5560c8600b556010805484166001600160a01b03868116919091179091556011805490941692169190911790915560078054610100600160b01b0319169290911b610100600160a81b031691909117600160a81b17905561285990816200069682396080518181816107640152818161085201528181610da9015281816112ed015281816115bf015281816116cb01528181611c2d015281816121de015281816123a5015281816124dc01526126ae015260a05181611604015260c051816113e50152f35b604051631e4fbdf760e01b815260006004820152602490fd5b5060126200019e565b01519050388062000175565b600460009081527f8a35acfbc15ff81a39ae7d344fd709f28e8600b4aa8c65c6b64bfe7fe36bd19b9350601f198516905b81811062000383575090846001959493921062000369575b505050811b016004556200018b565b015160001960f88460031b161c191690553880806200035a565b9293602060018192878601518155019501930162000342565b60046000529091507f8a35acfbc15ff81a39ae7d344fd709f28e8600b4aa8c65c6b64bfe7fe36bd19b601f840160051c8101916020851062000406575b90601f859493920160051c01905b818110620003f657506200015c565b60008155849350600101620003e7565b9091508190620003d9565b634e487b7160e01b600052602260045260246000fd5b91607f169162000146565b634e487b7160e01b600052604160045260246000fd5b01519050388062000113565b600360009081527fc2575a0e9e593c00f959f8c92f12db2869c3395a3b0502d05e2516446f71f85b9350601f198516905b818110620004c65750908460019594939210620004ac575b505050811b0160035562000129565b015160001960f88460031b161c191690553880806200049d565b9293602060018192878601518155019501930162000485565b60036000529091507fc2575a0e9e593c00f959f8c92f12db2869c3395a3b0502d05e2516446f71f85b601f840160051c8101916020851062000549575b90601f859493920160051c01905b818110620005395750620000fa565b600081558493506001016200052a565b90915081906200051c565b91607f1691620000e4565b600080fd5b604081019081106001600160401b038211176200043257604052565b601f909101601f19168101906001600160401b038211908210176200043257604052565b51906001600160a01b03821682036200055f57565b906040516020908181019063313ce56760e01b825260048152620005dd8162000564565b5160009485928392916001600160a01b03165afa3d156200068c573d906001600160401b03821162000678576040519162000622601f8201601f191685018462000580565b82523d858484013e5b806200066c575b6200063e575b50508190565b81818051810103126200066857015160ff8111156200065e578062000638565b6001925060ff1690565b8380fd5b50818151101562000632565b634e487b7160e01b85526041600452602485fd5b6060906200062b56fe608060408181526004918236101561001657600080fd5b600092833560e01c918262c2d143146119fd57508163012caae1146119d457816301e1d114146119b757816304336bb31461199857816306fdde03146118a157816307a2d13a146113cc578163095ea7b3146117f75781630a28a477146117d757816318160ddd146117b857816323b872dd1461177b57816324b263151461164a578163313ce567146115ee57816338d52e0f146115aa5781633bc725c3146115245781633f4ba83a146114ba578163402d267d1461058857816343f68a491461142a5781634ac032be146113d15781634cdad506146113cc5781635312ea8e146112565781635c975abb14611232578163655d8dec146111fa5781636e553f65146111155781636e98928b14610d5057816370a08231146104c7578163715018a614610cf25781637183941814610cd35781637a62a89514610c3e5781637e393cbe14610c155781638456cb5914610bba57816384bdc9a814610b9d5781638da5cb5b14610b745781638f8c8aee14610b555781638f9bcee814610b3857816394bf804d14610b0357816395d89b41146109fe5781639a21a86b146109df578163a0c1f15e146109b6578163a9059cbb14610985578163acaf7bb81461095c578163b25a7a18146108d7578163b3d7f6b9146108b7578163b460af9414610683578163b63c44e714610664578163ba087652146105d3578163c2752e43146105ac578163c4aa73951461058d578163c63d75b614610588578163c6e6f59214610426578163cc00967914610569578163cd4c73a71461053c578163ce96cb7714610503578163d905777e146104c7578163dd62ed3e14610479578163dfe608351461042b578163ef8b30f714610426578163f100989914610402578163f1b1c3751461036c578163f2fde38b146102d7575063fd967f47146102b857600080fd5b346102d357816003193601126102d357602090516127108152f35b5080fd5b905034610368576020366003190112610368576102f2611b07565b906102fb61204d565b6001600160a01b03918216928315610352575050600554826bffffffffffffffffffffffff60a01b821617600555167f8be0079c531659141344cd1fd0a4f28419497f9722a3daafe3b4186f6b6457e0600080a380f35b51631e4fbdf760e01b8152908101849052602490fd5b8280fd5b9050346103685760203660031901126103685780359061038a612079565b61039261204d565b60ff60075460a81c16156103f45781156103e6575090816103d37fc2e390771ee2b6cad5cb1244f940b577352851c4d635277c314747be299eba4b93612469565b82519182526020820152a1600160065580f35b825163162908e360e11b8152fd5b825163666f681360e01b8152fd5b5050346102d357816003193601126102d35760209061041f611dd5565b9051908152f35b611b8e565b905034610368576020366003190112610368577f514bf0f65cb844af227a51e123dbb8b5be8fac221f8feeb9d20591e81c46e50b91602091359061046d61204d565b8160085551908152a180f35b5050346102d357806003193601126102d357602091610496611b07565b8261049f611b1d565b6001600160a01b03928316845260018652922091166000908152908352819020549051908152f35b5050346102d35760203660031901126102d35760209061041f6104e8611b07565b6001600160a01b031660009081526020819052604090205490565b5050346102d35760203660031901126102d35760209161041f9082906001600160a01b0361052f611b07565b1681528085522054611e1b565b5050346102d357816003193601126102d357600754905160089190911c6001600160a01b03168152602090f35b5050346102d357816003193601126102d357602090600e549051908152f35b611b33565b5050346102d357816003193601126102d3576020906009549051908152f35b5050346102d357816003193601126102d35760209060ff60075460a81c1690519015158152f35b82843461066157506105e436611b59565b9291936106048460018060a01b0316600052600060205260406000205490565b80861161062c575050836106269161061d602096611e1b565b94859133612657565b51908152f35b9251632e52afbb60e21b81526001600160a01b0390941690840190815260208101949094525060408301529081906060010390fd5b80fd5b5050346102d357816003193601126102d3576020906008549051908152f35b919050346103685761069436611b59565b939091946106a0612079565b6106a861217e565b85600a548061087d575b50600b5480610814575b50508360ff60075460a81c1661074c575b6001600160a01b038616825260208290529020546106ea90611e1b565b80861161071757505061070c9084610703602096611e46565b94859233612657565b600160065551908152f35b9251633fa733bb60e21b81526001600160a01b0390941690840190815260208101949094525060408301529081906060010390fd5b516370a0823160e01b815230838201526020816024817f00000000000000000000000000000000000000000000000000000000000000006001600160a01b03165afa90811561080a5790859183916107ce575b509182886106ea94106107b5575b5091506106cd565b6107c26107c7918a611d22565b612469565b50386107ad565b9150506020813d602011610802575b816107ea60209383611bac565b810103126107fd575184906106ea61079f565b600080fd5b3d91506107dd565b85513d84823e3d90fd5b8197506108276127109161082f93611d0f565b048097611d22565b958061083c575b806106bc565b600d5461087791906001600160a01b03908116907f00000000000000000000000000000000000000000000000000000000000000001661213b565b38610836565b6001600160a01b0387168352600c6020528583205461089c9042611d22565b106108a757386106b2565b8451635ca831e160e11b81528390fd5b828434610661576020366003190112610661575061041f60209235611df0565b905034610368576020366003190112610368576108f2611b07565b6108fa61204d565b6001600160a01b03169182156109275750506bffffffffffffffffffffffff60a01b600d541617600d5580f35b906020606492519162461bcd60e51b8352820152600f60248201526e496e76616c6964206164647265737360881b6044820152fd5b5050346102d357816003193601126102d35760105490516001600160a01b039091168152602090f35b5050346102d357806003193601126102d3576020906109af6109a5611b07565b6024359033611f6f565b5160018152f35b5050346102d357816003193601126102d35760115490516001600160a01b039091168152602090f35b5050346102d357816003193601126102d3576020906012549051908152f35b8383346102d357816003193601126102d35780519180938054916001908360011c9260018516948515610af9575b6020958686108114610ae657858952908115610ac25750600114610a6a575b610a668787610a5c828c0383611bac565b5191829182611a98565b0390f35b81529295507f8a35acfbc15ff81a39ae7d344fd709f28e8600b4aa8c65c6b64bfe7fe36bd19b5b828410610aaf5750505082610a6694610a5c92820101948680610a4b565b8054868501880152928601928101610a91565b60ff19168887015250505050151560051b8301019250610a5c82610a668680610a4b565b634e487b7160e01b845260228352602484fd5b93607f1693610a2c565b905034610368578160031936011261036857602092503590610626610b26611b1d565b92610b3081611df0565b809433612350565b5050346102d357816003193601126102d357602090516101f48152f35b5050346102d357816003193601126102d357602090600f549051908152f35b5050346102d357816003193601126102d35760055490516001600160a01b039091168152602090f35b5050346102d357816003193601126102d35760209061041f6121c4565b5050346102d357816003193601126102d35760207f62e78cea01bee320cd4e420270b5ea74000d11b0c9f74754ebdbfc544b05a25891610bf861204d565b610c0061217e565b600160ff19600754161760075551338152a180f35b8334610661578060031936011261066157610c2e612079565b610c36611d2f565b600160065580f35b8383346102d357806003193601126102d357823560243593610c5e61204d565b6103e88511610ca157507f7c532154661afd5f579d75e0bcfec458372e7a0127bbfaecb32e275ac844b683929381600a5580600b5582519182526020820152a180f35b606490602084519162461bcd60e51b8352820152600c60248201526b08ccaca40e8dede40d0d2ced60a31b6044820152fd5b5050346102d357816003193601126102d357602090600a549051908152f35b8334610661578060031936011261066157610d0b61204d565b600580546001600160a01b031981169091556000906001600160a01b03167f8be0079c531659141344cd1fd0a4f28419497f9722a3daafe3b4186f6b6457e08280a380f35b828434610661576020806003193601126102d3578335610d6e612079565b610d7661204d565b60075460ff8160a81c16156111055781156110f55784516370a0823160e01b815230878201526024916001600160a01b037f000000000000000000000000000000000000000000000000000000000000000081169290919086818681875afa9081156110aa5790869189916110c4575b50106110b457819060081c168751636eb1769f60e11b8152308a82015281858201528681604481875afa80156110aa5786908990611075575b610e299250611be4565b885163095ea7b360e01b8882018181526001600160a01b03851688840190815260208101949094529093919289918b91610e7090869060400103601f198101875286611bac565b84519082895af189513d82611059575b505015610ffc575b5050601054885191825282166001600160a01b03168982019081526020810186905286908290819060400103818a875af18015610ff257610fbb575b506010541690813b15610fb7578591608483928951948593849263617ba03760e01b84528d84015288888401523060448401528160648401525af19182610f89575b5050610f1c5750505051636794231b60e11b8152fd5b7fa248d81b377afe8736fe397f5a9f8f0d7c581e67ff6ae4037df29a672a92133b9181610f4c8693601254611be4565b6012557f7d316160dd9ef0d32c7696b26ef1ea6d3cfd4af79ea6f661a1f41d04f2a44501828451838152a1825191818352820152a1600160065580f35b67ffffffffffffffff8296939611610fa657508552928680610f06565b634e487b7160e01b83526041885282fd5b8580fd5b8581813d8311610feb575b610fd08183611bac565b81010312610fe7575180151503610fb75788610ec4565b8680fd5b503d610fc6565b88513d89823e3d90fd5b895190838983015286820152886044820152604481526080810181811067ffffffffffffffff82111761104757611040929161103a918c5286612729565b84612729565b8980610e88565b634e487b7160e01b8a5260418c52868afd5b90915061106d5750843b15155b8c80610e80565b600114611066565b50508681813d83116110a3575b61108c8183611bac565b8101031261109f5785610e299151610e1f565b8780fd5b503d611082565b89513d8a823e3d90fd5b8751631e9acf1760e31b81528990fd5b809250888092503d83116110ee575b6110dd8183611bac565b8101031261109f578590518b610de6565b503d6110d3565b845163162908e360e11b81528690fd5b845163666f681360e01b81528690fd5b8383346102d357806003193601126102d3578235611131611b1d565b9261113a612079565b61114261217e565b6111538261114e611c07565b611be4565b600854106111ea576020945061116882611e71565b9361117585848333612350565b6001600160a01b03168152600c8552829020429055600754829060a81c60ff16806111e1575b6111ad575b5050600160065551908152f35b7fa248d81b377afe8736fe397f5a9f8f0d7c581e67ff6ae4037df29a672a92133b9181519081528486820152a183816111a0565b5081151561119b565b825163e4bac01b60e01b81528590fd5b5050346102d35760203660031901126102d35760209181906001600160a01b03611222611b07565b168152600c845220549051908152f35b5050346102d357816003193601126102d35760209060ff6007541690519015158152f35b8383346102d35760203660031901126102d357823590611274612079565b81156113995761128382611e46565b9133845283602052828285205410611360576101f481026101f3198282040161134d57906112e26112db6127107f56da9a5ae0bcf6e7c3fdd78a10550e7d0458de1c39bfb7f6e96a3e92dd344a689594048093611d22565b943361209c565b6001600160a01b03817f0000000000000000000000000000000000000000000000000000000000000000821661131987338361213b565b81611337575b505050815193845260208401523392a2600160065580f35b61134592600d54169061213b565b85818161131f565b634e487b7160e01b855260118652602485fd5b815162461bcd60e51b81526020818701526013602482015272496e73756666696369656e742073686172657360681b6044820152606490fd5b5162461bcd60e51b8152602081850152600e60248201526d125b9d985b1a5908185b5bdd5b9d60921b6044820152606490fd5b611ae1565b8383346102d357816003193601126102d3577f00000000000000000000000000000000000000000000000000000000000000009051918382101561141757602083838152f35b634e487b7160e01b815260218452602490fd5b919050346103685760203660031901126103685781359161144961204d565b6101f483116114845750816020917f0e327decf8cd0c8c1ff089972fca9360ed4f35e93bc2c9c28a9ea0dfb428ea919360095551908152a180f35b6020606492519162461bcd60e51b835282015260116024820152700a6d8d2e0e0c2ceca40e8dede40d0d2ced607b1b6044820152fd5b9050346103685782600319360112610368576114d461204d565b6007549060ff821615611516575060ff1916600755513381527f5db9ee0a495bf2e6ff9c91a7834c1ba4fdd244a5e8aa4e537bd38aeae4b073aa90602090a180f35b8251638dfc202b60e01b8152fd5b83346106615760203660031901126106615761153e611b07565b61154661204d565b60078054610100600160b01b031916600883901b610100600160a81b0316176001600160a01b039290921680151560a81b60ff60a81b169290921790557f6d70c8cd6b23bde6c51ca79816ad4d35c700845e43feefc3e65ca0d9cc6f45218280a280f35b5050346102d357816003193601126102d357517f00000000000000000000000000000000000000000000000000000000000000006001600160a01b03168152602090f35b8383346102d357816003193601126102d35760ff7f0000000000000000000000000000000000000000000000000000000000000000169160ff8311611637576020838351908152f35b634e487b7160e01b815260118452602490fd5b9190503461036857826003193601126103685761166561204d565b60115481516370a0823160e01b815230818501526020936001600160a01b03939290919085908290602490829088165afa908115611771578691611744575b506116ad578480f35b839060648460105416948785519687948593631a4ca37b60e21b85527f0000000000000000000000000000000000000000000000000000000000000000169084015260001960248401523060448401525af190811561173b5750611712575b80808480f35b813d8311611734575b6117258183611bac565b8101031261066157388061170c565b503d61171b565b513d85823e3d90fd5b90508481813d831161176a575b61175b8183611bac565b81010312610fb75751386116a4565b503d611751565b83513d88823e3d90fd5b5050346102d35760603660031901126102d3576020906109af61179c611b07565b6117a4611b1d565b604435916117b3833383611e9c565b611f6f565b5050346102d357816003193601126102d3576020906002549051908152f35b828434610661576020366003190112610661575061041f60209235611e46565b905034610368578160031936011261036857611811611b07565b60243590331561188a576001600160a01b031691821561187357508083602095338152600187528181208582528752205582519081527f8c5be1e5ebec7d5bd14f71427d1e84f3dd0314c0f7b2291e5b200ac8c7c3b925843392a35160018152f35b8351634a1406b160e11b8152908101859052602490fd5b835163e602df0560e01b8152808401869052602490fd5b9190503461036857826003193601126103685780519183600354906001908260011c9260018116801561198e575b602095868610821461197b57508488529081156119595750600114611900575b610a668686610a5c828b0383611bac565b929550600383527fc2575a0e9e593c00f959f8c92f12db2869c3395a3b0502d05e2516446f71f85b5b8284106119465750505082610a6694610a5c9282010194386118ef565b8054868501880152928601928101611929565b60ff191687860152505050151560051b8301019250610a5c82610a66386118ef565b634e487b7160e01b845260229052602483fd5b93607f16936118cf565b5050346102d357816003193601126102d357602090600b549051908152f35b5050346102d357816003193601126102d35760209061041f611c07565b5050346102d357816003193601126102d357600d5490516001600160a01b039091168152602090f35b92915034611a945783600319360112611a94576011546370a0823160e01b84523091840191909152602090839060249082906001600160a01b03165afa918215611a8a578392611a52575b6020838351908152f35b9091506020813d602011611a82575b81611a6e60209383611bac565b810103126103685760209250519038611a48565b3d9150611a61565b81513d85823e3d90fd5b8380fd5b6020808252825181830181905290939260005b828110611acd57505060409293506000838284010152601f8019910116010190565b818101860151848201604001528501611aab565b346107fd5760203660031901126107fd576020611aff600435611e1b565b604051908152f35b600435906001600160a01b03821682036107fd57565b602435906001600160a01b03821682036107fd57565b346107fd5760203660031901126107fd57611b4c611b07565b5060206040516000198152f35b60609060031901126107fd57600435906001600160a01b039060243582811681036107fd579160443590811681036107fd5790565b346107fd5760203660031901126107fd576020611aff600435611e71565b90601f8019910116810190811067ffffffffffffffff821117611bce57604052565b634e487b7160e01b600052604160045260246000fd5b91908201809211611bf157565b634e487b7160e01b600052601160045260246000fd5b6040516370a0823160e01b8082523060048301526020906001600160a01b0382846024817f000000000000000000000000000000000000000000000000000000000000000085165afa938415611cd457600094611ce0575b508290601154169160246040518094819382523060048301525afa918215611cd457600092611ca4575b5050611c9890611ca192611be4565b600e5490611be4565b90565b90809250813d8311611ccd575b611cbb8183611bac565b810103126107fd575181611c98611c89565b503d611cb1565b6040513d6000823e3d90fd5b9093508281813d8311611d08575b611cf88183611bac565b810103126107fd57519282611c5f565b503d611cee565b81810292918115918404141715611bf157565b91908203918211611bf157565b60ff60075460a81c1615611dc357611d49600f5442611d22565b8015611dc057611d7764496cebb80091611d72611d64611c07565b611d6c611dd5565b90611d0f565b611d0f565b0480611d805750565b602081611db07fcfad015a1c9077dd207d62466bb2fe714162b7bda0cca54bb619a967837102ae93600e54611be4565b600e5542600f55604051908152a1565b50565b60405163666f681360e01b8152600490fd5b60ff60075460a81c1615611deb57611ca16121c4565b600090565b611df8611c07565b60018101809111611bf1576002549060018201809211611bf157611ca1926126f3565b611e23611c07565b60018101809111611bf1576002549060018201809211611bf157611ca192612785565b60025460018101809111611bf157611e5c611c07565b9060018201809211611bf157611ca1926126f3565b60025460018101809111611bf157611e87611c07565b9060018201809211611bf157611ca192612785565b9160018060a01b038093169160009383855260016020526040938486209183169182875260205284862054926000198410611edb575b50505050505050565b848410611f3f57508015611f27578115611f0f57855260016020528385209085526020520391205538808080808080611ed2565b8451634a1406b160e11b815260048101879052602490fd5b845163e602df0560e01b815260048101879052602490fd5b8551637dc7a0d960e11b81526001600160a01b039190911660048201526024810184905260448101859052606490fd5b916001600160a01b03808416928315612034571692831561201b5760009083825281602052604082205490838210611fe9575091604082827fddf252ad1be2c89b69c2b068fc378daa952ba7f163c4a11628f55a4df523b3ef958760209652828652038282205586815220818154019055604051908152a3565b60405163391434e360e21b81526001600160a01b03919091166004820152602481019190915260448101839052606490fd5b60405163ec442f0560e01b815260006004820152602490fd5b604051634b637e8f60e11b815260006004820152602490fd5b6005546001600160a01b0316330361206157565b60405163118cdaa760e01b8152336004820152602490fd5b60026006541461208a576002600655565b604051633ee5aeb560e01b8152600490fd5b906001600160a01b03821690811561203457600092828452836020526040842054908282106121095750817fddf252ad1be2c89b69c2b068fc378daa952ba7f163c4a11628f55a4df523b3ef926020928587528684520360408620558060025403600255604051908152a3565b60405163391434e360e21b81526001600160a01b03919091166004820152602481019190915260448101829052606490fd5b60405163a9059cbb60e01b60208201526001600160a01b0392909216602483015260448083019390935291815261217c91612177606483611bac565b612729565b565b60ff6007541661218a57565b60405163d93c066560e01b8152600490fd5b51906001600160801b03821682036107fd57565b51906001600160a01b03821682036107fd57565b6010546040516335ea6a7560e01b81526001600160a01b037f00000000000000000000000000000000000000000000000000000000000000008116600483015290916101e091829184916024918391165afa9160009183612261575b5050901560001461223257506101c290565b6001600160801b03166301e1338090818102918183041490151715611bf15769152d02c7e14af6800000900490565b81813d8311612349575b6122758183611bac565b810103126102d3576122896020820161219c565b506122966040820161219c565b916122a36060830161219c565b506122b06080830161219c565b506122bd60a0830161219c565b5060c082015164ffffffffff8116036106615760e082015161ffff81160361066157506101c0816122f461010061234194016121b0565b5061230261012082016121b0565b5061231061014082016121b0565b5061231e61016082016121b0565b5061232c610180820161219c565b5061233a6101a0820161219c565b500161219c565b503880612220565b503d61226b565b9160018060a01b03604092818451956323b872dd60e01b602088015216948560248201523060448201528360648201526064815260a081019080821067ffffffffffffffff831117611bce576123ca918652837f000000000000000000000000000000000000000000000000000000000000000016612729565b169384156124515790816124027fdcbc1c05240f31ff3ad067ef1ee35ce4997762752e3a095284754544f4c709d79493600254611be4565b600255856000526000602052826000208181540190558560007fddf252ad1be2c89b69c2b068fc378daa952ba7f163c4a11628f55a4df523b3ef60208651858152a382519182526020820152a3565b825163ec442f0560e01b815260006004820152602490fd5b601154604080516370a0823160e01b8082523060048301529193926020916001600160a01b039183908290602490829086165afa90811561264c5760009161261f575b50808511612617575b50831561260d5781600094606483601054169188519788938492631a4ca37b60e21b8452877f000000000000000000000000000000000000000000000000000000000000000016600485015260248401523060448401525af1600094816125de575b5061252d578451636794231b60e11b8152600490fd5b9080929394916011541693602483518096819382523060048301525afa80156125d357600090612586575b7ffac8b50d2cda6c83b642b77e276420abe241f6e177c52e5561dc3a37037641b6935060125551838152a190565b508183813d83116125cc575b61259c8183611bac565b810103126107fd577ffac8b50d2cda6c83b642b77e276420abe241f6e177c52e5561dc3a37037641b69251612558565b503d612592565b50513d6000823e3d90fd5b9094508281813d8311612606575b6125f68183611bac565b810103126107fd57519338612517565b503d6125ec565b5050505050600090565b9350386124b5565b90508281813d8311612645575b6126368183611bac565b810103126107fd5751386124ac565b503d61262c565b86513d6000823e3d90fd5b6001600160a01b0380841695818316947ffbde797d201c681b91056529119e0b02407c7bb96a4a2c75c01fc9667232c8db946040949092916126a691839190828c8b036126e2575b505061209c565b6126d38783857f00000000000000000000000000000000000000000000000000000000000000001661213b565b835196875260208701521693a4565b6126ec9183611e9c565b388261269f565b916126ff818385612785565b91811561271357611ca19309151590611be4565b634e487b7160e01b600052601260045260246000fd5b906000602091828151910182855af115611cd4576000513d61277c57506001600160a01b0381163b155b61275a5750565b604051635274afe760e01b81526001600160a01b039091166004820152602490fd5b60011415612753565b9091600019838309928083029283808610950394808603951461281557848311156127fc579082910981600003821680920460028082600302188083028203028083028203028083028203028083028203028083028203028092029003029360018380600003040190848311900302920304170290565b82634e487b71600052156003026011186020526024601cfd5b50508092501561271357049056fea2646970667358221220901c0f9be04c473a2bb9b2ce41a730145ada32a6350e8ca599a68a9c0170c65a64736f6c63430008160033",
  "linkReferences": {},
  "deployedLinkReferences": {}
}