{
  "_format": "hh-sol-artifact-1",
  "contractName": "MockLendlePool",
  "sourceName": "contracts/src/mocks/MockLendle.sol",
  "abi": [
    {
      "anonymous": false,
      "inputs": [
        {
          "indexed": true,
          "internalType": "address",
          "name": "user",
          "type": "address"
        },
        {
          "indexed": true,
          "internalType": "address",
          "name": "asset",
          "type": "address"
        },
        {
          "indexed": false,
          "internalType": "uint256",
          "name": "amount",
          "type": "uint256"
        }
      ],
      "name": "Supply",
      "type": "event"
    },
    {
      "anonymous": false,
      "inputs": [
        {
          "indexed": true,
          "internalType": "address",
          "name": "user",
          "type": "address"
        },
        {
          "indexed": true,
          "internalType": "address",
          "name": "asset",
          "type": "address"
        },
        {
          "indexed": false,
          "internalType": "uint256",
          "name": "amount",
          "type": "uint256"
        }
      ],
      "name": "Withdraw",
      "type": "event"
    },
    {
      "inputs": [
        {
          "internalType": "address",
          "name": "",
          "type": "address"
        }
      ],
      "name": "aTokens",
      "outputs": [
        {
          "internalType": "address",
          "name": "",
          "type": "address"
        }
      ],
      "stateMutability": "view",
      "type": "function"
    },
    {
      "inputs": [
        {
          "internalType": "address",
          "name": "asset",
          "type": "address"
        }
      ],
      "name": "getAToken",
      "outputs": [
        {
          "internalType": "address",
          "name": "",
          "type": "address"
        }
      ],
      "stateMutability": "view",
      "type": "function"
    },
    {
      "inputs": [
        {
          "internalType": "address",
          "name": "asset",
          "type": "address"
        }
      ],
      "name": "getReserveData",
      "outputs": [
        {
          "internalType": "uint256",
          "name": "",
          "type": "uint256"
        },
        {
          "internalType": "uint128",
          "name": "",
          "type": "uint128"
        },
        {
          "internalType": "uint128",
          "name": "",
          "type": "uint128"
        },
        {
          "internalType": "uint128",
          "name": "",
          "type": "uint128"
        },
        {
          "internalType": "uint128",
          "name": "",
          "type": "uint128"
        },
        {
          "internalType": "uint128",
          "name": "",
          "type": "uint128"
        },
        {
          "internalType": "uint40",
          "name": "",
          "type": "uint40"
        },
        {
          "internalType": "uint16",
          "name": "",
          "type": "uint16"
        },
        {
          "internalType": "address",
          "name": "",
          "type": "address"
        },
        {
          "internalType": "address",
          "name": "",
          "type": "address"
        },
        {
          "internalType": "address",
          "name": "",
          "type": "address"
        },
        {
          "internalType": "address",
          "name": "",
          "type": "address"
        },
        {
          "internalType": "uint128",
          "name": "",
          "type": "uint128"
        },
        {
          "internalType": "uint128",
          "name": "",
          "type": "uint128"
        },
        {
          "internalType": "uint128",
          "name": "",
          "type": "uint128"
        }
      ],
      "stateMutability": "view",
      "type": "function"
    },
    {
      "inputs": [
        {
          "internalType": "address",
          "name": "asset",
          "type": "address"
        }
      ],
      "name": "getSupplyRate",
      "outputs": [
        {
          "internalType": "uint256",
          "name": "",
          "type": "uint256"
        }
      ],
      "stateMutability": "view",
      "type": "function"
    },
    {
      "inputs": [
        {
          "internalType": "address",
          "name": "asset",
          "type": "address"
        },
        {
          "internalType": "string",
          "name": "name",
          "type": "string"
        },
        {
          "internalType": "string",
          "name": "symbol",
          "type": "string"
        }
      ],
      "name": "initReserve",
      "outputs": [],
      "stateMutability": "nonpayable",
      "type": "function"
    },
    {
      "inputs": [
        {
          "internalType": "address",
          "name": "",
          "type": "address"
        }
      ],
      "name": "liquidityRates",
      "outputs": [
        {
          "internalType": "uint256",
          "name": "",
          "type": "uint256"
        }
      ],
      "stateMutability": "view",
      "type": "function"
    },
    {
      "inputs": [
        {
          "internalType": "address",
          "name": "asset",
          "type": "address"
        },
        {
          "internalType": "uint256",
          "name": "amount",
          "type": "uint256"
        },
        {
          "internalType": "address",
          "name": "onBehalfOf",
          "type": "address"
        },
        {
          "internalType": "uint16",
          "name": "",
          "type": "uint16"
        }
      ],
      "name": "supply",
      "outputs": [],
      "stateMutability": "nonpayable",
      "type": "function"
    },
    {
      "inputs": [
        {
          "internalType": "address",
          "name": "asset",
          "type": "address"
        },
        {
          "internalType": "uint256",
          "name": "amount",
          "type": "uint256"
        },
        {
          "internalType": "address",
          "name": "to",
          "type": "address"
        }
      ],
      "name": "withdraw",
      "outputs": [
        {
          "internalType": "uint256",
          "name": "",
          "type": "uint256"
        }
      ],
      "stateMutability": "nonpayable",
      "type": "function"
    }
  ],
  "bytecode": "0x608080604052346100165761180c908161001c8239f35b600080fdfe60806040818152600491823610156200001757600080fd5b600092833560e01c91826335ea6a75146200069c575081633e108ad9146200066e578163617ba03714620004f157816369328dec14620002a35781636b5441a9146200027757816370ecaaaf146200010157508063732a52ee14620000c45763ae31d621146200008657600080fd5b34620000c0576020366003190112620000c05760209181906001600160a01b03620000b062000754565b1681526001845220549051908152f35b5080fd5b5034620000c0576020366003190112620000c0576020916001600160a01b0390829082620000f162000754565b1681528085522054169051908152f35b919050346200027357606036600319011262000273576200012162000754565b67ffffffffffffffff926024358481116200026f57620001459036908301620007d5565b936044358181116200026b57620001609036908401620007d5565b6001600160a01b0393841680885260208890528588205490969085166200023257855193610efc9081860194868610908611176200021f575091620001c1859492620001cf94620008db873989845260606020850152606084019062000898565b918781840391015262000898565b039085f090811562000215576b01743b34e18439b5020000009385528460205282852091166bffffffffffffffffffffffff60a01b825416179055600160205282205580f35b82513d86823e3d90fd5b634e487b7160e01b8a5260419052602489fd5b855162461bcd60e51b81526020818601526013602482015272105b1c9958591e481a5b9a5d1a585b1a5e9959606a1b6044820152606490fd5b8680fd5b8580fd5b8280fd5b505034620000c0576020366003190112620000c05760209181906001600160a01b03620000b062000754565b838334620000c0576060366003190112620000c057620002c262000754565b9260243592620002d162000770565b60018060a01b0380961692838352602096838852620002f7818786205416151562000831565b848452838852858420541685516370a0823160e01b815233838201528881602481855afa908115620004e7578591620004b0575b506000198814620004a7575b87116200046d57803b1562000469578551632770a7eb60e21b815233838201908152602081018990529091859183919082908490829060400103925af180156200045f57918794939189936200043b575b50865163a9059cbb60e01b81526001600160a01b0390921690820190815260208101949094529283908190604001038184875af1908115620004305750620003fc575b5081518381527f9b1bfa7fa9ee420a16e124f794c35ac9f90472acc99140eb2f6447c714cad8eb853392a351908152f35b6200042090853d871162000428575b620004178183620007b2565b8101906200087e565b5084620003cb565b503d6200040b565b8451903d90823e3d90fd5b8495506200044e91935093919362000787565b620002735785929187918962000388565b86513d86823e3d90fd5b8380fd5b855162461bcd60e51b81528083018990526014602482015273496e73756666696369656e742062616c616e636560601b6044820152606490fd5b96508662000337565b90508881813d8311620004df575b620004ca8183620007b2565b81010312620004db5751896200032b565b8480fd5b503d620004be565b87513d87823e3d90fd5b919050346200027357608036600319011262000273576200051162000754565b602435916200051f62000770565b60643561ffff8116036200026f578560018060a01b038094169586825260209482865262000554818685205416151562000831565b84516323b872dd60e01b81523383820152306024820152604481018890528681606481878d5af180156200045f576200064c575b508783528286528483205416803b15620002735784516340c10f1960e01b81526001600160a01b0390941691840191825260208201879052839182908490829060400103925af1801562000642576200060a575b50907fd1cf3d156d5f8f0d50f6c122ed609cec09d35c9b9fb3fff6ea0959134dae424e91519283523392a380f35b94620006397fd1cf3d156d5f8f0d50f6c122ed609cec09d35c9b9fb3fff6ea0959134dae424e93929662000787565b949091620005dc565b82513d88823e3d90fd5b6200066690873d89116200042857620004178183620007b2565b503862000588565b505034620000c0576020366003190112620000c0576020916001600160a01b0390829082620000f162000754565b849084346200027357602036600319011262000273576101e092906001600160a01b0380620006ca62000754565b1683528260205281832054169060016020526fffffffffffffffffffffffffffffffff633b9aca00828520540416908385528360208601528401528160608401528160808401528160a08401528160c08401528160e084015261010083015280610120830152806101408301528061016083015280610180830152806101a08301526101c0820152f35b600435906001600160a01b03821682036200076b57565b600080fd5b604435906001600160a01b03821682036200076b57565b67ffffffffffffffff81116200079c57604052565b634e487b7160e01b600052604160045260246000fd5b90601f8019910116810190811067ffffffffffffffff8211176200079c57604052565b81601f820112156200076b5780359067ffffffffffffffff82116200079c57604051926200080e601f8401601f191660200185620007b2565b828452602083830101116200076b57816000926020809301838601378301015290565b156200083957565b60405162461bcd60e51b815260206004820152601760248201527f52657365727665206e6f7420696e697469616c697a65640000000000000000006044820152606490fd5b908160209103126200076b575180151581036200076b5790565b919082519283825260005b848110620008c5575050826000602080949584010152601f8019910116010190565b602081830181015184830182015201620008a356fe608060405234620003675762000efc803803806200001d816200036c565b928339810190606081830312620003675780516001600160a01b0381169290839003620003675760208281015190926001600160401b03918281116200036757836200006b91830162000392565b926040820151838111620003675762000085920162000392565b825182811162000267576003918254916001958684811c941680156200035c575b8885101462000346578190601f94858111620002f0575b50889085831160011462000289576000926200027d575b505060001982861b1c191690861b1783555b8051938411620002675760049586548681811c911680156200025c575b828210146200024757838111620001fc575b50809285116001146200018e575093839491849260009562000182575b50501b92600019911b1c19161790555b60018060a01b031990816005541617600555339060065416176006556b033b2e3c9fd0803ce800000060075542600855604051610af79081620004058239f35b01519350388062000132565b92919084601f1981168860005285600020956000905b89838310620001e15750505010620001c6575b50505050811b01905562000142565b01519060f884600019921b161c1916905538808080620001b7565b858701518955909701969485019488935090810190620001a4565b87600052816000208480880160051c8201928489106200023d575b0160051c019087905b8281106200023057505062000115565b6000815501879062000220565b9250819262000217565b602288634e487b7160e01b6000525260246000fd5b90607f169062000103565b634e487b7160e01b600052604160045260246000fd5b015190503880620000d4565b90889350601f19831691876000528a6000209260005b8c828210620002d95750508411620002c0575b505050811b018355620000e6565b015160001983881b60f8161c19169055388080620002b2565b8385015186558c979095019493840193016200029f565b90915085600052886000208580850160051c8201928b86106200033c575b918a91869594930160051c01915b8281106200032c575050620000bd565b600081558594508a91016200031c565b925081926200030e565b634e487b7160e01b600052602260045260246000fd5b93607f1693620000a6565b600080fd5b6040519190601f01601f191682016001600160401b038111838210176200026757604052565b919080601f84011215620003675782516001600160401b0381116200026757602090620003c8601f8201601f191683016200036c565b92818452828287010111620003675760005b818110620003f057508260009394955001015290565b8581018301518482018401528201620003da56fe608060408181526004918236101561001657600080fd5b600092833560e01c91826306fdde031461071757508163095ea7b31461066d57816314bcec9f1461064e57816316f0115b1461062557816318160ddd1461060657816323b872dd14610512578163313ce567146104f657816340c10f1914610447578163552033c41461042057816370a08231146103f35781637158da7c146103ca57816395d89b41146102a95781639dc29fac146101bf57508063a9059cbb1461018f578063b9f412b014610170578063bbf44f3314610152578063dd62ed3e1461010a5763f30bae8e146100eb57600080fd5b34610106578160031936011261010657602090516101c28152f35b5080fd5b50346101065780600319360112610106578060209261012761083a565b61012f610855565b6001600160a01b0391821683526001865283832091168252845220549051908152f35b50346101065781600319360112610106576020906007549051908152f35b823461018c578060031936011261018c5761018961099b565b80f35b80fd5b50346101065780600319360112610106576020906101b86101ae61083a565b60243590336109e3565b5160018152f35b839150346101065782600319360112610106576101da61083a565b906024359060018060a01b036101f58160065416331461086b565b6101fd61099b565b83169283156102925783855284602052858520549183831061025e5750508184957fddf252ad1be2c89b69c2b068fc378daa952ba7f163c4a11628f55a4df523b3ef936020938688528785520381872055816002540360025551908152a380f35b865163391434e360e21b81526001600160a01b03909216908201908152602081018390526040810184905281906060010390fd5b8551634b637e8f60e11b8152808301869052602490fd5b83833461010657816003193601126101065780519082845460018160011c90600183169283156103c0575b60209384841081146103ad57838852908115610391575060011461033c575b505050829003601f01601f191682019267ffffffffffffffff84118385101761032957508291826103259252826107f1565b0390f35b634e487b7160e01b815260418552602490fd5b8787529192508591837f8a35acfbc15ff81a39ae7d344fd709f28e8600b4aa8c65c6b64bfe7fe36bd19b5b83851061037d57505050508301018580806102f3565b805488860183015293019284908201610367565b60ff1916878501525050151560051b84010190508580806102f3565b634e487b7160e01b895260228a52602489fd5b91607f16916102d4565b50503461010657816003193601126101065760055490516001600160a01b039091168152602090f35b5050346101065760203660031901126101065760209061041961041461083a565b6108e6565b9051908152f35b505034610106578160031936011261010657602090516b033b2e3c9fd0803ce80000008152f35b919050346104f257806003193601126104f25761046261083a565b60065460243592916001600160a01b0391610480908316331461086b565b61048861099b565b169283156104dd57506020827fddf252ad1be2c89b69c2b068fc378daa952ba7f163c4a11628f55a4df523b3ef926104c387956002546108d9565b60025585855284835280852082815401905551908152a380f35b84602492519163ec442f0560e01b8352820152fd5b8280fd5b5050346101065781600319360112610106576020905160128152f35b9050823461018c57606036600319011261018c5761052e61083a565b610536610855565b916044359360018060a01b038316808352600160205286832033845260205286832054916000198310610572575b6020886101b88989896109e3565b8683106105da5781156105c35733156105ac575082526001602090815286832033845281529186902090859003905582906101b887610564565b8751634a1406b160e11b8152908101849052602490fd5b875163e602df0560e01b8152908101849052602490fd5b8751637dc7a0d960e11b8152339181019182526020820193909352604081018790528291506060010390fd5b5050346101065781600319360112610106576020906002549051908152f35b50503461010657816003193601126101065760065490516001600160a01b039091168152602090f35b5050346101065781600319360112610106576020906008549051908152f35b9050346104f257816003193601126104f25761068761083a565b602435903315610700576001600160a01b03169182156106e957508083602095338152600187528181208582528752205582519081527f8c5be1e5ebec7d5bd14f71427d1e84f3dd0314c0f7b2291e5b200ac8c7c3b925843392a35160018152f35b8351634a1406b160e11b8152908101859052602490fd5b835163e602df0560e01b8152808401869052602490fd5b849084346104f257826003193601126104f2578260035460018160011c90600183169283156107e7575b60209384841081146103ad57838852908115610391575060011461079157505050829003601f01601f191682019267ffffffffffffffff84118385101761032957508291826103259252826107f1565b600387529192508591837fc2575a0e9e593c00f959f8c92f12db2869c3395a3b0502d05e2516446f71f85b5b8385106107d357505050508301018580806102f3565b8054888601830152930192849082016107bd565b91607f1691610741565b6020808252825181830181905290939260005b82811061082657505060409293506000838284010152601f8019910116010190565b818101860151848201604001528501610804565b600435906001600160a01b038216820361085057565b600080fd5b602435906001600160a01b038216820361085057565b1561087257565b60405162461bcd60e51b815260206004820152600960248201526813db9b1e481c1bdbdb60ba1b6044820152606490fd5b919082039182116108b057565b634e487b7160e01b600052601160045260246000fd5b818102929181159184041417156108b057565b919082018092116108b057565b6001600160a01b031660009081526020819052604081205490811561099657610911600854426108a3565b6007549181610938575b5050610934906b033b2e3c9fd0803ce8000000926108c6565b0490565b6101c29081840291848304148415171561098257506109349264496cebb8006109726b033b2e3c9fd0803ce80000009694610979946108c6565b04906108d9565b9181935061091b565b634e487b7160e01b81526011600452602490fd5b905090565b6109a7600854426108a3565b80156109e0576007546101c2918282029282840414821517156108b05761097264496cebb800916109d7946108c6565b60075542600855565b50565b916001600160a01b03808416928315610aa85716928315610a8f5760009083825281602052604082205490838210610a5d575091604082827fddf252ad1be2c89b69c2b068fc378daa952ba7f163c4a11628f55a4df523b3ef958760209652828652038282205586815220818154019055604051908152a3565b60405163391434e360e21b81526001600160a01b03919091166004820152602481019190915260448101839052606490fd5b60405163ec442f0560e01b815260006004820152602490fd5b604051634b637e8f60e11b815260006004820152602490fdfea26469706673582212205e8943c102650fbae1e8cdef910d78be86934bde967bbefc38b3b02eb964664164736f6c63430008160033a2646970667358221220536b31c40c076f06c023eda5f4f74664cebf76555975404b313f0be510eeea9264736f6c63430008160033",
  "linkReferences": {},
  "deployedLinkReferences": {}
}