{
  "_format": "hh-sol-artifact-1",
  "contractName": "BucketVault",
  "sourceName": "contracts/src/BucketVault.sol",
  "abi": [
    {
      "inputs": [
        {
          "internalType": "contract IERC20",
          "name": "asset_",
          "type": "address"
        },
        {
          "internalType": "string",
          "name": "name_",
          "type": "string"
        },
        {
          "internalType": "string",
          "name": "symbol_",
          "type": "string"
        }
      ],
      "stateMutability": "nonpayable",
      "type": "constructor"
    },
    {
      "inputs": [
        {
          "internalType": "address",
          "name": "spender",
          "type": "address"
        },
        {
          "internalType": "uint256",
          "name": "allowance",
          "type": "uint256"
        },
        {
          "internalType": "uint256",
          "name": "needed",
          "type": "uint256"
        }
      ],
      "name": "ERC20InsufficientAllowance",
      "type": "error"
    },
    {
      "inputs": [
        {
          "internalType": "address",
          "name": "sender",
          "type": "address"
        },
        {
          "internalType": "uint256",
          "name": "balance",
          "type": "uint256"
        },
        {
          "internalType": "uint256",
          "name": "needed",
          "type": "uint256"
        }
      ],
      "name": "ERC20InsufficientBalance",
      "type": "error"
    },
    {
      "inputs": [
        {
          "internalType": "address",
          "name": "approver",
          "type": "address"
        }
      ],
      "name": "ERC20InvalidApprover",
      "type": "error"
    },
    {
      "inputs": [
        {
          "internalType": "address",
          "name": "receiver",
          "type": "address"
        }
      ],
      "name": "ERC20InvalidReceiver",
      "type": "error"
    },
    {
      "inputs": [
        {
          "internalType": "address",
          "name": "sender",
          "type": "address"
        }
      ],
      "name": "ERC20InvalidSender",
      "type": "error"
    },
    {
      "inputs": [
        {
          "internalType": "address",
          "name": "spender",
          "type": "address"
        }
      ],
      "name": "ERC20InvalidSpender",
      "type": "error"
    },
    {
      "inputs": [
        {
          "internalType": "address",
          "name": "receiver",
          "type": "address"
        },
        {
          "internalType": "uint256",
          "name": "assets",
          "type": "uint256"
        },
        {
          "internalType": "uint256",
          "name": "max",
          "type": "uint256"
        }
      ],
      "name": "ERC4626ExceededMaxDeposit",
      "type": "error"
    },
    {
      "inputs": [
        {
          "internalType": "address",
          "name": "receiver",
          "type": "address"
        },
        {
          "internalType": "uint256",
          "name": "shares",
          "type": "uint256"
        },
        {
          "internalType": "uint256",
          "name": "max",
          "type": "uint256"
        }
      ],
      "name": "ERC4626ExceededMaxMint",
      "type": "error"
    },
    {
      "inputs": [
        {
          "internalType": "address",
          "name": "owner",
          "type": "address"
        },
        {
          "internalType": "uint256",
          "name": "shares",
          "type": "uint256"
        },
        {
          "internalType": "uint256",
          "name": "max",
          "type": "uint256"
        }
      ],
      "name": "ERC4626ExceededMaxRedeem",
      "type": "error"
    },
    {
      "inputs": [
        {
          "internalType": "address",
          "name": "owner",
          "type": "address"
        },
        {
          "internalType": "uint256",
          "name": "assets",
          "type": "uint256"
        },
        {
          "internalType": "uint256",
          "name": "max",
          "type": "uint256"
        }
      ],
      "name": "ERC4626ExceededMaxWithdraw",
      "type": "error"
    },
    {
      "inputs": [],
      "name": "InsufficientBalance",
      "type": "error"
    },
    {
      "inputs": [],
      "name": "InvalidAmount",
      "type": "error"
    },
    {
      "inputs": [
        {
          "internalType": "address",
          "name": "owner",
          "type": "address"
        }
      ],
      "name": "OwnableInvalidOwner",
      "type": "error"
    },
    {
      "inputs": [
        {
          "internalType": "address",
          "name": "account",
          "type": "address"
        }
      ],
      "name": "OwnableUnauthorizedAccount",
      "type": "error"
    },
    {
      "inputs": [],
      "name": "ReentrancyGuardReentrantCall",
      "type": "error"
    },
    {
      "inputs": [
        {
          "internalType": "address",
          "name": "token",
          "type": "address"
        }
      ],
      "name": "SafeERC20FailedOperation",
      "type": "error"
    },
    {
      "inputs": [],
      "name": "YieldProtocolCallFailed",
      "type": "error"
    },
    {
      "inputs": [],
      "name": "YieldProtocolNotSet",
      "type": "error"
    },
    {
      "anonymous": false,
      "inputs": [
        {
          "indexed": true,
          "internalType": "address",
          "name": "owner",
          "type": "address"
        },
        {
          "indexed": true,
          "internalType": "address",
          "name": "spender",
          "type": "address"
        },
        {
          "indexed": false,
          "internalType": "uint256",
          "name": "value",
          "type": "uint256"
        }
      ],
      "name": "Approval",
      "type": "event"
    },
    {
      "anonymous": false,
      "inputs": [
        {
          "indexed": true,
          "internalType": "address",
          "name": "sender",
          "type": "address"
        },
        {
          "indexed": true,
          "internalType": "address",
          "name": "owner",
          "type": "address"
        },
        {
          "indexed": false,
          "internalType": "uint256",
          "name": "assets",
          "type": "uint256"
        },
        {
          "indexed": false,
          "internalType": "uint256",
          "name": "shares",
          "type": "uint256"
        }
      ],
      "name": "Deposit",
      "type": "event"
    },
    {
      "anonymous": false,
      "inputs": [
        {
          "indexed": true,
          "internalType": "address",
          "name": "previousOwner",
          "type": "address"
        },
        {
          "indexed": true,
          "internalType": "address",
          "name": "newOwner",
          "type": "address"
        }
      ],
      "name": "OwnershipTransferred",
      "type": "event"
    },
    {
      "anonymous": false,
      "inputs": [
        {
          "indexed": true,
          "internalType": "address",
          "name": "from",
          "type": "address"
        },
        {
          "indexed": true,
          "internalType": "address",
          "name": "to",
          "type": "address"
        },
        {
          "indexed": false,
          "internalType": "uint256",
          "name": "value",
          "type": "uint256"
        }
      ],
      "name": "Transfer",
      "type": "event"
    },
    {
      "anonymous": false,
      "inputs": [
        {
          "indexed": true,
          "internalType": "address",
          "name": "sender",
          "type": "address"
        },
        {
          "indexed": true,
          "internalType": "address",
          "name": "receiver",
          "type": "address"
        },
        {
          "indexed": true,
          "internalType": "address",
          "name": "owner",
          "type": "address"
        },
        {
          "indexed": false,
          "internalType": "uint256",
          "name": "assets",
          "type": "uint256"
        },
        {
          "indexed": false,
          "internalType": "uint256",
          "name": "shares",
          "type": "uint256"
        }
      ],
      "name": "Withdraw",
      "type": "event"
    },
    {
      "anonymous": false,
      "inputs": [
        {
          "indexed": false,
          "internalType": "uint256",
          "name": "amount",
          "type": "uint256"
        }
      ],
      "name": "YieldCompounded",
      "type": "event"
    },
    {
      "anonymous": false,
      "inputs": [
        {
          "indexed": false,
          "internalType": "uint256",
          "name": "amount",
          "type": "uint256"
        },
        {
          "indexed": false,
          "internalType": "uint256",
          "name": "shares",
          "type": "uint256"
        }
      ],
      "name": "YieldDeposited",
      "type": "event"
    },
    {
      "anonymous": false,
      "inputs": [
        {
          "indexed": true,
          "internalType": "address",
          "name": "protocol",
          "type": "address"
        }
      ],
      "name": "YieldProtocolSet",
      "type": "event"
    },
    {
      "anonymous": false,
      "inputs": [
        {
          "indexed": false,
          "internalType": "uint256",
          "name": "newRate",
          "type": "uint256"
        }
      ],
      "name": "YieldRateUpdated",
      "type": "event"
    },
    {
      "anonymous": false,
      "inputs": [
        {
          "indexed": false,
          "internalType": "uint256",
          "name": "shares",
          "type": "uint256"
        },
        {
          "indexed": false,
          "internalType": "uint256",
          "name": "amount",
          "type": "uint256"
        }
      ],
      "name": "YieldWithdrawn",
      "type": "event"
    },
    {
      "inputs": [
        {
          "internalType": "address",
          "name": "protocol",
          "type": "address"
        },
        {
          "internalType": "uint256",
          "name": "amount",
          "type": "uint256"
        }
      ],
      "name": "_externalDeposit",
      "outputs": [],
      "stateMutability": "nonpayable",
      "type": "function"
    },
    {
      "inputs": [
        {
          "internalType": "address",
          "name": "protocol",
          "type": "address"
        },
        {
          "internalType": "uint256",
          "name": "shares",
          "type": "uint256"
        }
      ],
      "name": "_externalWithdraw",
      "outputs": [
        {
          "internalType": "uint256",
          "name": "amount",
          "type": "uint256"
        }
      ],
      "stateMutability": "nonpayable",
      "type": "function"
    },
    {
      "inputs": [
        {
          "internalType": "address",
          "name": "owner",
          "type": "address"
        },
        {
          "internalType": "address",
          "name": "spender",
          "type": "address"
        }
      ],
      "name": "allowance",
      "outputs": [
        {
          "internalType": "uint256",
          "name": "",
          "type": "uint256"
        }
      ],
      "stateMutability": "view",
      "type": "function"
    },
    {
      "inputs": [
        {
          "internalType": "address",
          "name": "spender",
          "type": "address"
        },
        {
          "internalType": "uint256",
          "name": "value",
          "type": "uint256"
        }
      ],
      "name": "approve",
      "outputs": [
        {
          "internalType": "bool",
          "name": "",
          "type": "bool"
        }
      ],
      "stateMutability": "nonpayable",
      "type": "function"
    },
    {
      "inputs": [],
      "name": "asset",
      "outputs": [
        {
          "internalType": "address",
          "name": "",
          "type": "address"
        }
      ],
      "stateMutability": "view",
      "type": "function"
    },
    {
      "inputs": [
        {
          "internalType": "address",
          "name": "account",
          "type": "address"
        }
      ],
      "name": "balanceOf",
      "outputs": [
        {
          "internalType": "uint256",
          "name": "",
          "type": "uint256"
        }
      ],
      "stateMutability": "view",
      "type": "function"
    },
    {
      "inputs": [],
      "name": "compoundYield",
      "outputs": [],
      "stateMutability": "nonpayable",
      "type": "function"
    },
    {
      "inputs": [
        {
          "internalType": "uint256",
          "name": "shares",
          "type": "uint256"
        }
      ],
      "name": "convertToAssets",
      "outputs": [
        {
          "internalType": "uint256",
          "name": "",
          "type": "uint256"
        }
      ],
      "stateMutability": "view",
      "type": "function"
    },
    {
      "inputs": [
        {
          "internalType": "uint256",
          "name": "assets",
          "type": "uint256"
        }
      ],
      "name": "convertToShares",
      "outputs": [
        {
          "internalType": "uint256",
          "name": "",
          "type": "uint256"
        }
      ],
      "stateMutability": "view",
      "type": "function"
    },
    {
      "inputs": [],
      "name": "decimals",
      "outputs": [
        {
          "internalType": "uint8",
          "name": "",
          "type": "uint8"
        }
      ],
      "stateMutability": "view",
      "type": "function"
    },
    {
      "inputs": [
        {
          "internalType": "uint256",
          "name": "assets",
          "type": "uint256"
        },
        {
          "internalType": "address",
          "name": "receiver",
          "type": "address"
        }
      ],
      "name": "deposit",
      "outputs": [
        {
          "internalType": "uint256",
          "name": "shares",
          "type": "uint256"
        }
      ],
      "stateMutability": "nonpayable",
      "type": "function"
    },
    {
      "inputs": [
        {
          "internalType": "uint256",
          "name": "amount",
          "type": "uint256"
        }
      ],
      "name": "depositToYieldProtocol",
      "outputs": [],
      "stateMutability": "nonpayable",
      "type": "function"
    },
    {
      "inputs": [],
      "name": "getYieldRate",
      "outputs": [
        {
          "internalType": "uint256",
          "name": "",
          "type": "uint256"
        }
      ],
      "stateMutability": "view",
      "type": "function"
    },
    {
      "inputs": [],
      "name": "lastYieldUpdate",
      "outputs": [
        {
          "internalType": "uint256",
          "name": "",
          "type": "uint256"
        }
      ],
      "stateMutability": "view",
      "type": "function"
    },
    {
      "inputs": [
        {
          "internalType": "address",
          "name": "",
          "type": "address"
        }
      ],
      "name": "maxDeposit",
      "outputs": [
        {
          "internalType": "uint256",
          "name": "",
          "type": "uint256"
        }
      ],
      "stateMutability": "view",
      "type": "function"
    },
    {
      "inputs": [
        {
          "internalType": "address",
          "name": "",
          "type": "address"
        }
      ],
      "name": "maxMint",
      "outputs": [
        {
          "internalType": "uint256",
          "name": "",
          "type": "uint256"
        }
      ],
      "stateMutability": "view",
      "type": "function"
    },
    {
      "inputs": [
        {
          "internalType": "address",
          "name": "owner",
          "type": "address"
        }
      ],
      "name": "maxRedeem",
      "outputs": [
        {
          "internalType": "uint256",
          "name": "",
          "type": "uint256"
        }
      ],
      "stateMutability": "view",
      "type": "function"
    },
    {
      "inputs": [
        {
          "internalType": "address",
          "name": "owner",
          "type": "address"
        }
      ],
      "name": "maxWithdraw",
      "outputs": [
        {
          "internalType": "uint256",
          "name": "",
          "type": "uint256"
        }
      ],
      "stateMutability": "view",
      "type": "function"
    },
    {
      "inputs": [
        {
          "internalType": "uint256",
          "name": "shares",
          "type": "uint256"
        },
        {
          "internalType": "address",
          "name": "receiver",
          "type": "address"
        }
      ],
      "name": "mint",
      "outputs": [
        {
          "internalType": "uint256",
          "name": "",
          "type": "uint256"
        }
      ],
      "stateMutability": "nonpayable",
      "type": "function"
    },
    {
      "inputs": [],
      "name": "name",
      "outputs": [
        {
          "internalType": "string",
          "name": "",
          "type": "string"
        }
      ],
      "stateMutability": "view",
      "type": "function"
    },
    {
      "inputs": [],
      "name": "owner",
      "outputs": [
        {
          "internalType": "address",
          "name": "",
          "type": "address"
        }
      ],
      "stateMutability": "view",
      "type": "function"
    },
    {
      "inputs": [
        {
          "internalType": "uint256",
          "name": "assets",
          "type": "uint256"
        }
      ],
      "name": "previewDeposit",
      "outputs": [
        {
          "internalType": "uint256",
          "name": "",
          "type": "uint256"
        }
      ],
      "stateMutability": "view",
      "type": "function"
    },
    {
      "inputs": [
        {
          "internalType": "uint256",
          "name": "shares",
          "type": "uint256"
        }
      ],
      "name": "previewMint",
      "outputs": [
        {
          "internalType": "uint256",
          "name": "",
          "type": "uint256"
        }
      ],
      "stateMutability": "view",
      "type": "function"
    },
    {
      "inputs": [
        {
          "internalType": "uint256",
          "name": "shares",
          "type": "uint256"
        }
      ],
      "name": "previewRedeem",
      "outputs": [
        {
          "internalType": "uint256",
          "name": "",
          "type": "uint256"
        }
      ],
      "stateMutability": "view",
      "type": "function"
    },
    {
      "inputs": [
        {
          "internalType": "uint256",
          "name": "assets",
          "type": "uint256"
        }
      ],
      "name": "previewWithdraw",
      "outputs": [
        {
          "internalType": "uint256",
          "name": "",
          "type": "uint256"
        }
      ],
      "stateMutability": "view",
      "type": "function"
    },
    {
      "inputs": [
        {
          "internalType": "uint256",
          "name": "shares",
          "type": "uint256"
        },
        {
          "internalType": "address",
          "name": "receiver",
          "type": "address"
        },
        {
          "internalType": "address",
          "name": "owner",
          "type": "address"
        }
      ],
      "name": "redeem",
      "outputs": [
        {
          "internalType": "uint256",
          "name": "",
          "type": "uint256"
        }
      ],
      "stateMutability": "nonpayable",
      "type": "function"
    },
    {
      "inputs": [],
      "name": "renounceOwnership",
      "outputs": [],
      "stateMutability": "nonpayable",
      "type": "function"
    },
    {
      "inputs": [
        {
          "internalType": "address",
          "name": "protocol",
          "type": "address"
        }
      ],
      "name": "setYieldProtocol",
      "outputs": [],
      "stateMutability": "nonpayable",
      "type": "function"
    },
    {
      "inputs": [],
      "name": "symbol",
      "outputs": [
        {
          "internalType": "string",
          "name": "",
          "type": "string"
        }
      ],
      "stateMutability": "view",
      "type": "function"
    },
    {
      "inputs": [],
      "name": "totalAssets",
      "outputs": [
        {
          "internalType": "uint256",
          "name": "",
          "type": "uint256"
        }
      ],
      "stateMutability": "view",
      "type": "function"
    },
    {
      "inputs": [],
      "name": "totalSupply",
      "outputs": [
        {
          "internalType": "uint256",
          "name": "",
          "type": "uint256"
        }
      ],
      "stateMutability": "view",
      "type": "function"
    },
    {
      "inputs": [],
      "name": "totalYieldEarned",
      "outputs": [
        {
          "internalType": "uint256",
          "name": "",
          "type": "uint256"
        }
      ],
      "stateMutability": "view",
      "type": "function"
    },
    {
      "inputs": [
        {
          "internalType": "address",
          "name": "to",
          "type": "address"
        },
        {
          "internalType": "uint256",
          "name": "value",
          "type": "uint256"
        }
      ],
      "name": "transfer",
      "outputs": [
        {
          "internalType": "bool",
          "name": "",
          "type": "bool"
        }
      ],
      "stateMutability": "nonpayable",
      "type": "function"
    },
    {
      "inputs": [
        {
          "internalType": "address",
          "name": "from",
          "type": "address"
        },
        {
          "internalType": "address",
          "name": "to",
          "type": "address"
        },
        {
          "internalType": "uint256",
          "name": "value",
          "type": "uint256"
        }
      ],
      "name": "transferFrom",
      "outputs": [
        {
          "internalType": "bool",
          "name": "",
          "type": "bool"
        }
      ],
      "stateMutability": "nonpayable",
      "type": "function"
    },
    {
      "inputs": [
        {
          "internalType": "address",
          "name": "newOwner",
          "type": "address"
        }
      ],
      "name": "transferOwnership",
      "outputs": [],
      "stateMutability": "nonpayable",
      "type": "function"
    },
    {
      "inputs": [
        {
          "internalType": "uint256",
          "name": "assets",
          "type": "uint256"
        },
        {
          "internalType": "address",
          "name": "receiver",
          "type": "address"
        },
        {
          "internalType": "address",
          "name": "owner",
          "type": "address"
        }
      ],
      "name": "withdraw",
      "outputs": [
        {
          "internalType": "uint256",
          "name": "shares",
          "type": "uint256"
        }
      ],
      "stateMutability": "nonpayable",
      "type": "function"
    },
    {
      "inputs": [
        {
          "internalType": "uint256",
          "name": "shares",
          "type": "uint256"
        }
      ],
      "name": "withdrawFromYieldProtocol",
      "outputs": [],
      "stateMutability": "nonpayable",
      "type": "function"
    },
    {
      "inputs": [],
      "name": "yieldEnabled",
      "outputs": [
        {
          "internalType": "bool",
          "name": "",
          "type": "bool"
        }
      ],
      "stateMutability": "view",
      "type": "function"
    },
    {
      "inputs": [],
      "name": "yieldProtocol",
      "outputs": [
        {
          "internalType": "address",
          "name": "",
          "type": "address"
        }
      ],
      "stateMutability": "view",
      "type": "function"
    }
  ],
  "bytecode": "0x60c0806040523462000405576200223780380380916200002082856200040a565b83398101606082820312620004055781516001600160a01b0392908381168103620004055760208281015190926001600160401b03918281116200040557856200006c9183016200044a565b94604082015183811162000405576200008692016200044a565b845182811162000305576003918254916001978884811c94168015620003fa575b88851014620003e4578190601f948581116200038e575b50889085831160011462000327576000926200031b575b505060001982861b1c191690881b1783555b8051938411620003055760049586548881811c91168015620002fa575b82821014620002e55790818487969594931162000289575b50809285116001146200021b57506000936200020f575b505082861b92600019911b1c19161782555b6200015081620004b4565b901562000206575b60a0526080523315620001ee575060058054336001600160a01b03198216811790925560405193167f8be0079c531659141344cd1fd0a4f28419497f9722a3daafe3b4186f6b6457e0600080a360065542600955611cbc90816200057b823960805181818161070601528181610b4001528181610fa0015281816116d4015281816118770152611bbc015260a05181610fe60152f35b602490600060405191631e4fbdf760e01b8352820152fd5b50601262000158565b01519150388062000133565b929190889550601f1985168860005284600020946000905b8282106200026f575050851162000254575b50505050811b01825562000145565b01519060f884600019921b161c191690553880808062000245565b8484015187558b9890960195938401939081019062000233565b90919293945087600052816000208480880160051c820192848910620002db575b918b91899897969594930160051c01915b828110620002cb5750506200011c565b600081558897508b9101620002bb565b92508192620002aa565b602288634e487b7160e01b6000525260246000fd5b90607f169062000104565b634e487b7160e01b600052604160045260246000fd5b015190503880620000d5565b908a9350601f19831691876000528a6000209260005b8c8282106200037757505084116200035e575b505050811b018355620000e7565b015160001983881b60f8161c1916905538808062000350565b8385015186558e979095019493840193016200033d565b90915085600052886000208580850160051c8201928b8610620003da575b918c91869594930160051c01915b828110620003ca575050620000be565b600081558594508c9101620003ba565b92508192620003ac565b634e487b7160e01b600052602260045260246000fd5b93607f1693620000a7565b600080fd5b601f909101601f19168101906001600160401b038211908210176200030557604052565b6001600160401b0381116200030557601f01601f191660200190565b919080601f84011215620004055782519062000466826200042e565b916200047660405193846200040a565b808352602091828287010111620004055760005b818110620004a057508260009394955001015290565b85810183015184820184015282016200048a565b6040805163313ce56760e01b60208201908152600482529293929181016001600160401b0381118282101762000305576040525160009384928392916001600160a01b03165afa3d1562000571573d906200050f826200042e565b916200051f60405193846200040a565b82523d84602084013e5b8062000564575b6200053b575b508190565b60208180518101031262000560576020015160ff811162000536576001925060ff1690565b8280fd5b5060208151101562000530565b6060906200052956fe6040608081526004908136101561001557600080fd5b600091823560e01c806301e1d1141461124557806306fdde031461115157806307a2d13a14610f11578063095ea7b3146110a85780630a28a4771461108857806318160ddd1461106957806323b872dd1461102c578063313ce56714610fcf57806338d52e0f14610f8b5780633bc725c314610f16578063402d267d1461058f5780634cdad50614610f1157806359843a9514610e515780636e553f6514610db55780636e98928b14610ae857806370a082311461042b578063715018a614610a8a5780637e393cbe146109b25780638da5cb5b146109895780638f8c8aee1461096a57806394bf804d1461093657806395d89b4114610832578063a9059cbb14610801578063b3d7f6b9146107e1578063b460af9414610644578063ba087652146105bb578063c2752e4314610594578063c63d75b61461058f578063c6e6f592146103d8578063cc00967914610570578063cd4c73a714610547578063ce96cb771461050e578063d8d4dfa514610467578063d905777e1461042b578063dd62ed3e146103dd578063ef8b30f7146103d8578063f1009899146103b4578063f1b1c375146102615763f2fde38b146101ce57600080fd5b3461025d57602036600319011261025d576101e76112d1565b906101f0611376565b6001600160a01b03918216928315610247575050600554826bffffffffffffffffffffffff60a01b821617600555167f8be0079c531659141344cd1fd0a4f28419497f9722a3daafe3b4186f6b6457e0600080a380f35b51631e4fbdf760e01b8152908101849052602490fd5b8280fd5b5091346103b1576020806003193601126103ad57833590610280611b0d565b610288611376565b6007549060ff8260a01c161561039d57821561038d5784516359843a9560e01b81526001600160a01b0390921686830190815260208101849052819083908190604001038187305af1849281610359575b506103235785856102e8611a40565b6308c379a014610309575b6102fb611acd565b5051636794231b60e11b8152fd5b610311611a5e565b156102f35751636794231b60e11b8152fd5b847fc2e390771ee2b6cad5cb1244f940b577352851c4d635277c314747be299eba4b9594965051928352820152a1600160065580f35b9092508181813d8311610386575b61037181836113d4565b81010312610381575191386102d9565b600080fd5b503d610367565b845163162908e360e11b81528690fd5b845163666f681360e01b81528690fd5b5080fd5b80fd5b5050346103ad57816003193601126103ad576020906103d1611b68565b9051908152f35b611358565b5050346103ad57806003193601126103ad576020916103fa6112d1565b826104036112e7565b6001600160a01b03928316845260018652922091166000908152908352819020549051908152f35b5050346103ad5760203660031901126103ad576020906103d161044c6112d1565b6001600160a01b031660009081526020819052604090205490565b50903461025d578060031936011261025d5782806104836112d1565b61048e303314611b30565b835182602082019163b6b55f2560e01b83526024356024820152602481526104b5816113a2565b51925af16104c1611acd565b50156104cb578280f35b906020606492519162461bcd60e51b8352820152601760248201527f45787465726e616c206465706f736974206661696c65640000000000000000006044820152fd5b5050346103ad5760203660031901126103ad576020916103d19082906001600160a01b0361053a6112d1565b168152808552205461164e565b5050346103ad57816003193601126103ad5760075490516001600160a01b039091168152602090f35b5050346103ad57816003193601126103ad576020906008549051908152f35b6112fd565b5050346103ad57816003193601126103ad5760209060ff60075460a01c1690519015158152f35b5082346103b15782906105cd36611323565b6001600160a01b0381168452602084905295909220549094939080861161060f575050836106099161060060209661164e565b94859133611798565b51908152f35b9251632e52afbb60e21b81526001600160a01b0390941690840190815260208101949094525060408301529081906060010390fd5b50903461025d5761065436611323565b93909194610660611b0d565b8360ff60075460a01c166106ee575b6001600160a01b0386168252602082905290205461068c9061164e565b8086116106b95750506106ae90846106a56020966115ca565b94859233611798565b600160065551908152f35b9251633fa733bb60e21b81526001600160a01b0390941690840190815260208101949094525060408301529081906060010390fd5b516370a0823160e01b815230838201526020816024817f00000000000000000000000000000000000000000000000000000000000000006001600160a01b03165afa9081156107d75790859183916107a1575b509182828961068c9510610759575b5050915061066f565b8161078f6107887fc2e390771ee2b6cad5cb1244f940b577352851c4d635277c314747be299eba4b948d611b81565b918c611b81565b82519182526020820152a13882610750565b9150506020813d82116107cf575b816107bc602093836113d4565b810103126103815751849061068c610741565b3d91506107af565b85513d84823e3d90fd5b5091346103b15760203660031901126103b157506103d160209235611623565b5050346103ad57806003193601126103ad5760209061082b6108216112d1565b60243590336113f6565b5160018152f35b509190346103ad57816003193601126103ad57805191809380549160019083821c9282851694851561092c575b6020958686108114610919578589529081156108f5575060011461089d575b610899878761088f828c03836113d4565b5191829182611262565b0390f35b81529295507f8a35acfbc15ff81a39ae7d344fd709f28e8600b4aa8c65c6b64bfe7fe36bd19b5b8284106108e257505050826108999461088f9282010194388061087e565b80548685018801529286019281016108c4565b60ff19168887015250505050151560051b830101925061088f82610899388061087e565b634e487b7160e01b845260228352602484fd5b93607f169361085f565b503461025d578160031936011261025d576020925035906106096109586112e7565b9261096281611623565b809433611679565b5050346103ad57816003193601126103ad576020906009549051908152f35b5050346103ad57816003193601126103ad5760055490516001600160a01b039091168152602090f35b503461025d578260031936011261025d576109cb611b0d565b60ff60075460a01c1615610a7c576109e560095442611b81565b906109ee611ba1565b906103e891828102928184041490151715610a69575064496cebb80091610a1491611b8e565b049081610a25575b82600160065580f35b81602091610a567fcfad015a1c9077dd207d62466bb2fe714162b7bda0cca54bb619a967837102ae946008546114d4565b6008554260095551908152a13880610a1c565b634e487b7160e01b855260119052602484fd5b905163666f681360e01b8152fd5b83346103b157806003193601126103b157610aa3611376565b600580546001600160a01b031981169091556000906001600160a01b03167f8be0079c531659141344cd1fd0a4f28419497f9722a3daafe3b4186f6b6457e08280a380f35b5091346103b157602090816003193601126103b157833590610b08611b0d565b610b10611376565b60075460ff8160a01c161561039d57821561038d5784516370a0823160e01b815230878201526001600160a01b037f000000000000000000000000000000000000000000000000000000000000000081169490918681602481895afa908115610d6a579082918691610d84575b5010610d7457865163095ea7b360e01b8082529383166001600160a01b0316898201908152602081018390528790829081906040010381888a5af18015610d6a57610d4d575b508160075416303b15610d4957875163d8d4dfa560e01b81526001600160a01b03909116818a0190815260208101839052859082908190604001038183305af19081610d1b575b50610ce457509060448592610c1d611a40565b6308c379a014610ca1575b610c30611acd565b506007541691848851968794859384528b8401528160248401525af1908115610c965750610c68575b505051636794231b60e11b8152fd5b81610c8792903d10610c8f575b610c7f81836113d4565b810190611a28565b503880610c59565b503d610c75565b8451903d90823e3d90fd5b610ca9611a5e565b15610c28576007541691848851968794859384528b8401528160248401525af1908115610c965750610c6857505051636794231b60e11b8152fd5b7fa248d81b377afe8736fe397f5a9f8f0d7c581e67ff6ae4037df29a672a92133b87878693825191818352820152a1600160065580f35b67ffffffffffffffff8196929611610d365788529338610c0a565b634e487b7160e01b825260418a52602482fd5b8480fd5b610d6390873d8911610c8f57610c7f81836113d4565b5038610bc3565b88513d87823e3d90fd5b8651631e9acf1760e31b81528890fd5b809250888092503d8311610dae575b610d9d81836113d4565b81010312610d495781905138610b7d565b503d610d93565b503461025d578160031936011261025d5760209250359081610df2610dd86112e7565b610de0611b0d565b610de9836115f8565b94859133611679565b8160ff60075460a01c1680610e48575b610e14575b5050600160065551908152f35b7fa248d81b377afe8736fe397f5a9f8f0d7c581e67ff6ae4037df29a672a92133b9181519081528486820152a13881610e07565b50811515610e02565b5091346103b157816003193601126103b1578080610e6d6112d1565b610e78303314611b30565b8451826020820191632e1a7d4d60e01b8352602435602482015260248152610e9f816113a2565b51925af192610eac611acd565b9315610ece57506020838051810103126103b157506020809201519051908152f35b606490602084519162461bcd60e51b8352820152601860248201527f45787465726e616c207769746864726177206661696c656400000000000000006044820152fd5b6112ab565b83346103b15760203660031901126103b157610f306112d1565b610f38611376565b600780546001600160a81b0319166001600160a01b039290921691821782151560a01b60ff60a01b161790557f6d70c8cd6b23bde6c51ca79816ad4d35c700845e43feefc3e65ca0d9cc6f45218280a280f35b5050346103ad57816003193601126103ad57517f00000000000000000000000000000000000000000000000000000000000000006001600160a01b03168152602090f35b509190346103ad57816003193601126103ad5760ff7f0000000000000000000000000000000000000000000000000000000000000000169160ff8311611019576020838351908152f35b634e487b7160e01b815260118452602490fd5b5050346103ad5760603660031901126103ad5760209061082b61104d6112d1565b6110556112e7565b604435916110648333836114f7565b6113f6565b5050346103ad57816003193601126103ad576020906002549051908152f35b5091346103b15760203660031901126103b157506103d1602092356115ca565b503461025d578160031936011261025d576110c16112d1565b60243590331561113a576001600160a01b031691821561112357508083602095338152600187528181208582528752205582519081527f8c5be1e5ebec7d5bd14f71427d1e84f3dd0314c0f7b2291e5b200ac8c7c3b925843392a35160018152f35b8351634a1406b160e11b8152908101859052602490fd5b835163e602df0560e01b8152808401869052602490fd5b50903461025d578260031936011261025d57805191836003549060019082821c92828116801561123b575b6020958686108214611228575084885290811561120657506001146111ad575b610899868661088f828b03836113d4565b929550600383527fc2575a0e9e593c00f959f8c92f12db2869c3395a3b0502d05e2516446f71f85b5b8284106111f357505050826108999461088f92820101943861119c565b80548685018801529286019281016111d6565b60ff191687860152505050151560051b830101925061088f826108993861119c565b634e487b7160e01b845260229052602483fd5b93607f169361117c565b5050346103ad57816003193601126103ad576020906103d1611ba1565b6020808252825181830181905290939260005b82811061129757505060409293506000838284010152601f8019910116010190565b818101860151848201604001528501611275565b346103815760203660031901126103815760206112c960043561164e565b604051908152f35b600435906001600160a01b038216820361038157565b602435906001600160a01b038216820361038157565b34610381576020366003190112610381576113166112d1565b5060206040516000198152f35b606090600319011261038157600435906001600160a01b03906024358281168103610381579160443590811681036103815790565b346103815760203660031901126103815760206112c96004356115f8565b6005546001600160a01b0316330361138a57565b60405163118cdaa760e01b8152336004820152602490fd5b6060810190811067ffffffffffffffff8211176113be57604052565b634e487b7160e01b600052604160045260246000fd5b90601f8019910116810190811067ffffffffffffffff8211176113be57604052565b916001600160a01b038084169283156114bb57169283156114a25760009083825281602052604082205490838210611470575091604082827fddf252ad1be2c89b69c2b068fc378daa952ba7f163c4a11628f55a4df523b3ef958760209652828652038282205586815220818154019055604051908152a3565b60405163391434e360e21b81526001600160a01b03919091166004820152602481019190915260448101839052606490fd5b60405163ec442f0560e01b815260006004820152602490fd5b604051634b637e8f60e11b815260006004820152602490fd5b919082018092116114e157565b634e487b7160e01b600052601160045260246000fd5b9160018060a01b038093169160009383855260016020526040938486209183169182875260205284862054926000198410611536575b50505050505050565b84841061159a5750801561158257811561156a5785526001602052838520908552602052039120553880808080808061152d565b8451634a1406b160e11b815260048101879052602490fd5b845163e602df0560e01b815260048101879052602490fd5b8551637dc7a0d960e11b81526001600160a01b039190911660048201526024810184905260448101859052606490fd5b600254600181018091116114e1576115e0611ba1565b90600182018092116114e1576115f592611954565b90565b600254600181018091116114e15761160e611ba1565b90600182018092116114e1576115f59261198a565b61162b611ba1565b600181018091116114e15760025490600182018092116114e1576115f592611954565b611656611ba1565b600181018091116114e15760025490600182018092116114e1576115f59261198a565b604080516323b872dd60e01b60208201526001600160a01b0392831660248201819052306044830152606480830187905282529491939192919060a081019067ffffffffffffffff8211818310176113be576116f9918652837f0000000000000000000000000000000000000000000000000000000000000000166118ec565b169384156117805790816117317fdcbc1c05240f31ff3ad067ef1ee35ce4997762752e3a095284754544f4c709d794936002546114d4565b600255856000526000602052826000208181540190558560007fddf252ad1be2c89b69c2b068fc378daa952ba7f163c4a11628f55a4df523b3ef60208651858152a382519182526020820152a3565b825163ec442f0560e01b815260006004820152602490fd5b9194936001600160a01b0380871694938181169390838786036118db575b505085156114bb57600092868452836020526040938481205499828b106118ab57508188999a7ffbde797d201c681b91056529119e0b02407c7bb96a4a2c75c01fc9667232c8db97989983528260205203858220558160025403600255887fddf252ad1be2c89b69c2b068fc378daa952ba7f163c4a11628f55a4df523b3ef60208751858152a3835163a9059cbb60e01b60208201526001600160a01b03831660248201526044808201899052815261189c906118746064826113d4565b847f0000000000000000000000000000000000000000000000000000000000000000166118ec565b835196875260208701521693a4565b855163391434e360e21b81526001600160a01b03919091166004820152602481018b905260448101839052606490fd5b6118e5918a6114f7565b38836117b6565b906000602091828151910182855af115611948576000513d61193f57506001600160a01b0381163b155b61191d5750565b604051635274afe760e01b81526001600160a01b039091166004820152602490fd5b60011415611916565b6040513d6000823e3d90fd5b9161196081838561198a565b918115611974576115f593091515906114d4565b634e487b7160e01b600052601260045260246000fd5b90916000198383099280830292838086109503948086039514611a1a5784831115611a01579082910981600003821680920460028082600302188083028203028083028203028083028203028083028203028083028203028092029003029360018380600003040190848311900302920304170290565b82634e487b71600052156003026011186020526024601cfd5b505080925015611974570490565b90816020910312610381575180151581036103815790565b60009060033d11611a4d57565b905060046000803e60005160e01c90565b600060443d106115f557604051600319913d83016004833e815167ffffffffffffffff918282113d602484011117611abc57818401948551938411611ac4573d85010160208487010111611abc57506115f5929101602001906113d4565b949350505050565b50949350505050565b3d15611b08573d9067ffffffffffffffff82116113be5760405191611afc601f8201601f1916602001846113d4565b82523d6000602084013e565b606090565b600260065414611b1e576002600655565b604051633ee5aeb560e01b8152600490fd5b15611b3757565b60405162461bcd60e51b815260206004820152600960248201526827b7363c9039b2b63360b91b6044820152606490fd5b60ff60075460a01c1615611b7c576103e890565b600090565b919082039182116114e157565b818102929181159184041417156114e157565b6040516370a0823160e01b81523060048201526020816024817f00000000000000000000000000000000000000000000000000000000000000006001600160a01b03165afa90811561194857600091611c55575b5060ff60075460a01c16611c0f576008546115f5916114d4565b611c1b60095442611b81565b906103e88082029082820414821517156114e15764496cebb800611c456115f594611c5093611b8e565b0491600854906114d4565b6114d4565b906020823d8211611c7e575b81611c6e602093836113d4565b810103126103b157505138611bf5565b3d9150611c6156fea26469706673582212209e3cddaafccc5eaad13febb2cf85c1215b2052ed58a52807c78e9a588a4323fa64736f6c63430008140033",
  "linkReferences": {},
  "deployedLinkReferences": {}
}