{
  "_format": "hh-sol-artifact-1",
  "contractName": "BucketVault",
  "sourceName": "contracts/src/BucketVault.sol",
  "abi": [
    {
      "inputs": [
        {
          "internalType": "contract IERC20",
          "name": "asset_",
          "type": "address"
        },
        {
          "internalType": "string",
          "name": "name_",
          "type": "string"
        },
        {
          "internalType": "string",
          "name": "symbol_",
          "type": "string"
        }
      ],
      "stateMutability": "nonpayable",
      "type": "constructor"
    },
    {
      "inputs": [
        {
          "internalType": "address",
          "name": "spender",
          "type": "address"
        },
        {
          "internalType": "uint256",
          "name": "allowance",
          "type": "uint256"
        },
        {
          "internalType": "uint256",
          "name": "needed",
          "type": "uint256"
        }
      ],
      "name": "ERC20InsufficientAllowance",
      "type": "error"
    },
    {
      "inputs": [
        {
          "internalType": "address",
          "name": "sender",
          "type": "address"
        },
        {
          "internalType": "uint256",
          "name": "balance",
          "type": "uint256"
        },
        {
          "internalType": "uint256",
          "name": "needed",
          "type": "uint256"
        }
      ],
      "name": "ERC20InsufficientBalance",
      "type": "error"
    },
    {
      "inputs": [
        {
          "internalType": "address",
          "name": "approver",
          "type": "address"
        }
      ],
      "name": "ERC20InvalidApprover",
      "type": "error"
    },
    {
      "inputs": [
        {
          "internalType": "address",
          "name": "receiver",
          "type": "address"
        }
      ],
      "name": "ERC20InvalidReceiver",
      "type": "error"
    },
    {
      "inputs": [
        {
          "internalType": "address",
          "name": "sender",
          "type": "address"
        }
      ],
      "name": "ERC20InvalidSender",
      "type": "error"
    },
    {
      "inputs": [
        {
          "internalType": "address",
          "name": "spender",
          "type": "address"
        }
      ],
      "name": "ERC20InvalidSpender",
      "type": "error"
    },
    {
      "inputs": [
        {
          "internalType": "address",
          "name": "receiver",
          "type": "address"
        },
        {
          "internalType": "uint256",
          "name": "assets",
          "type": "uint256"
        },
        {
          "internalType": "uint256",
          "name": "max",
          "type": "uint256"
        }
      ],
      "name": "ERC4626ExceededMaxDeposit",
      "type": "error"
    },
    {
      "inputs": [
        {
          "internalType": "address",
          "name": "receiver",
          "type": "address"
        },
        {
          "internalType": "uint256",
          "name": "shares",
          "type": "uint256"
        },
        {
          "internalType": "uint256",
          "name": "max",
          "type": "uint256"
        }
      ],
      "name": "ERC4626ExceededMaxMint",
      "type": "error"
    },
    {
      "inputs": [
        {
          "internalType": "address",
          "name": "owner",
          "type": "address"
        },
        {
          "internalType": "uint256",
          "name": "shares",
          "type": "uint256"
        },
        {
          "internalType": "uint256",
          "name": "max",
          "type": "uint256"
        }
      ],
      "name": "ERC4626ExceededMaxRedeem",
      "type": "error"
    },
    {
      "inputs": [
        {
          "internalType": "address",
          "name": "owner",
          "type": "address"
        },
        {
          "internalType": "uint256",
          "name": "assets",
          "type": "uint256"
        },
        {
          "internalType": "uint256",
          "name": "max",
          "type": "uint256"
        }
      ],
      "name": "ERC4626ExceededMaxWithdraw",
      "type": "error"
    },
    {
      "inputs": [],
      "name": "InsufficientBalance",
      "type": "error"
    },
    {
      "inputs": [],
      "name": "InvalidAmount",
      "type": "error"
    },
    {
      "inputs": [
        {
          "internalType": "address",
          "name": "owner",
          "type": "address"
        }
      ],
      "name": "OwnableInvalidOwner",
      "type": "error"
    },
    {
      "inputs": [
        {
          "internalType": "address",
          "name": "account",
          "type": "address"
        }
      ],
      "name": "OwnableUnauthorizedAccount",
      "type": "error"
    },
    {
      "inputs": [],
      "name": "ReentrancyGuardReentrantCall",
      "type": "error"
    },
    {
      "inputs": [
        {
          "internalType": "address",
          "name": "token",
          "type": "address"
        }
      ],
      "name": "SafeERC20FailedOperation",
      "type": "error"
    },
    {
      "inputs": [],
      "name": "YieldProtocolCallFailed",
      "type": "error"
    },
    {
      "inputs": [],
      "name": "YieldProtocolNotSet",
      "type": "error"
    },
    {
      "anonymous": false,
      "inputs": [
        {
          "indexed": true,
          "internalType": "address",
          "name": "owner",
          "type": "address"
        },
        {
          "indexed": true,
          "internalType": "address",
          "name": "spender",
          "type": "address"
        },
        {
          "indexed": false,
          "internalType": "uint256",
          "name": "value",
          "type": "uint256"
        }
      ],
      "name": "Approval",
      "type": "event"
    },
    {
      "anonymous": false,
      "inputs": [
        {
          "indexed": true,
          "internalType": "address",
          "name": "sender",
          "type": "address"
        },
        {
          "indexed": true,
          "internalType": "address",
          "name": "owner",
          "type": "address"
        },
        {
          "indexed": false,
          "internalType": "uint256",
          "name": "assets",
          "type": "uint256"
        },
        {
          "indexed": false,
          "internalType": "uint256",
          "name": "shares",
          "type": "uint256"
        }
      ],
      "name": "Deposit",
      "type": "event"
    },
    {
      "anonymous": false,
      "inputs": [
        {
          "indexed": true,
          "internalType": "address",
          "name": "previousOwner",
          "type": "address"
        },
        {
          "indexed": true,
          "internalType": "address",
          "name": "newOwner",
          "type": "address"
        }
      ],
      "name": "OwnershipTransferred",
      "type": "event"
    },
    {
      "anonymous": false,
      "inputs": [
        {
          "indexed": true,
          "internalType": "address",
          "name": "from",
          "type": "address"
        },
        {
          "indexed": true,
          "internalType": "address",
          "name": "to",
          "type": "address"
        },
        {
          "indexed": false,
          "internalType": "uint256",
          "name": "value",
          "type": "uint256"
        }
      ],
      "name": "Transfer",
      "type": "event"
    },
    {
      "anonymous": false,
      "inputs": [
        {
          "indexed": true,
          "internalType": "address",
          "name": "sender",
          "type": "address"
        },
        {
          "indexed": true,
          "internalType": "address",
          "name": "receiver",
          "type": "address"
        },
        {
          "indexed": true,
          "internalType": "address",
          "name": "owner",
          "type": "address"
        },
        {
          "indexed": false,
          "internalType": "uint256",
          "name": "assets",
          "type": "uint256"
        },
        {
          "indexed": false,
          "internalType": "uint256",
          "name": "shares",
          "type": "uint256"
        }
      ],
      "name": "Withdraw",
      "type": "event"
    },
    {
      "anonymous": false,
      "inputs": [
        {
          "indexed": false,
          "internalType": "uint256",
          "name": "amount",
          "type": "uint256"
        }
      ],
      "name": "YieldCompounded",
      "type": "event"
    },
    {
      "anonymous": false,
      "inputs": [
        {
          "indexed": false,
          "internalType": "uint256",
          "name": "amount",
          "type": "uint256"
        },
        {
          "indexed": false,
          "internalType": "uint256",
          "name": "shares",
          "type": "uint256"
        }
      ],
      "name": "YieldDeposited",
      "type": "event"
    },
    {
      "anonymous": false,
      "inputs": [
        {
          "indexed": true,
          "internalType": "address",
          "name": "protocol",
          "type": "address"
        }
      ],
      "name": "YieldProtocolSet",
      "type": "event"
    },
    {
      "anonymous": false,
      "inputs": [
        {
          "indexed": false,
          "internalType": "uint256",
          "name": "newRate",
          "type": "uint256"
        }
      ],
      "name": "YieldRateUpdated",
      "type": "event"
    },
    {
      "anonymous": false,
      "inputs": [
        {
          "indexed": false,
          "internalType": "uint256",
          "name": "shares",
          "type": "uint256"
        },
        {
          "indexed": false,
          "internalType": "uint256",
          "name": "amount",
          "type": "uint256"
        }
      ],
      "name": "YieldWithdrawn",
      "type": "event"
    },
    {
      "inputs": [
        {
          "internalType": "address",
          "name": "protocol",
          "type": "address"
        },
        {
          "internalType": "uint256",
          "name": "amount",
          "type": "uint256"
        }
      ],
      "name": "_externalDeposit",
      "outputs": [],
      "stateMutability": "nonpayable",
      "type": "function"
    },
    {
      "inputs": [
        {
          "internalType": "address",
          "name": "protocol",
          "type": "address"
        },
        {
          "internalType": "uint256",
          "name": "shares",
          "type": "uint256"
        }
      ],
      "name": "_externalWithdraw",
      "outputs": [
        {
          "internalType": "uint256",
          "name": "amount",
          "type": "uint256"
        }
      ],
      "stateMutability": "nonpayable",
      "type": "function"
    },
    {
      "inputs": [
        {
          "internalType": "address",
          "name": "owner",
          "type": "address"
        },
        {
          "internalType": "address",
          "name": "spender",
          "type": "address"
        }
      ],
      "name": "allowance",
      "outputs": [
        {
          "internalType": "uint256",
          "name": "",
          "type": "uint256"
        }
      ],
      "stateMutability": "view",
      "type": "function"
    },
    {
      "inputs": [
        {
          "internalType": "address",
          "name": "spender",
          "type": "address"
        },
        {
          "internalType": "uint256",
          "name": "value",
          "type": "uint256"
        }
      ],
      "name": "approve",
      "outputs": [
        {
          "internalType": "bool",
          "name": "",
          "type": "bool"
        }
      ],
      "stateMutability": "nonpayable",
      "type": "function"
    },
    {
      "inputs": [],
      "name": "asset",
      "outputs": [
        {
          "internalType": "address",
          "name": "",
          "type": "address"
        }
      ],
      "stateMutability": "view",
      "type": "function"
    },
    {
      "inputs": [
        {
          "internalType": "address",
          "name": "account",
          "type": "address"
        }
      ],
      "name": "balanceOf",
      "outputs": [
        {
          "internalType": "uint256",
          "name": "",
          "type": "uint256"
        }
      ],
      "stateMutability": "view",
      "type": "function"
    },
    {
      "inputs": [],
      "name": "compoundYield",
      "outputs": [],
      "stateMutability": "nonpayable",
      "type": "function"
    },
    {
      "inputs": [
        {
          "internalType": "uint256",
          "name": "shares",
          "type": "uint256"
        }
      ],
      "name": "convertToAssets",
      "outputs": [
        {
          "internalType": "uint256",
          "name": "",
          "type": "uint256"
        }
      ],
      "stateMutability": "view",
      "type": "function"
    },
    {
      "inputs": [
        {
          "internalType": "uint256",
          "name": "assets",
          "type": "uint256"
        }
      ],
      "name": "convertToShares",
      "outputs": [
        {
          "internalType": "uint256",
          "name": "",
          "type": "uint256"
        }
      ],
      "stateMutability": "view",
      "type": "function"
    },
    {
      "inputs": [],
      "name": "decimals",
      "outputs": [
        {
          "internalType": "uint8",
          "name": "",
          "type": "uint8"
        }
      ],
      "stateMutability": "view",
      "type": "function"
    },
    {
      "inputs": [
        {
          "internalType": "uint256",
          "name": "assets",
          "type": "uint256"
        },
        {
          "internalType": "address",
          "name": "receiver",
          "type": "address"
        }
      ],
      "name": "deposit",
      "outputs": [
        {
          "internalType": "uint256",
          "name": "shares",
          "type": "uint256"
        }
      ],
      "stateMutability": "nonpayable",
      "type": "function"
    },
    {
      "inputs": [
        {
          "internalType": "uint256",
          "name": "amount",
          "type": "uint256"
        }
      ],
      "name": "depositToYieldProtocol",
      "outputs": [],
      "stateMutability": "nonpayable",
      "type": "function"
    },
    {
      "inputs": [],
      "name": "getYieldRate",
      "outputs": [
        {
          "internalType": "uint256",
          "name": "",
          "type": "uint256"
        }
      ],
      "stateMutability": "view",
      "type": "function"
    },
    {
      "inputs": [],
      "name": "lastYieldUpdate",
      "outputs": [
        {
          "internalType": "uint256",
          "name": "",
          "type": "uint256"
        }
      ],
      "stateMutability": "view",
      "type": "function"
    },
    {
      "inputs": [
        {
          "internalType": "address",
          "name": "",
          "type": "address"
        }
      ],
      "name": "maxDeposit",
      "outputs": [
        {
          "internalType": "uint256",
          "name": "",
          "type": "uint256"
        }
      ],
      "stateMutability": "view",
      "type": "function"
    },
    {
      "inputs": [
        {
          "internalType": "address",
          "name": "",
          "type": "address"
        }
      ],
      "name": "maxMint",
      "outputs": [
        {
          "internalType": "uint256",
          "name": "",
          "type": "uint256"
        }
      ],
      "stateMutability": "view",
      "type": "function"
    },
    {
      "inputs": [
        {
          "internalType": "address",
          "name": "owner",
          "type": "address"
        }
      ],
      "name": "maxRedeem",
      "outputs": [
        {
          "internalType": "uint256",
          "name": "",
          "type": "uint256"
        }
      ],
      "stateMutability": "view",
      "type": "function"
    },
    {
      "inputs": [
        {
          "internalType": "address",
          "name": "owner",
          "type": "address"
        }
      ],
      "name": "maxWithdraw",
      "outputs": [
        {
          "internalType": "uint256",
          "name": "",
          "type": "uint256"
        }
      ],
      "stateMutability": "view",
      "type": "function"
    },
    {
      "inputs": [
        {
          "internalType": "uint256",
          "name": "shares",
          "type": "uint256"
        },
        {
          "internalType": "address",
          "name": "receiver",
          "type": "address"
        }
      ],
      "name": "mint",
      "outputs": [
        {
          "internalType": "uint256",
          "name": "",
          "type": "uint256"
        }
      ],
      "stateMutability": "nonpayable",
      "type": "function"
    },
    {
      "inputs": [],
      "name": "name",
      "outputs": [
        {
          "internalType": "string",
          "name": "",
          "type": "string"
        }
      ],
      "stateMutability": "view",
      "type": "function"
    },
    {
      "inputs": [],
      "name": "owner",
      "outputs": [
        {
          "internalType": "address",
          "name": "",
          "type": "address"
        }
      ],
      "stateMutability": "view",
      "type": "function"
    },
    {
      "inputs": [
        {
          "internalType": "uint256",
          "name": "assets",
          "type": "uint256"
        }
      ],
      "name": "previewDeposit",
      "outputs": [
        {
          "internalType": "uint256",
          "name": "",
          "type": "uint256"
        }
      ],
      "stateMutability": "view",
      "type": "function"
    },
    {
      "inputs": [
        {
          "internalType": "uint256",
          "name": "shares",
          "type": "uint256"
        }
      ],
      "name": "previewMint",
      "outputs": [
        {
          "internalType": "uint256",
          "name": "",
          "type": "uint256"
        }
      ],
      "stateMutability": "view",
      "type": "function"
    },
    {
      "inputs": [
        {
          "internalType": "uint256",
          "name": "shares",
          "type": "uint256"
        }
      ],
      "name": "previewRedeem",
      "outputs": [
        {
          "internalType": "uint256",
          "name": "",
          "type": "uint256"
        }
      ],
      "stateMutability": "view",
      "type": "function"
    },
    {
      "inputs": [
        {
          "internalType": "uint256",
          "name": "assets",
          "type": "uint256"
        }
      ],
      "name": "previewWithdraw",
      "outputs": [
        {
          "internalType": "uint256",
          "name": "",
          "type": "uint256"
        }
      ],
      "stateMutability": "view",
      "type": "function"
    },
    {
      "inputs": [
        {
          "internalType": "uint256",
          "name": "shares",
          "type": "uint256"
        },
        {
          "internalType": "address",
          "name": "receiver",
          "type": "address"
        },
        {
          "internalType": "address",
          "name": "owner",
          "type": "address"
        }
      ],
      "name": "redeem",
      "outputs": [
        {
          "internalType": "uint256",
          "name": "",
          "type": "uint256"
        }
      ],
      "stateMutability": "nonpayable",
      "type": "function"
    },
    {
      "inputs": [],
      "name": "renounceOwnership",
      "outputs": [],
      "stateMutability": "nonpayable",
      "type": "function"
    },
    {
      "inputs": [
        {
          "internalType": "address",
          "name": "protocol",
          "type": "address"
        }
      ],
      "name": "setYieldProtocol",
      "outputs": [],
      "stateMutability": "nonpayable",
      "type": "function"
    },
    {
      "inputs": [],
      "name": "symbol",
      "outputs": [
        {
          "internalType": "string",
          "name": "",
          "type": "string"
        }
      ],
      "stateMutability": "view",
      "type": "function"
    },
    {
      "inputs": [],
      "name": "totalAssets",
      "outputs": [
        {
          "internalType": "uint256",
          "name": "",
          "type": "uint256"
        }
      ],
      "stateMutability": "view",
      "type": "function"
    },
    {
      "inputs": [],
      "name": "totalSupply",
      "outputs": [
        {
          "internalType": "uint256",
          "name": "",
          "type": "uint256"
        }
      ],
      "stateMutability": "view",
      "type": "function"
    },
    {
      "inputs": [],
      "name": "totalYieldEarned",
      "outputs": [
        {
          "internalType": "uint256",
          "name": "",
          "type": "uint256"
        }
      ],
      "stateMutability": "view",
      "type": "function"
    },
    {
      "inputs": [
        {
          "internalType": "address",
          "name": "to",
          "type": "address"
        },
        {
          "internalType": "uint256",
          "name": "value",
          "type": "uint256"
        }
      ],
      "name": "transfer",
      "outputs": [
        {
          "internalType": "bool",
          "name": "",
          "type": "bool"
        }
      ],
      "stateMutability": "nonpayable",
      "type": "function"
    },
    {
      "inputs": [
        {
          "internalType": "address",
          "name": "from",
          "type": "address"
        },
        {
          "internalType": "address",
          "name": "to",
          "type": "address"
        },
        {
          "internalType": "uint256",
          "name": "value",
          "type": "uint256"
        }
      ],
      "name": "transferFrom",
      "outputs": [
        {
          "internalType": "bool",
          "name": "",
          "type": "bool"
        }
      ],
      "stateMutability": "nonpayable",
      "type": "function"
    },
    {
      "inputs": [
        {
          "internalType": "address",
          "name": "newOwner",
          "type": "address"
        }
      ],
      "name": "transferOwnership",
      "outputs": [],
      "stateMutability": "nonpayable",
      "type": "function"
    },
    {
      "inputs": [
        {
          "internalType": "uint256",
          "name": "assets",
          "type": "uint256"
        },
        {
          "internalType": "address",
          "name": "receiver",
          "type": "address"
        },
        {
          "internalType": "address",
          "name": "owner",
          "type": "address"
        }
      ],
      "name": "withdraw",
      "outputs": [
        {
          "internalType": "uint256",
          "name": "shares",
          "type": "uint256"
        }
      ],
      "stateMutability": "nonpayable",
      "type": "function"
    },
    {
      "inputs": [
        {
          "internalType": "uint256",
          "name": "shares",
          "type": "uint256"
        }
      ],
      "name": "withdrawFromYieldProtocol",
      "outputs": [],
      "stateMutability": "nonpayable",
      "type": "function"
    },
    {
      "inputs": [],
      "name": "yieldEnabled",
      "outputs": [
        {
          "internalType": "bool",
          "name": "",
          "type": "bool"
        }
      ],
      "stateMutability": "view",
      "type": "function"
    },
    {
      "inputs": [],
      "name": "yieldProtocol",
      "outputs": [
        {
          "internalType": "address",
          "name": "",
          "type": "address"
        }
      ],
      "stateMutability": "view",
      "type": "function"
    }
  ],
  "bytecode": "0x60c0806040523462000405576200223d80380380916200002082856200040a565b83398101606082820312620004055781516001600160a01b0392908381168103620004055760208281015190926001600160401b03918281116200040557856200006c9183016200044a565b94604082015183811162000405576200008692016200044a565b845182811162000305576003918254916001978884811c94168015620003fa575b88851014620003e4578190601f948581116200038e575b50889085831160011462000327576000926200031b575b505060001982861b1c191690881b1783555b8051938411620003055760049586548881811c91168015620002fa575b82821014620002e55790818487969594931162000289575b50809285116001146200021b57506000936200020f575b505082861b92600019911b1c19161782555b6200015081620004b5565b901562000206575b60a0526080523315620001ee575060058054336001600160a01b03198216811790925560405193167f8be0079c531659141344cd1fd0a4f28419497f9722a3daafe3b4186f6b6457e0600080a360065542600955611cc190816200057c823960805181818161070b01528181610b4801528181610fa801528181611432015281816119430152611ae6015260a05181610fee0152f35b602490600060405191631e4fbdf760e01b8352820152fd5b50601262000158565b01519150388062000133565b929190889550601f1985168860005284600020946000905b8282106200026f575050851162000254575b50505050811b01825562000145565b01519060f884600019921b161c191690553880808062000245565b8484015187558b9890960195938401939081019062000233565b90919293945087600052816000208480880160051c820192848910620002db575b918b91899897969594930160051c01915b828110620002cb5750506200011c565b600081558897508b9101620002bb565b92508192620002aa565b602288634e487b7160e01b6000525260246000fd5b90607f169062000104565b634e487b7160e01b600052604160045260246000fd5b015190503880620000d5565b908a9350601f19831691876000528a6000209260005b8c8282106200037757505084116200035e575b505050811b018355620000e7565b015160001983881b60f8161c1916905538808062000350565b8385015186558e979095019493840193016200033d565b90915085600052886000208580850160051c8201928b8610620003da575b918c91869594930160051c01915b828110620003ca575050620000be565b600081558594508c9101620003ba565b92508192620003ac565b634e487b7160e01b600052602260045260246000fd5b93607f1693620000a7565b600080fd5b601f909101601f19168101906001600160401b038211908210176200030557604052565b6001600160401b0381116200030557601f01601f191660200190565b9080601f83011215620004055781519062000465826200042e565b926200047560405194856200040a565b82845260209160208483010111620004055760005b838110620004a15750505060206000918301015290565b81810183015185820184015282016200048a565b6040805163313ce56760e01b60208201908152600482529293929181016001600160401b0381118282101762000305576040525160009384928392916001600160a01b03165afa3d1562000572573d9062000510826200042e565b916200052060405193846200040a565b82523d84602084013e5b8062000565575b6200053c575b508190565b60208180518101031262000561576020015160ff811162000537576001925060ff1690565b8280fd5b5060208151101562000531565b6060906200052a56fe6040608081526004908136101561001557600080fd5b600091823560e01c806301e1d1141461124f57806306fdde031461115957806307a2d13a14610f19578063095ea7b3146110b05780630a28a4771461109057806318160ddd1461107157806323b872dd14611034578063313ce56714610fd757806338d52e0f14610f935780633bc725c314610f1e578063402d267d1461058f5780634cdad50614610f1957806359843a9514610e595780636e553f6514610dbd5780636e98928b14610af057806370a082311461042b578063715018a614610a925780637e393cbe146109ba5780638da5cb5b146109915780638f8c8aee1461097257806394bf804d1461093e57806395d89b4114610838578063a9059cbb14610807578063b3d7f6b9146107e7578063b460af9414610649578063ba087652146105bb578063c2752e4314610594578063c63d75b61461058f578063c6e6f592146103d8578063cc00967914610570578063cd4c73a714610547578063ce96cb771461050e578063d8d4dfa514610467578063d905777e1461042b578063dd62ed3e146103dd578063ef8b30f7146103d8578063f1009899146103b4578063f1b1c375146102615763f2fde38b146101ce57600080fd5b3461025d57602036600319011261025d576101e76112db565b906101f061189f565b6001600160a01b03918216928315610247575050600554826bffffffffffffffffffffffff60a01b821617600555167f8be0079c531659141344cd1fd0a4f28419497f9722a3daafe3b4186f6b6457e0600080a380f35b51631e4fbdf760e01b8152908101849052602490fd5b8280fd5b5091346103b1576020806003193601126103ad578335906102806118cb565b61028861189f565b6007549060ff8260a01c161561039d57821561038d5784516359843a9560e01b81526001600160a01b0390921686830190815260208101849052819083908190604001038187305af1849281610359575b506103235785856102e861159c565b6308c379a014610309575b6102fb611544565b5051636794231b60e11b8152fd5b6103116115ba565b156102f35751636794231b60e11b8152fd5b847fc2e390771ee2b6cad5cb1244f940b577352851c4d635277c314747be299eba4b9594965051928352820152a1600160065580f35b9092508181813d8311610386575b61037181836113b2565b81010312610381575191386102d9565b600080fd5b503d610367565b845163162908e360e11b81528690fd5b845163666f681360e01b81528690fd5b5080fd5b80fd5b5050346103ad57816003193601126103ad576020906103d1611629565b9051908152f35b611362565b5050346103ad57806003193601126103ad576020916103fa6112db565b826104036112f1565b6001600160a01b03928316845260018652922091166000908152908352819020549051908152f35b5050346103ad5760203660031901126103ad576020906103d161044c6112db565b6001600160a01b031660009081526020819052604090205490565b50903461025d578060031936011261025d5782806104836112db565b61048e30331461150c565b835182602082019163b6b55f2560e01b83526024356024820152602481526104b581611380565b51925af16104c1611544565b50156104cb578280f35b906020606492519162461bcd60e51b8352820152601760248201527f45787465726e616c206465706f736974206661696c65640000000000000000006044820152fd5b5050346103ad5760203660031901126103ad576020916103d19082906001600160a01b0361053a6112db565b168152808552205461166d565b5050346103ad57816003193601126103ad5760075490516001600160a01b039091168152602090f35b5050346103ad57816003193601126103ad576020906008549051908152f35b611307565b5050346103ad57816003193601126103ad5760209060ff60075460a01c1690519015158152f35b5091346103b157506105cc3661132d565b9291936105ec8460018060a01b0316600052600060205260406000205490565b8086116106145750508361060e9161060560209661166d565b94859133611a07565b51908152f35b9251632e52afbb60e21b81526001600160a01b0390941690840190815260208101949094525060408301529081906060010390fd5b50903461025d576106593661132d565b939091946106656118cb565b8360ff60075460a01c166106f3575b6001600160a01b038616825260208290529020546106919061166d565b8086116106be5750506106b390846106aa602096611698565b94859233611a07565b600160065551908152f35b9251633fa733bb60e21b81526001600160a01b0390941690840190815260208101949094525060408301529081906060010390fd5b516370a0823160e01b815230838201526020816024817f00000000000000000000000000000000000000000000000000000000000000006001600160a01b03165afa9081156107dd5790859183916107a6575b5091828289610691951061075e575b50509150610674565b8161079461078d7fc2e390771ee2b6cad5cb1244f940b577352851c4d635277c314747be299eba4b948d6113d4565b918c6113d4565b82519182526020820152a13882610755565b9150506020813d6020116107d5575b816107c2602093836113b2565b8101031261038157518490610691610746565b3d91506107b5565b85513d84823e3d90fd5b5091346103b15760203660031901126103b157506103d160209235611642565b5050346103ad57806003193601126103ad576020906108316108276112db565b60243590336117c1565b5160018152f35b509190346103ad57816003193601126103ad5780519180938054916001908360011c9260018516948515610934575b6020958686108114610921578589529081156108fd57506001146108a5575b6108a18787610897828c03836113b2565b519182918261126c565b0390f35b81529295507f8a35acfbc15ff81a39ae7d344fd709f28e8600b4aa8c65c6b64bfe7fe36bd19b5b8284106108ea57505050826108a19461089792820101943880610886565b80548685018801529286019281016108cc565b60ff19168887015250505050151560051b8301019250610897826108a13880610886565b634e487b7160e01b845260228352602484fd5b93607f1693610867565b503461025d578160031936011261025d5760209250359061060e6109606112f1565b9261096a81611642565b8094336118ee565b5050346103ad57816003193601126103ad576020906009549051908152f35b5050346103ad57816003193601126103ad5760055490516001600160a01b039091168152602090f35b503461025d578260031936011261025d576109d36118cb565b60ff60075460a01c1615610a84576109ed600954426113d4565b906109f6611417565b906103e891828102928184041490151715610a71575064496cebb80091610a1c916113f7565b049081610a2d575b82600160065580f35b81602091610a5e7fcfad015a1c9077dd207d62466bb2fe714162b7bda0cca54bb619a967837102ae9460085461140a565b6008554260095551908152a13880610a24565b634e487b7160e01b855260119052602484fd5b905163666f681360e01b8152fd5b83346103b157806003193601126103b157610aab61189f565b600580546001600160a01b031981169091556000906001600160a01b03167f8be0079c531659141344cd1fd0a4f28419497f9722a3daafe3b4186f6b6457e08280a380f35b5091346103b157602090816003193601126103b157833590610b106118cb565b610b1861189f565b60075460ff8160a01c161561039d57821561038d5784516370a0823160e01b815230878201526001600160a01b037f000000000000000000000000000000000000000000000000000000000000000081169490918681602481895afa908115610d72579082918691610d8c575b5010610d7c57865163095ea7b360e01b8082529383166001600160a01b0316898201908152602081018390528790829081906040010381888a5af18015610d7257610d55575b508160075416303b15610d5157875163d8d4dfa560e01b81526001600160a01b03909116818a0190815260208101839052859082908190604001038183305af19081610d23575b50610cec57509060448592610c2561159c565b6308c379a014610ca9575b610c38611544565b506007541691848851968794859384528b8401528160248401525af1908115610c9e5750610c70575b505051636794231b60e11b8152fd5b81610c8f92903d10610c97575b610c8781836113b2565b810190611584565b503880610c61565b503d610c7d565b8451903d90823e3d90fd5b610cb16115ba565b15610c30576007541691848851968794859384528b8401528160248401525af1908115610c9e5750610c7057505051636794231b60e11b8152fd5b7fa248d81b377afe8736fe397f5a9f8f0d7c581e67ff6ae4037df29a672a92133b87878693825191818352820152a1600160065580f35b67ffffffffffffffff8196929611610d3e5788529338610c12565b634e487b7160e01b825260418a52602482fd5b8480fd5b610d6b90873d8911610c9757610c8781836113b2565b5038610bcb565b88513d87823e3d90fd5b8651631e9acf1760e31b81528890fd5b809250888092503d8311610db6575b610da581836113b2565b81010312610d515781905138610b85565b503d610d9b565b503461025d578160031936011261025d5760209250359081610dfa610de06112f1565b610de86118cb565b610df1836116c3565b948591336118ee565b8160ff60075460a01c1680610e50575b610e1c575b5050600160065551908152f35b7fa248d81b377afe8736fe397f5a9f8f0d7c581e67ff6ae4037df29a672a92133b9181519081528486820152a13881610e0f565b50811515610e0a565b5091346103b157816003193601126103b1578080610e756112db565b610e8030331461150c565b8451826020820191632e1a7d4d60e01b8352602435602482015260248152610ea781611380565b51925af192610eb4611544565b9315610ed657506020838051810103126103b157506020809201519051908152f35b606490602084519162461bcd60e51b8352820152601860248201527f45787465726e616c207769746864726177206661696c656400000000000000006044820152fd5b6112b5565b83346103b15760203660031901126103b157610f386112db565b610f4061189f565b600780546001600160a81b0319166001600160a01b039290921691821782151560a01b60ff60a01b161790557f6d70c8cd6b23bde6c51ca79816ad4d35c700845e43feefc3e65ca0d9cc6f45218280a280f35b5050346103ad57816003193601126103ad57517f00000000000000000000000000000000000000000000000000000000000000006001600160a01b03168152602090f35b509190346103ad57816003193601126103ad5760ff7f0000000000000000000000000000000000000000000000000000000000000000169160ff8311611021576020838351908152f35b634e487b7160e01b815260118452602490fd5b5050346103ad5760603660031901126103ad576020906108316110556112db565b61105d6112f1565b6044359161106c8333836116ee565b6117c1565b5050346103ad57816003193601126103ad576020906002549051908152f35b5091346103b15760203660031901126103b157506103d160209235611698565b503461025d578160031936011261025d576110c96112db565b602435903315611142576001600160a01b031691821561112b57508083602095338152600187528181208582528752205582519081527f8c5be1e5ebec7d5bd14f71427d1e84f3dd0314c0f7b2291e5b200ac8c7c3b925843392a35160018152f35b8351634a1406b160e11b8152908101859052602490fd5b835163e602df0560e01b8152808401869052602490fd5b50903461025d578260031936011261025d5780519183600354906001908260011c92600181168015611245575b6020958686108214611232575084885290811561121057506001146111b7575b6108a18686610897828b03836113b2565b929550600383527fc2575a0e9e593c00f959f8c92f12db2869c3395a3b0502d05e2516446f71f85b5b8284106111fd57505050826108a1946108979282010194386111a6565b80548685018801529286019281016111e0565b60ff191687860152505050151560051b8301019250610897826108a1386111a6565b634e487b7160e01b845260229052602483fd5b93607f1693611186565b5050346103ad57816003193601126103ad576020906103d1611417565b6020808252825181830181905290939260005b8281106112a157505060409293506000838284010152601f8019910116010190565b81810186015184820160400152850161127f565b346103815760203660031901126103815760206112d360043561166d565b604051908152f35b600435906001600160a01b038216820361038157565b602435906001600160a01b038216820361038157565b34610381576020366003190112610381576113206112db565b5060206040516000198152f35b606090600319011261038157600435906001600160a01b03906024358281168103610381579160443590811681036103815790565b346103815760203660031901126103815760206112d36004356116c3565b6060810190811067ffffffffffffffff82111761139c57604052565b634e487b7160e01b600052604160045260246000fd5b90601f8019910116810190811067ffffffffffffffff82111761139c57604052565b919082039182116113e157565b634e487b7160e01b600052601160045260246000fd5b818102929181159184041417156113e157565b919082018092116113e157565b6040516370a0823160e01b81523060048201526020816024817f00000000000000000000000000000000000000000000000000000000000000006001600160a01b03165afa908115611500576000916114ce575b5060ff60075460a01c16611488576008546114859161140a565b90565b611494600954426113d4565b906103e88082029082820414821517156113e15764496cebb8006114be611485946114c9936113f7565b04916008549061140a565b61140a565b906020823d6020116114f8575b816114e8602093836113b2565b810103126103b15750513861146b565b3d91506114db565b6040513d6000823e3d90fd5b1561151357565b60405162461bcd60e51b815260206004820152600960248201526827b7363c9039b2b63360b91b6044820152606490fd5b3d1561157f573d9067ffffffffffffffff821161139c5760405191611573601f8201601f1916602001846113b2565b82523d6000602084013e565b606090565b90816020910312610381575180151581036103815790565b60009060033d116115a957565b905060046000803e60005160e01c90565b600060443d1061148557604051600319913d83016004833e815167ffffffffffffffff918282113d60248401111761161857818401948551938411611620573d850101602084870101116116185750611485929101602001906113b2565b949350505050565b50949350505050565b60ff60075460a01c161561163d576103e890565b600090565b61164a611417565b600181018091116113e15760025490600182018092116113e15761148592611b5b565b611675611417565b600181018091116113e15760025490600182018092116113e15761148592611b91565b600254600181018091116113e1576116ae611417565b90600182018092116113e15761148592611b5b565b600254600181018091116113e1576116d9611417565b90600182018092116113e15761148592611b91565b9160018060a01b03809316916000938385526001602052604093848620918316918287526020528486205492600019841061172d575b50505050505050565b8484106117915750801561177957811561176157855260016020528385209085526020520391205538808080808080611724565b8451634a1406b160e11b815260048101879052602490fd5b845163e602df0560e01b815260048101879052602490fd5b8551637dc7a0d960e11b81526001600160a01b039190911660048201526024810184905260448101859052606490fd5b916001600160a01b03808416928315611886571692831561186d576000908382528160205260408220549083821061183b575091604082827fddf252ad1be2c89b69c2b068fc378daa952ba7f163c4a11628f55a4df523b3ef958760209652828652038282205586815220818154019055604051908152a3565b60405163391434e360e21b81526001600160a01b03919091166004820152602481019190915260448101839052606490fd5b60405163ec442f0560e01b815260006004820152602490fd5b604051634b637e8f60e11b815260006004820152602490fd5b6005546001600160a01b031633036118b357565b60405163118cdaa760e01b8152336004820152602490fd5b6002600654146118dc576002600655565b604051633ee5aeb560e01b8152600490fd5b9160018060a01b03604092818451956323b872dd60e01b602088015216948560248201523060448201528360648201526064815260a081019080821067ffffffffffffffff83111761139c57611968918652837f000000000000000000000000000000000000000000000000000000000000000016611c2f565b169384156119ef5790816119a07fdcbc1c05240f31ff3ad067ef1ee35ce4997762752e3a095284754544f4c709d7949360025461140a565b600255856000526000602052826000208181540190558560007fddf252ad1be2c89b69c2b068fc378daa952ba7f163c4a11628f55a4df523b3ef60208651858152a382519182526020820152a3565b825163ec442f0560e01b815260006004820152602490fd5b9194936001600160a01b038087169493818116939083878603611b4a575b5050851561188657600092868452836020526040938481205499828b10611b1a57508188999a7ffbde797d201c681b91056529119e0b02407c7bb96a4a2c75c01fc9667232c8db97989983528260205203858220558160025403600255887fddf252ad1be2c89b69c2b068fc378daa952ba7f163c4a11628f55a4df523b3ef60208751858152a3835163a9059cbb60e01b60208201526001600160a01b038316602482015260448082018990528152611b0b90611ae36064826113b2565b847f000000000000000000000000000000000000000000000000000000000000000016611c2f565b835196875260208701521693a4565b855163391434e360e21b81526001600160a01b03919091166004820152602481018b905260448101839052606490fd5b611b54918a6116ee565b3883611a25565b91611b67818385611b91565b918115611b7b57611485930915159061140a565b634e487b7160e01b600052601260045260246000fd5b90916000198383099280830292838086109503948086039514611c215784831115611c08579082910981600003821680920460028082600302188083028203028083028203028083028203028083028203028083028203028092029003029360018380600003040190848311900302920304170290565b82634e487b71600052156003026011186020526024601cfd5b505080925015611b7b570490565b906000602091828151910182855af115611500576000513d611c8257506001600160a01b0381163b155b611c605750565b604051635274afe760e01b81526001600160a01b039091166004820152602490fd5b60011415611c5956fea26469706673582212201cb568c0cb25b2399c66e33857b20ffe7dc4e4d949c8d01d2f9de13f1501fd8064736f6c63430008160033",
  "linkReferences": {},
  "deployedLinkReferences": {}
}