{
  "_format": "hh-sol-artifact-1",
  "contractName": "BucketVaultV2Upgradeable",
  "sourceName": "contracts/src/upgradeable/BucketVaultV2Upgradeable.sol",
  "abi": [
    {
      "inputs": [],
      "stateMutability": "nonpayable",
      "type": "constructor"
    },
    {
      "inputs": [
        {
          "internalType": "address",
          "name": "target",
          "type": "address"
        }
      ],
      "name": "AddressEmptyCode",
      "type": "error"
    },
    {
      "inputs": [
        {
          "internalType": "address",
          "name": "implementation",
          "type": "address"
        }
      ],
      "name": "ERC1967InvalidImplementation",
      "type": "error"
    },
    {
      "inputs": [],
      "name": "ERC1967NonPayable",
      "type": "error"
    },
    {
      "inputs": [
        {
          "internalType": "address",
          "name": "spender",
          "type": "address"
        },
        {
          "internalType": "uint256",
          "name": "allowance",
          "type": "uint256"
        },
        {
          "internalType": "uint256",
          "name": "needed",
          "type": "uint256"
        }
      ],
      "name": "ERC20InsufficientAllowance",
      "type": "error"
    },
    {
      "inputs": [
        {
          "internalType": "address",
          "name": "sender",
          "type": "address"
        },
        {
          "internalType": "uint256",
          "name": "balance",
          "type": "uint256"
        },
        {
          "internalType": "uint256",
          "name": "needed",
          "type": "uint256"
        }
      ],
      "name": "ERC20InsufficientBalance",
      "type": "error"
    },
    {
      "inputs": [
        {
          "internalType": "address",
          "name": "approver",
          "type": "address"
        }
      ],
      "name": "ERC20InvalidApprover",
      "type": "error"
    },
    {
      "inputs": [
        {
          "internalType": "address",
          "name": "receiver",
          "type": "address"
        }
      ],
      "name": "ERC20InvalidReceiver",
      "type": "error"
    },
    {
      "inputs": [
        {
          "internalType": "address",
          "name": "sender",
          "type": "address"
        }
      ],
      "name": "ERC20InvalidSender",
      "type": "error"
    },
    {
      "inputs": [
        {
          "internalType": "address",
          "name": "spender",
          "type": "address"
        }
      ],
      "name": "ERC20InvalidSpender",
      "type": "error"
    },
    {
      "inputs": [
        {
          "internalType": "address",
          "name": "receiver",
          "type": "address"
        },
        {
          "internalType": "uint256",
          "name": "assets",
          "type": "uint256"
        },
        {
          "internalType": "uint256",
          "name": "max",
          "type": "uint256"
        }
      ],
      "name": "ERC4626ExceededMaxDeposit",
      "type": "error"
    },
    {
      "inputs": [
        {
          "internalType": "address",
          "name": "receiver",
          "type": "address"
        },
        {
          "internalType": "uint256",
          "name": "shares",
          "type": "uint256"
        },
        {
          "internalType": "uint256",
          "name": "max",
          "type": "uint256"
        }
      ],
      "name": "ERC4626ExceededMaxMint",
      "type": "error"
    },
    {
      "inputs": [
        {
          "internalType": "address",
          "name": "owner",
          "type": "address"
        },
        {
          "internalType": "uint256",
          "name": "shares",
          "type": "uint256"
        },
        {
          "internalType": "uint256",
          "name": "max",
          "type": "uint256"
        }
      ],
      "name": "ERC4626ExceededMaxRedeem",
      "type": "error"
    },
    {
      "inputs": [
        {
          "internalType": "address",
          "name": "owner",
          "type": "address"
        },
        {
          "internalType": "uint256",
          "name": "assets",
          "type": "uint256"
        },
        {
          "internalType": "uint256",
          "name": "max",
          "type": "uint256"
        }
      ],
      "name": "ERC4626ExceededMaxWithdraw",
      "type": "error"
    },
    {
      "inputs": [],
      "name": "EmergencyWithdrawalPenaltyTooHigh",
      "type": "error"
    },
    {
      "inputs": [],
      "name": "EnforcedPause",
      "type": "error"
    },
    {
      "inputs": [],
      "name": "ExceedsMaxDeposit",
      "type": "error"
    },
    {
      "inputs": [],
      "name": "ExceedsMaxSlippage",
      "type": "error"
    },
    {
      "inputs": [],
      "name": "ExpectedPause",
      "type": "error"
    },
    {
      "inputs": [],
      "name": "FailedCall",
      "type": "error"
    },
    {
      "inputs": [],
      "name": "InsufficientBalance",
      "type": "error"
    },
    {
      "inputs": [],
      "name": "InvalidAmount",
      "type": "error"
    },
    {
      "inputs": [],
      "name": "InvalidInitialization",
      "type": "error"
    },
    {
      "inputs": [],
      "name": "NotInitializing",
      "type": "error"
    },
    {
      "inputs": [
        {
          "internalType": "address",
          "name": "owner",
          "type": "address"
        }
      ],
      "name": "OwnableInvalidOwner",
      "type": "error"
    },
    {
      "inputs": [
        {
          "internalType": "address",
          "name": "account",
          "type": "address"
        }
      ],
      "name": "OwnableUnauthorizedAccount",
      "type": "error"
    },
    {
      "inputs": [],
      "name": "ReentrancyGuardReentrantCall",
      "type": "error"
    },
    {
      "inputs": [
        {
          "internalType": "address",
          "name": "token",
          "type": "address"
        }
      ],
      "name": "SafeERC20FailedOperation",
      "type": "error"
    },
    {
      "inputs": [],
      "name": "UUPSUnauthorizedCallContext",
      "type": "error"
    },
    {
      "inputs": [
        {
          "internalType": "bytes32",
          "name": "slot",
          "type": "bytes32"
        }
      ],
      "name": "UUPSUnsupportedProxiableUUID",
      "type": "error"
    },
    {
      "inputs": [],
      "name": "WithdrawalDelayNotMet",
      "type": "error"
    },
    {
      "inputs": [],
      "name": "YieldProtocolCallFailed",
      "type": "error"
    },
    {
      "inputs": [],
      "name": "YieldProtocolNotSet",
      "type": "error"
    },
    {
      "anonymous": false,
      "inputs": [
        {
          "indexed": true,
          "internalType": "address",
          "name": "owner",
          "type": "address"
        },
        {
          "indexed": true,
          "internalType": "address",
          "name": "spender",
          "type": "address"
        },
        {
          "indexed": false,
          "internalType": "uint256",
          "name": "value",
          "type": "uint256"
        }
      ],
      "name": "Approval",
      "type": "event"
    },
    {
      "anonymous": false,
      "inputs": [
        {
          "indexed": true,
          "internalType": "address",
          "name": "sender",
          "type": "address"
        },
        {
          "indexed": true,
          "internalType": "address",
          "name": "owner",
          "type": "address"
        },
        {
          "indexed": false,
          "internalType": "uint256",
          "name": "assets",
          "type": "uint256"
        },
        {
          "indexed": false,
          "internalType": "uint256",
          "name": "shares",
          "type": "uint256"
        }
      ],
      "name": "Deposit",
      "type": "event"
    },
    {
      "anonymous": false,
      "inputs": [
        {
          "indexed": true,
          "internalType": "address",
          "name": "user",
          "type": "address"
        },
        {
          "indexed": false,
          "internalType": "uint256",
          "name": "amount",
          "type": "uint256"
        },
        {
          "indexed": false,
          "internalType": "uint256",
          "name": "penalty",
          "type": "uint256"
        }
      ],
      "name": "EmergencyWithdrawal",
      "type": "event"
    },
    {
      "anonymous": false,
      "inputs": [
        {
          "indexed": false,
          "internalType": "uint64",
          "name": "version",
          "type": "uint64"
        }
      ],
      "name": "Initialized",
      "type": "event"
    },
    {
      "anonymous": false,
      "inputs": [
        {
          "indexed": false,
          "internalType": "uint256",
          "name": "newLimit",
          "type": "uint256"
        }
      ],
      "name": "MaxDepositLimitUpdated",
      "type": "event"
    },
    {
      "anonymous": false,
      "inputs": [
        {
          "indexed": true,
          "internalType": "address",
          "name": "previousOwner",
          "type": "address"
        },
        {
          "indexed": true,
          "internalType": "address",
          "name": "newOwner",
          "type": "address"
        }
      ],
      "name": "OwnershipTransferred",
      "type": "event"
    },
    {
      "anonymous": false,
      "inputs": [
        {
          "indexed": false,
          "internalType": "address",
          "name": "account",
          "type": "address"
        }
      ],
      "name": "Paused",
      "type": "event"
    },
    {
      "anonymous": false,
      "inputs": [
        {
          "indexed": false,
          "internalType": "uint256",
          "name": "maxSlippageBps",
          "type": "uint256"
        }
      ],
      "name": "SlippageProtectionUpdated",
      "type": "event"
    },
    {
      "anonymous": false,
      "inputs": [
        {
          "indexed": true,
          "internalType": "address",
          "name": "from",
          "type": "address"
        },
        {
          "indexed": true,
          "internalType": "address",
          "name": "to",
          "type": "address"
        },
        {
          "indexed": false,
          "internalType": "uint256",
          "name": "value",
          "type": "uint256"
        }
      ],
      "name": "Transfer",
      "type": "event"
    },
    {
      "anonymous": false,
      "inputs": [
        {
          "indexed": false,
          "internalType": "address",
          "name": "account",
          "type": "address"
        }
      ],
      "name": "Unpaused",
      "type": "event"
    },
    {
      "anonymous": false,
      "inputs": [
        {
          "indexed": true,
          "internalType": "address",
          "name": "implementation",
          "type": "address"
        }
      ],
      "name": "Upgraded",
      "type": "event"
    },
    {
      "anonymous": false,
      "inputs": [
        {
          "indexed": true,
          "internalType": "address",
          "name": "sender",
          "type": "address"
        },
        {
          "indexed": true,
          "internalType": "address",
          "name": "receiver",
          "type": "address"
        },
        {
          "indexed": true,
          "internalType": "address",
          "name": "owner",
          "type": "address"
        },
        {
          "indexed": false,
          "internalType": "uint256",
          "name": "assets",
          "type": "uint256"
        },
        {
          "indexed": false,
          "internalType": "uint256",
          "name": "shares",
          "type": "uint256"
        }
      ],
      "name": "Withdraw",
      "type": "event"
    },
    {
      "anonymous": false,
      "inputs": [
        {
          "indexed": false,
          "internalType": "uint256",
          "name": "delaySeconds",
          "type": "uint256"
        },
        {
          "indexed": false,
          "internalType": "uint256",
          "name": "feeBps",
          "type": "uint256"
        }
      ],
      "name": "WithdrawalConfigUpdated",
      "type": "event"
    },
    {
      "anonymous": false,
      "inputs": [
        {
          "indexed": false,
          "internalType": "uint256",
          "name": "amount",
          "type": "uint256"
        }
      ],
      "name": "YieldCompounded",
      "type": "event"
    },
    {
      "anonymous": false,
      "inputs": [
        {
          "indexed": false,
          "internalType": "uint256",
          "name": "amount",
          "type": "uint256"
        },
        {
          "indexed": false,
          "internalType": "uint256",
          "name": "shares",
          "type": "uint256"
        }
      ],
      "name": "YieldDeposited",
      "type": "event"
    },
    {
      "anonymous": false,
      "inputs": [
        {
          "indexed": true,
          "internalType": "address",
          "name": "protocol",
          "type": "address"
        }
      ],
      "name": "YieldProtocolSet",
      "type": "event"
    },
    {
      "anonymous": false,
      "inputs": [
        {
          "indexed": false,
          "internalType": "uint256",
          "name": "shares",
          "type": "uint256"
        },
        {
          "indexed": false,
          "internalType": "uint256",
          "name": "amount",
          "type": "uint256"
        }
      ],
      "name": "YieldWithdrawn",
      "type": "event"
    },
    {
      "inputs": [],
      "name": "EMERGENCY_PENALTY_BPS",
      "outputs": [
        {
          "internalType": "uint256",
          "name": "",
          "type": "uint256"
        }
      ],
      "stateMutability": "view",
      "type": "function"
    },
    {
      "inputs": [],
      "name": "MAX_BPS",
      "outputs": [
        {
          "internalType": "uint256",
          "name": "",
          "type": "uint256"
        }
      ],
      "stateMutability": "view",
      "type": "function"
    },
    {
      "inputs": [],
      "name": "UPGRADE_INTERFACE_VERSION",
      "outputs": [
        {
          "internalType": "string",
          "name": "",
          "type": "string"
        }
      ],
      "stateMutability": "view",
      "type": "function"
    },
    {
      "inputs": [
        {
          "internalType": "address",
          "name": "owner",
          "type": "address"
        },
        {
          "internalType": "address",
          "name": "spender",
          "type": "address"
        }
      ],
      "name": "allowance",
      "outputs": [
        {
          "internalType": "uint256",
          "name": "",
          "type": "uint256"
        }
      ],
      "stateMutability": "view",
      "type": "function"
    },
    {
      "inputs": [
        {
          "internalType": "address",
          "name": "spender",
          "type": "address"
        },
        {
          "internalType": "uint256",
          "name": "value",
          "type": "uint256"
        }
      ],
      "name": "approve",
      "outputs": [
        {
          "internalType": "bool",
          "name": "",
          "type": "bool"
        }
      ],
      "stateMutability": "nonpayable",
      "type": "function"
    },
    {
      "inputs": [],
      "name": "asset",
      "outputs": [
        {
          "internalType": "address",
          "name": "",
          "type": "address"
        }
      ],
      "stateMutability": "view",
      "type": "function"
    },
    {
      "inputs": [
        {
          "internalType": "address",
          "name": "account",
          "type": "address"
        }
      ],
      "name": "balanceOf",
      "outputs": [
        {
          "internalType": "uint256",
          "name": "",
          "type": "uint256"
        }
      ],
      "stateMutability": "view",
      "type": "function"
    },
    {
      "inputs": [
        {
          "internalType": "uint256",
          "name": "shares",
          "type": "uint256"
        }
      ],
      "name": "convertToAssets",
      "outputs": [
        {
          "internalType": "uint256",
          "name": "",
          "type": "uint256"
        }
      ],
      "stateMutability": "view",
      "type": "function"
    },
    {
      "inputs": [
        {
          "internalType": "uint256",
          "name": "assets",
          "type": "uint256"
        }
      ],
      "name": "convertToShares",
      "outputs": [
        {
          "internalType": "uint256",
          "name": "",
          "type": "uint256"
        }
      ],
      "stateMutability": "view",
      "type": "function"
    },
    {
      "inputs": [],
      "name": "decimals",
      "outputs": [
        {
          "internalType": "uint8",
          "name": "",
          "type": "uint8"
        }
      ],
      "stateMutability": "view",
      "type": "function"
    },
    {
      "inputs": [
        {
          "internalType": "uint256",
          "name": "assets",
          "type": "uint256"
        },
        {
          "internalType": "address",
          "name": "receiver",
          "type": "address"
        }
      ],
      "name": "deposit",
      "outputs": [
        {
          "internalType": "uint256",
          "name": "shares",
          "type": "uint256"
        }
      ],
      "stateMutability": "nonpayable",
      "type": "function"
    },
    {
      "inputs": [
        {
          "internalType": "uint256",
          "name": "assets",
          "type": "uint256"
        }
      ],
      "name": "emergencyWithdraw",
      "outputs": [],
      "stateMutability": "nonpayable",
      "type": "function"
    },
    {
      "inputs": [],
      "name": "getYieldRate",
      "outputs": [
        {
          "internalType": "uint256",
          "name": "",
          "type": "uint256"
        }
      ],
      "stateMutability": "view",
      "type": "function"
    },
    {
      "inputs": [
        {
          "internalType": "contract IERC20",
          "name": "asset_",
          "type": "address"
        },
        {
          "internalType": "string",
          "name": "name_",
          "type": "string"
        },
        {
          "internalType": "string",
          "name": "symbol_",
          "type": "string"
        },
        {
          "internalType": "enum BucketVaultV2Upgradeable.VaultType",
          "name": "vaultType_",
          "type": "uint8"
        },
        {
          "internalType": "uint256",
          "name": "maxDeposit_",
          "type": "uint256"
        },
        {
          "internalType": "address",
          "name": "owner_",
          "type": "address"
        }
      ],
      "name": "initialize",
      "outputs": [],
      "stateMutability": "nonpayable",
      "type": "function"
    },
    {
      "inputs": [
        {
          "internalType": "address",
          "name": "",
          "type": "address"
        }
      ],
      "name": "lastDepositTimestamp",
      "outputs": [
        {
          "internalType": "uint256",
          "name": "",
          "type": "uint256"
        }
      ],
      "stateMutability": "view",
      "type": "function"
    },
    {
      "inputs": [],
      "name": "lastYieldUpdate",
      "outputs": [
        {
          "internalType": "uint256",
          "name": "",
          "type": "uint256"
        }
      ],
      "stateMutability": "view",
      "type": "function"
    },
    {
      "inputs": [
        {
          "internalType": "address",
          "name": "",
          "type": "address"
        }
      ],
      "name": "maxDeposit",
      "outputs": [
        {
          "internalType": "uint256",
          "name": "",
          "type": "uint256"
        }
      ],
      "stateMutability": "view",
      "type": "function"
    },
    {
      "inputs": [],
      "name": "maxDepositLimit",
      "outputs": [
        {
          "internalType": "uint256",
          "name": "",
          "type": "uint256"
        }
      ],
      "stateMutability": "view",
      "type": "function"
    },
    {
      "inputs": [
        {
          "internalType": "address",
          "name": "",
          "type": "address"
        }
      ],
      "name": "maxMint",
      "outputs": [
        {
          "internalType": "uint256",
          "name": "",
          "type": "uint256"
        }
      ],
      "stateMutability": "view",
      "type": "function"
    },
    {
      "inputs": [
        {
          "internalType": "address",
          "name": "owner",
          "type": "address"
        }
      ],
      "name": "maxRedeem",
      "outputs": [
        {
          "internalType": "uint256",
          "name": "",
          "type": "uint256"
        }
      ],
      "stateMutability": "view",
      "type": "function"
    },
    {
      "inputs": [],
      "name": "maxSlippageBps",
      "outputs": [
        {
          "internalType": "uint256",
          "name": "",
          "type": "uint256"
        }
      ],
      "stateMutability": "view",
      "type": "function"
    },
    {
      "inputs": [
        {
          "internalType": "address",
          "name": "owner",
          "type": "address"
        }
      ],
      "name": "maxWithdraw",
      "outputs": [
        {
          "internalType": "uint256",
          "name": "",
          "type": "uint256"
        }
      ],
      "stateMutability": "view",
      "type": "function"
    },
    {
      "inputs": [
        {
          "internalType": "uint256",
          "name": "shares",
          "type": "uint256"
        },
        {
          "internalType": "address",
          "name": "receiver",
          "type": "address"
        }
      ],
      "name": "mint",
      "outputs": [
        {
          "internalType": "uint256",
          "name": "",
          "type": "uint256"
        }
      ],
      "stateMutability": "nonpayable",
      "type": "function"
    },
    {
      "inputs": [],
      "name": "name",
      "outputs": [
        {
          "internalType": "string",
          "name": "",
          "type": "string"
        }
      ],
      "stateMutability": "view",
      "type": "function"
    },
    {
      "inputs": [],
      "name": "owner",
      "outputs": [
        {
          "internalType": "address",
          "name": "",
          "type": "address"
        }
      ],
      "stateMutability": "view",
      "type": "function"
    },
    {
      "inputs": [],
      "name": "pause",
      "outputs": [],
      "stateMutability": "nonpayable",
      "type": "function"
    },
    {
      "inputs": [],
      "name": "paused",
      "outputs": [
        {
          "internalType": "bool",
          "name": "",
          "type": "bool"
        }
      ],
      "stateMutability": "view",
      "type": "function"
    },
    {
      "inputs": [],
      "name": "penaltyRecipient",
      "outputs": [
        {
          "internalType": "address",
          "name": "",
          "type": "address"
        }
      ],
      "stateMutability": "view",
      "type": "function"
    },
    {
      "inputs": [
        {
          "internalType": "uint256",
          "name": "assets",
          "type": "uint256"
        }
      ],
      "name": "previewDeposit",
      "outputs": [
        {
          "internalType": "uint256",
          "name": "",
          "type": "uint256"
        }
      ],
      "stateMutability": "view",
      "type": "function"
    },
    {
      "inputs": [
        {
          "internalType": "uint256",
          "name": "shares",
          "type": "uint256"
        }
      ],
      "name": "previewMint",
      "outputs": [
        {
          "internalType": "uint256",
          "name": "",
          "type": "uint256"
        }
      ],
      "stateMutability": "view",
      "type": "function"
    },
    {
      "inputs": [
        {
          "internalType": "uint256",
          "name": "shares",
          "type": "uint256"
        }
      ],
      "name": "previewRedeem",
      "outputs": [
        {
          "internalType": "uint256",
          "name": "",
          "type": "uint256"
        }
      ],
      "stateMutability": "view",
      "type": "function"
    },
    {
      "inputs": [
        {
          "internalType": "uint256",
          "name": "assets",
          "type": "uint256"
        }
      ],
      "name": "previewWithdraw",
      "outputs": [
        {
          "internalType": "uint256",
          "name": "",
          "type": "uint256"
        }
      ],
      "stateMutability": "view",
      "type": "function"
    },
    {
      "inputs": [],
      "name": "proxiableUUID",
      "outputs": [
        {
          "internalType": "bytes32",
          "name": "",
          "type": "bytes32"
        }
      ],
      "stateMutability": "view",
      "type": "function"
    },
    {
      "inputs": [
        {
          "internalType": "uint256",
          "name": "shares",
          "type": "uint256"
        },
        {
          "internalType": "address",
          "name": "receiver",
          "type": "address"
        },
        {
          "internalType": "address",
          "name": "owner",
          "type": "address"
        }
      ],
      "name": "redeem",
      "outputs": [
        {
          "internalType": "uint256",
          "name": "",
          "type": "uint256"
        }
      ],
      "stateMutability": "nonpayable",
      "type": "function"
    },
    {
      "inputs": [],
      "name": "renounceOwnership",
      "outputs": [],
      "stateMutability": "nonpayable",
      "type": "function"
    },
    {
      "inputs": [
        {
          "internalType": "uint256",
          "name": "newLimit",
          "type": "uint256"
        }
      ],
      "name": "setMaxDepositLimit",
      "outputs": [],
      "stateMutability": "nonpayable",
      "type": "function"
    },
    {
      "inputs": [
        {
          "internalType": "uint256",
          "name": "slippageBps",
          "type": "uint256"
        }
      ],
      "name": "setMaxSlippage",
      "outputs": [],
      "stateMutability": "nonpayable",
      "type": "function"
    },
    {
      "inputs": [
        {
          "internalType": "address",
          "name": "recipient",
          "type": "address"
        }
      ],
      "name": "setPenaltyRecipient",
      "outputs": [],
      "stateMutability": "nonpayable",
      "type": "function"
    },
    {
      "inputs": [
        {
          "internalType": "uint256",
          "name": "delaySeconds",
          "type": "uint256"
        },
        {
          "internalType": "uint256",
          "name": "feeBps",
          "type": "uint256"
        }
      ],
      "name": "setWithdrawalConfig",
      "outputs": [],
      "stateMutability": "nonpayable",
      "type": "function"
    },
    {
      "inputs": [
        {
          "internalType": "address",
          "name": "protocol",
          "type": "address"
        }
      ],
      "name": "setYieldProtocol",
      "outputs": [],
      "stateMutability": "nonpayable",
      "type": "function"
    },
    {
      "inputs": [],
      "name": "symbol",
      "outputs": [
        {
          "internalType": "string",
          "name": "",
          "type": "string"
        }
      ],
      "stateMutability": "view",
      "type": "function"
    },
    {
      "inputs": [],
      "name": "totalAssets",
      "outputs": [
        {
          "internalType": "uint256",
          "name": "",
          "type": "uint256"
        }
      ],
      "stateMutability": "view",
      "type": "function"
    },
    {
      "inputs": [],
      "name": "totalSupply",
      "outputs": [
        {
          "internalType": "uint256",
          "name": "",
          "type": "uint256"
        }
      ],
      "stateMutability": "view",
      "type": "function"
    },
    {
      "inputs": [],
      "name": "totalYieldEarned",
      "outputs": [
        {
          "internalType": "uint256",
          "name": "",
          "type": "uint256"
        }
      ],
      "stateMutability": "view",
      "type": "function"
    },
    {
      "inputs": [
        {
          "internalType": "address",
          "name": "to",
          "type": "address"
        },
        {
          "internalType": "uint256",
          "name": "value",
          "type": "uint256"
        }
      ],
      "name": "transfer",
      "outputs": [
        {
          "internalType": "bool",
          "name": "",
          "type": "bool"
        }
      ],
      "stateMutability": "nonpayable",
      "type": "function"
    },
    {
      "inputs": [
        {
          "internalType": "address",
          "name": "from",
          "type": "address"
        },
        {
          "internalType": "address",
          "name": "to",
          "type": "address"
        },
        {
          "internalType": "uint256",
          "name": "value",
          "type": "uint256"
        }
      ],
      "name": "transferFrom",
      "outputs": [
        {
          "internalType": "bool",
          "name": "",
          "type": "bool"
        }
      ],
      "stateMutability": "nonpayable",
      "type": "function"
    },
    {
      "inputs": [
        {
          "internalType": "address",
          "name": "newOwner",
          "type": "address"
        }
      ],
      "name": "transferOwnership",
      "outputs": [],
      "stateMutability": "nonpayable",
      "type": "function"
    },
    {
      "inputs": [],
      "name": "unpause",
      "outputs": [],
      "stateMutability": "nonpayable",
      "type": "function"
    },
    {
      "inputs": [
        {
          "internalType": "address",
          "name": "newImplementation",
          "type": "address"
        },
        {
          "internalType": "bytes",
          "name": "data",
          "type": "bytes"
        }
      ],
      "name": "upgradeToAndCall",
      "outputs": [],
      "stateMutability": "payable",
      "type": "function"
    },
    {
      "inputs": [],
      "name": "vaultType",
      "outputs": [
        {
          "internalType": "enum BucketVaultV2Upgradeable.VaultType",
          "name": "",
          "type": "uint8"
        }
      ],
      "stateMutability": "view",
      "type": "function"
    },
    {
      "inputs": [
        {
          "internalType": "uint256",
          "name": "assets",
          "type": "uint256"
        },
        {
          "internalType": "address",
          "name": "receiver",
          "type": "address"
        },
        {
          "internalType": "address",
          "name": "owner",
          "type": "address"
        }
      ],
      "name": "withdraw",
      "outputs": [
        {
          "internalType": "uint256",
          "name": "shares",
          "type": "uint256"
        }
      ],
      "stateMutability": "nonpayable",
      "type": "function"
    },
    {
      "inputs": [],
      "name": "withdrawalDelaySeconds",
      "outputs": [
        {
          "internalType": "uint256",
          "name": "",
          "type": "uint256"
        }
      ],
      "stateMutability": "view",
      "type": "function"
    },
    {
      "inputs": [],
      "name": "withdrawalFeeBps",
      "outputs": [
        {
          "internalType": "uint256",
          "name": "",
          "type": "uint256"
        }
      ],
      "stateMutability": "view",
      "type": "function"
    },
    {
      "inputs": [],
      "name": "yieldEnabled",
      "outputs": [
        {
          "internalType": "bool",
          "name": "",
          "type": "bool"
        }
      ],
      "stateMutability": "view",
      "type": "function"
    },
    {
      "inputs": [],
      "name": "yieldProtocol",
      "outputs": [
        {
          "internalType": "address",
          "name": "",
          "type": "address"
        }
      ],
      "stateMutability": "view",
      "type": "function"
    }
  ],
  "bytecode": "0x60a080604052346100cc57306080527ff0c57e16840df040f15088dc2f81fe391c3923bec73e23a9662efc9c229c6a009081549060ff8260401c166100bd57506001600160401b036002600160401b031982821601610078575b60405161282490816100d2823960805181818161136001526114150152f35b6001600160401b031990911681179091556040519081527fc7f505b2f371ae2175ee4913f4499e1f2633a7b5936321eed1cdaeb6115181d290602090a1388080610059565b63f92ee8a960e01b8152600490fd5b600080fdfe608060408181526004918236101561001657600080fd5b600092833560e01c918263012caae114611a4a5750816301e1d11414611a2d57816304336bb314611a0f57816306fdde031461194957816307a2d13a146115d9578163095ea7b3146118a05781630a28a4771461188057816318160ddd1461185457816323b872dd14611817578163313ce567146117c957816338d52e0f146117935781633bc725c31461170f5781633f4ba83a14611697578163402d267d146109e257816343f68a49146116075781634ac032be146115de5781634cdad506146115d95781634f1ef286146113c457816352d1902d1461134b5781635312ea8e146111c75781635c975abb14611196578163655d8dec1461115e5781636e553f651461107057816370a082311461092a578163715018a6146110065781637183941814610fe75781637a62a89514610f565781638456cb5914610eee5781638da5cb5b14610eb85781638f8c8aee14610e995781638f9bcee814610e7c57816394bf804d14610e4757816395d89b4114610d47578163a9059cbb14610d16578163ad3cb1cc14610cd5578163b25a7a1814610c50578163b3d7f6b914610c30578163b460af9414610ac4578163b63c44e714610aa5578163ba08765214610a2b578163c2752e4314610a06578163c4aa7395146109e7578163c63d75b6146109e2578163c6e6f592146102f4578163cc009679146109c3578163cd4c73a714610997578163ce96cb7714610950578163d905777e1461092a578163dd62ed3e146108e3578163dfe6083514610891578163e39cba87146102f957508063ef8b30f7146102f4578063f1009899146102d1578063f2fde38b146102a15763fd967f471461028257600080fd5b3461029d578160031936011261029d57602090516127108152f35b5080fd5b82346102ce5760203660031901126102ce576102cb6102be611ae3565b6102c6612158565b611e40565b80f35b80fd5b503461029d578160031936011261029d576020906102ed611e28565b9051908152f35b611c6a565b83833461029d5760c036600319011261029d576001600160a01b039280358481169081810361088d5767ffffffffffffffff92602435848111610889576103439036908301611c88565b936044358181116108855761035b9036908401611c88565b9760643591838310156108815760a43590828216820361087d577ff0c57e16840df040f15088dc2f81fe391c3923bec73e23a9662efc9c229c6a009788549760ff898c1c161597838a16998a1580610876575b6001809c14908161086c575b159081610863575b506108535767ffffffffffffffff1981168b178c556103f891908a610834575b506103eb612540565b6103f3612540565b61264f565b901561082b57905b60008051602061278f83398151915280546001600160a81b03191660a09390931b60ff60a01b1692909217179055610436612540565b61043e612540565b805182811161081857808c7f52c63247e1f47db19d5ce0460030c497f067ca4cebf71ba98eeadabe20bace03936104758554611dc6565b85601f82116107a1575b5050602091601f84116001146107245792610719575b5050600019600383901b1c191690891b1790555b8a51908111610706577f52c63247e1f47db19d5ce0460030c497f067ca4cebf71ba98eeadabe20bace04906104de8254611dc6565b601f81116106a1575b506020601f82116001146106185781908c9d8d999a9b9c9d9261060d575b5050600019600383901b1c191690891b1790555b610521612540565b610529612540565b61053281611e40565b61053a612540565b610542612540565b866000805160206127cf8339815191525561055b612540565b610563612540565b61056c83611b35565b60ff1985541660ff84161785556084358755603260025542600855166bffffffffffffffffffffffff60a01b60065416176006556105a981611b35565b6106035760c8915062093a80600355555b6105c2578380f35b7fc7f505b2f371ae2175ee4913f4499e1f2633a7b5936321eed1cdaeb6115181d29260209268ff000000000000000019815416905551908152a18180808380f35b81600355556105ba565b015190508d80610505565b828c527f46a2803e59a4de4e7a4c574b1243f25977ac4c77d5a1a4a609b5394cebb4a2aa9c601f1983168d5b8181106106855750918d9e91848c9d9e9f9b9c95941061066c575b505050811b019055610519565b015160001960f88460031b161c191690558d808061065f565b919e8f8c6020928684930151815501940192019e91929e610644565b828c527f46a2803e59a4de4e7a4c574b1243f25977ac4c77d5a1a4a609b5394cebb4a2aa601f830160051c810191602084106106fc575b601f0160051c019089905b8281106106f15750506104e7565b8d81550189906106e3565b90915081906106d8565b634e487b7160e01b8a526041855260248afd5b015190508e80610495565b91908c9450601f1984168684527f2ae08a8e29253f69ac5d979a101956ab8f8d9d7ded63fa7a83b16fc47648eab0935b81811061078957508411610770575b505050811b0190556104a9565b015160001960f88460031b161c191690558e8080610763565b8284015185558e969094019360209384019301610754565b91935091527f2ae08a8e29253f69ac5d979a101956ab8f8d9d7ded63fa7a83b16fc47648eab0601f840160051c8101916020851061080e575b918f92859492601f8f920160051c01915b8281106107fa5750508561047f565b809294919395505501918e918c85946107eb565b90915081906107da565b634e487b7160e01b8c526041875260248cfd5b50601290610400565b68ffffffffffffffffff191668010000000000000001178c558f6103e2565b8c5163f92ee8a960e01b81528990fd5b905015386103c2565b303b1591506103ba565b50896103ae565b8980fd5b8880fd5b8780fd5b8680fd5b8480fd5b9050346108df5760203660031901126108df577f514bf0f65cb844af227a51e123dbb8b5be8fac221f8feeb9d20591e81c46e50b9160209135906108d3612158565b8160015551908152a180f35b8280fd5b50503461029d578060031936011261029d5780602092610901611ae3565b61091261090c611af9565b91611bfc565b6001600160a01b039091168252845220549051908152f35b50503461029d57602036600319011261029d576020906102ed61094b611ae3565b611e00565b50503461029d57602036600319011261029d576020916102ed9082906001600160a01b0361097c611ae3565b16815260008051602061272f83398151915285522054611eec565b50503461029d578160031936011261029d579054905160089190911c6001600160a01b03168152602090f35b50503461029d578160031936011261029d576020906007549051908152f35b611b0f565b50503461029d578160031936011261029d576020906002549051908152f35b50503461029d578160031936011261029d5760ff6020925460a81c1690519015158152f35b8284346102ce5750610a3c36611c35565b929193610a4884611e00565b808611610a7057505083610a6a91610a61602096611eec565b94859133612423565b51908152f35b9251632e52afbb60e21b81526001600160a01b0390941690840190815260208101949094525060408301529081906060010390fd5b50503461029d578160031936011261029d576020906001549051908152f35b919050346108df57610ad536611c35565b93909194610ae1612191565b610ae96122d0565b8560035480610bf6575b50825480610b98575b50506001600160a01b038516815260008051602061272f83398151915260205283902054610b2990611eec565b808611610b63575050610b4b9084610b42602096611f24565b94859233612423565b60016000805160206127cf8339815191525551908152f35b9251633fa733bb60e21b81526001600160a01b0390941690840190815260208101949094525060408301529081906060010390fd5b81975091610bb8612710610bb0610b29958995611cc9565b048099611ca6565b9780610bc6575b5091610afc565b60008051602061278f83398151915254600654610bf092916001600160a01b03918216911661227e565b38610bbf565b6001600160a01b0387168352600560205285832054610c159042611ca6565b10610c205738610af3565b8451635ca831e160e11b81528390fd5b8284346102ce5760203660031901126102ce57506102ed60209235611eb4565b9050346108df5760203660031901126108df57610c6b611ae3565b610c73612158565b6001600160a01b0316918215610ca05750506bffffffffffffffffffffffff60a01b600654161760065580f35b906020606492519162461bcd60e51b8352820152600f60248201526e496e76616c6964206164647265737360881b6044820152fd5b50503461029d578160031936011261029d578051610d1291610cf682611b55565b60058252640352e302e360dc1b60208301525191829182611a6f565b0390f35b50503461029d578060031936011261029d57602090610d40610d36611ae3565b602435903361206a565b5160018152f35b8284346102ce57806003193601126102ce57815190807f52c63247e1f47db19d5ce0460030c497f067ca4cebf71ba98eeadabe20bace048054610d8981611dc6565b80865292602092600192808416908115610e185750600114610dc1575b610d128789610db7828a0383611b87565b5191829182611a6f565b815293507f46a2803e59a4de4e7a4c574b1243f25977ac4c77d5a1a4a609b5394cebb4a2aa5b838510610e0557505050508101602001610db782610d128680610da6565b8054868601840152938201938101610de7565b915050610d1297955086935060209250610db794915060ff191682840152151560051b82010192948680610da6565b9050346108df57816003193601126108df57602092503590610a6a610e6a611af9565b92610e7481611eb4565b8094336122fb565b50503461029d578160031936011261029d57602090516101f48152f35b50503461029d578160031936011261029d576020906008549051908152f35b50503461029d578160031936011261029d5760008051602061274f8339815191525490516001600160a01b039091168152602090f35b50503461029d578160031936011261029d5760207f62e78cea01bee320cd4e420270b5ea74000d11b0c9f74754ebdbfc544b05a25891610f2c612158565b610f346122d0565b6000805160206127af833981519152805460ff1916600117905551338152a180f35b83833461029d578060031936011261029d578235602435610f75612158565b6103e88111610fb557807f7c532154661afd5f579d75e0bcfec458372e7a0127bbfaecb32e275ac844b6839495836003555582519182526020820152a180f35b825162461bcd60e51b8152602081870152600c60248201526b08ccaca40e8dede40d0d2ced60a31b6044820152606490fd5b50503461029d578160031936011261029d576020906003549051908152f35b83346102ce57806003193601126102ce5761101f612158565b60008051602061274f83398151915280546001600160a01b0319811690915581906001600160a01b03167f8be0079c531659141344cd1fd0a4f28419497f9722a3daafe3b4186f6b6457e08280a380f35b919050346108df57806003193601126108df57813561108d611af9565b92611096612191565b61109e6122d0565b6110af826110aa611ce9565b611cdc565b6001541061115057508160ff6020956110c784611f5c565b956110d4878683336122fb565b6001600160a01b03168152600587528281204290555460a81c1680611147575b611113575b505060016000805160206127cf8339815191525551908152f35b7fa248d81b377afe8736fe397f5a9f8f0d7c581e67ff6ae4037df29a672a92133b9181519081528486820152a138816110f9565b508115156110f4565b825163e4bac01b60e01b8152fd5b50503461029d57602036600319011261029d5760209181906001600160a01b03611186611ae3565b1681526005845220549051908152f35b50503461029d578160031936011261029d5760209060ff6000805160206127af833981519152541690519015158152f35b83833461029d57602036600319011261029d578235906111e5612191565b8115611318576111f482611f24565b9133845260008051602061272f8339815191526020528282852054106112df576101f481026101f319828204016112cc579061126161125a6127107f56da9a5ae0bcf6e7c3fdd78a10550e7d0458de1c39bfb7f6e96a3e92dd344a689594048093611ca6565b94336121c1565b60018060a01b038160008051602061278f8339815191529161128787338386541661227e565b816112b2575b505050815193845260208401523392a260016000805160206127cf8339815191525580f35b806112c493541690600654169061227e565b85818161128d565b634e487b7160e01b855260118652602485fd5b815162461bcd60e51b81526020818701526013602482015272496e73756666696369656e742073686172657360681b6044820152606490fd5b5162461bcd60e51b8152602081850152600e60248201526d125b9d985b1a5908185b5bdd5b9d60921b6044820152606490fd5b8284346102ce57806003193601126102ce57507f00000000000000000000000000000000000000000000000000000000000000006001600160a01b031630036113b757602090517f360894a13ba1a3210667c828492db98dca3e2076cc3735a920a3ca505d382bbc8152f35b5163703e46dd60e11b8152fd5b918091506003193601126108df576113da611ae3565b9060243567ffffffffffffffff811161088d573660238201121561088d5761140b9036906024818701359101611bc5565b6001600160a01b037f000000000000000000000000000000000000000000000000000000000000000081163081149081156115ab575b5061159b5761144e612158565b83169282516352d1902d60e01b81526020818781885afa879181611567575b50611489578351634c9c8ce360e01b8152808701869052602490fd5b84879487927f360894a13ba1a3210667c828492db98dca3e2076cc3735a920a3ca505d382bbc908181036115515750843b1561153b5780546001600160a01b03191683179055518592917fbc7cd75a20ee27fd9adebab32041f755214dbc6bffa90cc0225b39da2e5c2d3b8480a28451156115205750508083602061151c95519101845af461151661261f565b916126cb565b5080f35b92509250503461152f57505080f35b63b398979f60e01b8152fd5b5051634c9c8ce360e01b81529182015260249150fd5b84602491845191632a87526960e21b8352820152fd5b9091506020813d602011611593575b8161158360209383611b87565b810103126108855751903861146d565b3d9150611576565b825163703e46dd60e11b81528590fd5b9050817f360894a13ba1a3210667c828492db98dca3e2076cc3735a920a3ca505d382bbc5416141538611441565b611ab8565b50503461029d578160031936011261029d5760ff602092541690519061160381611b35565b8152f35b919050346108df5760203660031901126108df57813591611626612158565b6101f483116116615750816020917f0e327decf8cd0c8c1ff089972fca9360ed4f35e93bc2c9c28a9ea0dfb428ea919360025551908152a180f35b6020606492519162461bcd60e51b835282015260116024820152700a6d8d2e0e0c2ceca40e8dede40d0d2ced607b1b6044820152fd5b9050346108df57826003193601126108df576116b1612158565b6000805160206127af8339815191529081549060ff821615611701575060ff19169055513381527f5db9ee0a495bf2e6ff9c91a7834c1ba4fdd244a5e8aa4e537bd38aeae4b073aa90602090a180f35b8351638dfc202b60e01b8152fd5b83346102ce5760203660031901126102ce57611729611ae3565b611731612158565b8154610100600160b01b031916600882901b610100600160a81b0316176001600160a01b039190911680151560a81b60ff60a81b169190911782557f6d70c8cd6b23bde6c51ca79816ad4d35c700845e43feefc3e65ca0d9cc6f45218280a280f35b50503461029d578160031936011261029d5760008051602061278f8339815191525490516001600160a01b039091168152602090f35b83833461029d578160031936011261029d5760ff60008051602061278f8339815191525460a01c169160ff8311611804576020838351908152f35b634e487b7160e01b815260118452602490fd5b50503461029d57606036600319011261029d57602090610d40611838611ae3565b611840611af9565b6044359161184f833383611f94565b61206a565b50503461029d578160031936011261029d5760209060008051602061276f833981519152549051908152f35b8284346102ce5760203660031901126102ce57506102ed60209235611f24565b9050346108df57816003193601126108df576118ba611ae3565b602435903315611932576001600160a01b031691821561191b575080836020956118e333611bfc565b8582528752205582519081527f8c5be1e5ebec7d5bd14f71427d1e84f3dd0314c0f7b2291e5b200ac8c7c3b925843392a35160018152f35b8351634a1406b160e11b8152908101859052602490fd5b835163e602df0560e01b8152808401869052602490fd5b8284346102ce57806003193601126102ce57815190807f52c63247e1f47db19d5ce0460030c497f067ca4cebf71ba98eeadabe20bace03805461198b81611dc6565b80865292602092600192808416908115610e1857506001146119b857610d128789610db7828a0383611b87565b815293507f2ae08a8e29253f69ac5d979a101956ab8f8d9d7ded63fa7a83b16fc47648eab05b8385106119fc57505050508101602001610db782610d128680610da6565b80548686018401529382019381016119de565b9050346108df57826003193601126108df5760209250549051908152f35b50503461029d578160031936011261029d576020906102ed611ce9565b84903461029d578160031936011261029d576006546001600160a01b03168152602090f35b6020808252825181830181905290939260005b828110611aa457505060409293506000838284010152601f8019910116010190565b818101860151848201604001528501611a82565b34611ade576020366003190112611ade576020611ad6600435611eec565b604051908152f35b600080fd5b600435906001600160a01b0382168203611ade57565b602435906001600160a01b0382168203611ade57565b34611ade576020366003190112611ade57611b28611ae3565b5060206040516000198152f35b60041115611b3f57565b634e487b7160e01b600052602160045260246000fd5b6040810190811067ffffffffffffffff821117611b7157604052565b634e487b7160e01b600052604160045260246000fd5b90601f8019910116810190811067ffffffffffffffff821117611b7157604052565b67ffffffffffffffff8111611b7157601f01601f191660200190565b929192611bd182611ba9565b91611bdf6040519384611b87565b829481845281830111611ade578281602093846000960137010152565b6001600160a01b031660009081527f52c63247e1f47db19d5ce0460030c497f067ca4cebf71ba98eeadabe20bace016020526040902090565b6060906003190112611ade57600435906001600160a01b03906024358281168103611ade57916044359081168103611ade5790565b34611ade576020366003190112611ade576020611ad6600435611f5c565b9080601f83011215611ade57816020611ca393359101611bc5565b90565b91908203918211611cb357565b634e487b7160e01b600052601160045260246000fd5b81810292918115918404141715611cb357565b91908201809211611cb357565b60008051602061278f833981519152546040516370a0823160e01b815230600482015290602090829060249082906001600160a01b03165afa908115611dba57600091611d88575b5060ff60005460a81c16611d4b57600754611ca391611cdc565b611ca3906110aa64496cebb800611d7d611d6760085442611ca6565b611d78611d72611e28565b86611cc9565b611cc9565b049160075490611cdc565b906020823d602011611db2575b81611da260209383611b87565b810103126102ce57505138611d31565b3d9150611d95565b6040513d6000823e3d90fd5b90600182811c92168015611df6575b6020831014611de057565b634e487b7160e01b600052602260045260246000fd5b91607f1691611dd5565b6001600160a01b0316600090815260008051602061272f833981519152602052604090205490565b60ff60005460a81c1615611e3b57600090565b600090565b6001600160a01b03908116908115611e9b5760008051602061274f83398151915280546001600160a01b031981168417909155167f8be0079c531659141344cd1fd0a4f28419497f9722a3daafe3b4186f6b6457e0600080a3565b604051631e4fbdf760e01b815260006004820152602490fd5b611ebc611ce9565b60018101809111611cb35760008051602061276f833981519152549060018201809211611cb357611ca3926124ae565b611ef4611ce9565b60018101809111611cb35760008051602061276f833981519152549060018201809211611cb357611ca392612581565b60008051602061276f8339815191525460018101809111611cb357611f47611ce9565b9060018201809211611cb357611ca3926124ae565b60008051602061276f8339815191525460018101809111611cb357611f7f611ce9565b9060018201809211611cb357611ca392612581565b9190611f9f83611bfc565b9260018060a01b0390818316916000958387526020526040862054936000198510611fce575b50505050505050565b85851061203957508116156120205781156120075790611ff16040949392611bfc565b9085526020520391205538808080808080611fc5565b604051634a1406b160e11b815260048101869052602490fd5b60405163e602df0560e01b815260048101869052602490fd5b604051637dc7a0d960e11b81526001600160a01b039190911660048201526024810185905260448101869052606490fd5b916001600160a01b0380841692831561213f57169283156121265760009083825260008051602061272f833981519152806020526040832054918483106120f3575082847fddf252ad1be2c89b69c2b068fc378daa952ba7f163c4a11628f55a4df523b3ef959360409388602097528652038282205586815220818154019055604051908152a3565b60405163391434e360e21b81526001600160a01b0391909116600482015260248101929092525060448101839052606490fd5b60405163ec442f0560e01b815260006004820152602490fd5b604051634b637e8f60e11b815260006004820152602490fd5b60008051602061274f833981519152546001600160a01b0316330361217957565b60405163118cdaa760e01b8152336004820152602490fd5b6000805160206127cf83398151915260028154146121af5760029055565b604051633ee5aeb560e01b8152600490fd5b91906001600160a01b03831690811561213f578160005260008051602061272f833981519152806020526040600020549482861061224d5750817fddf252ad1be2c89b69c2b068fc378daa952ba7f163c4a11628f55a4df523b3ef9260009596602093868852845203604086205560008051602061276f833981519152818154039055604051908152a3565b60405163391434e360e21b81526001600160a01b039190911660048201526024810186905260448101839052606490fd5b60405163a9059cbb60e01b60208201526001600160a01b039092166024830152604480830193909352918152608081019167ffffffffffffffff831182841017611b71576122ce926040526124e4565b565b60ff6000805160206127af83398151915254166122e957565b60405163d93c066560e01b8152600490fd5b60008051602061278f83398151915254604080516323b872dd60e01b60208201526001600160a01b03938416602482018190523060448301526064808301889052825295919491939260a082019190841667ffffffffffffffff831182841017611b715761236a9287526124e4565b1693841561240b57907fdcbc1c05240f31ff3ad067ef1ee35ce4997762752e3a095284754544f4c709d7929160008051602061276f8339815191526123b0828254611cdc565b90558560005260008051602061272f833981519152602052826000208181540190558560007fddf252ad1be2c89b69c2b068fc378daa952ba7f163c4a11628f55a4df523b3ef60208651858152a382519182526020820152a3565b825163ec442f0560e01b815260006004820152602490fd5b6001600160a01b0380841695818316947ffbde797d201c681b91056529119e0b02407c7bb96a4a2c75c01fc9667232c8db9460409490929161247291839190828c8b0361249d575b50506121c1565b61248e87838560008051602061278f833981519152541661227e565b835196875260208701521693a4565b6124a79183611f94565b388261246b565b916124ba818385612581565b9181156124ce57611ca39309151590611cdc565b634e487b7160e01b600052601260045260246000fd5b906000602091828151910182855af115611dba576000513d61253757506001600160a01b0381163b155b6125155750565b604051635274afe760e01b81526001600160a01b039091166004820152602490fd5b6001141561250e565b60ff7ff0c57e16840df040f15088dc2f81fe391c3923bec73e23a9662efc9c229c6a005460401c161561256f57565b604051631afcd79f60e31b8152600490fd5b9091600019838309928083029283808610950394808603951461261157848311156125f8579082910981600003821680920460028082600302188083028203028083028203028083028203028083028203028083028203028092029003029360018380600003040190848311900302920304170290565b82634e487b71600052156003026011186020526024601cfd5b5050809250156124ce570490565b3d1561264a573d9061263082611ba9565b9161263e6040519384611b87565b82523d6000602084013e565b606090565b90604051602081019063313ce56760e01b82526004815261266f81611b55565b5160009384928392916001600160a01b03165afa61268b61261f565b90806126bf575b61269c575b508190565b6020818051810103126108df576020015160ff8111612697576001925060ff1690565b50602081511015612692565b906126f257508051156126e057602081519101fd5b60405163d6bda27560e01b8152600490fd5b81511580612725575b612703575090565b604051639996b31560e01b81526001600160a01b039091166004820152602490fd5b50803b156126fb56fe52c63247e1f47db19d5ce0460030c497f067ca4cebf71ba98eeadabe20bace009016d09d72d40fdae2fd8ceac6b6234c7706214fd39c1cd1e609a0528c19930052c63247e1f47db19d5ce0460030c497f067ca4cebf71ba98eeadabe20bace020773e532dfede91f04b12a73d3d2acd361424f41f76b4fb79f090161e36b4e00cd5ed15c6e187e77e9aee88184c21f4f2182ab5827cb3b7e07fbedcd63f033009b779b17422d0df92223018b32b4d1fa46e071723d6817e2486d003becc55f00a26469706673582212205a3fa593a1ac0cbc880f4124b8e80876d3ea5d610b9b90da9660dc9bf30d16dc64736f6c63430008160033",
  "linkReferences": {},
  "deployedLinkReferences": {}
}