{
  "_format": "hh-sol-artifact-1",
  "contractName": "BucketVaultV2",
  "sourceName": "contracts/src/BucketVaultV2.sol",
  "abi": [
    {
      "inputs": [
        {
          "internalType": "contract IERC20",
          "name": "asset_",
          "type": "address"
        },
        {
          "internalType": "string",
          "name": "name_",
          "type": "string"
        },
        {
          "internalType": "string",
          "name": "symbol_",
          "type": "string"
        },
        {
          "internalType": "enum BucketVaultV2.VaultType",
          "name": "vaultType_",
          "type": "uint8"
        },
        {
          "internalType": "uint256",
          "name": "maxDeposit_",
          "type": "uint256"
        }
      ],
      "stateMutability": "nonpayable",
      "type": "constructor"
    },
    {
      "inputs": [
        {
          "internalType": "address",
          "name": "spender",
          "type": "address"
        },
        {
          "internalType": "uint256",
          "name": "allowance",
          "type": "uint256"
        },
        {
          "internalType": "uint256",
          "name": "needed",
          "type": "uint256"
        }
      ],
      "name": "ERC20InsufficientAllowance",
      "type": "error"
    },
    {
      "inputs": [
        {
          "internalType": "address",
          "name": "sender",
          "type": "address"
        },
        {
          "internalType": "uint256",
          "name": "balance",
          "type": "uint256"
        },
        {
          "internalType": "uint256",
          "name": "needed",
          "type": "uint256"
        }
      ],
      "name": "ERC20InsufficientBalance",
      "type": "error"
    },
    {
      "inputs": [
        {
          "internalType": "address",
          "name": "approver",
          "type": "address"
        }
      ],
      "name": "ERC20InvalidApprover",
      "type": "error"
    },
    {
      "inputs": [
        {
          "internalType": "address",
          "name": "receiver",
          "type": "address"
        }
      ],
      "name": "ERC20InvalidReceiver",
      "type": "error"
    },
    {
      "inputs": [
        {
          "internalType": "address",
          "name": "sender",
          "type": "address"
        }
      ],
      "name": "ERC20InvalidSender",
      "type": "error"
    },
    {
      "inputs": [
        {
          "internalType": "address",
          "name": "spender",
          "type": "address"
        }
      ],
      "name": "ERC20InvalidSpender",
      "type": "error"
    },
    {
      "inputs": [
        {
          "internalType": "address",
          "name": "receiver",
          "type": "address"
        },
        {
          "internalType": "uint256",
          "name": "assets",
          "type": "uint256"
        },
        {
          "internalType": "uint256",
          "name": "max",
          "type": "uint256"
        }
      ],
      "name": "ERC4626ExceededMaxDeposit",
      "type": "error"
    },
    {
      "inputs": [
        {
          "internalType": "address",
          "name": "receiver",
          "type": "address"
        },
        {
          "internalType": "uint256",
          "name": "shares",
          "type": "uint256"
        },
        {
          "internalType": "uint256",
          "name": "max",
          "type": "uint256"
        }
      ],
      "name": "ERC4626ExceededMaxMint",
      "type": "error"
    },
    {
      "inputs": [
        {
          "internalType": "address",
          "name": "owner",
          "type": "address"
        },
        {
          "internalType": "uint256",
          "name": "shares",
          "type": "uint256"
        },
        {
          "internalType": "uint256",
          "name": "max",
          "type": "uint256"
        }
      ],
      "name": "ERC4626ExceededMaxRedeem",
      "type": "error"
    },
    {
      "inputs": [
        {
          "internalType": "address",
          "name": "owner",
          "type": "address"
        },
        {
          "internalType": "uint256",
          "name": "assets",
          "type": "uint256"
        },
        {
          "internalType": "uint256",
          "name": "max",
          "type": "uint256"
        }
      ],
      "name": "ERC4626ExceededMaxWithdraw",
      "type": "error"
    },
    {
      "inputs": [],
      "name": "EmergencyWithdrawalPenaltyTooHigh",
      "type": "error"
    },
    {
      "inputs": [],
      "name": "EnforcedPause",
      "type": "error"
    },
    {
      "inputs": [],
      "name": "ExceedsMaxDeposit",
      "type": "error"
    },
    {
      "inputs": [],
      "name": "ExceedsMaxSlippage",
      "type": "error"
    },
    {
      "inputs": [],
      "name": "ExpectedPause",
      "type": "error"
    },
    {
      "inputs": [],
      "name": "InsufficientBalance",
      "type": "error"
    },
    {
      "inputs": [],
      "name": "InvalidAmount",
      "type": "error"
    },
    {
      "inputs": [
        {
          "internalType": "address",
          "name": "owner",
          "type": "address"
        }
      ],
      "name": "OwnableInvalidOwner",
      "type": "error"
    },
    {
      "inputs": [
        {
          "internalType": "address",
          "name": "account",
          "type": "address"
        }
      ],
      "name": "OwnableUnauthorizedAccount",
      "type": "error"
    },
    {
      "inputs": [],
      "name": "ReentrancyGuardReentrantCall",
      "type": "error"
    },
    {
      "inputs": [
        {
          "internalType": "address",
          "name": "token",
          "type": "address"
        }
      ],
      "name": "SafeERC20FailedOperation",
      "type": "error"
    },
    {
      "inputs": [],
      "name": "WithdrawalDelayNotMet",
      "type": "error"
    },
    {
      "inputs": [],
      "name": "YieldProtocolCallFailed",
      "type": "error"
    },
    {
      "inputs": [],
      "name": "YieldProtocolNotSet",
      "type": "error"
    },
    {
      "anonymous": false,
      "inputs": [
        {
          "indexed": true,
          "internalType": "address",
          "name": "owner",
          "type": "address"
        },
        {
          "indexed": true,
          "internalType": "address",
          "name": "spender",
          "type": "address"
        },
        {
          "indexed": false,
          "internalType": "uint256",
          "name": "value",
          "type": "uint256"
        }
      ],
      "name": "Approval",
      "type": "event"
    },
    {
      "anonymous": false,
      "inputs": [
        {
          "indexed": true,
          "internalType": "address",
          "name": "sender",
          "type": "address"
        },
        {
          "indexed": true,
          "internalType": "address",
          "name": "owner",
          "type": "address"
        },
        {
          "indexed": false,
          "internalType": "uint256",
          "name": "assets",
          "type": "uint256"
        },
        {
          "indexed": false,
          "internalType": "uint256",
          "name": "shares",
          "type": "uint256"
        }
      ],
      "name": "Deposit",
      "type": "event"
    },
    {
      "anonymous": false,
      "inputs": [
        {
          "indexed": true,
          "internalType": "address",
          "name": "user",
          "type": "address"
        },
        {
          "indexed": false,
          "internalType": "uint256",
          "name": "amount",
          "type": "uint256"
        },
        {
          "indexed": false,
          "internalType": "uint256",
          "name": "penalty",
          "type": "uint256"
        }
      ],
      "name": "EmergencyWithdrawal",
      "type": "event"
    },
    {
      "anonymous": false,
      "inputs": [
        {
          "indexed": false,
          "internalType": "uint256",
          "name": "newLimit",
          "type": "uint256"
        }
      ],
      "name": "MaxDepositLimitUpdated",
      "type": "event"
    },
    {
      "anonymous": false,
      "inputs": [
        {
          "indexed": true,
          "internalType": "address",
          "name": "previousOwner",
          "type": "address"
        },
        {
          "indexed": true,
          "internalType": "address",
          "name": "newOwner",
          "type": "address"
        }
      ],
      "name": "OwnershipTransferred",
      "type": "event"
    },
    {
      "anonymous": false,
      "inputs": [
        {
          "indexed": false,
          "internalType": "address",
          "name": "account",
          "type": "address"
        }
      ],
      "name": "Paused",
      "type": "event"
    },
    {
      "anonymous": false,
      "inputs": [
        {
          "indexed": false,
          "internalType": "uint256",
          "name": "maxSlippageBps",
          "type": "uint256"
        }
      ],
      "name": "SlippageProtectionUpdated",
      "type": "event"
    },
    {
      "anonymous": false,
      "inputs": [
        {
          "indexed": true,
          "internalType": "address",
          "name": "from",
          "type": "address"
        },
        {
          "indexed": true,
          "internalType": "address",
          "name": "to",
          "type": "address"
        },
        {
          "indexed": false,
          "internalType": "uint256",
          "name": "value",
          "type": "uint256"
        }
      ],
      "name": "Transfer",
      "type": "event"
    },
    {
      "anonymous": false,
      "inputs": [
        {
          "indexed": false,
          "internalType": "address",
          "name": "account",
          "type": "address"
        }
      ],
      "name": "Unpaused",
      "type": "event"
    },
    {
      "anonymous": false,
      "inputs": [
        {
          "indexed": true,
          "internalType": "address",
          "name": "sender",
          "type": "address"
        },
        {
          "indexed": true,
          "internalType": "address",
          "name": "receiver",
          "type": "address"
        },
        {
          "indexed": true,
          "internalType": "address",
          "name": "owner",
          "type": "address"
        },
        {
          "indexed": false,
          "internalType": "uint256",
          "name": "assets",
          "type": "uint256"
        },
        {
          "indexed": false,
          "internalType": "uint256",
          "name": "shares",
          "type": "uint256"
        }
      ],
      "name": "Withdraw",
      "type": "event"
    },
    {
      "anonymous": false,
      "inputs": [
        {
          "indexed": false,
          "internalType": "uint256",
          "name": "delaySeconds",
          "type": "uint256"
        },
        {
          "indexed": false,
          "internalType": "uint256",
          "name": "feeBps",
          "type": "uint256"
        }
      ],
      "name": "WithdrawalConfigUpdated",
      "type": "event"
    },
    {
      "anonymous": false,
      "inputs": [
        {
          "indexed": false,
          "internalType": "uint256",
          "name": "amount",
          "type": "uint256"
        }
      ],
      "name": "YieldCompounded",
      "type": "event"
    },
    {
      "anonymous": false,
      "inputs": [
        {
          "indexed": false,
          "internalType": "uint256",
          "name": "amount",
          "type": "uint256"
        },
        {
          "indexed": false,
          "internalType": "uint256",
          "name": "shares",
          "type": "uint256"
        }
      ],
      "name": "YieldDeposited",
      "type": "event"
    },
    {
      "anonymous": false,
      "inputs": [
        {
          "indexed": true,
          "internalType": "address",
          "name": "protocol",
          "type": "address"
        }
      ],
      "name": "YieldProtocolSet",
      "type": "event"
    },
    {
      "anonymous": false,
      "inputs": [
        {
          "indexed": false,
          "internalType": "uint256",
          "name": "shares",
          "type": "uint256"
        },
        {
          "indexed": false,
          "internalType": "uint256",
          "name": "amount",
          "type": "uint256"
        }
      ],
      "name": "YieldWithdrawn",
      "type": "event"
    },
    {
      "inputs": [],
      "name": "EMERGENCY_PENALTY_BPS",
      "outputs": [
        {
          "internalType": "uint256",
          "name": "",
          "type": "uint256"
        }
      ],
      "stateMutability": "view",
      "type": "function"
    },
    {
      "inputs": [],
      "name": "MAX_BPS",
      "outputs": [
        {
          "internalType": "uint256",
          "name": "",
          "type": "uint256"
        }
      ],
      "stateMutability": "view",
      "type": "function"
    },
    {
      "inputs": [
        {
          "internalType": "address",
          "name": "owner",
          "type": "address"
        },
        {
          "internalType": "address",
          "name": "spender",
          "type": "address"
        }
      ],
      "name": "allowance",
      "outputs": [
        {
          "internalType": "uint256",
          "name": "",
          "type": "uint256"
        }
      ],
      "stateMutability": "view",
      "type": "function"
    },
    {
      "inputs": [
        {
          "internalType": "address",
          "name": "spender",
          "type": "address"
        },
        {
          "internalType": "uint256",
          "name": "value",
          "type": "uint256"
        }
      ],
      "name": "approve",
      "outputs": [
        {
          "internalType": "bool",
          "name": "",
          "type": "bool"
        }
      ],
      "stateMutability": "nonpayable",
      "type": "function"
    },
    {
      "inputs": [],
      "name": "asset",
      "outputs": [
        {
          "internalType": "address",
          "name": "",
          "type": "address"
        }
      ],
      "stateMutability": "view",
      "type": "function"
    },
    {
      "inputs": [
        {
          "internalType": "address",
          "name": "account",
          "type": "address"
        }
      ],
      "name": "balanceOf",
      "outputs": [
        {
          "internalType": "uint256",
          "name": "",
          "type": "uint256"
        }
      ],
      "stateMutability": "view",
      "type": "function"
    },
    {
      "inputs": [],
      "name": "compoundYield",
      "outputs": [],
      "stateMutability": "nonpayable",
      "type": "function"
    },
    {
      "inputs": [
        {
          "internalType": "uint256",
          "name": "shares",
          "type": "uint256"
        }
      ],
      "name": "convertToAssets",
      "outputs": [
        {
          "internalType": "uint256",
          "name": "",
          "type": "uint256"
        }
      ],
      "stateMutability": "view",
      "type": "function"
    },
    {
      "inputs": [
        {
          "internalType": "uint256",
          "name": "assets",
          "type": "uint256"
        }
      ],
      "name": "convertToShares",
      "outputs": [
        {
          "internalType": "uint256",
          "name": "",
          "type": "uint256"
        }
      ],
      "stateMutability": "view",
      "type": "function"
    },
    {
      "inputs": [],
      "name": "decimals",
      "outputs": [
        {
          "internalType": "uint8",
          "name": "",
          "type": "uint8"
        }
      ],
      "stateMutability": "view",
      "type": "function"
    },
    {
      "inputs": [
        {
          "internalType": "uint256",
          "name": "assets",
          "type": "uint256"
        },
        {
          "internalType": "address",
          "name": "receiver",
          "type": "address"
        }
      ],
      "name": "deposit",
      "outputs": [
        {
          "internalType": "uint256",
          "name": "shares",
          "type": "uint256"
        }
      ],
      "stateMutability": "nonpayable",
      "type": "function"
    },
    {
      "inputs": [
        {
          "internalType": "uint256",
          "name": "amount",
          "type": "uint256"
        }
      ],
      "name": "depositToYieldProtocol",
      "outputs": [],
      "stateMutability": "nonpayable",
      "type": "function"
    },
    {
      "inputs": [
        {
          "internalType": "uint256",
          "name": "assets",
          "type": "uint256"
        }
      ],
      "name": "emergencyWithdraw",
      "outputs": [],
      "stateMutability": "nonpayable",
      "type": "function"
    },
    {
      "inputs": [],
      "name": "getYieldRate",
      "outputs": [
        {
          "internalType": "uint256",
          "name": "",
          "type": "uint256"
        }
      ],
      "stateMutability": "view",
      "type": "function"
    },
    {
      "inputs": [
        {
          "internalType": "address",
          "name": "",
          "type": "address"
        }
      ],
      "name": "lastDepositTimestamp",
      "outputs": [
        {
          "internalType": "uint256",
          "name": "",
          "type": "uint256"
        }
      ],
      "stateMutability": "view",
      "type": "function"
    },
    {
      "inputs": [],
      "name": "lastYieldUpdate",
      "outputs": [
        {
          "internalType": "uint256",
          "name": "",
          "type": "uint256"
        }
      ],
      "stateMutability": "view",
      "type": "function"
    },
    {
      "inputs": [
        {
          "internalType": "address",
          "name": "",
          "type": "address"
        }
      ],
      "name": "maxDeposit",
      "outputs": [
        {
          "internalType": "uint256",
          "name": "",
          "type": "uint256"
        }
      ],
      "stateMutability": "view",
      "type": "function"
    },
    {
      "inputs": [],
      "name": "maxDepositLimit",
      "outputs": [
        {
          "internalType": "uint256",
          "name": "",
          "type": "uint256"
        }
      ],
      "stateMutability": "view",
      "type": "function"
    },
    {
      "inputs": [
        {
          "internalType": "address",
          "name": "",
          "type": "address"
        }
      ],
      "name": "maxMint",
      "outputs": [
        {
          "internalType": "uint256",
          "name": "",
          "type": "uint256"
        }
      ],
      "stateMutability": "view",
      "type": "function"
    },
    {
      "inputs": [
        {
          "internalType": "address",
          "name": "owner",
          "type": "address"
        }
      ],
      "name": "maxRedeem",
      "outputs": [
        {
          "internalType": "uint256",
          "name": "",
          "type": "uint256"
        }
      ],
      "stateMutability": "view",
      "type": "function"
    },
    {
      "inputs": [],
      "name": "maxSlippageBps",
      "outputs": [
        {
          "internalType": "uint256",
          "name": "",
          "type": "uint256"
        }
      ],
      "stateMutability": "view",
      "type": "function"
    },
    {
      "inputs": [
        {
          "internalType": "address",
          "name": "owner",
          "type": "address"
        }
      ],
      "name": "maxWithdraw",
      "outputs": [
        {
          "internalType": "uint256",
          "name": "",
          "type": "uint256"
        }
      ],
      "stateMutability": "view",
      "type": "function"
    },
    {
      "inputs": [
        {
          "internalType": "uint256",
          "name": "shares",
          "type": "uint256"
        },
        {
          "internalType": "address",
          "name": "receiver",
          "type": "address"
        }
      ],
      "name": "mint",
      "outputs": [
        {
          "internalType": "uint256",
          "name": "",
          "type": "uint256"
        }
      ],
      "stateMutability": "nonpayable",
      "type": "function"
    },
    {
      "inputs": [],
      "name": "name",
      "outputs": [
        {
          "internalType": "string",
          "name": "",
          "type": "string"
        }
      ],
      "stateMutability": "view",
      "type": "function"
    },
    {
      "inputs": [],
      "name": "owner",
      "outputs": [
        {
          "internalType": "address",
          "name": "",
          "type": "address"
        }
      ],
      "stateMutability": "view",
      "type": "function"
    },
    {
      "inputs": [],
      "name": "pause",
      "outputs": [],
      "stateMutability": "nonpayable",
      "type": "function"
    },
    {
      "inputs": [],
      "name": "paused",
      "outputs": [
        {
          "internalType": "bool",
          "name": "",
          "type": "bool"
        }
      ],
      "stateMutability": "view",
      "type": "function"
    },
    {
      "inputs": [],
      "name": "penaltyRecipient",
      "outputs": [
        {
          "internalType": "address",
          "name": "",
          "type": "address"
        }
      ],
      "stateMutability": "view",
      "type": "function"
    },
    {
      "inputs": [
        {
          "internalType": "uint256",
          "name": "assets",
          "type": "uint256"
        }
      ],
      "name": "previewDeposit",
      "outputs": [
        {
          "internalType": "uint256",
          "name": "",
          "type": "uint256"
        }
      ],
      "stateMutability": "view",
      "type": "function"
    },
    {
      "inputs": [
        {
          "internalType": "uint256",
          "name": "shares",
          "type": "uint256"
        }
      ],
      "name": "previewMint",
      "outputs": [
        {
          "internalType": "uint256",
          "name": "",
          "type": "uint256"
        }
      ],
      "stateMutability": "view",
      "type": "function"
    },
    {
      "inputs": [
        {
          "internalType": "uint256",
          "name": "shares",
          "type": "uint256"
        }
      ],
      "name": "previewRedeem",
      "outputs": [
        {
          "internalType": "uint256",
          "name": "",
          "type": "uint256"
        }
      ],
      "stateMutability": "view",
      "type": "function"
    },
    {
      "inputs": [
        {
          "internalType": "uint256",
          "name": "assets",
          "type": "uint256"
        }
      ],
      "name": "previewWithdraw",
      "outputs": [
        {
          "internalType": "uint256",
          "name": "",
          "type": "uint256"
        }
      ],
      "stateMutability": "view",
      "type": "function"
    },
    {
      "inputs": [
        {
          "internalType": "uint256",
          "name": "shares",
          "type": "uint256"
        },
        {
          "internalType": "address",
          "name": "receiver",
          "type": "address"
        },
        {
          "internalType": "address",
          "name": "owner",
          "type": "address"
        }
      ],
      "name": "redeem",
      "outputs": [
        {
          "internalType": "uint256",
          "name": "",
          "type": "uint256"
        }
      ],
      "stateMutability": "nonpayable",
      "type": "function"
    },
    {
      "inputs": [],
      "name": "renounceOwnership",
      "outputs": [],
      "stateMutability": "nonpayable",
      "type": "function"
    },
    {
      "inputs": [
        {
          "internalType": "uint256",
          "name": "newLimit",
          "type": "uint256"
        }
      ],
      "name": "setMaxDepositLimit",
      "outputs": [],
      "stateMutability": "nonpayable",
      "type": "function"
    },
    {
      "inputs": [
        {
          "internalType": "uint256",
          "name": "slippageBps",
          "type": "uint256"
        }
      ],
      "name": "setMaxSlippage",
      "outputs": [],
      "stateMutability": "nonpayable",
      "type": "function"
    },
    {
      "inputs": [
        {
          "internalType": "address",
          "name": "recipient",
          "type": "address"
        }
      ],
      "name": "setPenaltyRecipient",
      "outputs": [],
      "stateMutability": "nonpayable",
      "type": "function"
    },
    {
      "inputs": [
        {
          "internalType": "uint256",
          "name": "delaySeconds",
          "type": "uint256"
        },
        {
          "internalType": "uint256",
          "name": "feeBps",
          "type": "uint256"
        }
      ],
      "name": "setWithdrawalConfig",
      "outputs": [],
      "stateMutability": "nonpayable",
      "type": "function"
    },
    {
      "inputs": [
        {
          "internalType": "address",
          "name": "protocol",
          "type": "address"
        }
      ],
      "name": "setYieldProtocol",
      "outputs": [],
      "stateMutability": "nonpayable",
      "type": "function"
    },
    {
      "inputs": [],
      "name": "symbol",
      "outputs": [
        {
          "internalType": "string",
          "name": "",
          "type": "string"
        }
      ],
      "stateMutability": "view",
      "type": "function"
    },
    {
      "inputs": [],
      "name": "totalAssets",
      "outputs": [
        {
          "internalType": "uint256",
          "name": "",
          "type": "uint256"
        }
      ],
      "stateMutability": "view",
      "type": "function"
    },
    {
      "inputs": [],
      "name": "totalSupply",
      "outputs": [
        {
          "internalType": "uint256",
          "name": "",
          "type": "uint256"
        }
      ],
      "stateMutability": "view",
      "type": "function"
    },
    {
      "inputs": [],
      "name": "totalYieldEarned",
      "outputs": [
        {
          "internalType": "uint256",
          "name": "",
          "type": "uint256"
        }
      ],
      "stateMutability": "view",
      "type": "function"
    },
    {
      "inputs": [
        {
          "internalType": "address",
          "name": "to",
          "type": "address"
        },
        {
          "internalType": "uint256",
          "name": "value",
          "type": "uint256"
        }
      ],
      "name": "transfer",
      "outputs": [
        {
          "internalType": "bool",
          "name": "",
          "type": "bool"
        }
      ],
      "stateMutability": "nonpayable",
      "type": "function"
    },
    {
      "inputs": [
        {
          "internalType": "address",
          "name": "from",
          "type": "address"
        },
        {
          "internalType": "address",
          "name": "to",
          "type": "address"
        },
        {
          "internalType": "uint256",
          "name": "value",
          "type": "uint256"
        }
      ],
      "name": "transferFrom",
      "outputs": [
        {
          "internalType": "bool",
          "name": "",
          "type": "bool"
        }
      ],
      "stateMutability": "nonpayable",
      "type": "function"
    },
    {
      "inputs": [
        {
          "internalType": "address",
          "name": "newOwner",
          "type": "address"
        }
      ],
      "name": "transferOwnership",
      "outputs": [],
      "stateMutability": "nonpayable",
      "type": "function"
    },
    {
      "inputs": [],
      "name": "unpause",
      "outputs": [],
      "stateMutability": "nonpayable",
      "type": "function"
    },
    {
      "inputs": [],
      "name": "vaultType",
      "outputs": [
        {
          "internalType": "enum BucketVaultV2.VaultType",
          "name": "",
          "type": "uint8"
        }
      ],
      "stateMutability": "view",
      "type": "function"
    },
    {
      "inputs": [
        {
          "internalType": "uint256",
          "name": "assets",
          "type": "uint256"
        },
        {
          "internalType": "address",
          "name": "receiver",
          "type": "address"
        },
        {
          "internalType": "address",
          "name": "owner",
          "type": "address"
        }
      ],
      "name": "withdraw",
      "outputs": [
        {
          "internalType": "uint256",
          "name": "shares",
          "type": "uint256"
        }
      ],
      "stateMutability": "nonpayable",
      "type": "function"
    },
    {
      "inputs": [
        {
          "internalType": "uint256",
          "name": "shares",
          "type": "uint256"
        }
      ],
      "name": "withdrawFromYieldProtocol",
      "outputs": [],
      "stateMutability": "nonpayable",
      "type": "function"
    },
    {
      "inputs": [],
      "name": "withdrawalDelaySeconds",
      "outputs": [
        {
          "internalType": "uint256",
          "name": "",
          "type": "uint256"
        }
      ],
      "stateMutability": "view",
      "type": "function"
    },
    {
      "inputs": [],
      "name": "withdrawalFeeBps",
      "outputs": [
        {
          "internalType": "uint256",
          "name": "",
          "type": "uint256"
        }
      ],
      "stateMutability": "view",
      "type": "function"
    },
    {
      "inputs": [],
      "name": "yieldEnabled",
      "outputs": [
        {
          "internalType": "bool",
          "name": "",
          "type": "bool"
        }
      ],
      "stateMutability": "view",
      "type": "function"
    },
    {
      "inputs": [],
      "name": "yieldProtocol",
      "outputs": [
        {
          "internalType": "address",
          "name": "",
          "type": "address"
        }
      ],
      "stateMutability": "view",
      "type": "function"
    }
  ],
  "bytecode": "0x60e080604052346200049557620026e780380380916200002082856200049a565b833981019060a081830312620004955780516001600160a01b0392908381168103620004955760208381015190936001600160401b039290918381116200049557846200006f918401620004f0565b9360408301519084821162000495576200008b918401620004f0565b92606083015195600493848810156200049557608001519486519083821162000480576003928354926001998a85811c9516801562000475575b8386101462000460578190601f958681116200040a575b5083908683116001146200039a576000926200038e575b505060001982871b1c1916908a1b1784555b8151948511620003795786548981811c911680156200036e575b828210146200035957908184879695949311620002fd575b50809285116001146200028f575060009362000283575b505082871b92600019911b1c19161782555b6200016b816200055b565b90156200027a575b60a0526080523315620002625750600580546001600160a01b0319808216339081179093556040519690949291167f8be0079c531659141344cd1fd0a4f28419497f9722a3daafe3b4186f6b6457e0600080a36006558260c052600855603260095542600f553390600d541617600d5515600014620002525762093a80600a5560c8600b555b6120c59081620006228239608051818181610715015281816107f601528181610cbb015281816110ef015281816113c10152818161187901528181611dff0152611f1a015260a05181611406015260c051816111e70152f35b6000600a556000600b55620001f9565b602490600060405191631e4fbdf760e01b8352820152fd5b50601262000173565b0151915038806200014e565b929190899550601f1985168860005284600020946000905b828210620002e35750508511620002c8575b50505050811b01825562000160565b01519060f884600019921b161c1916905538808080620002b9565b8484015187558c98909601959384019390810190620002a7565b90919293945087600052816000208480880160051c8201928489106200034f575b918c91899897969594930160051c01915b8281106200033f57505062000137565b600081558897508c91016200032f565b925081926200031e565b602288634e487b7160e01b6000525260246000fd5b90607f16906200011f565b604187634e487b7160e01b6000525260246000fd5b015190503880620000f3565b908c9350601f1983169188600052856000209260005b87828210620003ea5750508411620003d1575b505050811b01845562000105565b015160001983891b60f8161c19169055388080620003c3565b91929395968291958786015181550195019301908e9594939291620003b0565b90915086600052836000208680850160051c82019286861062000456575b918e91869594930160051c01915b82811062000446575050620000dc565b600081558594508e910162000436565b9250819262000428565b602289634e487b7160e01b6000525260246000fd5b94607f1694620000c5565b604186634e487b7160e01b6000525260246000fd5b600080fd5b601f909101601f19168101906001600160401b03821190821017620004be57604052565b634e487b7160e01b600052604160045260246000fd5b6001600160401b038111620004be57601f01601f191660200190565b9080601f8301121562000495578151906200050b82620004d4565b926200051b60405194856200049a565b82845260209160208483010111620004955760005b838110620005475750505060206000918301015290565b818101830151858201840152820162000530565b6040805163313ce56760e01b60208201908152600482529293929181016001600160401b03811182821017620004be576040525160009384928392916001600160a01b03165afa3d1562000618573d90620005b682620004d4565b91620005c660405193846200049a565b82523d84602084013e5b806200060b575b620005e2575b508190565b60208180518101031262000607576020015160ff8111620005dd576001925060ff1690565b8280fd5b50602081511015620005d7565b606090620005d056fe608060408181526004918236101561001657600080fd5b600092833560e01c918263012caae1146116a55750816301e1d1141461168857816304336bb31461166957816306fdde031461157257816307a2d13a146111ce578163095ea7b3146114c85781630a28a477146114a857816318160ddd1461148957816323b872dd1461144c578163313ce567146113f057816338d52e0f146113ac5781633bc725c3146113265781633f4ba83a146112bc578163402d267d1461053957816343f68a491461122c5781634ac032be146111d35781634cdad506146111ce5781635312ea8e146110585781635c975abb14611034578163655d8dec14610ffc5781636e553f6514610f175781636e98928b14610c6557816370a0823114610478578163715018a614610c085781637183941814610be95781637a62a89514610b545781637e393cbe14610b2b5781638456cb5914610ad05781638da5cb5b14610aa75781638f8c8aee14610a885781638f9bcee814610a6b57816394bf804d14610a3657816395d89b4114610931578163a9059cbb14610900578163b25a7a181461087b578163b3d7f6b91461085b578163b460af9414610634578163b63c44e714610615578163ba08765214610584578163c2752e431461055d578163c4aa73951461053e578163c63d75b614610539578163c6e6f592146103dc578163cc0096791461051a578163cd4c73a7146104ed578163ce96cb77146104b4578163d905777e14610478578163dd62ed3e1461042f578163dfe60835146103e1578163ef8b30f7146103dc578163f1009899146103b8578163f1b1c3751461032a578163f2fde38b14610296575063fd967f471461027757600080fd5b34610292578160031936011261029257602090516127108152f35b5080fd5b905034610326576020366003190112610326576102b161173e565b906102ba611c60565b6001600160a01b03918216928315610310575050600554826bffffffffffffffffffffffff60a01b821617600555167f8be0079c531659141344cd1fd0a4f28419497f9722a3daafe3b4186f6b6457e08380a380f35b51631e4fbdf760e01b8152908101849052602490fd5b8280fd5b90503461032657602036600319011261032657803590610348611c8c565b610350611c60565b60ff60075460a81c16156103aa57811561039c5750907fc2e390771ee2b6cad5cb1244f940b577352851c4d635277c314747be299eba4b918151908082526020820152a1600160065580f35b825163162908e360e11b8152fd5b825163666f681360e01b8152fd5b5050346102925781600319360112610292576020906103d56119eb565b9051908152f35b6117c5565b905034610326576020366003190112610326577f514bf0f65cb844af227a51e123dbb8b5be8fac221f8feeb9d20591e81c46e50b916020913590610423611c60565b8160085551908152a180f35b5050346102925780600319360112610292578060209261044d61173e565b610455611754565b6001600160a01b0391821683526001865283832091168252845220549051908152f35b505034610292576020366003190112610292576020906103d561049961173e565b6001600160a01b031660009081526020819052604090205490565b505034610292576020366003190112610292576020916103d59082906001600160a01b036104e061173e565b1681528085522054611a2e565b505034610292578160031936011261029257600754905160089190911c6001600160a01b03168152602090f35b505034610292578160031936011261029257602090600e549051908152f35b61176a565b5050346102925781600319360112610292576020906009549051908152f35b50503461029257816003193601126102925760209060ff60075460a81c1690519015158152f35b828434610612575061059536611790565b9291936105b58460018060a01b0316600052600060205260406000205490565b8086116105dd575050836105d7916105ce602096611a2e565b94859133611ec3565b51908152f35b9251632e52afbb60e21b81526001600160a01b0390941690840190815260208101949094525060408301529081906060010390fd5b80fd5b5050346102925781600319360112610292576020906008549051908152f35b919050346103265761064536611790565b93909194610651611c8c565b610659611d8c565b85600a5480610821575b50600b54806107b8575b50508360ff60075460a81c166106fd575b6001600160a01b0386168252602082905290205461069b90611a2e565b8086116106c85750506106bd90846106b4602096611a59565b94859233611ec3565b600160065551908152f35b9251633fa733bb60e21b81526001600160a01b0390941690840190815260208101949094525060408301529081906060010390fd5b516370a0823160e01b815230838201526020816024817f00000000000000000000000000000000000000000000000000000000000000006001600160a01b03165afa9081156107ae579085918391610777575b5091828861069b9410610766575b50915061067e565b610770908961181b565b503861075e565b9150506020813d6020116107a6575b81610793602093836117e3565b810103126102925751849061069b610750565b3d9150610786565b85513d84823e3d90fd5b8197506107cb612710916107d39361183e565b04809761181b565b95806107e0575b8061066d565b600d5461081b91906001600160a01b03908116907f000000000000000000000000000000000000000000000000000000000000000016611d4e565b386107da565b6001600160a01b0387168352600c60205285832054610840904261181b565b1061084b5738610663565b8451635ca831e160e11b81528390fd5b82843461061257602036600319011261061257506103d560209235611a03565b9050346103265760203660031901126103265761089661173e565b61089e611c60565b6001600160a01b03169182156108cb5750506bffffffffffffffffffffffff60a01b600d541617600d5580f35b906020606492519162461bcd60e51b8352820152600f60248201526e496e76616c6964206164647265737360881b6044820152fd5b50503461029257806003193601126102925760209061092a61092061173e565b6024359033611b82565b5160018152f35b83833461029257816003193601126102925780519180938054916001908360011c9260018516948515610a2c575b6020958686108114610a19578589529081156109f5575060011461099d575b610999878761098f828c03836117e3565b51918291826116ca565b0390f35b81529295507f8a35acfbc15ff81a39ae7d344fd709f28e8600b4aa8c65c6b64bfe7fe36bd19b5b8284106109e257505050826109999461098f9282010194868061097e565b80548685018801529286019281016109c4565b60ff19168887015250505050151560051b830101925061098f82610999868061097e565b634e487b7160e01b845260228352602484fd5b93607f169361095f565b9050346103265781600319360112610326576020925035906105d7610a59611754565b92610a6381611a03565b809433611daa565b505034610292578160031936011261029257602090516101f48152f35b505034610292578160031936011261029257602090600f549051908152f35b50503461029257816003193601126102925760055490516001600160a01b039091168152602090f35b50503461029257816003193601126102925760207f62e78cea01bee320cd4e420270b5ea74000d11b0c9f74754ebdbfc544b05a25891610b0e611c60565b610b16611d8c565b600160ff19600754161760075551338152a180f35b8334610612578060031936011261061257610b44611c8c565b610b4c61194a565b600160065580f35b838334610292578060031936011261029257823560243593610b74611c60565b6103e88511610bb757507f7c532154661afd5f579d75e0bcfec458372e7a0127bbfaecb32e275ac844b683929381600a5580600b5582519182526020820152a180f35b606490602084519162461bcd60e51b8352820152600c60248201526b08ccaca40e8dede40d0d2ced60a31b6044820152fd5b505034610292578160031936011261029257602090600a549051908152f35b8334610612578060031936011261061257610c21611c60565b600580546001600160a01b0319811690915581906001600160a01b03167f8be0079c531659141344cd1fd0a4f28419497f9722a3daafe3b4186f6b6457e08280a380f35b83833461029257602080600319360112610326578335610c83611c8c565b610c8b611c60565b60075460ff8160a81c1615610f07578115610ef75783516370a0823160e01b815230878201526001600160a01b037f000000000000000000000000000000000000000000000000000000000000000081169290918581602481875afa908115610eed579085918991610eb8575b5010610ea85760081c16908451636eb1769f60e11b815230888201528260248201528481604481855afa8015610e9e5784908890610e69575b610d3b9250611851565b855163095ea7b360e01b8682018181526001600160a01b03861660248401526044808401949094529282529093909186908990610d796064886117e3565b86519082875af188513d82610e4d575b505015610dc8575b877fa248d81b377afe8736fe397f5a9f8f0d7c581e67ff6ae4037df29a672a92133b888888825191818352820152a1600160065580f35b865191868301526024820152866044820152604481526080810181811067ffffffffffffffff821117610e3a577fa248d81b377afe8736fe397f5a9f8f0d7c581e67ff6ae4037df29a672a92133b979850610e30939291610e2b91885282611f95565b611f95565b8493868080610d91565b634e487b7160e01b885260418952602488fd5b909150610e615750823b15155b8a80610d89565b600114610e5a565b50508481813d8311610e97575b610e8081836117e3565b81010312610e935783610d3b9151610d31565b8680fd5b503d610e76565b86513d89823e3d90fd5b8551631e9acf1760e31b81528890fd5b809250878092503d8311610ee6575b610ed181836117e3565b81010312610ee2578490518a610cf8565b8780fd5b503d610ec7565b87513d8a823e3d90fd5b835163162908e360e11b81528690fd5b835163666f681360e01b81528690fd5b8383346102925780600319360112610292578235610f33611754565b92610f3c611c8c565b610f44611d8c565b610f5582610f5061185e565b611851565b60085410610fec5760209450610f6a82611a84565b93610f7785848333611daa565b6001600160a01b03168152600c8552829020429055600754829060a81c60ff1680610fe3575b610faf575b5050600160065551908152f35b7fa248d81b377afe8736fe397f5a9f8f0d7c581e67ff6ae4037df29a672a92133b9181519081528486820152a18381610fa2565b50811515610f9d565b825163e4bac01b60e01b81528590fd5b5050346102925760203660031901126102925760209181906001600160a01b0361102461173e565b168152600c845220549051908152f35b50503461029257816003193601126102925760209060ff6007541690519015158152f35b83833461029257602036600319011261029257823590611076611c8c565b811561119b5761108582611a59565b9133845283602052828285205410611162576101f481026101f3198282040161114f57906110e46110dd6127107f56da9a5ae0bcf6e7c3fdd78a10550e7d0458de1c39bfb7f6e96a3e92dd344a68959404809361181b565b9433611caf565b6001600160a01b03817f0000000000000000000000000000000000000000000000000000000000000000821661111b873383611d4e565b81611139575b505050815193845260208401523392a2600160065580f35b61114792600d541690611d4e565b858181611121565b634e487b7160e01b855260118652602485fd5b815162461bcd60e51b81526020818701526013602482015272496e73756666696369656e742073686172657360681b6044820152606490fd5b5162461bcd60e51b8152602081850152600e60248201526d125b9d985b1a5908185b5bdd5b9d60921b6044820152606490fd5b611713565b8383346102925781600319360112610292577f00000000000000000000000000000000000000000000000000000000000000009051918382101561121957602083838152f35b634e487b7160e01b815260218452602490fd5b919050346103265760203660031901126103265781359161124b611c60565b6101f483116112865750816020917f0e327decf8cd0c8c1ff089972fca9360ed4f35e93bc2c9c28a9ea0dfb428ea919360095551908152a180f35b6020606492519162461bcd60e51b835282015260116024820152700a6d8d2e0e0c2ceca40e8dede40d0d2ced607b1b6044820152fd5b9050346103265782600319360112610326576112d6611c60565b6007549060ff821615611318575060ff1916600755513381527f5db9ee0a495bf2e6ff9c91a7834c1ba4fdd244a5e8aa4e537bd38aeae4b073aa90602090a180f35b8251638dfc202b60e01b8152fd5b83346106125760203660031901126106125761134061173e565b611348611c60565b60078054610100600160b01b031916600883901b610100600160a81b0316176001600160a01b039290921680151560a81b60ff60a81b169290921790557f6d70c8cd6b23bde6c51ca79816ad4d35c700845e43feefc3e65ca0d9cc6f45218280a280f35b505034610292578160031936011261029257517f00000000000000000000000000000000000000000000000000000000000000006001600160a01b03168152602090f35b83833461029257816003193601126102925760ff7f0000000000000000000000000000000000000000000000000000000000000000169160ff8311611439576020838351908152f35b634e487b7160e01b815260118452602490fd5b5050346102925760603660031901126102925760209061092a61146d61173e565b611475611754565b60443591611484833383611aaf565b611b82565b5050346102925781600319360112610292576020906002549051908152f35b82843461061257602036600319011261061257506103d560209235611a59565b9050346103265781600319360112610326576114e261173e565b60243590331561155b576001600160a01b031691821561154457508083602095338152600187528181208582528752205582519081527f8c5be1e5ebec7d5bd14f71427d1e84f3dd0314c0f7b2291e5b200ac8c7c3b925843392a35160018152f35b8351634a1406b160e11b8152908101859052602490fd5b835163e602df0560e01b8152808401869052602490fd5b9190503461032657826003193601126103265780519183600354906001908260011c9260018116801561165f575b602095868610821461164c575084885290811561162a57506001146115d1575b610999868661098f828b03836117e3565b929550600383527fc2575a0e9e593c00f959f8c92f12db2869c3395a3b0502d05e2516446f71f85b5b82841061161757505050826109999461098f9282010194386115c0565b80548685018801529286019281016115fa565b60ff191687860152505050151560051b830101925061098f82610999386115c0565b634e487b7160e01b845260229052602483fd5b93607f16936115a0565b505034610292578160031936011261029257602090600b549051908152f35b5050346102925781600319360112610292576020906103d561185e565b849034610292578160031936011261029257600d546001600160a01b03168152602090f35b6020808252825181830181905290939260005b8281106116ff57505060409293506000838284010152601f8019910116010190565b8181018601518482016040015285016116dd565b34611739576020366003190112611739576020611731600435611a2e565b604051908152f35b600080fd5b600435906001600160a01b038216820361173957565b602435906001600160a01b038216820361173957565b346117395760203660031901126117395761178361173e565b5060206040516000198152f35b606090600319011261173957600435906001600160a01b03906024358281168103611739579160443590811681036117395790565b34611739576020366003190112611739576020611731600435611a84565b90601f8019910116810190811067ffffffffffffffff82111761180557604052565b634e487b7160e01b600052604160045260246000fd5b9190820391821161182857565b634e487b7160e01b600052601160045260246000fd5b8181029291811591840414171561182857565b9190820180921161182857565b6040516370a0823160e01b81523060048201526020816024817f00000000000000000000000000000000000000000000000000000000000000006001600160a01b03165afa90811561193e5760009161190c575b5060ff60075460a81c166118cf57600e546118cc91611851565b90565b6118cc90610f5064496cebb8006119016118eb600f544261181b565b6118fc6118f66119eb565b8661183e565b61183e565b0491600e5490611851565b906020823d602011611936575b81611926602093836117e3565b81010312610612575051386118b2565b3d9150611919565b6040513d6000823e3d90fd5b60ff60075460a81c16156119d957611964600f544261181b565b80156119d65761198d64496cebb800916118fc61197f61185e565b6119876119eb565b9061183e565b04806119965750565b6020816119c67fcfad015a1c9077dd207d62466bb2fe714162b7bda0cca54bb619a967837102ae93600e54611851565b600e5542600f55604051908152a1565b50565b60405163666f681360e01b8152600490fd5b60ff60075460a81c16156119fe57600090565b600090565b611a0b61185e565b60018101809111611828576002549060018201809211611828576118cc92611f5f565b611a3661185e565b60018101809111611828576002549060018201809211611828576118cc92611ff1565b6002546001810180911161182857611a6f61185e565b9060018201809211611828576118cc92611f5f565b6002546001810180911161182857611a9a61185e565b9060018201809211611828576118cc92611ff1565b9160018060a01b038093169160009383855260016020526040938486209183169182875260205284862054926000198410611aee575b50505050505050565b848410611b5257508015611b3a578115611b2257855260016020528385209085526020520391205538808080808080611ae5565b8451634a1406b160e11b815260048101879052602490fd5b845163e602df0560e01b815260048101879052602490fd5b8551637dc7a0d960e11b81526001600160a01b039190911660048201526024810184905260448101859052606490fd5b916001600160a01b03808416928315611c475716928315611c2e5760009083825281602052604082205490838210611bfc575091604082827fddf252ad1be2c89b69c2b068fc378daa952ba7f163c4a11628f55a4df523b3ef958760209652828652038282205586815220818154019055604051908152a3565b60405163391434e360e21b81526001600160a01b03919091166004820152602481019190915260448101839052606490fd5b60405163ec442f0560e01b815260006004820152602490fd5b604051634b637e8f60e11b815260006004820152602490fd5b6005546001600160a01b03163303611c7457565b60405163118cdaa760e01b8152336004820152602490fd5b600260065414611c9d576002600655565b604051633ee5aeb560e01b8152600490fd5b906001600160a01b038216908115611c475760009282845283602052604084205490828210611d1c5750817fddf252ad1be2c89b69c2b068fc378daa952ba7f163c4a11628f55a4df523b3ef926020928587528684520360408620558060025403600255604051908152a3565b60405163391434e360e21b81526001600160a01b03919091166004820152602481019190915260448101829052606490fd5b60405163a9059cbb60e01b60208201526001600160a01b03929092166024830152604480830193909352918152611d8a91610e2b6064836117e3565b565b60ff60075416611d9857565b60405163d93c066560e01b8152600490fd5b9160018060a01b03604092818451956323b872dd60e01b602088015216948560248201523060448201528360648201526064815260a081019080821067ffffffffffffffff83111761180557611e24918652837f000000000000000000000000000000000000000000000000000000000000000016611f95565b16938415611eab579081611e5c7fdcbc1c05240f31ff3ad067ef1ee35ce4997762752e3a095284754544f4c709d79493600254611851565b600255856000526000602052826000208181540190558560007fddf252ad1be2c89b69c2b068fc378daa952ba7f163c4a11628f55a4df523b3ef60208651858152a382519182526020820152a3565b825163ec442f0560e01b815260006004820152602490fd5b6001600160a01b0380841695818316947ffbde797d201c681b91056529119e0b02407c7bb96a4a2c75c01fc9667232c8db94604094909291611f1291839190828c8b03611f4e575b5050611caf565b611f3f8783857f000000000000000000000000000000000000000000000000000000000000000016611d4e565b835196875260208701521693a4565b611f589183611aaf565b3882611f0b565b91611f6b818385611ff1565b918115611f7f576118cc9309151590611851565b634e487b7160e01b600052601260045260246000fd5b906000602091828151910182855af11561193e576000513d611fe857506001600160a01b0381163b155b611fc65750565b604051635274afe760e01b81526001600160a01b039091166004820152602490fd5b60011415611fbf565b909160001983830992808302928380861095039480860395146120815784831115612068579082910981600003821680920460028082600302188083028203028083028203028083028203028083028203028083028203028092029003029360018380600003040190848311900302920304170290565b82634e487b71600052156003026011186020526024601cfd5b505080925015611f7f57049056fea2646970667358221220bfca2f5d9c20b4fdd973e73366f5ed2f0f594994d6a3f9d0814d06bba76124cf64736f6c63430008160033",
  "linkReferences": {},
  "deployedLinkReferences": {}
}