{
  "_format": "hh-sol-artifact-1",
  "contractName": "MockMeth",
  "sourceName": "contracts/src/mocks/MockMeth.sol",
  "abi": [
    {
      "inputs": [],
      "stateMutability": "nonpayable",
      "type": "constructor"
    },
    {
      "inputs": [
        {
          "internalType": "address",
          "name": "spender",
          "type": "address"
        },
        {
          "internalType": "uint256",
          "name": "allowance",
          "type": "uint256"
        },
        {
          "internalType": "uint256",
          "name": "needed",
          "type": "uint256"
        }
      ],
      "name": "ERC20InsufficientAllowance",
      "type": "error"
    },
    {
      "inputs": [
        {
          "internalType": "address",
          "name": "sender",
          "type": "address"
        },
        {
          "internalType": "uint256",
          "name": "balance",
          "type": "uint256"
        },
        {
          "internalType": "uint256",
          "name": "needed",
          "type": "uint256"
        }
      ],
      "name": "ERC20InsufficientBalance",
      "type": "error"
    },
    {
      "inputs": [
        {
          "internalType": "address",
          "name": "approver",
          "type": "address"
        }
      ],
      "name": "ERC20InvalidApprover",
      "type": "error"
    },
    {
      "inputs": [
        {
          "internalType": "address",
          "name": "receiver",
          "type": "address"
        }
      ],
      "name": "ERC20InvalidReceiver",
      "type": "error"
    },
    {
      "inputs": [
        {
          "internalType": "address",
          "name": "sender",
          "type": "address"
        }
      ],
      "name": "ERC20InvalidSender",
      "type": "error"
    },
    {
      "inputs": [
        {
          "internalType": "address",
          "name": "spender",
          "type": "address"
        }
      ],
      "name": "ERC20InvalidSpender",
      "type": "error"
    },
    {
      "inputs": [
        {
          "internalType": "address",
          "name": "owner",
          "type": "address"
        }
      ],
      "name": "OwnableInvalidOwner",
      "type": "error"
    },
    {
      "inputs": [
        {
          "internalType": "address",
          "name": "account",
          "type": "address"
        }
      ],
      "name": "OwnableUnauthorizedAccount",
      "type": "error"
    },
    {
      "anonymous": false,
      "inputs": [
        {
          "indexed": true,
          "internalType": "address",
          "name": "owner",
          "type": "address"
        },
        {
          "indexed": true,
          "internalType": "address",
          "name": "spender",
          "type": "address"
        },
        {
          "indexed": false,
          "internalType": "uint256",
          "name": "value",
          "type": "uint256"
        }
      ],
      "name": "Approval",
      "type": "event"
    },
    {
      "anonymous": false,
      "inputs": [
        {
          "indexed": false,
          "internalType": "uint256",
          "name": "newRate",
          "type": "uint256"
        },
        {
          "indexed": false,
          "internalType": "uint256",
          "name": "timestamp",
          "type": "uint256"
        }
      ],
      "name": "ExchangeRateUpdated",
      "type": "event"
    },
    {
      "anonymous": false,
      "inputs": [
        {
          "indexed": true,
          "internalType": "address",
          "name": "previousOwner",
          "type": "address"
        },
        {
          "indexed": true,
          "internalType": "address",
          "name": "newOwner",
          "type": "address"
        }
      ],
      "name": "OwnershipTransferred",
      "type": "event"
    },
    {
      "anonymous": false,
      "inputs": [
        {
          "indexed": true,
          "internalType": "address",
          "name": "user",
          "type": "address"
        },
        {
          "indexed": false,
          "internalType": "uint256",
          "name": "ethAmount",
          "type": "uint256"
        },
        {
          "indexed": false,
          "internalType": "uint256",
          "name": "mEthAmount",
          "type": "uint256"
        }
      ],
      "name": "Staked",
      "type": "event"
    },
    {
      "anonymous": false,
      "inputs": [
        {
          "indexed": true,
          "internalType": "address",
          "name": "from",
          "type": "address"
        },
        {
          "indexed": true,
          "internalType": "address",
          "name": "to",
          "type": "address"
        },
        {
          "indexed": false,
          "internalType": "uint256",
          "name": "value",
          "type": "uint256"
        }
      ],
      "name": "Transfer",
      "type": "event"
    },
    {
      "anonymous": false,
      "inputs": [
        {
          "indexed": true,
          "internalType": "address",
          "name": "user",
          "type": "address"
        },
        {
          "indexed": false,
          "internalType": "uint256",
          "name": "mEthAmount",
          "type": "uint256"
        },
        {
          "indexed": false,
          "internalType": "uint256",
          "name": "ethAmount",
          "type": "uint256"
        }
      ],
      "name": "Unstaked",
      "type": "event"
    },
    {
      "inputs": [],
      "name": "ANNUAL_YIELD_BPS",
      "outputs": [
        {
          "internalType": "uint256",
          "name": "",
          "type": "uint256"
        }
      ],
      "stateMutability": "view",
      "type": "function"
    },
    {
      "inputs": [],
      "name": "BPS_DENOMINATOR",
      "outputs": [
        {
          "internalType": "uint256",
          "name": "",
          "type": "uint256"
        }
      ],
      "stateMutability": "view",
      "type": "function"
    },
    {
      "inputs": [],
      "name": "SECONDS_PER_YEAR",
      "outputs": [
        {
          "internalType": "uint256",
          "name": "",
          "type": "uint256"
        }
      ],
      "stateMutability": "view",
      "type": "function"
    },
    {
      "inputs": [
        {
          "internalType": "address",
          "name": "owner",
          "type": "address"
        },
        {
          "internalType": "address",
          "name": "spender",
          "type": "address"
        }
      ],
      "name": "allowance",
      "outputs": [
        {
          "internalType": "uint256",
          "name": "",
          "type": "uint256"
        }
      ],
      "stateMutability": "view",
      "type": "function"
    },
    {
      "inputs": [
        {
          "internalType": "address",
          "name": "spender",
          "type": "address"
        },
        {
          "internalType": "uint256",
          "name": "value",
          "type": "uint256"
        }
      ],
      "name": "approve",
      "outputs": [
        {
          "internalType": "bool",
          "name": "",
          "type": "bool"
        }
      ],
      "stateMutability": "nonpayable",
      "type": "function"
    },
    {
      "inputs": [
        {
          "internalType": "address",
          "name": "account",
          "type": "address"
        }
      ],
      "name": "balanceOf",
      "outputs": [
        {
          "internalType": "uint256",
          "name": "",
          "type": "uint256"
        }
      ],
      "stateMutability": "view",
      "type": "function"
    },
    {
      "inputs": [],
      "name": "decimals",
      "outputs": [
        {
          "internalType": "uint8",
          "name": "",
          "type": "uint8"
        }
      ],
      "stateMutability": "view",
      "type": "function"
    },
    {
      "inputs": [],
      "name": "exchangeRate",
      "outputs": [
        {
          "internalType": "uint256",
          "name": "",
          "type": "uint256"
        }
      ],
      "stateMutability": "view",
      "type": "function"
    },
    {
      "inputs": [],
      "name": "getAPY",
      "outputs": [
        {
          "internalType": "uint256",
          "name": "",
          "type": "uint256"
        }
      ],
      "stateMutability": "pure",
      "type": "function"
    },
    {
      "inputs": [],
      "name": "lastUpdateTimestamp",
      "outputs": [
        {
          "internalType": "uint256",
          "name": "",
          "type": "uint256"
        }
      ],
      "stateMutability": "view",
      "type": "function"
    },
    {
      "inputs": [
        {
          "internalType": "uint256",
          "name": "mETHAmount",
          "type": "uint256"
        }
      ],
      "name": "mETHToETH",
      "outputs": [
        {
          "internalType": "uint256",
          "name": "",
          "type": "uint256"
        }
      ],
      "stateMutability": "view",
      "type": "function"
    },
    {
      "inputs": [],
      "name": "name",
      "outputs": [
        {
          "internalType": "string",
          "name": "",
          "type": "string"
        }
      ],
      "stateMutability": "view",
      "type": "function"
    },
    {
      "inputs": [],
      "name": "owner",
      "outputs": [
        {
          "internalType": "address",
          "name": "",
          "type": "address"
        }
      ],
      "stateMutability": "view",
      "type": "function"
    },
    {
      "inputs": [],
      "name": "renounceOwnership",
      "outputs": [],
      "stateMutability": "nonpayable",
      "type": "function"
    },
    {
      "inputs": [],
      "name": "stake",
      "outputs": [
        {
          "internalType": "uint256",
          "name": "",
          "type": "uint256"
        }
      ],
      "stateMutability": "payable",
      "type": "function"
    },
    {
      "inputs": [],
      "name": "symbol",
      "outputs": [
        {
          "internalType": "string",
          "name": "",
          "type": "string"
        }
      ],
      "stateMutability": "view",
      "type": "function"
    },
    {
      "inputs": [],
      "name": "totalSupply",
      "outputs": [
        {
          "internalType": "uint256",
          "name": "",
          "type": "uint256"
        }
      ],
      "stateMutability": "view",
      "type": "function"
    },
    {
      "inputs": [
        {
          "internalType": "address",
          "name": "to",
          "type": "address"
        },
        {
          "internalType": "uint256",
          "name": "value",
          "type": "uint256"
        }
      ],
      "name": "transfer",
      "outputs": [
        {
          "internalType": "bool",
          "name": "",
          "type": "bool"
        }
      ],
      "stateMutability": "nonpayable",
      "type": "function"
    },
    {
      "inputs": [
        {
          "internalType": "address",
          "name": "from",
          "type": "address"
        },
        {
          "internalType": "address",
          "name": "to",
          "type": "address"
        },
        {
          "internalType": "uint256",
          "name": "value",
          "type": "uint256"
        }
      ],
      "name": "transferFrom",
      "outputs": [
        {
          "internalType": "bool",
          "name": "",
          "type": "bool"
        }
      ],
      "stateMutability": "nonpayable",
      "type": "function"
    },
    {
      "inputs": [
        {
          "internalType": "address",
          "name": "newOwner",
          "type": "address"
        }
      ],
      "name": "transferOwnership",
      "outputs": [],
      "stateMutability": "nonpayable",
      "type": "function"
    },
    {
      "inputs": [
        {
          "internalType": "uint256",
          "name": "amount",
          "type": "uint256"
        }
      ],
      "name": "unstake",
      "outputs": [],
      "stateMutability": "nonpayable",
      "type": "function"
    },
    {
      "inputs": [],
      "name": "updateExchangeRate",
      "outputs": [],
      "stateMutability": "nonpayable",
      "type": "function"
    },
    {
      "stateMutability": "payable",
      "type": "receive"
    }
  ],
  "bytecode": "0x60803462000382576001600160401b03906040908082018381118282101762000283578252600981526020906809adec6d640da8aa8960bb1b828201528251938385018581108282111762000283578452600594858152640da9a8aa8960db1b84820152825182811162000283576003918254916001958684811c9416801562000377575b8885101462000361578190601f948581116200030c575b508890858311600114620002a55760009262000299575b505060001982861b1c191690861b1783555b8051938411620002835760049586548681811c9116801562000278575b8282101462000263578381116200021a575b5080928511600114620001ac5750938394918492600095620001a0575b50501b92600019911b1c19161781555b33156200018a57508154336001600160a01b031982168117909355905191906001600160a01b03167f8be0079c531659141344cd1fd0a4f28419497f9722a3daafe3b4186f6b6457e0600080a3670de0b6b3a764000060065542600755610dc79081620003888239f35b60006024925191631e4fbdf760e01b8352820152fd5b01519350388062000110565b92919084601f1981168860005285600020956000905b89838310620001ff5750505010620001e4575b50505050811b01815562000120565b01519060f884600019921b161c1916905538808080620001d5565b858701518955909701969485019488935090810190620001c2565b8760005281600020848088018c1c82019284891062000259575b018b1c019087905b8281106200024c575050620000f3565b600081550187906200023c565b9250819262000234565b602288634e487b7160e01b6000525260246000fd5b90607f1690620000e1565b634e487b7160e01b600052604160045260246000fd5b015190503880620000b2565b90889350601f19831691876000528a6000209260005b8c828210620002f55750508411620002dc575b505050811b018355620000c4565b015160001983881b60f8161c19169055388080620002ce565b8385015186558c97909501949384019301620002bb565b9091508560005288600020858085018d1c8201928b861062000357575b918d8b928796959401901c01915b828110620003475750506200009b565b600081558594508a910162000337565b9250819262000329565b634e487b7160e01b600052602260045260246000fd5b93607f169362000084565b600080fdfe60406080815260049081361015610020575b5050361561001e57600080fd5b005b600091823560e01c90816302ce728f14610b0157816306fdde0314610a0c578163095ea7b31461096257816314bcec9f1461094357816318160ddd1461092457816323b872dd146108305781632e17de7814610609578163313ce567146105ed5781633a4b66f1146104b85781633ba0b9a9146104995781635890c11c1461046457816370a082311461042d578163715018a6146103cd5781638da5cb5b146103a457816395d89b41146102a1578163a9059cbb14610270578163d2cbf7ad14610253578163dd62ed3e1461020a578163e1a45218146101ed578163e6a69ab8146101ce578163f2fde38b1461013a575063f30bae8e036100115734610136578160031936011261013657602090516101f48152f35b5080fd5b9050346101ca5760203660031901126101ca57610155610b66565b9061015e610b97565b6001600160a01b039182169283156101b4575050600554826bffffffffffffffffffffffff60a01b821617600555167f8be0079c531659141344cd1fd0a4f28419497f9722a3daafe3b4186f6b6457e08380a380f35b51631e4fbdf760e01b8152908101849052602490fd5b8280fd5b505034610136578160031936011261013657602090516301e133808152f35b505034610136578160031936011261013657602090516127108152f35b50503461013657806003193601126101365780602092610228610b66565b610230610b81565b6001600160a01b0391821683526001865283832091168252845220549051908152f35b505034610136578160031936011261013657602090516101f48152f35b50503461013657806003193601126101365760209061029a610290610b66565b6024359033610bfb565b5160018152f35b838334610136578160031936011261013657805191809380549160019083821c9282851694851561039a575b602095868610811461038757858952908115610363575060011461030b575b61030787876102fd828c0383610bc3565b5191829182610b1d565b0390f35b81529295507f8a35acfbc15ff81a39ae7d344fd709f28e8600b4aa8c65c6b64bfe7fe36bd19b5b8284106103505750505082610307946102fd928201019486806102ec565b8054868501880152928601928101610332565b60ff19168887015250505050151560051b83010192506102fd8261030786806102ec565b634e487b7160e01b845260228352602484fd5b93607f16936102cd565b50503461013657816003193601126101365760055490516001600160a01b039091168152602090f35b833461042a578060031936011261042a576103e6610b97565b600580546001600160a01b0319811690915581906001600160a01b03167f8be0079c531659141344cd1fd0a4f28419497f9722a3daafe3b4186f6b6457e08280a380f35b80fd5b5050346101365760203660031901126101365760209181906001600160a01b03610455610b66565b16815280845220549051908152f35b82843461042a57602036600319011261042a5750670de0b6b3a76400006104916020936006549035610cfc565b049051908152f35b5050346101365781600319360112610136576020906006549051908152f35b9050828060031936011261042a5734156105b9576104d4610d0f565b670de0b6b3a764000080340290348204036105a657600654908115610593570491331561057e57509160209261050c83600254610cd9565b6002553381528084528181208381540190558151908382527fddf252ad1be2c89b69c2b068fc378daa952ba7f163c4a11628f55a4df523b3ef853393a3805134815282848201527f1449c6dd7851abc30abf37f57715f492010519147cc2652fbc38202c18a6ee90823392a251908152f35b60249184519163ec442f0560e01b8352820152fd5b634e487b7160e01b835260128452602483fd5b506011602492634e487b7160e01b835252fd5b506020606492519162461bcd60e51b8352820152600e60248201526d09aeae6e840e6e8c2d6ca408aa8960931b6044820152fd5b5050346101365781600319360112610136576020905160128152f35b8391503461013657602092836003193601126101ca578135913384528385528282852054106107fb5761063a610d0f565b670de0b6b3a764000061064f60065485610cfc565b04908147106107b85733156107a15733855284865282852054848110610775578490338752868852038386205583600254036002558483518581527fddf252ad1be2c89b69c2b068fc378daa952ba7f163c4a11628f55a4df523b3ef883392a38480808085335af13d15610770573d67ffffffffffffffff811161075d578451906106e3601f8201601f19168a0183610bc3565b815286883d92013e5b1561072457507f7fc4727e062e336010f2c282598ef5f14facb3de68cf8195c2f23e1454b2b74e92939482519485528401523392a280f35b825162461bcd60e51b81529081018690526013602482015272115512081d1c985b9cd9995c8819985a5b1959606a1b6044820152606490fd5b634e487b7160e01b875260418352602487fd5b6106ec565b835163391434e360e21b8152339281019283526020830191909152604082018590529081906060010390fd5b8251634b637e8f60e11b8152908101859052602490fd5b825162461bcd60e51b8152908101869052601c60248201527f496e73756666696369656e742045544820696e20636f6e7472616374000000006044820152606490fd5b84606492519162461bcd60e51b83528201526011602482015270092dce6eaccccd2c6d2cadce840da8aa89607b1b6044820152fd5b9050823461042a57606036600319011261042a5761084c610b66565b610854610b81565b916044359360018060a01b038316808352600160205286832033845260205286832054916000198310610890575b60208861029a898989610bfb565b8683106108f85781156108e15733156108ca5750825260016020908152868320338452815291869020908590039055829061029a87610882565b8751634a1406b160e11b8152908101849052602490fd5b875163e602df0560e01b8152908101849052602490fd5b8751637dc7a0d960e11b8152339181019182526020820193909352604081018790528291506060010390fd5b5050346101365781600319360112610136576020906002549051908152f35b5050346101365781600319360112610136576020906007549051908152f35b9050346101ca57816003193601126101ca5761097c610b66565b6024359033156109f5576001600160a01b03169182156109de57508083602095338152600187528181208582528752205582519081527f8c5be1e5ebec7d5bd14f71427d1e84f3dd0314c0f7b2291e5b200ac8c7c3b925843392a35160018152f35b8351634a1406b160e11b8152908101859052602490fd5b835163e602df0560e01b8152808401869052602490fd5b919050346101ca57826003193601126101ca57805191836003549060019082821c928281168015610af7575b6020958686108214610ae45750848852908115610ac25750600114610a69575b61030786866102fd828b0383610bc3565b929550600383527fc2575a0e9e593c00f959f8c92f12db2869c3395a3b0502d05e2516446f71f85b5b828410610aaf5750505082610307946102fd928201019438610a58565b8054868501880152928601928101610a92565b60ff191687860152505050151560051b83010192506102fd8261030738610a58565b634e487b7160e01b845260229052602483fd5b93607f1693610a38565b833461042a578060031936011261042a57610b1a610d0f565b80f35b6020808252825181830181905290939260005b828110610b5257505060409293506000838284010152601f8019910116010190565b818101860151848201604001528501610b30565b600435906001600160a01b0382168203610b7c57565b600080fd5b602435906001600160a01b0382168203610b7c57565b6005546001600160a01b03163303610bab57565b60405163118cdaa760e01b8152336004820152602490fd5b90601f8019910116810190811067ffffffffffffffff821117610be557604052565b634e487b7160e01b600052604160045260246000fd5b916001600160a01b03808416928315610cc05716928315610ca75760009083825281602052604082205490838210610c75575091604082827fddf252ad1be2c89b69c2b068fc378daa952ba7f163c4a11628f55a4df523b3ef958760209652828652038282205586815220818154019055604051908152a3565b60405163391434e360e21b81526001600160a01b03919091166004820152602481019190915260448101839052606490fd5b60405163ec442f0560e01b815260006004820152602490fd5b604051634b637e8f60e11b815260006004820152602490fd5b91908201809211610ce657565b634e487b7160e01b600052601160045260246000fd5b81810292918115918404141715610ce657565b60075480420390428211610ce6574214610d8e57600654906101f4808302908382041483151715610ce6577fc8d1043f24843c0a1c9251fdc30017d84e87498fbcf232af9f86816b5e182bde9264496cebb800610d71604094610d7894610cfc565b0490610cd9565b80600655426007558151908152426020820152a1565b5056fea2646970667358221220be0204221be7cc4dbb020f7cf51340c9b3384ac41384c2486926764feb09b0d664736f6c63430008140033",
  "linkReferences": {},
  "deployedLinkReferences": {}
}