{
  "_format": "hh-sol-artifact-1",
  "contractName": "MockMethStaking",
  "sourceName": "contracts/src/mocks/MockMeth.sol",
  "abi": [
    {
      "inputs": [
        {
          "internalType": "address",
          "name": "_meth",
          "type": "address"
        }
      ],
      "stateMutability": "nonpayable",
      "type": "constructor"
    },
    {
      "inputs": [],
      "name": "getAPY",
      "outputs": [
        {
          "internalType": "uint256",
          "name": "",
          "type": "uint256"
        }
      ],
      "stateMutability": "pure",
      "type": "function"
    },
    {
      "inputs": [
        {
          "internalType": "uint256",
          "name": "mETHAmount",
          "type": "uint256"
        }
      ],
      "name": "mETHToETH",
      "outputs": [
        {
          "internalType": "uint256",
          "name": "",
          "type": "uint256"
        }
      ],
      "stateMutability": "view",
      "type": "function"
    },
    {
      "inputs": [],
      "name": "meth",
      "outputs": [
        {
          "internalType": "contract MockMeth",
          "name": "",
          "type": "address"
        }
      ],
      "stateMutability": "view",
      "type": "function"
    },
    {
      "inputs": [],
      "name": "stake",
      "outputs": [
        {
          "internalType": "uint256",
          "name": "",
          "type": "uint256"
        }
      ],
      "stateMutability": "payable",
      "type": "function"
    },
    {
      "inputs": [
        {
          "internalType": "uint256",
          "name": "amount",
          "type": "uint256"
        }
      ],
      "name": "unstake",
      "outputs": [],
      "stateMutability": "nonpayable",
      "type": "function"
    },
    {
      "stateMutability": "payable",
      "type": "receive"
    }
  ],
  "bytecode": "0x60803461007457601f61049438819003918201601f19168301916001600160401b038311848410176100795780849260209460405283398101031261007457516001600160a01b0381169081900361007457600080546001600160a01b03191691909117905560405161040490816100908239f35b600080fd5b634e487b7160e01b600052604160045260246000fdfe6080604081815260049182361015610022575b505050361561002057600080fd5b005b600092833560e01c9182632e17de78146101ce575081633a4b66f1146101475781633c9b1f5b1461011f5781635890c11c14610088575063d2cbf7ad146100695780610012565b34610084578160031936011261008457602090516101f48152f35b5080fd5b838334610084576020928360031936011261011b5782548251631624304760e21b81528235928101929092528490829060249082906001600160a01b03165afa92831561011057926100dc575b5051908152f35b9091508281813d8311610109575b6100f48183610356565b81010312610104575190836100d5565b600080fd5b503d6100ea565b8251903d90823e3d90fd5b8280fd5b505034610084578160031936011261008457905490516001600160a01b039091168152602090f35b8383816003193601126100845781548151633a4b66f160e01b815293602091859190829034906001600160a01b03165af19182156101c3579161018f575b6020925051908152f35b90506020823d82116101bb575b816101a960209383610356565b81010312610104576020915190610185565b3d915061019c565b9051903d90823e3d90fd5b915091346103075760203660031901126103075783546323b872dd60e01b6020840190815233602480860191909152306044860152853560648087018290528652909467ffffffffffffffff9391926001600160a01b039283169160a081018681118282101761034457875251899283929083905af161024c61038e565b501561030b5790869291835416803b1561030757858492865195869384926305c2fbcf60e31b84528b8401525af180156102fd576102d9575b50508380808047335af161029761038e565b50156102a1578380f35b606492916020601392519362461bcd60e51b855284015282015272115512081d1c985b9cd9995c8819985a5b1959606a1b6044820152fd5b81959295116102ec578452923880610285565b50634e487b7160e01b815260418352fd5b83513d88823e3d90fd5b8380fd5b835162461bcd60e51b8152602081880152601481870152731b515512081d1c985b9cd9995c8819985a5b195960621b6044820152606490fd5b634e487b7160e01b8b5260418a52888bfd5b90601f8019910116810190811067ffffffffffffffff82111761037857604052565b634e487b7160e01b600052604160045260246000fd5b3d156103c9573d9067ffffffffffffffff821161037857604051916103bd601f8201601f191660200184610356565b82523d6000602084013e565b60609056fea26469706673582212201d96f9992a325c2e01388d819afeaca07045406e080498af01fa40124a4fc63a64736f6c63430008140033",
  "linkReferences": {},
  "deployedLinkReferences": {}
}