{"contracts/src/SweepKeeper.sol":{"SweepKeeper":{"abi":[{"inputs":[{"internalType":"uint256","name":"_minimumSpendableBalance","type":"uint256"}],"stateMutability":"nonpayable","type":"constructor"},{"inputs":[],"name":"AlreadyAuthorized","type":"error"},{"inputs":[],"name":"ContractPaused","type":"error"},{"inputs":[],"name":"EnforcedPause","type":"error"},{"inputs":[],"name":"ExpectedPause","type":"error"},{"inputs":[],"name":"InsufficientBalance","type":"error"},{"inputs":[],"name":"InvalidBucketAddress","type":"error"},{"inputs":[],"name":"InvalidMinimumBalance","type":"error"},{"inputs":[],"name":"NotAuthorized","type":"error"},{"inputs":[],"name":"NotAuthorizedYet","type":"error"},{"inputs":[],"name":"NotMonthEnd","type":"error"},{"inputs":[{"internalType":"address","name":"owner","type":"address"}],"name":"OwnableInvalidOwner","type":"error"},{"inputs":[{"internalType":"address","name":"account","type":"address"}],"name":"OwnableUnauthorizedAccount","type":"error"},{"inputs":[],"name":"ReentrancyGuardReentrantCall","type":"error"},{"inputs":[],"name":"TransferFailed","type":"error"},{"anonymous":false,"inputs":[{"indexed":true,"internalType":"address","name":"user","type":"address"},{"indexed":false,"internalType":"bool","name":"authorized","type":"bool"}],"name":"AuthorizationChanged","type":"event"},{"anonymous":false,"inputs":[{"indexed":false,"internalType":"address","name":"bills","type":"address"},{"indexed":false,"internalType":"address","name":"savings","type":"address"},{"indexed":false,"internalType":"address","name":"growth","type":"address"},{"indexed":false,"internalType":"address","name":"spendable","type":"address"}],"name":"BucketAddressesUpdated","type":"event"},{"anonymous":false,"inputs":[{"indexed":false,"internalType":"uint256","name":"newMinimum","type":"uint256"}],"name":"GlobalMinimumBalanceUpdated","type":"event"},{"anonymous":false,"inputs":[{"indexed":false,"internalType":"uint256","name":"newMinimum","type":"uint256"}],"name":"MinimumBalanceUpdated","type":"event"},{"anonymous":false,"inputs":[{"indexed":true,"internalType":"address","name":"previousOwner","type":"address"},{"indexed":true,"internalType":"address","name":"newOwner","type":"address"}],"name":"OwnershipTransferred","type":"event"},{"anonymous":false,"inputs":[{"indexed":false,"internalType":"address","name":"account","type":"address"}],"name":"Paused","type":"event"},{"anonymous":false,"inputs":[{"indexed":true,"internalType":"address","name":"user","type":"address"},{"indexed":false,"internalType":"uint256","name":"amount","type":"uint256"},{"indexed":true,"internalType":"address","name":"fromBucket","type":"address"},{"indexed":true,"internalType":"address","name":"toBucket","type":"address"},{"indexed":false,"internalType":"uint256","name":"expectedYield","type":"uint256"},{"indexed":false,"internalType":"uint256","name":"timestamp","type":"uint256"}],"name":"SweepExecuted","type":"event"},{"anonymous":false,"inputs":[{"indexed":false,"internalType":"address","name":"account","type":"address"}],"name":"Unpaused","type":"event"},{"anonymous":false,"inputs":[{"indexed":true,"internalType":"address","name":"user","type":"address"},{"indexed":false,"internalType":"uint256","name":"newMinimum","type":"uint256"}],"name":"UserMinimumBalanceUpdated","type":"event"},{"inputs":[],"name":"authorizeAutoSweep","outputs":[],"stateMutability":"nonpayable","type":"function"},{"inputs":[],"name":"billsBucket","outputs":[{"internalType":"address","name":"","type":"address"}],"stateMutability":"view","type":"function"},{"inputs":[{"internalType":"address","name":"user","type":"address"}],"name":"checker","outputs":[{"internalType":"bool","name":"canExec","type":"bool"},{"internalType":"bytes","name":"execPayload","type":"bytes"}],"stateMutability":"view","type":"function"},{"inputs":[{"internalType":"address","name":"user","type":"address"}],"name":"executeSweep","outputs":[],"stateMutability":"nonpayable","type":"function"},{"inputs":[],"name":"getDayOfMonth","outputs":[{"internalType":"uint256","name":"","type":"uint256"}],"stateMutability":"view","type":"function"},{"inputs":[],"name":"getDaysInMonth","outputs":[{"internalType":"uint256","name":"","type":"uint256"}],"stateMutability":"view","type":"function"},{"inputs":[],"name":"getHighestYieldBucket","outputs":[{"internalType":"address","name":"","type":"address"},{"internalType":"uint256","name":"","type":"uint256"}],"stateMutability":"view","type":"function"},{"inputs":[{"internalType":"address","name":"user","type":"address"}],"name":"getLastSweepTimestamp","outputs":[{"internalType":"uint256","name":"","type":"uint256"}],"stateMutability":"view","type":"function"},{"inputs":[],"name":"getMonth","outputs":[{"internalType":"uint256","name":"","type":"uint256"}],"stateMutability":"view","type":"function"},{"inputs":[{"internalType":"address","name":"user","type":"address"}],"name":"getSweepableAmount","outputs":[{"internalType":"uint256","name":"","type":"uint256"}],"stateMutability":"view","type":"function"},{"inputs":[],"name":"getTimeUntilNextSweep","outputs":[{"internalType":"uint256","name":"","type":"uint256"}],"stateMutability":"view","type":"function"},{"inputs":[{"internalType":"address","name":"user","type":"address"}],"name":"getUserMinimumBalance","outputs":[{"internalType":"uint256","name":"","type":"uint256"}],"stateMutability":"view","type":"function"},{"inputs":[],"name":"getYear","outputs":[{"internalType":"uint256","name":"","type":"uint256"}],"stateMutability":"view","type":"function"},{"inputs":[],"name":"globalMinimumBalance","outputs":[{"internalType":"uint256","name":"","type":"uint256"}],"stateMutability":"view","type":"function"},{"inputs":[],"name":"growthBucket","outputs":[{"internalType":"address","name":"","type":"address"}],"stateMutability":"view","type":"function"},{"inputs":[{"internalType":"address","name":"user","type":"address"}],"name":"isAuthorized","outputs":[{"internalType":"bool","name":"","type":"bool"}],"stateMutability":"view","type":"function"},{"inputs":[],"name":"isMonthEnd","outputs":[{"internalType":"bool","name":"","type":"bool"}],"stateMutability":"view","type":"function"},{"inputs":[],"name":"isPaused","outputs":[{"internalType":"bool","name":"","type":"bool"}],"stateMutability":"view","type":"function"},{"inputs":[],"name":"lastSweepTimestamp","outputs":[{"internalType":"uint256","name":"","type":"uint256"}],"stateMutability":"view","type":"function"},{"inputs":[],"name":"minimumSpendableBalance","outputs":[{"internalType":"uint256","name":"","type":"uint256"}],"stateMutability":"view","type":"function"},{"inputs":[],"name":"owner","outputs":[{"internalType":"address","name":"","type":"address"}],"stateMutability":"view","type":"function"},{"inputs":[],"name":"pause","outputs":[],"stateMutability":"nonpayable","type":"function"},{"inputs":[],"name":"paused","outputs":[{"internalType":"bool","name":"","type":"bool"}],"stateMutability":"view","type":"function"},{"inputs":[],"name":"renounceOwnership","outputs":[],"stateMutability":"nonpayable","type":"function"},{"inputs":[],"name":"revokeAutoSweep","outputs":[],"stateMutability":"nonpayable","type":"function"},{"inputs":[],"name":"savingsBucket","outputs":[{"internalType":"address","name":"","type":"address"}],"stateMutability":"view","type":"function"},{"inputs":[{"internalType":"address","name":"_bills","type":"address"},{"internalType":"address","name":"_savings","type":"address"},{"internalType":"address","name":"_growth","type":"address"},{"internalType":"address","name":"_spendable","type":"address"}],"name":"setBucketAddresses","outputs":[],"stateMutability":"nonpayable","type":"function"},{"inputs":[{"internalType":"uint256","name":"minimum","type":"uint256"}],"name":"setGlobalMinimumBalance","outputs":[],"stateMutability":"nonpayable","type":"function"},{"inputs":[{"internalType":"uint256","name":"_minimum","type":"uint256"}],"name":"setMinimumBalance","outputs":[],"stateMutability":"nonpayable","type":"function"},{"inputs":[{"internalType":"uint256","name":"minimum","type":"uint256"}],"name":"setUserMinimumBalance","outputs":[],"stateMutability":"nonpayable","type":"function"},{"inputs":[],"name":"spendableBucket","outputs":[{"internalType":"address","name":"","type":"address"}],"stateMutability":"view","type":"function"},{"inputs":[{"internalType":"address","name":"newOwner","type":"address"}],"name":"transferOwnership","outputs":[],"stateMutability":"nonpayable","type":"function"},{"inputs":[],"name":"unpause","outputs":[],"stateMutability":"nonpayable","type":"function"}],"evm":{"bytecode":{"linkReferences":{},"object":"6080346100c257601f61153c38819003918201601f19168301916001600160401b038311848410176100c7578084926020946040528339810103126100c2575133156100a95760008054336001600160a01b0319821681178355604051939290916001600160a01b0316907f8be0079c531659141344cd1fd0a4f28419497f9722a3daafe3b4186f6b6457e09080a3600180558060065560075542600c5561145e90816100de8239f35b604051631e4fbdf760e01b815260006004820152602490fd5b600080fd5b634e487b7160e01b600052604160045260246000fdfe6040608081526004908136101561001557600080fd5b600091823560e01c908163016c683c14610d2a578163045a835514610d0157816314a094a714610cdb57816319d4ad8014610cbc5781631d8f789214610c905781632a1b754614610c4d5781633446e4b414610bfb57816339b6218c14610b9a5781633f4ba83a14610b305781635c975abb146108cd5781635ef462b514610af85781636787a78e14610ad2578163715018a614610a7857816379217cb014610a0057816379ae525a146109da57816384245101146109bc5781638456cb59146109615781638d2abb34146109385781638da5cb5b146109105781639b04cd1c146108f1578163b187bd26146108cd578163b5761420146108a1578163b76c81a214610825578163beb34d1a146107fc578163c0e94a60146107dd578163cbfe0fa8146107b9578163e36ad4411461069c578163eb8bdf7e14610673578163f0e3a2ed146105fe578163f2fde38b14610577578163f6dfc2f1146101f957508063fd08921b146101ce5763fe9fbb801461018e57600080fd5b346101ca5760203660031901126101ca5760209160ff9082906001600160a01b036101b7610da1565b1681526003855220541690519015158152f35b5080fd5b50346101ca57816003193601126101ca576020906101f0620151804204610e39565b50509051908152f35b919050346105735760208060031936011261056f57610216610da1565b9060026001541461056057600260015561022e610e1b565b6008546001600160a01b0393908416158015610554575b8015610548575b801561053c575b61052d57838316928387526003835260ff82882054161561051d57610276610f9f565b1561050d5761028490611184565b9182156104fd5761029361101f565b959086850296858804036104ea5742600c55858952600d835242848a205581600b5416838660648b8d89519586948593632d182be560e21b85528401523060248401528c60448401525af1908115610424578a916104bd575b50156104ad57878383600b54168651928380926338d52e0f60e01b82525afa8a81156104a25785918482878e8c959461045b575b8b5163095ea7b360e01b81526001600160a01b039094169084019081526020810195909552919550859384929083906040015b0393165af18015610424579083929161042e575b5016968351636e553f6560e01b8152858282015286602482015283816044818d8d5af1908115610424578a916103f3575b50156103e55750917fee6c71311e14f2eb7b50ab01cdf6f14ac51b0c7dc6b056bb190804e51c69db739391612710606094600b541697835194855204908301524290820152a46001805580f35b83516312171d8360e31b8152fd5b90508381813d831161041d575b61040a8183610ffd565b81010312610419575138610398565b8980fd5b503d610400565b85513d8c823e3d90fd5b61044d90853d8711610454575b6104458183610ffd565b810190611226565b5038610367565b503d61043b565b50505050505081813d831161049b575b6104758183610ffd565b81010312610419575189838216820361049857868a848793876103539693610320565b80fd5b503d61046b565b8651903d90823e3d90fd5b83516312171d8360e31b81528890fd5b90508381813d83116104e3575b6104d48183610ffd565b810103126104195751386102ec565b503d6104ca565b634e487b7160e01b895260118852602489fd5b8151631e9acf1760e31b81528690fd5b815163ea188f7360e01b81528690fd5b815163ea8e4eb560e01b81528690fd5b5163599238df60e11b81528490fd5b5083600b541615610253565b5083600a54161561024c565b50836009541615610245565b505051633ee5aeb560e01b8152fd5b8380fd5b8280fd5b90503461057357602036600319011261057357610592610da1565b9061059b610dbc565b6001600160a01b039182169283156105e857505082546001600160a01b0319811683178455167f8be0079c531659141344cd1fd0a4f28419497f9722a3daafe3b4186f6b6457e08380a380f35b51631e4fbdf760e01b8152908101849052602490fd5b905034610573578260031936011261057357338352600360205260ff8284205416156106655750338252600360205280822060ff198154169055518181527f5fe3a0cb9aeae856eac34445ace9544f3e15c21fa6f9bffeca60d662a690ca1b60203392a280f35b90516304f2d24d60e01b8152fd5b5050346101ca57816003193601126101ca57600b5490516001600160a01b039091168152602090f35b91905034610573576080366003190112610573576106b8610da1565b906001600160a01b0390602435828116908190036107b557604435928084168094036107b157606435948186168096036107ad576106f4610dbc565b1694851580156107a5575b801561079d575b8015610795575b61078757509183917f20d4d74805f9e8a0851357233a6a6b9e3e62b6a78386bc8427057640b9c0a2db95936080956bffffffffffffffffffffffff60a01b86816008541617600855828160095416176009558481600a541617600a55600b541617600b55815194855260208501528301526060820152a180f35b825163599238df60e11b8152fd5b50841561070d565b508315610706565b5081156106ff565b8780fd5b8680fd5b8580fd5b5050346101ca57816003193601126101ca576020906107d66113d3565b9051908152f35b5050346101ca57816003193601126101ca576020906007549051908152f35b5050346101ca57816003193601126101ca5760085490516001600160a01b039091168152602090f35b919050346105735760203660031901126105735781359164e8d4a5100083116108935733845260205281818420556005602052808320600160ff19825416179055519081527f6869591b96ab03c56c1c5de17a753bbd17cad8de120c296022b8b8a9523d74b360203392a280f35b905163117d61cd60e21b8152fd5b5050346101ca57816003193601126101ca576020906108c4620151804204610e39565b92519283525050f35b5050346101ca57816003193601126101ca5760209060ff6002541690519015158152f35b5050346101ca57816003193601126101ca576020906006549051908152f35b5050346101ca57816003193601126101ca57905490516001600160a01b039091168152602090f35b5050346101ca57816003193601126101ca5760095490516001600160a01b039091168152602090f35b5050346101ca57816003193601126101ca5760207f62e78cea01bee320cd4e420270b5ea74000d11b0c9f74754ebdbfc544b05a2589161099f610dbc565b6109a7610e1b565b600160ff19600254161760025551338152a180f35b5050346101ca57816003193601126101ca576020906107d642610ea5565b5050346101ca5760203660031901126101ca576020906107d66109fb610da1565b611184565b905034610573578260031936011261057357338352600360205260ff8284205416610a6a57503382526003602052808220600160ff1982541617905551600181527f5fe3a0cb9aeae856eac34445ace9544f3e15c21fa6f9bffeca60d662a690ca1b60203392a280f35b9051633013e93f60e11b8152fd5b8334610498578060031936011261049857610a91610dbc565b80546001600160a01b03198116825581906001600160a01b03167f8be0079c531659141344cd1fd0a4f28419497f9722a3daafe3b4186f6b6457e08280a380f35b5050346101ca5760203660031901126101ca576020906107d6610af3610da1565b610de8565b5050346101ca5760203660031901126101ca5760209181906001600160a01b03610b20610da1565b168152600d845220549051908152f35b905034610573578260031936011261057357610b4a610dbc565b6002549060ff821615610b8c575060ff1916600255513381527f5db9ee0a495bf2e6ff9c91a7834c1ba4fdd244a5e8aa4e537bd38aeae4b073aa90602090a180f35b8251638dfc202b60e01b8152fd5b9190503461057357602036600319011261057357813591610bb9610dbc565b64e8d4a5100083116108935750816020917f87eea5962582a03ea93af9b32f7f4d7dba2011c2985761b85af4c47cdc7c0761936006558160075551908152a180f35b905034610573576020366003190112610573577f4de6d6194ab654009cd34ba95a217ef6c812e4587917905252160d43d5e82fb2916020913590610c3d610dbc565b816007558160065551908152a180f35b5050346101ca57816003193601126101ca57610c8c90610c6b61101f565b91516001600160a01b03909116815260208101919091529081906040820190565b0390f35b5050346101ca57816003193601126101ca57602090610cb3620151804204610e39565b50915191825250f35b5050346101ca57816003193601126101ca57602090600c549051908152f35b5050346101ca57816003193601126101ca57602090610cf8610f9f565b90519015158152f35b5050346101ca57816003193601126101ca57600a5490516001600160a01b039091168152602090f35b5050346101ca576020918260031936011261049857610d4f610d4a610da1565b61123e565b929091815194859315158452828185015284518093850152815b838110610d8a57505060608094508284010152601f80199101168101030190f35b808601820151878201606001528694508101610d69565b600435906001600160a01b0382168203610db757565b600080fd5b6000546001600160a01b03163303610dd057565b60405163118cdaa760e01b8152336004820152602490fd5b6001600160a01b031660009081526005602052604090205460ff16610e0d5760065490565b600460205260406000205490565b60ff60025416610e2757565b60405163d93c066560e01b8152600490fd5b62023ab190600460038362264965840160021b05809402010590039162164b09622649668401610fa00205926004846105b5020590039161098f926050622649849260028685850184020591600b830598899160301901606402010197600c0282030195020590030190565b62015180610eb39104610e39565b50600090600181148015610f72575b8015610f68575b8015610f5e575b8015610f54575b8015610f4a575b8015610f40575b15610ef357505050601f5b90565b600214610f01575050601e90565b60038216159182610f33575b8215610f25575b505015610f2057601d90565b601c90565b610190900615915038610f14565b6064810615159250610f0d565b50600c8114610ee5565b50600a8114610ede565b5060088114610ed7565b5060078114610ed0565b5060058114610ec9565b5060038114610ec2565b91908203918211610f8957565b634e487b7160e01b600052601160045260246000fd5b610fad620151804204610e39565b915050610fb942610ea5565b600119810191908211610f8957101590565b6020810190811067ffffffffffffffff821117610fe757604052565b634e487b7160e01b600052604160045260246000fd5b90601f8019910116810190811067ffffffffffffffff821117610fe757604052565b6008546040805163f100989960e01b8082529093929091906020906001600160a01b039081168287600481845afa9687156111795760009761114a575b5081600954169484519281845284846004818a5afa93841561113f57600094611110575b50600a54169385519182528082600481885afa95861561110657506000956110d5575b5050938682116110c9575b50508482116110be575b50509190565b9150925038806110b8565b909550925038806110ae565b8181969293963d83116110ff575b6110ed8183610ffd565b810103126104985750519238806110a3565b503d6110e3565b513d6000823e3d90fd5b90938582813d8311611138575b6111278183610ffd565b810103126104985750519238611080565b503d61111d565b86513d6000823e3d90fd5b90968382813d8311611172575b6111618183610ffd565b81010312610498575051953861105c565b503d611157565b84513d6000823e3d90fd5b600b546040516370a0823160e01b81526001600160a01b03838116600483015290929160209184916024918391165afa91821561121a576000926111e5575b506111cd90610de8565b808211156111de57610ef091610f7c565b5050600090565b90916020823d8211611212575b816111ff60209383610ffd565b81010312610498575051906111cd6111c3565b3d91506111f2565b6040513d6000823e3d90fd5b90816020910312610db757518015158103610db75790565b9060ff600254166113bb576001600160a01b03918216600081815260036020908152604080832054929590939260ff16156113ad57600b5416156113815782516314a094a760e01b81528181600481305afa86918161138e575b506112b25750505051916112ab83610fcb565b8083529190565b15611381578251633cd7292d60e11b8152600481018390528181602481305afa869181611352575b506112ed5750505051916112ab83610fcb565b949194929092156113445760019481519363f6dfc2f160e01b90850152602484015260248352606083019183831067ffffffffffffffff84111761133057505290565b634e487b7160e01b81526041600452602490fd5b51935090506112ab83610fcb565b9091508281813d831161137a575b61136a8183610ffd565b810103126107b1575190386112da565b503d611360565b505051916112ab83610fcb565b6113a6919250833d8511610454576104458183610ffd565b9038611298565b50505051916112ab83610fcb565b60405191506113c982610fcb565b6000825260009190565b6113db610f9f565b61142357620151806113ee814204610e39565b9150506113fa42610ea5565b600119810191908211610f895761141091610f7c565b818102918183041490151715610f895790565b60009056fea2646970667358221220865b5ad9bdc2231c38bb214ba65519ddf530ce9b67f138b8f7a9f42a7d4408b064736f6c63430008140033","opcodes":"PUSH1 0x80 CALLVALUE PUSH2 0xC2 JUMPI PUSH1 0x1F PUSH2 0x153C CODESIZE DUP2 SWAP1 SUB SWAP2 DUP3 ADD PUSH1 0x1F NOT AND DUP4 ADD SWAP2 PUSH1 0x1 PUSH1 0x1 PUSH1 0x40 SHL SUB DUP4 GT DUP5 DUP5 LT OR PUSH2 0xC7 JUMPI DUP1 DUP5 SWAP3 PUSH1 0x20 SWAP5 PUSH1 0x40 MSTORE DUP4 CODECOPY DUP2 ADD SUB SLT PUSH2 0xC2 JUMPI MLOAD CALLER ISZERO PUSH2 0xA9 JUMPI PUSH1 0x0 DUP1 SLOAD CALLER PUSH1 0x1 PUSH1 0x1 PUSH1 0xA0 SHL SUB NOT DUP3 AND DUP2 OR DUP4 SSTORE PUSH1 0x40 MLOAD SWAP4 SWAP3 SWAP1 SWAP2 PUSH1 0x1 PUSH1 0x1 PUSH1 0xA0 SHL SUB AND SWAP1 PUSH32 0x8BE0079C531659141344CD1FD0A4F28419497F9722A3DAAFE3B4186F6B6457E0 SWAP1 DUP1 LOG3 PUSH1 0x1 DUP1 SSTORE DUP1 PUSH1 0x6 SSTORE PUSH1 0x7 SSTORE TIMESTAMP PUSH1 0xC SSTORE PUSH2 0x145E SWAP1 DUP2 PUSH2 0xDE DUP3 CODECOPY RETURN JUMPDEST PUSH1 0x40 MLOAD PUSH4 0x1E4FBDF7 PUSH1 0xE0 SHL DUP2 MSTORE PUSH1 0x0 PUSH1 0x4 DUP3 ADD MSTORE PUSH1 0x24 SWAP1 REVERT JUMPDEST PUSH1 0x0 DUP1 REVERT JUMPDEST PUSH4 0x4E487B71 PUSH1 0xE0 SHL PUSH1 0x0 MSTORE PUSH1 0x41 PUSH1 0x4 MSTORE PUSH1 0x24 PUSH1 0x0 REVERT INVALID PUSH1 0x40 PUSH1 0x80 DUP2 MSTORE PUSH1 0x4 SWAP1 DUP2 CALLDATASIZE LT ISZERO PUSH2 0x15 JUMPI PUSH1 0x0 DUP1 REVERT JUMPDEST PUSH1 0x0 SWAP2 DUP3 CALLDATALOAD PUSH1 0xE0 SHR SWAP1 DUP2 PUSH4 0x16C683C EQ PUSH2 0xD2A JUMPI DUP2 PUSH4 0x45A8355 EQ PUSH2 0xD01 JUMPI DUP2 PUSH4 0x14A094A7 EQ PUSH2 0xCDB JUMPI DUP2 PUSH4 0x19D4AD80 EQ PUSH2 0xCBC JUMPI DUP2 PUSH4 0x1D8F7892 EQ PUSH2 0xC90 JUMPI DUP2 PUSH4 0x2A1B7546 EQ PUSH2 0xC4D JUMPI DUP2 PUSH4 0x3446E4B4 EQ PUSH2 0xBFB JUMPI DUP2 PUSH4 0x39B6218C EQ PUSH2 0xB9A JUMPI DUP2 PUSH4 0x3F4BA83A EQ PUSH2 0xB30 JUMPI DUP2 PUSH4 0x5C975ABB EQ PUSH2 0x8CD JUMPI DUP2 PUSH4 0x5EF462B5 EQ PUSH2 0xAF8 JUMPI DUP2 PUSH4 0x6787A78E EQ PUSH2 0xAD2 JUMPI DUP2 PUSH4 0x715018A6 EQ PUSH2 0xA78 JUMPI DUP2 PUSH4 0x79217CB0 EQ PUSH2 0xA00 JUMPI DUP2 PUSH4 0x79AE525A EQ PUSH2 0x9DA JUMPI DUP2 PUSH4 0x84245101 EQ PUSH2 0x9BC JUMPI DUP2 PUSH4 0x8456CB59 EQ PUSH2 0x961 JUMPI DUP2 PUSH4 0x8D2ABB34 EQ PUSH2 0x938 JUMPI DUP2 PUSH4 0x8DA5CB5B EQ PUSH2 0x910 JUMPI DUP2 PUSH4 0x9B04CD1C EQ PUSH2 0x8F1 JUMPI DUP2 PUSH4 0xB187BD26 EQ PUSH2 0x8CD JUMPI DUP2 PUSH4 0xB5761420 EQ PUSH2 0x8A1 JUMPI DUP2 PUSH4 0xB76C81A2 EQ PUSH2 0x825 JUMPI DUP2 PUSH4 0xBEB34D1A EQ PUSH2 0x7FC JUMPI DUP2 PUSH4 0xC0E94A60 EQ PUSH2 0x7DD JUMPI DUP2 PUSH4 0xCBFE0FA8 EQ PUSH2 0x7B9 JUMPI DUP2 PUSH4 0xE36AD441 EQ PUSH2 0x69C JUMPI DUP2 PUSH4 0xEB8BDF7E EQ PUSH2 0x673 JUMPI DUP2 PUSH4 0xF0E3A2ED EQ PUSH2 0x5FE JUMPI DUP2 PUSH4 0xF2FDE38B EQ PUSH2 0x577 JUMPI DUP2 PUSH4 0xF6DFC2F1 EQ PUSH2 0x1F9 JUMPI POP DUP1 PUSH4 0xFD08921B EQ PUSH2 0x1CE JUMPI PUSH4 0xFE9FBB80 EQ PUSH2 0x18E JUMPI PUSH1 0x0 DUP1 REVERT JUMPDEST CALLVALUE PUSH2 0x1CA JUMPI PUSH1 0x20 CALLDATASIZE PUSH1 0x3 NOT ADD SLT PUSH2 0x1CA JUMPI PUSH1 0x20 SWAP2 PUSH1 0xFF SWAP1 DUP3 SWAP1 PUSH1 0x1 PUSH1 0x1 PUSH1 0xA0 SHL SUB PUSH2 0x1B7 PUSH2 0xDA1 JUMP JUMPDEST AND DUP2 MSTORE PUSH1 0x3 DUP6 MSTORE KECCAK256 SLOAD AND SWAP1 MLOAD SWAP1 ISZERO ISZERO DUP2 MSTORE RETURN JUMPDEST POP DUP1 REVERT JUMPDEST POP CALLVALUE PUSH2 0x1CA JUMPI DUP2 PUSH1 0x3 NOT CALLDATASIZE ADD SLT PUSH2 0x1CA JUMPI PUSH1 0x20 SWAP1 PUSH2 0x1F0 PUSH3 0x15180 TIMESTAMP DIV PUSH2 0xE39 JUMP JUMPDEST POP POP SWAP1 MLOAD SWAP1 DUP2 MSTORE RETURN JUMPDEST SWAP2 SWAP1 POP CALLVALUE PUSH2 0x573 JUMPI PUSH1 0x20 DUP1 PUSH1 0x3 NOT CALLDATASIZE ADD SLT PUSH2 0x56F JUMPI PUSH2 0x216 PUSH2 0xDA1 JUMP JUMPDEST SWAP1 PUSH1 0x2 PUSH1 0x1 SLOAD EQ PUSH2 0x560 JUMPI PUSH1 0x2 PUSH1 0x1 SSTORE PUSH2 0x22E PUSH2 0xE1B JUMP JUMPDEST PUSH1 0x8 SLOAD PUSH1 0x1 PUSH1 0x1 PUSH1 0xA0 SHL SUB SWAP4 SWAP1 DUP5 AND ISZERO DUP1 ISZERO PUSH2 0x554 JUMPI JUMPDEST DUP1 ISZERO PUSH2 0x548 JUMPI JUMPDEST DUP1 ISZERO PUSH2 0x53C JUMPI JUMPDEST PUSH2 0x52D JUMPI DUP4 DUP4 AND SWAP3 DUP4 DUP8 MSTORE PUSH1 0x3 DUP4 MSTORE PUSH1 0xFF DUP3 DUP9 KECCAK256 SLOAD AND ISZERO PUSH2 0x51D JUMPI PUSH2 0x276 PUSH2 0xF9F JUMP JUMPDEST ISZERO PUSH2 0x50D JUMPI PUSH2 0x284 SWAP1 PUSH2 0x1184 JUMP JUMPDEST SWAP2 DUP3 ISZERO PUSH2 0x4FD JUMPI PUSH2 0x293 PUSH2 0x101F JUMP JUMPDEST SWAP6 SWAP1 DUP7 DUP6 MUL SWAP7 DUP6 DUP9 DIV SUB PUSH2 0x4EA JUMPI TIMESTAMP PUSH1 0xC SSTORE DUP6 DUP10 MSTORE PUSH1 0xD DUP4 MSTORE TIMESTAMP DUP5 DUP11 KECCAK256 SSTORE DUP2 PUSH1 0xB SLOAD AND DUP4 DUP7 PUSH1 0x64 DUP12 DUP14 DUP10 MLOAD SWAP6 DUP7 SWAP5 DUP6 SWAP4 PUSH4 0x2D182BE5 PUSH1 0xE2 SHL DUP6 MSTORE DUP5 ADD MSTORE ADDRESS PUSH1 0x24 DUP5 ADD MSTORE DUP13 PUSH1 0x44 DUP5 ADD MSTORE GAS CALL SWAP1 DUP2 ISZERO PUSH2 0x424 JUMPI DUP11 SWAP2 PUSH2 0x4BD JUMPI JUMPDEST POP ISZERO PUSH2 0x4AD JUMPI DUP8 DUP4 DUP4 PUSH1 0xB SLOAD AND DUP7 MLOAD SWAP3 DUP4 DUP1 SWAP3 PUSH4 0x38D52E0F PUSH1 0xE0 SHL DUP3 MSTORE GAS STATICCALL DUP11 DUP2 ISZERO PUSH2 0x4A2 JUMPI DUP6 SWAP2 DUP5 DUP3 DUP8 DUP15 DUP13 SWAP6 SWAP5 PUSH2 0x45B JUMPI JUMPDEST DUP12 MLOAD PUSH4 0x95EA7B3 PUSH1 0xE0 SHL DUP2 MSTORE PUSH1 0x1 PUSH1 0x1 PUSH1 0xA0 SHL SUB SWAP1 SWAP5 AND SWAP1 DUP5 ADD SWAP1 DUP2 MSTORE PUSH1 0x20 DUP2 ADD SWAP6 SWAP1 SWAP6 MSTORE SWAP2 SWAP6 POP DUP6 SWAP4 DUP5 SWAP3 SWAP1 DUP4 SWAP1 PUSH1 0x40 ADD JUMPDEST SUB SWAP4 AND GAS CALL DUP1 ISZERO PUSH2 0x424 JUMPI SWAP1 DUP4 SWAP3 SWAP2 PUSH2 0x42E JUMPI JUMPDEST POP AND SWAP7 DUP4 MLOAD PUSH4 0x6E553F65 PUSH1 0xE0 SHL DUP2 MSTORE DUP6 DUP3 DUP3 ADD MSTORE DUP7 PUSH1 0x24 DUP3 ADD MSTORE DUP4 DUP2 PUSH1 0x44 DUP2 DUP14 DUP14 GAS CALL SWAP1 DUP2 ISZERO PUSH2 0x424 JUMPI DUP11 SWAP2 PUSH2 0x3F3 JUMPI JUMPDEST POP ISZERO PUSH2 0x3E5 JUMPI POP SWAP2 PUSH32 0xEE6C71311E14F2EB7B50AB01CDF6F14AC51B0C7DC6B056BB190804E51C69DB73 SWAP4 SWAP2 PUSH2 0x2710 PUSH1 0x60 SWAP5 PUSH1 0xB SLOAD AND SWAP8 DUP4 MLOAD SWAP5 DUP6 MSTORE DIV SWAP1 DUP4 ADD MSTORE TIMESTAMP SWAP1 DUP3 ADD MSTORE LOG4 PUSH1 0x1 DUP1 SSTORE DUP1 RETURN JUMPDEST DUP4 MLOAD PUSH4 0x12171D83 PUSH1 0xE3 SHL DUP2 MSTORE REVERT JUMPDEST SWAP1 POP DUP4 DUP2 DUP2 RETURNDATASIZE DUP4 GT PUSH2 0x41D JUMPI JUMPDEST PUSH2 0x40A DUP2 DUP4 PUSH2 0xFFD JUMP JUMPDEST DUP2 ADD SUB SLT PUSH2 0x419 JUMPI MLOAD CODESIZE PUSH2 0x398 JUMP JUMPDEST DUP10 DUP1 REVERT JUMPDEST POP RETURNDATASIZE PUSH2 0x400 JUMP JUMPDEST DUP6 MLOAD RETURNDATASIZE DUP13 DUP3 RETURNDATACOPY RETURNDATASIZE SWAP1 REVERT JUMPDEST PUSH2 0x44D SWAP1 DUP6 RETURNDATASIZE DUP8 GT PUSH2 0x454 JUMPI JUMPDEST PUSH2 0x445 DUP2 DUP4 PUSH2 0xFFD JUMP JUMPDEST DUP2 ADD SWAP1 PUSH2 0x1226 JUMP JUMPDEST POP CODESIZE PUSH2 0x367 JUMP JUMPDEST POP RETURNDATASIZE PUSH2 0x43B JUMP JUMPDEST POP POP POP POP POP POP DUP2 DUP2 RETURNDATASIZE DUP4 GT PUSH2 0x49B JUMPI JUMPDEST PUSH2 0x475 DUP2 DUP4 PUSH2 0xFFD JUMP JUMPDEST DUP2 ADD SUB SLT PUSH2 0x419 JUMPI MLOAD DUP10 DUP4 DUP3 AND DUP3 SUB PUSH2 0x498 JUMPI DUP7 DUP11 DUP5 DUP8 SWAP4 DUP8 PUSH2 0x353 SWAP7 SWAP4 PUSH2 0x320 JUMP JUMPDEST DUP1 REVERT JUMPDEST POP RETURNDATASIZE PUSH2 0x46B JUMP JUMPDEST DUP7 MLOAD SWAP1 RETURNDATASIZE SWAP1 DUP3 RETURNDATACOPY RETURNDATASIZE SWAP1 REVERT JUMPDEST DUP4 MLOAD PUSH4 0x12171D83 PUSH1 0xE3 SHL DUP2 MSTORE DUP9 SWAP1 REVERT JUMPDEST SWAP1 POP DUP4 DUP2 DUP2 RETURNDATASIZE DUP4 GT PUSH2 0x4E3 JUMPI JUMPDEST PUSH2 0x4D4 DUP2 DUP4 PUSH2 0xFFD JUMP JUMPDEST DUP2 ADD SUB SLT PUSH2 0x419 JUMPI MLOAD CODESIZE PUSH2 0x2EC JUMP JUMPDEST POP RETURNDATASIZE PUSH2 0x4CA JUMP JUMPDEST PUSH4 0x4E487B71 PUSH1 0xE0 SHL DUP10 MSTORE PUSH1 0x11 DUP9 MSTORE PUSH1 0x24 DUP10 REVERT JUMPDEST DUP2 MLOAD PUSH4 0x1E9ACF17 PUSH1 0xE3 SHL DUP2 MSTORE DUP7 SWAP1 REVERT JUMPDEST DUP2 MLOAD PUSH4 0xEA188F73 PUSH1 0xE0 SHL DUP2 MSTORE DUP7 SWAP1 REVERT JUMPDEST DUP2 MLOAD PUSH4 0xEA8E4EB5 PUSH1 0xE0 SHL DUP2 MSTORE DUP7 SWAP1 REVERT JUMPDEST MLOAD PUSH4 0x599238DF PUSH1 0xE1 SHL DUP2 MSTORE DUP5 SWAP1 REVERT JUMPDEST POP DUP4 PUSH1 0xB SLOAD AND ISZERO PUSH2 0x253 JUMP JUMPDEST POP DUP4 PUSH1 0xA SLOAD AND ISZERO PUSH2 0x24C JUMP JUMPDEST POP DUP4 PUSH1 0x9 SLOAD AND ISZERO PUSH2 0x245 JUMP JUMPDEST POP POP MLOAD PUSH4 0x3EE5AEB5 PUSH1 0xE0 SHL DUP2 MSTORE REVERT JUMPDEST DUP4 DUP1 REVERT JUMPDEST DUP3 DUP1 REVERT JUMPDEST SWAP1 POP CALLVALUE PUSH2 0x573 JUMPI PUSH1 0x20 CALLDATASIZE PUSH1 0x3 NOT ADD SLT PUSH2 0x573 JUMPI PUSH2 0x592 PUSH2 0xDA1 JUMP JUMPDEST SWAP1 PUSH2 0x59B PUSH2 0xDBC JUMP JUMPDEST PUSH1 0x1 PUSH1 0x1 PUSH1 0xA0 SHL SUB SWAP2 DUP3 AND SWAP3 DUP4 ISZERO PUSH2 0x5E8 JUMPI POP POP DUP3 SLOAD PUSH1 0x1 PUSH1 0x1 PUSH1 0xA0 SHL SUB NOT DUP2 AND DUP4 OR DUP5 SSTORE AND PUSH32 0x8BE0079C531659141344CD1FD0A4F28419497F9722A3DAAFE3B4186F6B6457E0 DUP4 DUP1 LOG3 DUP1 RETURN JUMPDEST MLOAD PUSH4 0x1E4FBDF7 PUSH1 0xE0 SHL DUP2 MSTORE SWAP1 DUP2 ADD DUP5 SWAP1 MSTORE PUSH1 0x24 SWAP1 REVERT JUMPDEST SWAP1 POP CALLVALUE PUSH2 0x573 JUMPI DUP3 PUSH1 0x3 NOT CALLDATASIZE ADD SLT PUSH2 0x573 JUMPI CALLER DUP4 MSTORE PUSH1 0x3 PUSH1 0x20 MSTORE PUSH1 0xFF DUP3 DUP5 KECCAK256 SLOAD AND ISZERO PUSH2 0x665 JUMPI POP CALLER DUP3 MSTORE PUSH1 0x3 PUSH1 0x20 MSTORE DUP1 DUP3 KECCAK256 PUSH1 0xFF NOT DUP2 SLOAD AND SWAP1 SSTORE MLOAD DUP2 DUP2 MSTORE PUSH32 0x5FE3A0CB9AEAE856EAC34445ACE9544F3E15C21FA6F9BFFECA60D662A690CA1B PUSH1 0x20 CALLER SWAP3 LOG2 DUP1 RETURN JUMPDEST SWAP1 MLOAD PUSH4 0x4F2D24D PUSH1 0xE0 SHL DUP2 MSTORE REVERT JUMPDEST POP POP CALLVALUE PUSH2 0x1CA JUMPI DUP2 PUSH1 0x3 NOT CALLDATASIZE ADD SLT PUSH2 0x1CA JUMPI PUSH1 0xB SLOAD SWAP1 MLOAD PUSH1 0x1 PUSH1 0x1 PUSH1 0xA0 SHL SUB SWAP1 SWAP2 AND DUP2 MSTORE PUSH1 0x20 SWAP1 RETURN JUMPDEST SWAP2 SWAP1 POP CALLVALUE PUSH2 0x573 JUMPI PUSH1 0x80 CALLDATASIZE PUSH1 0x3 NOT ADD SLT PUSH2 0x573 JUMPI PUSH2 0x6B8 PUSH2 0xDA1 JUMP JUMPDEST SWAP1 PUSH1 0x1 PUSH1 0x1 PUSH1 0xA0 SHL SUB SWAP1 PUSH1 0x24 CALLDATALOAD DUP3 DUP2 AND SWAP1 DUP2 SWAP1 SUB PUSH2 0x7B5 JUMPI PUSH1 0x44 CALLDATALOAD SWAP3 DUP1 DUP5 AND DUP1 SWAP5 SUB PUSH2 0x7B1 JUMPI PUSH1 0x64 CALLDATALOAD SWAP5 DUP2 DUP7 AND DUP1 SWAP7 SUB PUSH2 0x7AD JUMPI PUSH2 0x6F4 PUSH2 0xDBC JUMP JUMPDEST AND SWAP5 DUP6 ISZERO DUP1 ISZERO PUSH2 0x7A5 JUMPI JUMPDEST DUP1 ISZERO PUSH2 0x79D JUMPI JUMPDEST DUP1 ISZERO PUSH2 0x795 JUMPI JUMPDEST PUSH2 0x787 JUMPI POP SWAP2 DUP4 SWAP2 PUSH32 0x20D4D74805F9E8A0851357233A6A6B9E3E62B6A78386BC8427057640B9C0A2DB SWAP6 SWAP4 PUSH1 0x80 SWAP6 PUSH12 0xFFFFFFFFFFFFFFFFFFFFFFFF PUSH1 0xA0 SHL DUP7 DUP2 PUSH1 0x8 SLOAD AND OR PUSH1 0x8 SSTORE DUP3 DUP2 PUSH1 0x9 SLOAD AND OR PUSH1 0x9 SSTORE DUP5 DUP2 PUSH1 0xA SLOAD AND OR PUSH1 0xA SSTORE PUSH1 0xB SLOAD AND OR PUSH1 0xB SSTORE DUP2 MLOAD SWAP5 DUP6 MSTORE PUSH1 0x20 DUP6 ADD MSTORE DUP4 ADD MSTORE PUSH1 0x60 DUP3 ADD MSTORE LOG1 DUP1 RETURN JUMPDEST DUP3 MLOAD PUSH4 0x599238DF PUSH1 0xE1 SHL DUP2 MSTORE REVERT JUMPDEST POP DUP5 ISZERO PUSH2 0x70D JUMP JUMPDEST POP DUP4 ISZERO PUSH2 0x706 JUMP JUMPDEST POP DUP2 ISZERO PUSH2 0x6FF JUMP JUMPDEST DUP8 DUP1 REVERT JUMPDEST DUP7 DUP1 REVERT JUMPDEST DUP6 DUP1 REVERT JUMPDEST POP POP CALLVALUE PUSH2 0x1CA JUMPI DUP2 PUSH1 0x3 NOT CALLDATASIZE ADD SLT PUSH2 0x1CA JUMPI PUSH1 0x20 SWAP1 PUSH2 0x7D6 PUSH2 0x13D3 JUMP JUMPDEST SWAP1 MLOAD SWAP1 DUP2 MSTORE RETURN JUMPDEST POP POP CALLVALUE PUSH2 0x1CA JUMPI DUP2 PUSH1 0x3 NOT CALLDATASIZE ADD SLT PUSH2 0x1CA JUMPI PUSH1 0x20 SWAP1 PUSH1 0x7 SLOAD SWAP1 MLOAD SWAP1 DUP2 MSTORE RETURN JUMPDEST POP POP CALLVALUE PUSH2 0x1CA JUMPI DUP2 PUSH1 0x3 NOT CALLDATASIZE ADD SLT PUSH2 0x1CA JUMPI PUSH1 0x8 SLOAD SWAP1 MLOAD PUSH1 0x1 PUSH1 0x1 PUSH1 0xA0 SHL SUB SWAP1 SWAP2 AND DUP2 MSTORE PUSH1 0x20 SWAP1 RETURN JUMPDEST SWAP2 SWAP1 POP CALLVALUE PUSH2 0x573 JUMPI PUSH1 0x20 CALLDATASIZE PUSH1 0x3 NOT ADD SLT PUSH2 0x573 JUMPI DUP2 CALLDATALOAD SWAP2 PUSH5 0xE8D4A51000 DUP4 GT PUSH2 0x893 JUMPI CALLER DUP5 MSTORE PUSH1 0x20 MSTORE DUP2 DUP2 DUP5 KECCAK256 SSTORE PUSH1 0x5 PUSH1 0x20 MSTORE DUP1 DUP4 KECCAK256 PUSH1 0x1 PUSH1 0xFF NOT DUP3 SLOAD AND OR SWAP1 SSTORE MLOAD SWAP1 DUP2 MSTORE PUSH32 0x6869591B96AB03C56C1C5DE17A753BBD17CAD8DE120C296022B8B8A9523D74B3 PUSH1 0x20 CALLER SWAP3 LOG2 DUP1 RETURN JUMPDEST SWAP1 MLOAD PUSH4 0x117D61CD PUSH1 0xE2 SHL DUP2 MSTORE REVERT JUMPDEST POP POP CALLVALUE PUSH2 0x1CA JUMPI DUP2 PUSH1 0x3 NOT CALLDATASIZE ADD SLT PUSH2 0x1CA JUMPI PUSH1 0x20 SWAP1 PUSH2 0x8C4 PUSH3 0x15180 TIMESTAMP DIV PUSH2 0xE39 JUMP JUMPDEST SWAP3 MLOAD SWAP3 DUP4 MSTORE POP POP RETURN JUMPDEST POP POP CALLVALUE PUSH2 0x1CA JUMPI DUP2 PUSH1 0x3 NOT CALLDATASIZE ADD SLT PUSH2 0x1CA JUMPI PUSH1 0x20 SWAP1 PUSH1 0xFF PUSH1 0x2 SLOAD AND SWAP1 MLOAD SWAP1 ISZERO ISZERO DUP2 MSTORE RETURN JUMPDEST POP POP CALLVALUE PUSH2 0x1CA JUMPI DUP2 PUSH1 0x3 NOT CALLDATASIZE ADD SLT PUSH2 0x1CA JUMPI PUSH1 0x20 SWAP1 PUSH1 0x6 SLOAD SWAP1 MLOAD SWAP1 DUP2 MSTORE RETURN JUMPDEST POP POP CALLVALUE PUSH2 0x1CA JUMPI DUP2 PUSH1 0x3 NOT CALLDATASIZE ADD SLT PUSH2 0x1CA JUMPI SWAP1 SLOAD SWAP1 MLOAD PUSH1 0x1 PUSH1 0x1 PUSH1 0xA0 SHL SUB SWAP1 SWAP2 AND DUP2 MSTORE PUSH1 0x20 SWAP1 RETURN JUMPDEST POP POP CALLVALUE PUSH2 0x1CA JUMPI DUP2 PUSH1 0x3 NOT CALLDATASIZE ADD SLT PUSH2 0x1CA JUMPI PUSH1 0x9 SLOAD SWAP1 MLOAD PUSH1 0x1 PUSH1 0x1 PUSH1 0xA0 SHL SUB SWAP1 SWAP2 AND DUP2 MSTORE PUSH1 0x20 SWAP1 RETURN JUMPDEST POP POP CALLVALUE PUSH2 0x1CA JUMPI DUP2 PUSH1 0x3 NOT CALLDATASIZE ADD SLT PUSH2 0x1CA JUMPI PUSH1 0x20 PUSH32 0x62E78CEA01BEE320CD4E420270B5EA74000D11B0C9F74754EBDBFC544B05A258 SWAP2 PUSH2 0x99F PUSH2 0xDBC JUMP JUMPDEST PUSH2 0x9A7 PUSH2 0xE1B JUMP JUMPDEST PUSH1 0x1 PUSH1 0xFF NOT PUSH1 0x2 SLOAD AND OR PUSH1 0x2 SSTORE MLOAD CALLER DUP2 MSTORE LOG1 DUP1 RETURN JUMPDEST POP POP CALLVALUE PUSH2 0x1CA JUMPI DUP2 PUSH1 0x3 NOT CALLDATASIZE ADD SLT PUSH2 0x1CA JUMPI PUSH1 0x20 SWAP1 PUSH2 0x7D6 TIMESTAMP PUSH2 0xEA5 JUMP JUMPDEST POP POP CALLVALUE PUSH2 0x1CA JUMPI PUSH1 0x20 CALLDATASIZE PUSH1 0x3 NOT ADD SLT PUSH2 0x1CA JUMPI PUSH1 0x20 SWAP1 PUSH2 0x7D6 PUSH2 0x9FB PUSH2 0xDA1 JUMP JUMPDEST PUSH2 0x1184 JUMP JUMPDEST SWAP1 POP CALLVALUE PUSH2 0x573 JUMPI DUP3 PUSH1 0x3 NOT CALLDATASIZE ADD SLT PUSH2 0x573 JUMPI CALLER DUP4 MSTORE PUSH1 0x3 PUSH1 0x20 MSTORE PUSH1 0xFF DUP3 DUP5 KECCAK256 SLOAD AND PUSH2 0xA6A JUMPI POP CALLER DUP3 MSTORE PUSH1 0x3 PUSH1 0x20 MSTORE DUP1 DUP3 KECCAK256 PUSH1 0x1 PUSH1 0xFF NOT DUP3 SLOAD AND OR SWAP1 SSTORE MLOAD PUSH1 0x1 DUP2 MSTORE PUSH32 0x5FE3A0CB9AEAE856EAC34445ACE9544F3E15C21FA6F9BFFECA60D662A690CA1B PUSH1 0x20 CALLER SWAP3 LOG2 DUP1 RETURN JUMPDEST SWAP1 MLOAD PUSH4 0x3013E93F PUSH1 0xE1 SHL DUP2 MSTORE REVERT JUMPDEST DUP4 CALLVALUE PUSH2 0x498 JUMPI DUP1 PUSH1 0x3 NOT CALLDATASIZE ADD SLT PUSH2 0x498 JUMPI PUSH2 0xA91 PUSH2 0xDBC JUMP JUMPDEST DUP1 SLOAD PUSH1 0x1 PUSH1 0x1 PUSH1 0xA0 SHL SUB NOT DUP2 AND DUP3 SSTORE DUP2 SWAP1 PUSH1 0x1 PUSH1 0x1 PUSH1 0xA0 SHL SUB AND PUSH32 0x8BE0079C531659141344CD1FD0A4F28419497F9722A3DAAFE3B4186F6B6457E0 DUP3 DUP1 LOG3 DUP1 RETURN JUMPDEST POP POP CALLVALUE PUSH2 0x1CA JUMPI PUSH1 0x20 CALLDATASIZE PUSH1 0x3 NOT ADD SLT PUSH2 0x1CA JUMPI PUSH1 0x20 SWAP1 PUSH2 0x7D6 PUSH2 0xAF3 PUSH2 0xDA1 JUMP JUMPDEST PUSH2 0xDE8 JUMP JUMPDEST POP POP CALLVALUE PUSH2 0x1CA JUMPI PUSH1 0x20 CALLDATASIZE PUSH1 0x3 NOT ADD SLT PUSH2 0x1CA JUMPI PUSH1 0x20 SWAP2 DUP2 SWAP1 PUSH1 0x1 PUSH1 0x1 PUSH1 0xA0 SHL SUB PUSH2 0xB20 PUSH2 0xDA1 JUMP JUMPDEST AND DUP2 MSTORE PUSH1 0xD DUP5 MSTORE KECCAK256 SLOAD SWAP1 MLOAD SWAP1 DUP2 MSTORE RETURN JUMPDEST SWAP1 POP CALLVALUE PUSH2 0x573 JUMPI DUP3 PUSH1 0x3 NOT CALLDATASIZE ADD SLT PUSH2 0x573 JUMPI PUSH2 0xB4A PUSH2 0xDBC JUMP JUMPDEST PUSH1 0x2 SLOAD SWAP1 PUSH1 0xFF DUP3 AND ISZERO PUSH2 0xB8C JUMPI POP PUSH1 0xFF NOT AND PUSH1 0x2 SSTORE MLOAD CALLER DUP2 MSTORE PUSH32 0x5DB9EE0A495BF2E6FF9C91A7834C1BA4FDD244A5E8AA4E537BD38AEAE4B073AA SWAP1 PUSH1 0x20 SWAP1 LOG1 DUP1 RETURN JUMPDEST DUP3 MLOAD PUSH4 0x8DFC202B PUSH1 0xE0 SHL DUP2 MSTORE REVERT JUMPDEST SWAP2 SWAP1 POP CALLVALUE PUSH2 0x573 JUMPI PUSH1 0x20 CALLDATASIZE PUSH1 0x3 NOT ADD SLT PUSH2 0x573 JUMPI DUP2 CALLDATALOAD SWAP2 PUSH2 0xBB9 PUSH2 0xDBC JUMP JUMPDEST PUSH5 0xE8D4A51000 DUP4 GT PUSH2 0x893 JUMPI POP DUP2 PUSH1 0x20 SWAP2 PUSH32 0x87EEA5962582A03EA93AF9B32F7F4D7DBA2011C2985761B85AF4C47CDC7C0761 SWAP4 PUSH1 0x6 SSTORE DUP2 PUSH1 0x7 SSTORE MLOAD SWAP1 DUP2 MSTORE LOG1 DUP1 RETURN JUMPDEST SWAP1 POP CALLVALUE PUSH2 0x573 JUMPI PUSH1 0x20 CALLDATASIZE PUSH1 0x3 NOT ADD SLT PUSH2 0x573 JUMPI PUSH32 0x4DE6D6194AB654009CD34BA95A217EF6C812E4587917905252160D43D5E82FB2 SWAP2 PUSH1 0x20 SWAP2 CALLDATALOAD SWAP1 PUSH2 0xC3D PUSH2 0xDBC JUMP JUMPDEST DUP2 PUSH1 0x7 SSTORE DUP2 PUSH1 0x6 SSTORE MLOAD SWAP1 DUP2 MSTORE LOG1 DUP1 RETURN JUMPDEST POP POP CALLVALUE PUSH2 0x1CA JUMPI DUP2 PUSH1 0x3 NOT CALLDATASIZE ADD SLT PUSH2 0x1CA JUMPI PUSH2 0xC8C SWAP1 PUSH2 0xC6B PUSH2 0x101F JUMP JUMPDEST SWAP2 MLOAD PUSH1 0x1 PUSH1 0x1 PUSH1 0xA0 SHL SUB SWAP1 SWAP2 AND DUP2 MSTORE PUSH1 0x20 DUP2 ADD SWAP2 SWAP1 SWAP2 MSTORE SWAP1 DUP2 SWAP1 PUSH1 0x40 DUP3 ADD SWAP1 JUMP JUMPDEST SUB SWAP1 RETURN JUMPDEST POP POP CALLVALUE PUSH2 0x1CA JUMPI DUP2 PUSH1 0x3 NOT CALLDATASIZE ADD SLT PUSH2 0x1CA JUMPI PUSH1 0x20 SWAP1 PUSH2 0xCB3 PUSH3 0x15180 TIMESTAMP DIV PUSH2 0xE39 JUMP JUMPDEST POP SWAP2 MLOAD SWAP2 DUP3 MSTORE POP RETURN JUMPDEST POP POP CALLVALUE PUSH2 0x1CA JUMPI DUP2 PUSH1 0x3 NOT CALLDATASIZE ADD SLT PUSH2 0x1CA JUMPI PUSH1 0x20 SWAP1 PUSH1 0xC SLOAD SWAP1 MLOAD SWAP1 DUP2 MSTORE RETURN JUMPDEST POP POP CALLVALUE PUSH2 0x1CA JUMPI DUP2 PUSH1 0x3 NOT CALLDATASIZE ADD SLT PUSH2 0x1CA JUMPI PUSH1 0x20 SWAP1 PUSH2 0xCF8 PUSH2 0xF9F JUMP JUMPDEST SWAP1 MLOAD SWAP1 ISZERO ISZERO DUP2 MSTORE RETURN JUMPDEST POP POP CALLVALUE PUSH2 0x1CA JUMPI DUP2 PUSH1 0x3 NOT CALLDATASIZE ADD SLT PUSH2 0x1CA JUMPI PUSH1 0xA SLOAD SWAP1 MLOAD PUSH1 0x1 PUSH1 0x1 PUSH1 0xA0 SHL SUB SWAP1 SWAP2 AND DUP2 MSTORE PUSH1 0x20 SWAP1 RETURN JUMPDEST POP POP CALLVALUE PUSH2 0x1CA JUMPI PUSH1 0x20 SWAP2 DUP3 PUSH1 0x3 NOT CALLDATASIZE ADD SLT PUSH2 0x498 JUMPI PUSH2 0xD4F PUSH2 0xD4A PUSH2 0xDA1 JUMP JUMPDEST PUSH2 0x123E JUMP JUMPDEST SWAP3 SWAP1 SWAP2 DUP2 MLOAD SWAP5 DUP6 SWAP4 ISZERO ISZERO DUP5 MSTORE DUP3 DUP2 DUP6 ADD MSTORE DUP5 MLOAD DUP1 SWAP4 DUP6 ADD MSTORE DUP2 JUMPDEST DUP4 DUP2 LT PUSH2 0xD8A JUMPI POP POP PUSH1 0x60 DUP1 SWAP5 POP DUP3 DUP5 ADD ADD MSTORE PUSH1 0x1F DUP1 NOT SWAP2 ADD AND DUP2 ADD SUB ADD SWAP1 RETURN JUMPDEST DUP1 DUP7 ADD DUP3 ADD MLOAD DUP8 DUP3 ADD PUSH1 0x60 ADD MSTORE DUP7 SWAP5 POP DUP2 ADD PUSH2 0xD69 JUMP JUMPDEST PUSH1 0x4 CALLDATALOAD SWAP1 PUSH1 0x1 PUSH1 0x1 PUSH1 0xA0 SHL SUB DUP3 AND DUP3 SUB PUSH2 0xDB7 JUMPI JUMP JUMPDEST PUSH1 0x0 DUP1 REVERT JUMPDEST PUSH1 0x0 SLOAD PUSH1 0x1 PUSH1 0x1 PUSH1 0xA0 SHL SUB AND CALLER SUB PUSH2 0xDD0 JUMPI JUMP JUMPDEST PUSH1 0x40 MLOAD PUSH4 0x118CDAA7 PUSH1 0xE0 SHL DUP2 MSTORE CALLER PUSH1 0x4 DUP3 ADD MSTORE PUSH1 0x24 SWAP1 REVERT JUMPDEST PUSH1 0x1 PUSH1 0x1 PUSH1 0xA0 SHL SUB AND PUSH1 0x0 SWAP1 DUP2 MSTORE PUSH1 0x5 PUSH1 0x20 MSTORE PUSH1 0x40 SWAP1 KECCAK256 SLOAD PUSH1 0xFF AND PUSH2 0xE0D JUMPI PUSH1 0x6 SLOAD SWAP1 JUMP JUMPDEST PUSH1 0x4 PUSH1 0x20 MSTORE PUSH1 0x40 PUSH1 0x0 KECCAK256 SLOAD SWAP1 JUMP JUMPDEST PUSH1 0xFF PUSH1 0x2 SLOAD AND PUSH2 0xE27 JUMPI JUMP JUMPDEST PUSH1 0x40 MLOAD PUSH4 0xD93C0665 PUSH1 0xE0 SHL DUP2 MSTORE PUSH1 0x4 SWAP1 REVERT JUMPDEST PUSH3 0x23AB1 SWAP1 PUSH1 0x4 PUSH1 0x3 DUP4 PUSH3 0x264965 DUP5 ADD PUSH1 0x2 SHL SDIV DUP1 SWAP5 MUL ADD SDIV SWAP1 SUB SWAP2 PUSH3 0x164B09 PUSH3 0x264966 DUP5 ADD PUSH2 0xFA0 MUL SDIV SWAP3 PUSH1 0x4 DUP5 PUSH2 0x5B5 MUL SDIV SWAP1 SUB SWAP2 PUSH2 0x98F SWAP3 PUSH1 0x50 PUSH3 0x264984 SWAP3 PUSH1 0x2 DUP7 DUP6 DUP6 ADD DUP5 MUL SDIV SWAP2 PUSH1 0xB DUP4 SDIV SWAP9 DUP10 SWAP2 PUSH1 0x30 NOT ADD PUSH1 0x64 MUL ADD ADD SWAP8 PUSH1 0xC MUL DUP3 SUB ADD SWAP6 MUL SDIV SWAP1 SUB ADD SWAP1 JUMP JUMPDEST PUSH3 0x15180 PUSH2 0xEB3 SWAP2 DIV PUSH2 0xE39 JUMP JUMPDEST POP PUSH1 0x0 SWAP1 PUSH1 0x1 DUP2 EQ DUP1 ISZERO PUSH2 0xF72 JUMPI JUMPDEST DUP1 ISZERO PUSH2 0xF68 JUMPI JUMPDEST DUP1 ISZERO PUSH2 0xF5E JUMPI JUMPDEST DUP1 ISZERO PUSH2 0xF54 JUMPI JUMPDEST DUP1 ISZERO PUSH2 0xF4A JUMPI JUMPDEST DUP1 ISZERO PUSH2 0xF40 JUMPI JUMPDEST ISZERO PUSH2 0xEF3 JUMPI POP POP POP PUSH1 0x1F JUMPDEST SWAP1 JUMP JUMPDEST PUSH1 0x2 EQ PUSH2 0xF01 JUMPI POP POP PUSH1 0x1E SWAP1 JUMP JUMPDEST PUSH1 0x3 DUP3 AND ISZERO SWAP2 DUP3 PUSH2 0xF33 JUMPI JUMPDEST DUP3 ISZERO PUSH2 0xF25 JUMPI JUMPDEST POP POP ISZERO PUSH2 0xF20 JUMPI PUSH1 0x1D SWAP1 JUMP JUMPDEST PUSH1 0x1C SWAP1 JUMP JUMPDEST PUSH2 0x190 SWAP1 MOD ISZERO SWAP2 POP CODESIZE PUSH2 0xF14 JUMP JUMPDEST PUSH1 0x64 DUP2 MOD ISZERO ISZERO SWAP3 POP PUSH2 0xF0D JUMP JUMPDEST POP PUSH1 0xC DUP2 EQ PUSH2 0xEE5 JUMP JUMPDEST POP PUSH1 0xA DUP2 EQ PUSH2 0xEDE JUMP JUMPDEST POP PUSH1 0x8 DUP2 EQ PUSH2 0xED7 JUMP JUMPDEST POP PUSH1 0x7 DUP2 EQ PUSH2 0xED0 JUMP JUMPDEST POP PUSH1 0x5 DUP2 EQ PUSH2 0xEC9 JUMP JUMPDEST POP PUSH1 0x3 DUP2 EQ PUSH2 0xEC2 JUMP JUMPDEST SWAP2 SWAP1 DUP3 SUB SWAP2 DUP3 GT PUSH2 0xF89 JUMPI JUMP JUMPDEST PUSH4 0x4E487B71 PUSH1 0xE0 SHL PUSH1 0x0 MSTORE PUSH1 0x11 PUSH1 0x4 MSTORE PUSH1 0x24 PUSH1 0x0 REVERT JUMPDEST PUSH2 0xFAD PUSH3 0x15180 TIMESTAMP DIV PUSH2 0xE39 JUMP JUMPDEST SWAP2 POP POP PUSH2 0xFB9 TIMESTAMP PUSH2 0xEA5 JUMP JUMPDEST PUSH1 0x1 NOT DUP2 ADD SWAP2 SWAP1 DUP3 GT PUSH2 0xF89 JUMPI LT ISZERO SWAP1 JUMP JUMPDEST PUSH1 0x20 DUP2 ADD SWAP1 DUP2 LT PUSH8 0xFFFFFFFFFFFFFFFF DUP3 GT OR PUSH2 0xFE7 JUMPI PUSH1 0x40 MSTORE JUMP JUMPDEST PUSH4 0x4E487B71 PUSH1 0xE0 SHL PUSH1 0x0 MSTORE PUSH1 0x41 PUSH1 0x4 MSTORE PUSH1 0x24 PUSH1 0x0 REVERT JUMPDEST SWAP1 PUSH1 0x1F DUP1 NOT SWAP2 ADD AND DUP2 ADD SWAP1 DUP2 LT PUSH8 0xFFFFFFFFFFFFFFFF DUP3 GT OR PUSH2 0xFE7 JUMPI PUSH1 0x40 MSTORE JUMP JUMPDEST PUSH1 0x8 SLOAD PUSH1 0x40 DUP1 MLOAD PUSH4 0xF1009899 PUSH1 0xE0 SHL DUP1 DUP3 MSTORE SWAP1 SWAP4 SWAP3 SWAP1 SWAP2 SWAP1 PUSH1 0x20 SWAP1 PUSH1 0x1 PUSH1 0x1 PUSH1 0xA0 SHL SUB SWAP1 DUP2 AND DUP3 DUP8 PUSH1 0x4 DUP2 DUP5 GAS STATICCALL SWAP7 DUP8 ISZERO PUSH2 0x1179 JUMPI PUSH1 0x0 SWAP8 PUSH2 0x114A JUMPI JUMPDEST POP DUP2 PUSH1 0x9 SLOAD AND SWAP5 DUP5 MLOAD SWAP3 DUP2 DUP5 MSTORE DUP5 DUP5 PUSH1 0x4 DUP2 DUP11 GAS STATICCALL SWAP4 DUP5 ISZERO PUSH2 0x113F JUMPI PUSH1 0x0 SWAP5 PUSH2 0x1110 JUMPI JUMPDEST POP PUSH1 0xA SLOAD AND SWAP4 DUP6 MLOAD SWAP2 DUP3 MSTORE DUP1 DUP3 PUSH1 0x4 DUP2 DUP9 GAS STATICCALL SWAP6 DUP7 ISZERO PUSH2 0x1106 JUMPI POP PUSH1 0x0 SWAP6 PUSH2 0x10D5 JUMPI JUMPDEST POP POP SWAP4 DUP7 DUP3 GT PUSH2 0x10C9 JUMPI JUMPDEST POP POP DUP5 DUP3 GT PUSH2 0x10BE JUMPI JUMPDEST POP POP SWAP2 SWAP1 JUMP JUMPDEST SWAP2 POP SWAP3 POP CODESIZE DUP1 PUSH2 0x10B8 JUMP JUMPDEST SWAP1 SWAP6 POP SWAP3 POP CODESIZE DUP1 PUSH2 0x10AE JUMP JUMPDEST DUP2 DUP2 SWAP7 SWAP3 SWAP4 SWAP7 RETURNDATASIZE DUP4 GT PUSH2 0x10FF JUMPI JUMPDEST PUSH2 0x10ED DUP2 DUP4 PUSH2 0xFFD JUMP JUMPDEST DUP2 ADD SUB SLT PUSH2 0x498 JUMPI POP MLOAD SWAP3 CODESIZE DUP1 PUSH2 0x10A3 JUMP JUMPDEST POP RETURNDATASIZE PUSH2 0x10E3 JUMP JUMPDEST MLOAD RETURNDATASIZE PUSH1 0x0 DUP3 RETURNDATACOPY RETURNDATASIZE SWAP1 REVERT JUMPDEST SWAP1 SWAP4 DUP6 DUP3 DUP2 RETURNDATASIZE DUP4 GT PUSH2 0x1138 JUMPI JUMPDEST PUSH2 0x1127 DUP2 DUP4 PUSH2 0xFFD JUMP JUMPDEST DUP2 ADD SUB SLT PUSH2 0x498 JUMPI POP MLOAD SWAP3 CODESIZE PUSH2 0x1080 JUMP JUMPDEST POP RETURNDATASIZE PUSH2 0x111D JUMP JUMPDEST DUP7 MLOAD RETURNDATASIZE PUSH1 0x0 DUP3 RETURNDATACOPY RETURNDATASIZE SWAP1 REVERT JUMPDEST SWAP1 SWAP7 DUP4 DUP3 DUP2 RETURNDATASIZE DUP4 GT PUSH2 0x1172 JUMPI JUMPDEST PUSH2 0x1161 DUP2 DUP4 PUSH2 0xFFD JUMP JUMPDEST DUP2 ADD SUB SLT PUSH2 0x498 JUMPI POP MLOAD SWAP6 CODESIZE PUSH2 0x105C JUMP JUMPDEST POP RETURNDATASIZE PUSH2 0x1157 JUMP JUMPDEST DUP5 MLOAD RETURNDATASIZE PUSH1 0x0 DUP3 RETURNDATACOPY RETURNDATASIZE SWAP1 REVERT JUMPDEST PUSH1 0xB SLOAD PUSH1 0x40 MLOAD PUSH4 0x70A08231 PUSH1 0xE0 SHL DUP2 MSTORE PUSH1 0x1 PUSH1 0x1 PUSH1 0xA0 SHL SUB DUP4 DUP2 AND PUSH1 0x4 DUP4 ADD MSTORE SWAP1 SWAP3 SWAP2 PUSH1 0x20 SWAP2 DUP5 SWAP2 PUSH1 0x24 SWAP2 DUP4 SWAP2 AND GAS STATICCALL SWAP2 DUP3 ISZERO PUSH2 0x121A JUMPI PUSH1 0x0 SWAP3 PUSH2 0x11E5 JUMPI JUMPDEST POP PUSH2 0x11CD SWAP1 PUSH2 0xDE8 JUMP JUMPDEST DUP1 DUP3 GT ISZERO PUSH2 0x11DE JUMPI PUSH2 0xEF0 SWAP2 PUSH2 0xF7C JUMP JUMPDEST POP POP PUSH1 0x0 SWAP1 JUMP JUMPDEST SWAP1 SWAP2 PUSH1 0x20 DUP3 RETURNDATASIZE DUP3 GT PUSH2 0x1212 JUMPI JUMPDEST DUP2 PUSH2 0x11FF PUSH1 0x20 SWAP4 DUP4 PUSH2 0xFFD JUMP JUMPDEST DUP2 ADD SUB SLT PUSH2 0x498 JUMPI POP MLOAD SWAP1 PUSH2 0x11CD PUSH2 0x11C3 JUMP JUMPDEST RETURNDATASIZE SWAP2 POP PUSH2 0x11F2 JUMP JUMPDEST PUSH1 0x40 MLOAD RETURNDATASIZE PUSH1 0x0 DUP3 RETURNDATACOPY RETURNDATASIZE SWAP1 REVERT JUMPDEST SWAP1 DUP2 PUSH1 0x20 SWAP2 SUB SLT PUSH2 0xDB7 JUMPI MLOAD DUP1 ISZERO ISZERO DUP2 SUB PUSH2 0xDB7 JUMPI SWAP1 JUMP JUMPDEST SWAP1 PUSH1 0xFF PUSH1 0x2 SLOAD AND PUSH2 0x13BB JUMPI PUSH1 0x1 PUSH1 0x1 PUSH1 0xA0 SHL SUB SWAP2 DUP3 AND PUSH1 0x0 DUP2 DUP2 MSTORE PUSH1 0x3 PUSH1 0x20 SWAP1 DUP2 MSTORE PUSH1 0x40 DUP1 DUP4 KECCAK256 SLOAD SWAP3 SWAP6 SWAP1 SWAP4 SWAP3 PUSH1 0xFF AND ISZERO PUSH2 0x13AD JUMPI PUSH1 0xB SLOAD AND ISZERO PUSH2 0x1381 JUMPI DUP3 MLOAD PUSH4 0x14A094A7 PUSH1 0xE0 SHL DUP2 MSTORE DUP2 DUP2 PUSH1 0x4 DUP2 ADDRESS GAS STATICCALL DUP7 SWAP2 DUP2 PUSH2 0x138E JUMPI JUMPDEST POP PUSH2 0x12B2 JUMPI POP POP POP MLOAD SWAP2 PUSH2 0x12AB DUP4 PUSH2 0xFCB JUMP JUMPDEST DUP1 DUP4 MSTORE SWAP2 SWAP1 JUMP JUMPDEST ISZERO PUSH2 0x1381 JUMPI DUP3 MLOAD PUSH4 0x3CD7292D PUSH1 0xE1 SHL DUP2 MSTORE PUSH1 0x4 DUP2 ADD DUP4 SWAP1 MSTORE DUP2 DUP2 PUSH1 0x24 DUP2 ADDRESS GAS STATICCALL DUP7 SWAP2 DUP2 PUSH2 0x1352 JUMPI JUMPDEST POP PUSH2 0x12ED JUMPI POP POP POP MLOAD SWAP2 PUSH2 0x12AB DUP4 PUSH2 0xFCB JUMP JUMPDEST SWAP5 SWAP2 SWAP5 SWAP3 SWAP1 SWAP3 ISZERO PUSH2 0x1344 JUMPI PUSH1 0x1 SWAP5 DUP2 MLOAD SWAP4 PUSH4 0xF6DFC2F1 PUSH1 0xE0 SHL SWAP1 DUP6 ADD MSTORE PUSH1 0x24 DUP5 ADD MSTORE PUSH1 0x24 DUP4 MSTORE PUSH1 0x60 DUP4 ADD SWAP2 DUP4 DUP4 LT PUSH8 0xFFFFFFFFFFFFFFFF DUP5 GT OR PUSH2 0x1330 JUMPI POP MSTORE SWAP1 JUMP JUMPDEST PUSH4 0x4E487B71 PUSH1 0xE0 SHL DUP2 MSTORE PUSH1 0x41 PUSH1 0x4 MSTORE PUSH1 0x24 SWAP1 REVERT JUMPDEST MLOAD SWAP4 POP SWAP1 POP PUSH2 0x12AB DUP4 PUSH2 0xFCB JUMP JUMPDEST SWAP1 SWAP2 POP DUP3 DUP2 DUP2 RETURNDATASIZE DUP4 GT PUSH2 0x137A JUMPI JUMPDEST PUSH2 0x136A DUP2 DUP4 PUSH2 0xFFD JUMP JUMPDEST DUP2 ADD SUB SLT PUSH2 0x7B1 JUMPI MLOAD SWAP1 CODESIZE PUSH2 0x12DA JUMP JUMPDEST POP RETURNDATASIZE PUSH2 0x1360 JUMP JUMPDEST POP POP MLOAD SWAP2 PUSH2 0x12AB DUP4 PUSH2 0xFCB JUMP JUMPDEST PUSH2 0x13A6 SWAP2 SWAP3 POP DUP4 RETURNDATASIZE DUP6 GT PUSH2 0x454 JUMPI PUSH2 0x445 DUP2 DUP4 PUSH2 0xFFD JUMP JUMPDEST SWAP1 CODESIZE PUSH2 0x1298 JUMP JUMPDEST POP POP POP MLOAD SWAP2 PUSH2 0x12AB DUP4 PUSH2 0xFCB JUMP JUMPDEST PUSH1 0x40 MLOAD SWAP2 POP PUSH2 0x13C9 DUP3 PUSH2 0xFCB JUMP JUMPDEST PUSH1 0x0 DUP3 MSTORE PUSH1 0x0 SWAP2 SWAP1 JUMP JUMPDEST PUSH2 0x13DB PUSH2 0xF9F JUMP JUMPDEST PUSH2 0x1423 JUMPI PUSH3 0x15180 PUSH2 0x13EE DUP2 TIMESTAMP DIV PUSH2 0xE39 JUMP JUMPDEST SWAP2 POP POP PUSH2 0x13FA TIMESTAMP PUSH2 0xEA5 JUMP JUMPDEST PUSH1 0x1 NOT DUP2 ADD SWAP2 SWAP1 DUP3 GT PUSH2 0xF89 JUMPI PUSH2 0x1410 SWAP2 PUSH2 0xF7C JUMP JUMPDEST DUP2 DUP2 MUL SWAP2 DUP2 DUP4 DIV EQ SWAP1 ISZERO OR ISZERO PUSH2 0xF89 JUMPI SWAP1 JUMP JUMPDEST PUSH1 0x0 SWAP1 JUMP INVALID LOG2 PUSH5 0x6970667358 0x22 SLT KECCAK256 DUP7 JUMPDEST GAS 0xD9 0xBD 0xC2 0x23 SHR CODESIZE 0xBB 0x21 0x4B 0xA6 SSTORE NOT 0xDD CREATE2 ADDRESS 0xCE SWAP12 PUSH8 0xF138B8F7A9F42A7D PREVRANDAO ADDMOD 0xB0 PUSH5 0x736F6C6343 STOP ADDMOD EQ STOP CALLER "},"methodIdentifiers":{"authorizeAutoSweep()":"79217cb0","billsBucket()":"beb34d1a","checker(address)":"016c683c","executeSweep(address)":"f6dfc2f1","getDayOfMonth()":"b5761420","getDaysInMonth()":"84245101","getHighestYieldBucket()":"2a1b7546","getLastSweepTimestamp(address)":"5ef462b5","getMonth()":"1d8f7892","getSweepableAmount(address)":"79ae525a","getTimeUntilNextSweep()":"cbfe0fa8","getUserMinimumBalance(address)":"6787a78e","getYear()":"fd08921b","globalMinimumBalance()":"9b04cd1c","growthBucket()":"045a8355","isAuthorized(address)":"fe9fbb80","isMonthEnd()":"14a094a7","isPaused()":"b187bd26","lastSweepTimestamp()":"19d4ad80","minimumSpendableBalance()":"c0e94a60","owner()":"8da5cb5b","pause()":"8456cb59","paused()":"5c975abb","renounceOwnership()":"715018a6","revokeAutoSweep()":"f0e3a2ed","savingsBucket()":"8d2abb34","setBucketAddresses(address,address,address,address)":"e36ad441","setGlobalMinimumBalance(uint256)":"39b6218c","setMinimumBalance(uint256)":"3446e4b4","setUserMinimumBalance(uint256)":"b76c81a2","spendableBucket()":"eb8bdf7e","transferOwnership(address)":"f2fde38b","unpause()":"3f4ba83a"}}}}}