{
  "_format": "hh-sol-artifact-1",
  "contractName": "PaymentRouterUpgradeable",
  "sourceName": "contracts/src/upgradeable/PaymentRouterUpgradeable.sol",
  "abi": [
    {
      "inputs": [],
      "stateMutability": "nonpayable",
      "type": "constructor"
    },
    {
      "inputs": [
        {
          "internalType": "address",
          "name": "target",
          "type": "address"
        }
      ],
      "name": "AddressEmptyCode",
      "type": "error"
    },
    {
      "inputs": [],
      "name": "AutoSplitNotEnabled",
      "type": "error"
    },
    {
      "inputs": [
        {
          "internalType": "address",
          "name": "implementation",
          "type": "address"
        }
      ],
      "name": "ERC1967InvalidImplementation",
      "type": "error"
    },
    {
      "inputs": [],
      "name": "ERC1967NonPayable",
      "type": "error"
    },
    {
      "inputs": [],
      "name": "FailedCall",
      "type": "error"
    },
    {
      "inputs": [],
      "name": "InsufficientAllowance",
      "type": "error"
    },
    {
      "inputs": [],
      "name": "InvalidAmount",
      "type": "error"
    },
    {
      "inputs": [],
      "name": "InvalidBucketAddresses",
      "type": "error"
    },
    {
      "inputs": [],
      "name": "InvalidInitialization",
      "type": "error"
    },
    {
      "inputs": [],
      "name": "InvalidRatioSum",
      "type": "error"
    },
    {
      "inputs": [],
      "name": "InvalidToken",
      "type": "error"
    },
    {
      "inputs": [],
      "name": "NotInitializing",
      "type": "error"
    },
    {
      "inputs": [
        {
          "internalType": "address",
          "name": "owner",
          "type": "address"
        }
      ],
      "name": "OwnableInvalidOwner",
      "type": "error"
    },
    {
      "inputs": [
        {
          "internalType": "address",
          "name": "account",
          "type": "address"
        }
      ],
      "name": "OwnableUnauthorizedAccount",
      "type": "error"
    },
    {
      "inputs": [],
      "name": "ReentrancyGuardReentrantCall",
      "type": "error"
    },
    {
      "inputs": [],
      "name": "TransferFailed",
      "type": "error"
    },
    {
      "inputs": [],
      "name": "UUPSUnauthorizedCallContext",
      "type": "error"
    },
    {
      "inputs": [
        {
          "internalType": "bytes32",
          "name": "slot",
          "type": "bytes32"
        }
      ],
      "name": "UUPSUnsupportedProxiableUUID",
      "type": "error"
    },
    {
      "anonymous": false,
      "inputs": [
        {
          "indexed": true,
          "internalType": "address",
          "name": "user",
          "type": "address"
        },
        {
          "indexed": true,
          "internalType": "address",
          "name": "token",
          "type": "address"
        }
      ],
      "name": "AutoSplitDisabled",
      "type": "event"
    },
    {
      "anonymous": false,
      "inputs": [
        {
          "indexed": true,
          "internalType": "address",
          "name": "user",
          "type": "address"
        },
        {
          "indexed": true,
          "internalType": "address",
          "name": "token",
          "type": "address"
        },
        {
          "indexed": false,
          "internalType": "uint256",
          "name": "approvalAmount",
          "type": "uint256"
        }
      ],
      "name": "AutoSplitEnabled",
      "type": "event"
    },
    {
      "anonymous": false,
      "inputs": [
        {
          "indexed": true,
          "internalType": "address",
          "name": "user",
          "type": "address"
        },
        {
          "indexed": true,
          "internalType": "address",
          "name": "token",
          "type": "address"
        },
        {
          "indexed": false,
          "internalType": "uint256",
          "name": "amount",
          "type": "uint256"
        },
        {
          "indexed": false,
          "internalType": "string",
          "name": "reason",
          "type": "string"
        }
      ],
      "name": "AutoSplitSkipped",
      "type": "event"
    },
    {
      "anonymous": false,
      "inputs": [
        {
          "indexed": true,
          "internalType": "address",
          "name": "user",
          "type": "address"
        },
        {
          "indexed": false,
          "internalType": "address[4]",
          "name": "buckets",
          "type": "address[4]"
        }
      ],
      "name": "BucketAddressesUpdated",
      "type": "event"
    },
    {
      "anonymous": false,
      "inputs": [
        {
          "indexed": false,
          "internalType": "uint64",
          "name": "version",
          "type": "uint64"
        }
      ],
      "name": "Initialized",
      "type": "event"
    },
    {
      "anonymous": false,
      "inputs": [
        {
          "indexed": true,
          "internalType": "address",
          "name": "previousOwner",
          "type": "address"
        },
        {
          "indexed": true,
          "internalType": "address",
          "name": "newOwner",
          "type": "address"
        }
      ],
      "name": "OwnershipTransferred",
      "type": "event"
    },
    {
      "anonymous": false,
      "inputs": [
        {
          "indexed": true,
          "internalType": "address",
          "name": "user",
          "type": "address"
        },
        {
          "indexed": true,
          "internalType": "address",
          "name": "token",
          "type": "address"
        },
        {
          "indexed": false,
          "internalType": "uint256",
          "name": "totalAmount",
          "type": "uint256"
        },
        {
          "indexed": false,
          "internalType": "uint256[4]",
          "name": "amounts",
          "type": "uint256[4]"
        }
      ],
      "name": "PaymentRouted",
      "type": "event"
    },
    {
      "anonymous": false,
      "inputs": [
        {
          "indexed": true,
          "internalType": "address",
          "name": "user",
          "type": "address"
        },
        {
          "indexed": false,
          "internalType": "uint256[4]",
          "name": "ratios",
          "type": "uint256[4]"
        }
      ],
      "name": "SplitRatiosUpdated",
      "type": "event"
    },
    {
      "anonymous": false,
      "inputs": [
        {
          "indexed": true,
          "internalType": "address",
          "name": "implementation",
          "type": "address"
        }
      ],
      "name": "Upgraded",
      "type": "event"
    },
    {
      "inputs": [],
      "name": "NUM_BUCKETS",
      "outputs": [
        {
          "internalType": "uint256",
          "name": "",
          "type": "uint256"
        }
      ],
      "stateMutability": "view",
      "type": "function"
    },
    {
      "inputs": [],
      "name": "RATIO_DENOMINATOR",
      "outputs": [
        {
          "internalType": "uint256",
          "name": "",
          "type": "uint256"
        }
      ],
      "stateMutability": "view",
      "type": "function"
    },
    {
      "inputs": [],
      "name": "UPGRADE_INTERFACE_VERSION",
      "outputs": [
        {
          "internalType": "string",
          "name": "",
          "type": "string"
        }
      ],
      "stateMutability": "view",
      "type": "function"
    },
    {
      "inputs": [
        {
          "internalType": "address",
          "name": "",
          "type": "address"
        },
        {
          "internalType": "address",
          "name": "",
          "type": "address"
        }
      ],
      "name": "autoSplitEnabled",
      "outputs": [
        {
          "internalType": "bool",
          "name": "",
          "type": "bool"
        }
      ],
      "stateMutability": "view",
      "type": "function"
    },
    {
      "inputs": [
        {
          "internalType": "address",
          "name": "token",
          "type": "address"
        }
      ],
      "name": "disableAutoSplit",
      "outputs": [],
      "stateMutability": "nonpayable",
      "type": "function"
    },
    {
      "inputs": [
        {
          "internalType": "address",
          "name": "token",
          "type": "address"
        }
      ],
      "name": "enableAutoSplit",
      "outputs": [],
      "stateMutability": "nonpayable",
      "type": "function"
    },
    {
      "inputs": [
        {
          "internalType": "address",
          "name": "user",
          "type": "address"
        }
      ],
      "name": "getUserBuckets",
      "outputs": [
        {
          "internalType": "address[4]",
          "name": "",
          "type": "address[4]"
        }
      ],
      "stateMutability": "view",
      "type": "function"
    },
    {
      "inputs": [
        {
          "internalType": "address",
          "name": "user",
          "type": "address"
        }
      ],
      "name": "getUserRatios",
      "outputs": [
        {
          "internalType": "uint256[4]",
          "name": "",
          "type": "uint256[4]"
        }
      ],
      "stateMutability": "view",
      "type": "function"
    },
    {
      "inputs": [
        {
          "internalType": "address",
          "name": "owner_",
          "type": "address"
        }
      ],
      "name": "initialize",
      "outputs": [],
      "stateMutability": "nonpayable",
      "type": "function"
    },
    {
      "inputs": [
        {
          "internalType": "address",
          "name": "user",
          "type": "address"
        },
        {
          "internalType": "address",
          "name": "token",
          "type": "address"
        }
      ],
      "name": "isAutoSplitEnabled",
      "outputs": [
        {
          "internalType": "bool",
          "name": "",
          "type": "bool"
        }
      ],
      "stateMutability": "view",
      "type": "function"
    },
    {
      "inputs": [
        {
          "internalType": "address",
          "name": "user",
          "type": "address"
        }
      ],
      "name": "isUserInitialized",
      "outputs": [
        {
          "internalType": "bool",
          "name": "",
          "type": "bool"
        }
      ],
      "stateMutability": "view",
      "type": "function"
    },
    {
      "inputs": [],
      "name": "owner",
      "outputs": [
        {
          "internalType": "address",
          "name": "",
          "type": "address"
        }
      ],
      "stateMutability": "view",
      "type": "function"
    },
    {
      "inputs": [],
      "name": "proxiableUUID",
      "outputs": [
        {
          "internalType": "bytes32",
          "name": "",
          "type": "bytes32"
        }
      ],
      "stateMutability": "view",
      "type": "function"
    },
    {
      "inputs": [],
      "name": "renounceOwnership",
      "outputs": [],
      "stateMutability": "nonpayable",
      "type": "function"
    },
    {
      "inputs": [
        {
          "internalType": "address",
          "name": "token",
          "type": "address"
        },
        {
          "internalType": "uint256",
          "name": "amount",
          "type": "uint256"
        }
      ],
      "name": "routePayment",
      "outputs": [],
      "stateMutability": "nonpayable",
      "type": "function"
    },
    {
      "inputs": [
        {
          "internalType": "address[4]",
          "name": "buckets",
          "type": "address[4]"
        }
      ],
      "name": "setBucketAddresses",
      "outputs": [],
      "stateMutability": "nonpayable",
      "type": "function"
    },
    {
      "inputs": [
        {
          "internalType": "uint256[4]",
          "name": "ratios",
          "type": "uint256[4]"
        }
      ],
      "name": "setSplitRatios",
      "outputs": [],
      "stateMutability": "nonpayable",
      "type": "function"
    },
    {
      "inputs": [
        {
          "internalType": "address",
          "name": "newOwner",
          "type": "address"
        }
      ],
      "name": "transferOwnership",
      "outputs": [],
      "stateMutability": "nonpayable",
      "type": "function"
    },
    {
      "inputs": [
        {
          "internalType": "address",
          "name": "newImplementation",
          "type": "address"
        },
        {
          "internalType": "bytes",
          "name": "data",
          "type": "bytes"
        }
      ],
      "name": "upgradeToAndCall",
      "outputs": [],
      "stateMutability": "payable",
      "type": "function"
    },
    {
      "inputs": [
        {
          "internalType": "address",
          "name": "",
          "type": "address"
        }
      ],
      "name": "userConfigs",
      "outputs": [
        {
          "internalType": "bool",
          "name": "initialized",
          "type": "bool"
        }
      ],
      "stateMutability": "view",
      "type": "function"
    }
  ],
  "bytecode": "0x60a080604052346100cc57306080527ff0c57e16840df040f15088dc2f81fe391c3923bec73e23a9662efc9c229c6a009081549060ff8260401c166100bd57506001600160401b036002600160401b031982821601610078575b60405161133690816100d28239608051818181610cae0152610d8e0152f35b6001600160401b031990911681179091556040519081527fc7f505b2f371ae2175ee4913f4499e1f2633a7b5936321eed1cdaeb6115181d290602090a1388080610059565b63f92ee8a960e01b8152600490fd5b600080fdfe6040608081526004908136101561001557600080fd5b600091823560e01c9081634dbca0c614610f795781634f1ef28614610d1257816352d1902d14610c995781635d4697d014610c79578163715018a614610c0f578163821a20fa1461047957816385a4f0c614610b685781638da5cb5b14610b32578163a353dccd14610ab2578163ab3b1675146106d4578163ad3cb1cc14610635578163b7a0e24514610531578163bcb5a3c3146104c4578163c2200e3c14610479578163c4d66de81461030b578163c56ca84e146102ee578163e578d9f01461019a57508063f19562b61461017f578063f2fde38b1461014f5763fd6ee341146100ff57600080fd5b3461014b578060031936011261014b5760ff8160209361011d61102e565b610125611049565b6001600160a01b0391821683526001875283832091168252855220549151911615158152f35b5080fd5b823461017c57602036600319011261017c5761017961016c61102e565b610174611203565b61118f565b80f35b80fd5b503461014b578160031936011261014b576020905160648152f35b9050346102ea576020806003193601126102e6576001600160a01b036101be61102e565b169283156102b5578051636eb1769f60e11b8152338482019081523060208201529093908390859081906040010381885afa9384156102ab578694610278575b5064e8d4a51000841080159061026d575b1561025f5750907f92a634f4efda2c4dd344b2e859b73c5d3a09cab8787416eda4696b4280b5e35291338652600182528086208587528252808620600160ff19825416179055519283523392a380f35b90516313be252b60e01b8152fd5b50600019841461020f565b9093508281813d83116102a4575b6102908183611091565b810103126102a0575192386101fe565b8580fd5b503d610286565b82513d88823e3d90fd5b5162461bcd60e51b815291820152600d60248201526c24b73b30b634b2103a37b5b2b760991b604482015260649150fd5b8380fd5b8280fd5b919050346102ea57826003193601126102ea576020925051908152f35b9050346102ea5760203660031901126102ea5761032661102e565b907ff0c57e16840df040f15088dc2f81fe391c3923bec73e23a9662efc9c229c6a0091825460ff81861c16159267ffffffffffffffff821680159081610471575b6001149081610467575b15908161045e575b50610450575067ffffffffffffffff19811660011784556103ac919083610431575b506103a461123c565b61017461123c565b6103b461123c565b6103bc61123c565b60017f9b779b17422d0df92223018b32b4d1fa46e071723d6817e2486d003becc55f00556103e861123c565b6103f0578280f35b805468ff00000000000000001916905551600181527fc7f505b2f371ae2175ee4913f4499e1f2633a7b5936321eed1cdaeb6115181d290602090a138808280f35b68ffffffffffffffffff1916680100000000000000011784553861039b565b855163f92ee8a960e01b8152fd5b90501538610379565b303b159150610371565b859150610367565b50503461014b57602036600319011261014b576020906104bb61049a61102e565b6001600160a01b031660009081526020819052604090206008015460ff1690565b90519015158152f35b50503461014b57602036600319011261014b576104df61102e565b33808452600160209081528385206001600160a01b03909316808652929052918320805460ff19169055907fc16d5320df3f244b8bbff0ab796e300db3add720d0c7bf1e067e8bba93a300418380a380f35b919050346102ea5760803660031901126102ea57366084116102ea57825b82811061060057503383526020918360205281842081855b8381106105e4575050600801805460ff191660019081179091559151928482855b8483106105b95787337fcee4e35156a84795f3ac8037ae3df62398280b37c867eae82fafa20be2efb64960808aa280f35b81356001600160a01b03811691908290036105e05790815291850191908301908301610588565b8880fd5b600190866105f18461117b565b93019285828601015501610567565b6001600160a01b03610619610614836110f7565b61117b565b16156106275760010161054f565b5051637315c55b60e11b8152fd5b9050346102ea57826003193601126102ea578151908282019082821067ffffffffffffffff8311176106c15750825260058152602090640352e302e360dc1b6020820152825193849260208452825192836020860152825b8481106106ab57505050828201840152601f01601f19168101030190f35b818101830151888201880152879550820161068d565b634e487b7160e01b855260419052602484fd5b82843461017c578160031936011261017c576106ee61102e565b9060248035917f9b779b17422d0df92223018b32b4d1fa46e071723d6817e2486d003becc55f00956002875414610aa457600287556001600160a01b03948516948515610a95578415610a86573383526020978389528784209060ff60088301541615610a76578851636eb1769f60e11b8152338582019081523060208201528b908290819060400103818c5afa908115610a6c579088918791610a3b575b50106109ce5788519761079f8961105f565b6080368a37859a869b5b6003808e101561080e576107bd8e87611153565b9054911b1c808b02908b8204036107fc576001916107ed8f8e60646107f495046107e7838361111f565b5261111f565b5190611130565b9c019b6107a9565b634e487b7160e01b8952601188528989fd5b50908b8789968d988c8e9687038781116109bb5760608c015284516323b872dd60e01b815233858201523060248201526044808201899052919087816064818f8e5af19081156109b1578c91610994575b5015610984578a5b8581106108b357505050505050956108899160019697519384528301906110cf565b7f42df61625028a3f528370018e1b7e3a15e2aa4acdd8e359ca0c23f7d48e6029160a03392a35580f35b83888e858f8e8c8c8c6108c68a8861111f565b516108dd575b505050505050505050600101610867565b906108fa6108f18b83819897969501611153565b9690549861111f565b519151988997889663a9059cbb60e01b885260031b1c1690850152898401525af190811561097a578d9161094d575b501561093d5783888e858f8e8c8c8c6108cc565b86516312171d8360e31b81528690fd5b61096d9150893d8b11610973575b6109658183611091565b810190611163565b8e610929565b503d61095b565b88513d8f823e3d90fd5b85516312171d8360e31b81528590fd5b6109ab9150883d8a11610973576109658183611091565b8d61085f565b87513d8e823e3d90fd5b634e487b7160e01b8b526011855260248bfd5b83898989828e8151928352820152601b838201527f496e73756666696369656e7420746f6b656e20617070726f76616c000000000060608201527f1d729d02667df79f7682ad46806c68de7356bb6670b3ec683c8fba85c0eb580260803392a3516313be252b60e01b8152fd5b8092508c8092503d8311610a65575b610a548183611091565b810103126102a0578790518c61078d565b503d610a4a565b8a513d88823e3d90fd5b8851637315c55b60e11b81528490fd5b50855163162908e360e11b8152fd5b50855163c1ab6dc160e01b8152fd5b8551633ee5aeb560e01b8152fd5b8391503461014b57602091602060031936011261017c5791610ad261102e565b60808551610adf8161105f565b3690376001600160a01b0316835260208390528383208451939190845b848410610b1d57608086610b1b89610b138361105f565b5180926110cf565bf35b60018381928454815201920193019290610afc565b50503461014b578160031936011261014b576000805160206112e18339815191525490516001600160a01b039091168152602090f35b9050823461017c57602090602060031936011261017c5792610b8861102e565b9360808251610b968161105f565b3690376001600160a01b03948516815260208190528181208251929085018285855b888310610bf65750505050610bcc8361105f565b5194859291925b858410610bdf57608087f35b848060019284865116815201930193019291610bd3565b83548a1681526001938401939290920191879101610bb8565b833461017c578060031936011261017c57610c28611203565b6000805160206112e183398151915280546001600160a01b0319811690915581906001600160a01b03167f8be0079c531659141344cd1fd0a4f28419497f9722a3daafe3b4186f6b6457e08280a380f35b50503461014b578060031936011261014b5760ff8160209361011d61102e565b82843461017c578060031936011261017c57507f00000000000000000000000000000000000000000000000000000000000000006001600160a01b03163003610d0557602090517f360894a13ba1a3210667c828492db98dca3e2076cc3735a920a3ca505d382bbc8152f35b5163703e46dd60e11b8152fd5b918091506003193601126102ea57610d2861102e565b90602493843567ffffffffffffffff811161014b573660238201121561014b5780850135610d55816110b3565b94610d6285519687611091565b81865260209182870193368a83830101116102a0578186928b8693018737880101526001600160a01b037f00000000000000000000000000000000000000000000000000000000000000008116308114908115610f4b575b50610f3b57610dc7611203565b81169585516352d1902d60e01b815283818a818b5afa869181610f08575b50610e01575050505050505191634c9c8ce360e01b8352820152fd5b9088888894938c7f360894a13ba1a3210667c828492db98dca3e2076cc3735a920a3ca505d382bbc91828103610ef35750853b15610edf575080546001600160a01b031916821790558451889392917fbc7cd75a20ee27fd9adebab32041f755214dbc6bffa90cc0225b39da2e5c2d3b8580a2825115610ec1575050610eb39582915190845af4913d15610eb7573d610ea5610e9c826110b3565b92519283611091565b81528581943d92013e61127d565b5080f35b506060925061127d565b955095505050505034610ed357505080f35b63b398979f60e01b8152fd5b8651634c9c8ce360e01b8152808501849052fd5b8751632a87526960e21b815280860191909152fd5b9091508481813d8311610f34575b610f208183611091565b81010312610f3057519038610de5565b8680fd5b503d610f16565b855163703e46dd60e11b81528890fd5b9050817f360894a13ba1a3210667c828492db98dca3e2076cc3735a920a3ca505d382bbc5416141538610dba565b919050346102ea5760803660031901126102ea57366084116102ea5782805b838210611010576064915003611003573383526020836020528184208390855b858110610ff1578686608087519182377fa790532ac0f083e4ad5aba33e29daaa86ba16e95a4cb9b8347233e1b8f4ff5af60803392a280f35b82358282015591830191600101610fb8565b51632490d4bb60e01b8152fd5b61102660019161101f846110f7565b3590611130565b910190610f98565b600435906001600160a01b038216820361104457565b600080fd5b602435906001600160a01b038216820361104457565b6080810190811067ffffffffffffffff82111761107b57604052565b634e487b7160e01b600052604160045260246000fd5b90601f8019910116810190811067ffffffffffffffff82111761107b57604052565b67ffffffffffffffff811161107b57601f01601f191660200190565b6000915b600483106110e057505050565b6001908251815260208091019201920191906110d3565b60048110156111095760051b60040190565b634e487b7160e01b600052603260045260246000fd5b9060048110156111095760051b0190565b9190820180921161113d57565b634e487b7160e01b600052601160045260246000fd5b6004821015611109570190600090565b90816020910312611044575180151581036110445790565b356001600160a01b03811681036110445790565b6001600160a01b039081169081156111ea576000805160206112e183398151915280546001600160a01b031981168417909155167f8be0079c531659141344cd1fd0a4f28419497f9722a3daafe3b4186f6b6457e0600080a3565b604051631e4fbdf760e01b815260006004820152602490fd5b6000805160206112e1833981519152546001600160a01b0316330361122457565b60405163118cdaa760e01b8152336004820152602490fd5b60ff7ff0c57e16840df040f15088dc2f81fe391c3923bec73e23a9662efc9c229c6a005460401c161561126b57565b604051631afcd79f60e31b8152600490fd5b906112a4575080511561129257602081519101fd5b60405163d6bda27560e01b8152600490fd5b815115806112d7575b6112b5575090565b604051639996b31560e01b81526001600160a01b039091166004820152602490fd5b50803b156112ad56fe9016d09d72d40fdae2fd8ceac6b6234c7706214fd39c1cd1e609a0528c199300a26469706673582212209a3920c20ffc1a2b9c4f7520f45df082d8dc2883ab80247d1aa199f083ced9c864736f6c63430008160033",
  "linkReferences": {},
  "deployedLinkReferences": {}
}