{
  "_format": "hh-sol-artifact-1",
  "contractName": "MockDEXRouter",
  "sourceName": "contracts/src/mocks/MockDEXRouter.sol",
  "abi": [
    {
      "inputs": [
        {
          "internalType": "address",
          "name": "_weth",
          "type": "address"
        }
      ],
      "stateMutability": "nonpayable",
      "type": "constructor"
    },
    {
      "inputs": [
        {
          "internalType": "address",
          "name": "token",
          "type": "address"
        }
      ],
      "name": "SafeERC20FailedOperation",
      "type": "error"
    },
    {
      "anonymous": false,
      "inputs": [
        {
          "indexed": true,
          "internalType": "address",
          "name": "tokenIn",
          "type": "address"
        },
        {
          "indexed": true,
          "internalType": "address",
          "name": "tokenOut",
          "type": "address"
        },
        {
          "indexed": false,
          "internalType": "uint256",
          "name": "amountIn",
          "type": "uint256"
        },
        {
          "indexed": false,
          "internalType": "uint256",
          "name": "amountOut",
          "type": "uint256"
        },
        {
          "indexed": true,
          "internalType": "address",
          "name": "to",
          "type": "address"
        }
      ],
      "name": "Swap",
      "type": "event"
    },
    {
      "inputs": [],
      "name": "WETH",
      "outputs": [
        {
          "internalType": "address",
          "name": "",
          "type": "address"
        }
      ],
      "stateMutability": "view",
      "type": "function"
    },
    {
      "inputs": [
        {
          "internalType": "address",
          "name": "token",
          "type": "address"
        },
        {
          "internalType": "uint256",
          "name": "amount",
          "type": "uint256"
        }
      ],
      "name": "fundRouter",
      "outputs": [],
      "stateMutability": "nonpayable",
      "type": "function"
    },
    {
      "inputs": [
        {
          "internalType": "uint256",
          "name": "amountIn",
          "type": "uint256"
        },
        {
          "internalType": "address[]",
          "name": "path",
          "type": "address[]"
        }
      ],
      "name": "getAmountsOut",
      "outputs": [
        {
          "internalType": "uint256[]",
          "name": "amounts",
          "type": "uint256[]"
        }
      ],
      "stateMutability": "view",
      "type": "function"
    },
    {
      "inputs": [
        {
          "internalType": "address",
          "name": "",
          "type": "address"
        }
      ],
      "name": "prices",
      "outputs": [
        {
          "internalType": "uint256",
          "name": "",
          "type": "uint256"
        }
      ],
      "stateMutability": "view",
      "type": "function"
    },
    {
      "inputs": [
        {
          "internalType": "address",
          "name": "token",
          "type": "address"
        },
        {
          "internalType": "uint256",
          "name": "priceInUSDC",
          "type": "uint256"
        }
      ],
      "name": "setPrice",
      "outputs": [],
      "stateMutability": "nonpayable",
      "type": "function"
    },
    {
      "inputs": [
        {
          "internalType": "uint256",
          "name": "amountOutMin",
          "type": "uint256"
        },
        {
          "internalType": "address[]",
          "name": "path",
          "type": "address[]"
        },
        {
          "internalType": "address",
          "name": "to",
          "type": "address"
        },
        {
          "internalType": "uint256",
          "name": "deadline",
          "type": "uint256"
        }
      ],
      "name": "swapExactETHForTokens",
      "outputs": [
        {
          "internalType": "uint256[]",
          "name": "amounts",
          "type": "uint256[]"
        }
      ],
      "stateMutability": "payable",
      "type": "function"
    },
    {
      "inputs": [
        {
          "internalType": "uint256",
          "name": "amountIn",
          "type": "uint256"
        },
        {
          "internalType": "uint256",
          "name": "amountOutMin",
          "type": "uint256"
        },
        {
          "internalType": "address[]",
          "name": "path",
          "type": "address[]"
        },
        {
          "internalType": "address",
          "name": "to",
          "type": "address"
        },
        {
          "internalType": "uint256",
          "name": "deadline",
          "type": "uint256"
        }
      ],
      "name": "swapExactTokensForETH",
      "outputs": [
        {
          "internalType": "uint256[]",
          "name": "amounts",
          "type": "uint256[]"
        }
      ],
      "stateMutability": "nonpayable",
      "type": "function"
    },
    {
      "inputs": [
        {
          "internalType": "uint256",
          "name": "amountIn",
          "type": "uint256"
        },
        {
          "internalType": "uint256",
          "name": "amountOutMin",
          "type": "uint256"
        },
        {
          "internalType": "address[]",
          "name": "path",
          "type": "address[]"
        },
        {
          "internalType": "address",
          "name": "to",
          "type": "address"
        },
        {
          "internalType": "uint256",
          "name": "deadline",
          "type": "uint256"
        }
      ],
      "name": "swapExactTokensForTokens",
      "outputs": [
        {
          "internalType": "uint256[]",
          "name": "amounts",
          "type": "uint256[]"
        }
      ],
      "stateMutability": "nonpayable",
      "type": "function"
    },
    {
      "stateMutability": "payable",
      "type": "receive"
    }
  ],
  "bytecode": "0x60a03461007f57601f610cfb38819003918201601f19168301916001600160401b038311848410176100845780849260209460405283398101031261007f57516001600160a01b038116810361007f57608052604051610c60908161009b8239608051818181610156015281816101ff015281816104b10152610b8f0152f35b600080fd5b634e487b7160e01b600052604160045260246000fdfe60406080815260049081361015610020575b5050361561001e57600080fd5b005b600091823560e01c908162e4768b1461063957816318cbafe51461045757816338ed1739146103155781637ff36ab514610185578163ad5c464814610141578163cfed246b1461010a578163d06ca61f146100ba575063ef5d3adb0361001157346100b6573660031901126100b3576100b061009a61066c565b60243590309033906001600160a01b03166108cd565b80f35b80fd5b5080fd5b8284346100b357816003193601126100b3576024359067ffffffffffffffff82116100b35750610106926100f46100fb9236908301610687565b91356109a2565b905191829182610707565b0390f35b5050346100b65760203660031901126100b65760209181906001600160a01b0361013261066c565b16815280845220549051908152f35b5050346100b657816003193601126100b657517f00000000000000000000000000000000000000000000000000000000000000006001600160a01b03168152602090f35b838360803660031901126100b65760243567ffffffffffffffff8111610311576101b29036908501610687565b90926001600160a01b03604435818116939092908484036100b6576101db426064351015610742565b6101e86002821015610778565b80156102fe579082916102296101fd8961082f565b7f0000000000000000000000000000000000000000000000000000000000000000851695168514610778565b6102348189346109a2565b97885195600019968781019081116102eb57610250908b6107b3565b519661025f8c358910156107dd565b8301938385116102d857506101069a508383836102bb8a6102b0958a8f9a6102b06102b5917fb39c9bc43f811e1a7ce159c5f147458fdb80266bf23c17322013316e27e086d09e9c6102c09c61081f565b61082f565b1661087b565b61081f565b16938151903482526020820152a45191829182610707565b634e487b7160e01b815260118c52602490fd5b634e487b7160e01b855260118c52602485fd5b634e487b7160e01b825260328852602482fd5b8280fd5b8383346100b657610337610328366106b8565b95909192949395421115610742565b6103446002831015610778565b61034f8285856109a2565b96875192600019938481019081116104445761036e610378918b6107b3565b51978810156107dd565b8015610431576001600160a01b039361039f86866103958a61082f565b16309033906108cd565b81019181831161041e575061010699509280836104026102b085886103f38d8f9a888f6102b07fb39c9bc43f811e1a7ce159c5f147458fdb80266bf23c17322013316e27e086d09f9d839e6102b59361081f565b6103fc8c61082f565b9b61081f565b9885519788526020880152169616941692a45191829182610707565b634e487b7160e01b815260118b52602490fd5b634e487b7160e01b825260328a52602482fd5b634e487b7160e01b835260118b52602483fd5b8383346100b65761047861046a366106b8565b959092919495421115610742565b6104856002851015610778565b6000199684880185811161062657906104a66102b06104dd9b93888661081f565b6001600160a01b039a7f00000000000000000000000000000000000000000000000000000000000000008c1697918c168814610778565b6104e881858a6109a2565b998a519081019081116106135761050261050c918c6107b3565b51968710156107dd565b156106015761051f878b6103958661082f565b8080808088885af1903d156105fb573d9067ffffffffffffffff82116105e857895191610556601f8201601f191660200184610843565b825260203d92013e5b156105af5750877fb39c9bc43f811e1a7ce159c5f147458fdb80266bf23c17322013316e27e086d09261010699610596899461082f565b1694835197885260208801521694a45191829182610707565b606490602088519162461bcd60e51b83528201526013602482015272115512081d1c985b9cd9995c8819985a5b1959606a1b6044820152fd5b634e487b7160e01b815260418452602490fd5b5061055f565b6032602492634e487b7160e01b835252fd5b634e487b7160e01b835260118452602483fd5b634e487b7160e01b825260118a52602482fd5b5050346100b657806003193601126100b6576001600160a01b0361065b61066c565b168252816020526024359082205580f35b600435906001600160a01b038216820361068257565b600080fd5b9181601f840112156106825782359167ffffffffffffffff8311610682576020808501948460051b01011161068257565b60a06003198201126106825760043591602435916044359067ffffffffffffffff8211610682576106eb91600401610687565b90916064356001600160a01b0381168103610682579060843590565b6020908160408183019282815285518094520193019160005b82811061072e575050505090565b835185529381019392810192600101610720565b1561074957565b60405162461bcd60e51b8152602060048201526007602482015266115e1c1a5c995960ca1b6044820152606490fd5b1561077f57565b60405162461bcd60e51b815260206004820152600c60248201526b092dcecc2d8d2c840e0c2e8d60a31b6044820152606490fd5b80518210156107c75760209160051b010190565b634e487b7160e01b600052603260045260246000fd5b156107e457565b60405162461bcd60e51b8152602060048201526013602482015272125b9cdd59999a58da595b9d081bdd5d1c1d5d606a1b6044820152606490fd5b91908110156107c75760051b0190565b356001600160a01b03811681036106825790565b90601f8019910116810190811067ffffffffffffffff82111761086557604052565b634e487b7160e01b600052604160045260246000fd5b60405163a9059cbb60e01b60208201526001600160a01b039092166024830152604480830193909352918152608081019167ffffffffffffffff831182841017610865576108cb92604052610922565b565b6040516323b872dd60e01b60208201526001600160a01b03928316602482015292909116604483015260648083019390935291815260a081019181831067ffffffffffffffff841117610865576108cb926040525b906000602091828151910182855af11561097e576000513d61097557506001600160a01b0381163b155b6109535750565b604051635274afe760e01b81526001600160a01b039091166004820152602490fd5b6001141561094c565b6040513d6000823e3d90fd5b67ffffffffffffffff81116108655760051b60200190565b90916109b16002821015610778565b6109ba8161098a565b926040906109ca82519586610843565b8285526109d68361098a565b6020949086860190601f19013682378651156107c7575260005b6000198401848111610ae557811015610b3857610a0d81876107b3565b51610a1c6102b083878661081f565b906001830191828411610ae557610a376102b084898861081f565b6001600160a01b038281166000908152808b52888120549183168152889020549281151580610b2f575b15610afb57610a89610a959392610a83610a7d610a8f94610b81565b94610b81565b96610b40565b91610b53565b90610b61565b906103e591828102928184041490151715610ae557610ac7610acc926103e8610ac0610ad396610b53565b9104610b40565b610b61565b91886107b3565b526000198114610ae5576001016109f0565b634e487b7160e01b600052601160045260246000fd5b885162461bcd60e51b8152600481018c9052600d60248201526c141c9a58d9481b9bdd081cd95d609a1b6044820152606490fd5b50831515610a61565b505050505090565b81810292918115918404141715610ae557565b604d8111610ae557600a0a90565b8115610b6b570490565b634e487b7160e01b600052601260045260246000fd5b6001600160a01b03908116907f0000000000000000000000000000000000000000000000000000000000000000168114610c245760206004916040519283809263313ce56760e01b82525afa8091600091610be9575b5090610be35750601290565b60ff1690565b6020813d8211610c1c575b81610c0160209383610843565b810103126100b657519060ff821682036100b3575038610bd7565b3d9150610bf4565b5060129056fea26469706673582212205391fb32af9645bf16c02c7f85977535853ffbac8bbb2567d115ec1d1bb8cd2764736f6c63430008140033",
  "linkReferences": {},
  "deployedLinkReferences": {}
}