{
  "_format": "hh-sol-artifact-1",
  "contractName": "DateTimeTest",
  "sourceName": "contracts/src/Test.sol",
  "abi": [
    {
      "inputs": [
        {
          "internalType": "uint256",
          "name": "timestamp",
          "type": "uint256"
        }
      ],
      "name": "testGetDay",
      "outputs": [
        {
          "internalType": "uint256",
          "name": "",
          "type": "uint256"
        }
      ],
      "stateMutability": "pure",
      "type": "function"
    },
    {
      "inputs": [
        {
          "internalType": "uint256",
          "name": "timestamp",
          "type": "uint256"
        }
      ],
      "name": "testGetDaysInMonth",
      "outputs": [
        {
          "internalType": "uint256",
          "name": "",
          "type": "uint256"
        }
      ],
      "stateMutability": "pure",
      "type": "function"
    },
    {
      "inputs": [
        {
          "internalType": "uint256",
          "name": "timestamp",
          "type": "uint256"
        }
      ],
      "name": "testGetMonth",
      "outputs": [
        {
          "internalType": "uint256",
          "name": "",
          "type": "uint256"
        }
      ],
      "stateMutability": "pure",
      "type": "function"
    },
    {
      "inputs": [
        {
          "internalType": "uint256",
          "name": "timestamp",
          "type": "uint256"
        }
      ],
      "name": "testGetYear",
      "outputs": [
        {
          "internalType": "uint256",
          "name": "",
          "type": "uint256"
        }
      ],
      "stateMutability": "pure",
      "type": "function"
    },
    {
      "inputs": [
        {
          "internalType": "uint256",
          "name": "timestamp",
          "type": "uint256"
        }
      ],
      "name": "testIsLeapYear",
      "outputs": [
        {
          "internalType": "bool",
          "name": "",
          "type": "bool"
        }
      ],
      "stateMutability": "pure",
      "type": "function"
    }
  ],
  "bytecode": "0x60808060405234610016576102b9908161001c8239f35b600080fdfe6080806040526004908136101561001557600080fd5b600090813560e01c9081635ed664291461011c5750806387dbff92146100e557806389598126146100b8578063a1b5b1aa1461008a5763f963ee0b1461005a57600080fd5b3461008757602036600319011261008757602061007c620151808435046101ea565b509050604051908152f35b80fd5b50346100875760203660031901126100875760206100ad620151808435046101ea565b915050604051908152f35b50346100875760203660031901126100875760206100db620151808435046101ea565b5050604051908152f35b503461008757602036600319011261008757602061011261010b620151808535046101ea565b5050610256565b6040519015158152f35b905082346101e65760203660031901126101e657916101426201518060209435046101ea565b506001811480156101dc575b80156101d2575b80156101c8575b80156101be575b80156101b4575b80156101aa575b1561017f57505050601f8152f35b60021461018e575050601e8152f35b61019790610256565b1590506101a457601d8152f35b601c8152f35b50600c8114610171565b50600a811461016a565b5060088114610163565b506007811461015c565b5060058114610155565b506003811461014e565b8280fd5b62023ab190600460038362264965840160021b05809402010590039162164b09622649668401610fa00205926004846105b5020590039161098f926050622649849260028685850184020591600b830598899160301901606402010197600c0282030195020590030190565b60038116159081610276575b811561026c575090565b6101909150061590565b606481061515915061026256fea26469706673582212209129edc1b707bb8ac6274677f43639c5273b8a25abd5644fe0cf0052f2f4457764736f6c63430008160033",
  "linkReferences": {},
  "deployedLinkReferences": {}
}