{
  "_format": "hh-sol-artifact-1",
  "contractName": "MockRedemptionPriceOracle",
  "sourceName": "contracts/src/mocks/MockUSDY.sol",
  "abi": [
    {
      "inputs": [
        {
          "internalType": "address",
          "name": "_usdy",
          "type": "address"
        }
      ],
      "stateMutability": "nonpayable",
      "type": "constructor"
    },
    {
      "inputs": [],
      "name": "getPrice",
      "outputs": [
        {
          "internalType": "uint256",
          "name": "",
          "type": "uint256"
        }
      ],
      "stateMutability": "view",
      "type": "function"
    },
    {
      "inputs": [],
      "name": "usdy",
      "outputs": [
        {
          "internalType": "contract MockUSDY",
          "name": "",
          "type": "address"
        }
      ],
      "stateMutability": "view",
      "type": "function"
    }
  ],
  "bytecode": "0x60803461007457601f6101e138819003918201601f19168301916001600160401b038311848410176100795780849260209460405283398101031261007457516001600160a01b0381169081900361007457600080546001600160a01b03191691909117905560405161015190816100908239f35b600080fd5b634e487b7160e01b600052604160045260246000fdfe608080604052600436101561001357600080fd5b600090813560e01c90816398d506e9146100f757506398d5fdca1461003757600080fd5b346100f457806003193601126100f4578054604051630316dd2360e61b815290602090829060049082906001600160a01b03165afa9081156100e9578291610085575b602082604051908152f35b905060203d6020116100e2575b601f8101601f1916820167ffffffffffffffff8111838210176100ce576020918391604052810103126100ca5760209150513861007a565b5080fd5b634e487b7160e01b84526041600452602484fd5b503d610092565b6040513d84823e3d90fd5b80fd5b9050346100ca57816003193601126100ca5790546001600160a01b03168152602090f3fea2646970667358221220c0c9deef7be93e0fa0c948a67a17b7f7f287cc40e793d05153df15e626fd1c6664736f6c63430008160033",
  "linkReferences": {},
  "deployedLinkReferences": {}
}