{
  "_format": "hh-sol-artifact-1",
  "contractName": "MockUSDYManager",
  "sourceName": "contracts/src/mocks/MockUSDY.sol",
  "abi": [
    {
      "inputs": [
        {
          "internalType": "address",
          "name": "_usdy",
          "type": "address"
        },
        {
          "internalType": "address",
          "name": "_usdc",
          "type": "address"
        }
      ],
      "stateMutability": "nonpayable",
      "type": "constructor"
    },
    {
      "inputs": [],
      "name": "MINIMUM_DEPOSIT",
      "outputs": [
        {
          "internalType": "uint256",
          "name": "",
          "type": "uint256"
        }
      ],
      "stateMutability": "view",
      "type": "function"
    },
    {
      "inputs": [],
      "name": "minimumDepositAmount",
      "outputs": [
        {
          "internalType": "uint256",
          "name": "",
          "type": "uint256"
        }
      ],
      "stateMutability": "pure",
      "type": "function"
    },
    {
      "inputs": [
        {
          "internalType": "uint256",
          "name": "amount",
          "type": "uint256"
        }
      ],
      "name": "mint",
      "outputs": [],
      "stateMutability": "nonpayable",
      "type": "function"
    },
    {
      "inputs": [
        {
          "internalType": "uint256",
          "name": "amount",
          "type": "uint256"
        }
      ],
      "name": "redeem",
      "outputs": [],
      "stateMutability": "nonpayable",
      "type": "function"
    },
    {
      "inputs": [],
      "name": "usdc",
      "outputs": [
        {
          "internalType": "address",
          "name": "",
          "type": "address"
        }
      ],
      "stateMutability": "view",
      "type": "function"
    },
    {
      "inputs": [],
      "name": "usdy",
      "outputs": [
        {
          "internalType": "contract MockUSDY",
          "name": "",
          "type": "address"
        }
      ],
      "stateMutability": "view",
      "type": "function"
    }
  ],
  "bytecode": "0x60803461008d57601f6104f938819003918201601f19168301916001600160401b0383118484101761009257808492604094855283398101031261008d57610052602061004b836100a8565b92016100a8565b600080546001600160a01b039384166001600160a01b0319918216179091556001805492909316911617905560405161043c90816100bd8239f35b600080fd5b634e487b7160e01b600052604160045260246000fd5b51906001600160a01b038216820361008d5756fe608060408181526004918236101561001657600080fd5b600092833560e01c918263080c279a14610319575081633e413bee146102f057816398d506e9146102c8578163a0712d681461017657838263db006a751461008a57505063f19451d81461006957600080fd5b34610086578160031936011261008657602090516305f5e1008152f35b5080fd5b915091346100865760203660031901126100865781548335936001600160a01b03918216803b15610172578351632770a7eb60e21b81523392810192835260208301879052918591839182908490829060400103925af1801561016557610149575b50600154915163a9059cbb60e01b6020820190815233602483015264e8d4a5100090950460448083019190915281526101469484939290921691908390610134606482610361565b51925af1610140610383565b506103c3565b80f35b6101568491939293610337565b6101615790386100ec565b8280fd5b50505051903d90823e3d90fd5b8480fd5b919050346101615760203660031901126101615781356305f5e10081106102955760015482516323b872dd60e01b60208201908152336024830152306044830152606480830185905282526001600160a01b039283169160a0810167ffffffffffffffff811182821017610282579288928380936101fc968a5251925af1610140610383565b64e8d4a510009182810292818404149015171561026f57908491825416803b156101615783516340c10f1960e01b8152339581019586526020860192909252909384919082908490829060400103925af1908115610266575061025d575080f35b61014690610337565b513d84823e3d90fd5b634e487b7160e01b855260118452602485fd5b634e487b7160e01b895260418852602489fd5b815162461bcd60e51b8152602081850152600d60248201526c42656c6f77206d696e696d756d60981b6044820152606490fd5b505034610086578160031936011261008657905490516001600160a01b039091168152602090f35b50503461008657816003193601126100865760015490516001600160a01b039091168152602090f35b849034610086578160031936011261008657806305f5e10060209252f35b67ffffffffffffffff811161034b57604052565b634e487b7160e01b600052604160045260246000fd5b90601f8019910116810190811067ffffffffffffffff82111761034b57604052565b3d156103be573d9067ffffffffffffffff821161034b57604051916103b2601f8201601f191660200184610361565b82523d6000602084013e565b606090565b156103ca57565b60405162461bcd60e51b81526020600482015260146024820152731554d110c81d1c985b9cd9995c8819985a5b195960621b6044820152606490fdfea26469706673582212206a2cc09b356b70863c6056ef15a79ed14c62738e87e32d807c36762f508c98c664736f6c63430008160033",
  "linkReferences": {},
  "deployedLinkReferences": {}
}