{
  "_format": "hh-sol-artifact-1",
  "contractName": "MockRedemptionPriceOracle",
  "sourceName": "contracts/src/mocks/MockUSDY.sol",
  "abi": [
    {
      "inputs": [
        {
          "internalType": "address",
          "name": "_usdy",
          "type": "address"
        }
      ],
      "stateMutability": "nonpayable",
      "type": "constructor"
    },
    {
      "inputs": [],
      "name": "getPrice",
      "outputs": [
        {
          "internalType": "uint256",
          "name": "",
          "type": "uint256"
        }
      ],
      "stateMutability": "view",
      "type": "function"
    },
    {
      "inputs": [],
      "name": "usdy",
      "outputs": [
        {
          "internalType": "contract MockUSDY",
          "name": "",
          "type": "address"
        }
      ],
      "stateMutability": "view",
      "type": "function"
    }
  ],
  "bytecode": "0x60803461007457601f6101e038819003918201601f19168301916001600160401b038311848410176100795780849260209460405283398101031261007457516001600160a01b0381169081900361007457600080546001600160a01b03191691909117905560405161015090816100908239f35b600080fd5b634e487b7160e01b600052604160045260246000fdfe608080604052600436101561001357600080fd5b600090813560e01c90816398d506e9146100f657506398d5fdca1461003757600080fd5b346100f357806003193601126100f3578054604051630316dd2360e61b815290602090829060049082906001600160a01b03165afa9081156100e8578291610085575b602082604051908152f35b905060203d81116100e1575b601f8101601f1916820167ffffffffffffffff8111838210176100cd576020918391604052810103126100c95760209150513861007a565b5080fd5b634e487b7160e01b84526041600452602484fd5b503d610091565b6040513d84823e3d90fd5b80fd5b9050346100c957816003193601126100c95790546001600160a01b03168152602090f3fea2646970667358221220ab205f2ca5ec477b953895bfde898ad1e2bf4db2a1082ba340f14dccee998de564736f6c63430008140033",
  "linkReferences": {},
  "deployedLinkReferences": {}
}