{
  "_format": "hh-sol-artifact-1",
  "contractName": "SpendableVault",
  "sourceName": "contracts/src/vaults/SpendableVault.sol",
  "abi": [
    {
      "inputs": [
        {
          "internalType": "contract IERC20",
          "name": "asset_",
          "type": "address"
        },
        {
          "internalType": "uint256",
          "name": "maxDeposit_",
          "type": "uint256"
        }
      ],
      "stateMutability": "nonpayable",
      "type": "constructor"
    },
    {
      "inputs": [
        {
          "internalType": "address",
          "name": "spender",
          "type": "address"
        },
        {
          "internalType": "uint256",
          "name": "allowance",
          "type": "uint256"
        },
        {
          "internalType": "uint256",
          "name": "needed",
          "type": "uint256"
        }
      ],
      "name": "ERC20InsufficientAllowance",
      "type": "error"
    },
    {
      "inputs": [
        {
          "internalType": "address",
          "name": "sender",
          "type": "address"
        },
        {
          "internalType": "uint256",
          "name": "balance",
          "type": "uint256"
        },
        {
          "internalType": "uint256",
          "name": "needed",
          "type": "uint256"
        }
      ],
      "name": "ERC20InsufficientBalance",
      "type": "error"
    },
    {
      "inputs": [
        {
          "internalType": "address",
          "name": "approver",
          "type": "address"
        }
      ],
      "name": "ERC20InvalidApprover",
      "type": "error"
    },
    {
      "inputs": [
        {
          "internalType": "address",
          "name": "receiver",
          "type": "address"
        }
      ],
      "name": "ERC20InvalidReceiver",
      "type": "error"
    },
    {
      "inputs": [
        {
          "internalType": "address",
          "name": "sender",
          "type": "address"
        }
      ],
      "name": "ERC20InvalidSender",
      "type": "error"
    },
    {
      "inputs": [
        {
          "internalType": "address",
          "name": "spender",
          "type": "address"
        }
      ],
      "name": "ERC20InvalidSpender",
      "type": "error"
    },
    {
      "inputs": [
        {
          "internalType": "address",
          "name": "receiver",
          "type": "address"
        },
        {
          "internalType": "uint256",
          "name": "assets",
          "type": "uint256"
        },
        {
          "internalType": "uint256",
          "name": "max",
          "type": "uint256"
        }
      ],
      "name": "ERC4626ExceededMaxDeposit",
      "type": "error"
    },
    {
      "inputs": [
        {
          "internalType": "address",
          "name": "receiver",
          "type": "address"
        },
        {
          "internalType": "uint256",
          "name": "shares",
          "type": "uint256"
        },
        {
          "internalType": "uint256",
          "name": "max",
          "type": "uint256"
        }
      ],
      "name": "ERC4626ExceededMaxMint",
      "type": "error"
    },
    {
      "inputs": [
        {
          "internalType": "address",
          "name": "owner",
          "type": "address"
        },
        {
          "internalType": "uint256",
          "name": "shares",
          "type": "uint256"
        },
        {
          "internalType": "uint256",
          "name": "max",
          "type": "uint256"
        }
      ],
      "name": "ERC4626ExceededMaxRedeem",
      "type": "error"
    },
    {
      "inputs": [
        {
          "internalType": "address",
          "name": "owner",
          "type": "address"
        },
        {
          "internalType": "uint256",
          "name": "assets",
          "type": "uint256"
        },
        {
          "internalType": "uint256",
          "name": "max",
          "type": "uint256"
        }
      ],
      "name": "ERC4626ExceededMaxWithdraw",
      "type": "error"
    },
    {
      "inputs": [],
      "name": "EmergencyWithdrawalPenaltyTooHigh",
      "type": "error"
    },
    {
      "inputs": [],
      "name": "EnforcedPause",
      "type": "error"
    },
    {
      "inputs": [],
      "name": "ExceedsMaxDeposit",
      "type": "error"
    },
    {
      "inputs": [],
      "name": "ExceedsMaxSlippage",
      "type": "error"
    },
    {
      "inputs": [],
      "name": "ExpectedPause",
      "type": "error"
    },
    {
      "inputs": [],
      "name": "InsufficientBalance",
      "type": "error"
    },
    {
      "inputs": [],
      "name": "InvalidAmount",
      "type": "error"
    },
    {
      "inputs": [
        {
          "internalType": "address",
          "name": "owner",
          "type": "address"
        }
      ],
      "name": "OwnableInvalidOwner",
      "type": "error"
    },
    {
      "inputs": [
        {
          "internalType": "address",
          "name": "account",
          "type": "address"
        }
      ],
      "name": "OwnableUnauthorizedAccount",
      "type": "error"
    },
    {
      "inputs": [],
      "name": "ReentrancyGuardReentrantCall",
      "type": "error"
    },
    {
      "inputs": [
        {
          "internalType": "address",
          "name": "token",
          "type": "address"
        }
      ],
      "name": "SafeERC20FailedOperation",
      "type": "error"
    },
    {
      "inputs": [],
      "name": "WithdrawalDelayNotMet",
      "type": "error"
    },
    {
      "inputs": [],
      "name": "YieldProtocolCallFailed",
      "type": "error"
    },
    {
      "inputs": [],
      "name": "YieldProtocolNotSet",
      "type": "error"
    },
    {
      "anonymous": false,
      "inputs": [
        {
          "indexed": true,
          "internalType": "address",
          "name": "owner",
          "type": "address"
        },
        {
          "indexed": true,
          "internalType": "address",
          "name": "spender",
          "type": "address"
        },
        {
          "indexed": false,
          "internalType": "uint256",
          "name": "value",
          "type": "uint256"
        }
      ],
      "name": "Approval",
      "type": "event"
    },
    {
      "anonymous": false,
      "inputs": [
        {
          "indexed": true,
          "internalType": "address",
          "name": "sender",
          "type": "address"
        },
        {
          "indexed": true,
          "internalType": "address",
          "name": "owner",
          "type": "address"
        },
        {
          "indexed": false,
          "internalType": "uint256",
          "name": "assets",
          "type": "uint256"
        },
        {
          "indexed": false,
          "internalType": "uint256",
          "name": "shares",
          "type": "uint256"
        }
      ],
      "name": "Deposit",
      "type": "event"
    },
    {
      "anonymous": false,
      "inputs": [
        {
          "indexed": true,
          "internalType": "address",
          "name": "user",
          "type": "address"
        },
        {
          "indexed": false,
          "internalType": "uint256",
          "name": "amount",
          "type": "uint256"
        },
        {
          "indexed": false,
          "internalType": "uint256",
          "name": "penalty",
          "type": "uint256"
        }
      ],
      "name": "EmergencyWithdrawal",
      "type": "event"
    },
    {
      "anonymous": false,
      "inputs": [
        {
          "indexed": false,
          "internalType": "uint256",
          "name": "newLimit",
          "type": "uint256"
        }
      ],
      "name": "MaxDepositLimitUpdated",
      "type": "event"
    },
    {
      "anonymous": false,
      "inputs": [
        {
          "indexed": true,
          "internalType": "address",
          "name": "previousOwner",
          "type": "address"
        },
        {
          "indexed": true,
          "internalType": "address",
          "name": "newOwner",
          "type": "address"
        }
      ],
      "name": "OwnershipTransferred",
      "type": "event"
    },
    {
      "anonymous": false,
      "inputs": [
        {
          "indexed": false,
          "internalType": "address",
          "name": "account",
          "type": "address"
        }
      ],
      "name": "Paused",
      "type": "event"
    },
    {
      "anonymous": false,
      "inputs": [
        {
          "indexed": false,
          "internalType": "uint256",
          "name": "maxSlippageBps",
          "type": "uint256"
        }
      ],
      "name": "SlippageProtectionUpdated",
      "type": "event"
    },
    {
      "anonymous": false,
      "inputs": [
        {
          "indexed": true,
          "internalType": "address",
          "name": "from",
          "type": "address"
        },
        {
          "indexed": true,
          "internalType": "address",
          "name": "to",
          "type": "address"
        },
        {
          "indexed": false,
          "internalType": "uint256",
          "name": "value",
          "type": "uint256"
        }
      ],
      "name": "Transfer",
      "type": "event"
    },
    {
      "anonymous": false,
      "inputs": [
        {
          "indexed": false,
          "internalType": "address",
          "name": "account",
          "type": "address"
        }
      ],
      "name": "Unpaused",
      "type": "event"
    },
    {
      "anonymous": false,
      "inputs": [
        {
          "indexed": true,
          "internalType": "address",
          "name": "sender",
          "type": "address"
        },
        {
          "indexed": true,
          "internalType": "address",
          "name": "receiver",
          "type": "address"
        },
        {
          "indexed": true,
          "internalType": "address",
          "name": "owner",
          "type": "address"
        },
        {
          "indexed": false,
          "internalType": "uint256",
          "name": "assets",
          "type": "uint256"
        },
        {
          "indexed": false,
          "internalType": "uint256",
          "name": "shares",
          "type": "uint256"
        }
      ],
      "name": "Withdraw",
      "type": "event"
    },
    {
      "anonymous": false,
      "inputs": [
        {
          "indexed": false,
          "internalType": "uint256",
          "name": "delaySeconds",
          "type": "uint256"
        },
        {
          "indexed": false,
          "internalType": "uint256",
          "name": "feeBps",
          "type": "uint256"
        }
      ],
      "name": "WithdrawalConfigUpdated",
      "type": "event"
    },
    {
      "anonymous": false,
      "inputs": [
        {
          "indexed": false,
          "internalType": "uint256",
          "name": "amount",
          "type": "uint256"
        }
      ],
      "name": "YieldCompounded",
      "type": "event"
    },
    {
      "anonymous": false,
      "inputs": [
        {
          "indexed": false,
          "internalType": "uint256",
          "name": "amount",
          "type": "uint256"
        },
        {
          "indexed": false,
          "internalType": "uint256",
          "name": "shares",
          "type": "uint256"
        }
      ],
      "name": "YieldDeposited",
      "type": "event"
    },
    {
      "anonymous": false,
      "inputs": [
        {
          "indexed": true,
          "internalType": "address",
          "name": "protocol",
          "type": "address"
        }
      ],
      "name": "YieldProtocolSet",
      "type": "event"
    },
    {
      "anonymous": false,
      "inputs": [
        {
          "indexed": false,
          "internalType": "uint256",
          "name": "shares",
          "type": "uint256"
        },
        {
          "indexed": false,
          "internalType": "uint256",
          "name": "amount",
          "type": "uint256"
        }
      ],
      "name": "YieldWithdrawn",
      "type": "event"
    },
    {
      "inputs": [],
      "name": "EMERGENCY_PENALTY_BPS",
      "outputs": [
        {
          "internalType": "uint256",
          "name": "",
          "type": "uint256"
        }
      ],
      "stateMutability": "view",
      "type": "function"
    },
    {
      "inputs": [],
      "name": "MAX_BPS",
      "outputs": [
        {
          "internalType": "uint256",
          "name": "",
          "type": "uint256"
        }
      ],
      "stateMutability": "view",
      "type": "function"
    },
    {
      "inputs": [
        {
          "internalType": "address",
          "name": "owner",
          "type": "address"
        },
        {
          "internalType": "address",
          "name": "spender",
          "type": "address"
        }
      ],
      "name": "allowance",
      "outputs": [
        {
          "internalType": "uint256",
          "name": "",
          "type": "uint256"
        }
      ],
      "stateMutability": "view",
      "type": "function"
    },
    {
      "inputs": [
        {
          "internalType": "address",
          "name": "spender",
          "type": "address"
        },
        {
          "internalType": "uint256",
          "name": "value",
          "type": "uint256"
        }
      ],
      "name": "approve",
      "outputs": [
        {
          "internalType": "bool",
          "name": "",
          "type": "bool"
        }
      ],
      "stateMutability": "nonpayable",
      "type": "function"
    },
    {
      "inputs": [],
      "name": "asset",
      "outputs": [
        {
          "internalType": "address",
          "name": "",
          "type": "address"
        }
      ],
      "stateMutability": "view",
      "type": "function"
    },
    {
      "inputs": [
        {
          "internalType": "address",
          "name": "account",
          "type": "address"
        }
      ],
      "name": "balanceOf",
      "outputs": [
        {
          "internalType": "uint256",
          "name": "",
          "type": "uint256"
        }
      ],
      "stateMutability": "view",
      "type": "function"
    },
    {
      "inputs": [],
      "name": "compoundYield",
      "outputs": [],
      "stateMutability": "nonpayable",
      "type": "function"
    },
    {
      "inputs": [
        {
          "internalType": "uint256",
          "name": "shares",
          "type": "uint256"
        }
      ],
      "name": "convertToAssets",
      "outputs": [
        {
          "internalType": "uint256",
          "name": "",
          "type": "uint256"
        }
      ],
      "stateMutability": "view",
      "type": "function"
    },
    {
      "inputs": [
        {
          "internalType": "uint256",
          "name": "assets",
          "type": "uint256"
        }
      ],
      "name": "convertToShares",
      "outputs": [
        {
          "internalType": "uint256",
          "name": "",
          "type": "uint256"
        }
      ],
      "stateMutability": "view",
      "type": "function"
    },
    {
      "inputs": [],
      "name": "decimals",
      "outputs": [
        {
          "internalType": "uint8",
          "name": "",
          "type": "uint8"
        }
      ],
      "stateMutability": "view",
      "type": "function"
    },
    {
      "inputs": [
        {
          "internalType": "uint256",
          "name": "assets",
          "type": "uint256"
        },
        {
          "internalType": "address",
          "name": "receiver",
          "type": "address"
        }
      ],
      "name": "deposit",
      "outputs": [
        {
          "internalType": "uint256",
          "name": "shares",
          "type": "uint256"
        }
      ],
      "stateMutability": "nonpayable",
      "type": "function"
    },
    {
      "inputs": [
        {
          "internalType": "uint256",
          "name": "amount",
          "type": "uint256"
        }
      ],
      "name": "depositToYieldProtocol",
      "outputs": [],
      "stateMutability": "nonpayable",
      "type": "function"
    },
    {
      "inputs": [
        {
          "internalType": "uint256",
          "name": "assets",
          "type": "uint256"
        }
      ],
      "name": "emergencyWithdraw",
      "outputs": [],
      "stateMutability": "nonpayable",
      "type": "function"
    },
    {
      "inputs": [
        {
          "internalType": "address",
          "name": "to",
          "type": "address"
        },
        {
          "internalType": "uint256",
          "name": "shares",
          "type": "uint256"
        }
      ],
      "name": "fastTransfer",
      "outputs": [
        {
          "internalType": "bool",
          "name": "",
          "type": "bool"
        }
      ],
      "stateMutability": "nonpayable",
      "type": "function"
    },
    {
      "inputs": [],
      "name": "getYieldRate",
      "outputs": [
        {
          "internalType": "uint256",
          "name": "",
          "type": "uint256"
        }
      ],
      "stateMutability": "view",
      "type": "function"
    },
    {
      "inputs": [
        {
          "internalType": "address",
          "name": "",
          "type": "address"
        }
      ],
      "name": "lastDepositTimestamp",
      "outputs": [
        {
          "internalType": "uint256",
          "name": "",
          "type": "uint256"
        }
      ],
      "stateMutability": "view",
      "type": "function"
    },
    {
      "inputs": [],
      "name": "lastYieldUpdate",
      "outputs": [
        {
          "internalType": "uint256",
          "name": "",
          "type": "uint256"
        }
      ],
      "stateMutability": "view",
      "type": "function"
    },
    {
      "inputs": [
        {
          "internalType": "address",
          "name": "",
          "type": "address"
        }
      ],
      "name": "maxDeposit",
      "outputs": [
        {
          "internalType": "uint256",
          "name": "",
          "type": "uint256"
        }
      ],
      "stateMutability": "view",
      "type": "function"
    },
    {
      "inputs": [],
      "name": "maxDepositLimit",
      "outputs": [
        {
          "internalType": "uint256",
          "name": "",
          "type": "uint256"
        }
      ],
      "stateMutability": "view",
      "type": "function"
    },
    {
      "inputs": [
        {
          "internalType": "address",
          "name": "",
          "type": "address"
        }
      ],
      "name": "maxMint",
      "outputs": [
        {
          "internalType": "uint256",
          "name": "",
          "type": "uint256"
        }
      ],
      "stateMutability": "view",
      "type": "function"
    },
    {
      "inputs": [
        {
          "internalType": "address",
          "name": "owner",
          "type": "address"
        }
      ],
      "name": "maxRedeem",
      "outputs": [
        {
          "internalType": "uint256",
          "name": "",
          "type": "uint256"
        }
      ],
      "stateMutability": "view",
      "type": "function"
    },
    {
      "inputs": [],
      "name": "maxSlippageBps",
      "outputs": [
        {
          "internalType": "uint256",
          "name": "",
          "type": "uint256"
        }
      ],
      "stateMutability": "view",
      "type": "function"
    },
    {
      "inputs": [
        {
          "internalType": "address",
          "name": "owner",
          "type": "address"
        }
      ],
      "name": "maxWithdraw",
      "outputs": [
        {
          "internalType": "uint256",
          "name": "",
          "type": "uint256"
        }
      ],
      "stateMutability": "view",
      "type": "function"
    },
    {
      "inputs": [
        {
          "internalType": "uint256",
          "name": "shares",
          "type": "uint256"
        },
        {
          "internalType": "address",
          "name": "receiver",
          "type": "address"
        }
      ],
      "name": "mint",
      "outputs": [
        {
          "internalType": "uint256",
          "name": "",
          "type": "uint256"
        }
      ],
      "stateMutability": "nonpayable",
      "type": "function"
    },
    {
      "inputs": [],
      "name": "name",
      "outputs": [
        {
          "internalType": "string",
          "name": "",
          "type": "string"
        }
      ],
      "stateMutability": "view",
      "type": "function"
    },
    {
      "inputs": [],
      "name": "owner",
      "outputs": [
        {
          "internalType": "address",
          "name": "",
          "type": "address"
        }
      ],
      "stateMutability": "view",
      "type": "function"
    },
    {
      "inputs": [],
      "name": "pause",
      "outputs": [],
      "stateMutability": "nonpayable",
      "type": "function"
    },
    {
      "inputs": [],
      "name": "paused",
      "outputs": [
        {
          "internalType": "bool",
          "name": "",
          "type": "bool"
        }
      ],
      "stateMutability": "view",
      "type": "function"
    },
    {
      "inputs": [],
      "name": "penaltyRecipient",
      "outputs": [
        {
          "internalType": "address",
          "name": "",
          "type": "address"
        }
      ],
      "stateMutability": "view",
      "type": "function"
    },
    {
      "inputs": [
        {
          "internalType": "uint256",
          "name": "assets",
          "type": "uint256"
        }
      ],
      "name": "previewDeposit",
      "outputs": [
        {
          "internalType": "uint256",
          "name": "",
          "type": "uint256"
        }
      ],
      "stateMutability": "view",
      "type": "function"
    },
    {
      "inputs": [
        {
          "internalType": "uint256",
          "name": "assets",
          "type": "uint256"
        }
      ],
      "name": "previewInstantWithdraw",
      "outputs": [
        {
          "internalType": "uint256",
          "name": "shares",
          "type": "uint256"
        }
      ],
      "stateMutability": "view",
      "type": "function"
    },
    {
      "inputs": [
        {
          "internalType": "uint256",
          "name": "shares",
          "type": "uint256"
        }
      ],
      "name": "previewMint",
      "outputs": [
        {
          "internalType": "uint256",
          "name": "",
          "type": "uint256"
        }
      ],
      "stateMutability": "view",
      "type": "function"
    },
    {
      "inputs": [
        {
          "internalType": "uint256",
          "name": "shares",
          "type": "uint256"
        }
      ],
      "name": "previewRedeem",
      "outputs": [
        {
          "internalType": "uint256",
          "name": "",
          "type": "uint256"
        }
      ],
      "stateMutability": "view",
      "type": "function"
    },
    {
      "inputs": [
        {
          "internalType": "uint256",
          "name": "assets",
          "type": "uint256"
        }
      ],
      "name": "previewWithdraw",
      "outputs": [
        {
          "internalType": "uint256",
          "name": "",
          "type": "uint256"
        }
      ],
      "stateMutability": "view",
      "type": "function"
    },
    {
      "inputs": [
        {
          "internalType": "uint256",
          "name": "shares",
          "type": "uint256"
        },
        {
          "internalType": "address",
          "name": "receiver",
          "type": "address"
        },
        {
          "internalType": "address",
          "name": "owner",
          "type": "address"
        }
      ],
      "name": "redeem",
      "outputs": [
        {
          "internalType": "uint256",
          "name": "",
          "type": "uint256"
        }
      ],
      "stateMutability": "nonpayable",
      "type": "function"
    },
    {
      "inputs": [],
      "name": "renounceOwnership",
      "outputs": [],
      "stateMutability": "nonpayable",
      "type": "function"
    },
    {
      "inputs": [
        {
          "internalType": "uint256",
          "name": "newLimit",
          "type": "uint256"
        }
      ],
      "name": "setMaxDepositLimit",
      "outputs": [],
      "stateMutability": "nonpayable",
      "type": "function"
    },
    {
      "inputs": [
        {
          "internalType": "uint256",
          "name": "slippageBps",
          "type": "uint256"
        }
      ],
      "name": "setMaxSlippage",
      "outputs": [],
      "stateMutability": "nonpayable",
      "type": "function"
    },
    {
      "inputs": [
        {
          "internalType": "address",
          "name": "recipient",
          "type": "address"
        }
      ],
      "name": "setPenaltyRecipient",
      "outputs": [],
      "stateMutability": "nonpayable",
      "type": "function"
    },
    {
      "inputs": [
        {
          "internalType": "uint256",
          "name": "delaySeconds",
          "type": "uint256"
        },
        {
          "internalType": "uint256",
          "name": "feeBps",
          "type": "uint256"
        }
      ],
      "name": "setWithdrawalConfig",
      "outputs": [],
      "stateMutability": "nonpayable",
      "type": "function"
    },
    {
      "inputs": [
        {
          "internalType": "address",
          "name": "protocol",
          "type": "address"
        }
      ],
      "name": "setYieldProtocol",
      "outputs": [],
      "stateMutability": "nonpayable",
      "type": "function"
    },
    {
      "inputs": [],
      "name": "symbol",
      "outputs": [
        {
          "internalType": "string",
          "name": "",
          "type": "string"
        }
      ],
      "stateMutability": "view",
      "type": "function"
    },
    {
      "inputs": [],
      "name": "totalAssets",
      "outputs": [
        {
          "internalType": "uint256",
          "name": "",
          "type": "uint256"
        }
      ],
      "stateMutability": "view",
      "type": "function"
    },
    {
      "inputs": [],
      "name": "totalSupply",
      "outputs": [
        {
          "internalType": "uint256",
          "name": "",
          "type": "uint256"
        }
      ],
      "stateMutability": "view",
      "type": "function"
    },
    {
      "inputs": [],
      "name": "totalYieldEarned",
      "outputs": [
        {
          "internalType": "uint256",
          "name": "",
          "type": "uint256"
        }
      ],
      "stateMutability": "view",
      "type": "function"
    },
    {
      "inputs": [
        {
          "internalType": "address",
          "name": "to",
          "type": "address"
        },
        {
          "internalType": "uint256",
          "name": "value",
          "type": "uint256"
        }
      ],
      "name": "transfer",
      "outputs": [
        {
          "internalType": "bool",
          "name": "",
          "type": "bool"
        }
      ],
      "stateMutability": "nonpayable",
      "type": "function"
    },
    {
      "inputs": [
        {
          "internalType": "address",
          "name": "from",
          "type": "address"
        },
        {
          "internalType": "address",
          "name": "to",
          "type": "address"
        },
        {
          "internalType": "uint256",
          "name": "value",
          "type": "uint256"
        }
      ],
      "name": "transferFrom",
      "outputs": [
        {
          "internalType": "bool",
          "name": "",
          "type": "bool"
        }
      ],
      "stateMutability": "nonpayable",
      "type": "function"
    },
    {
      "inputs": [
        {
          "internalType": "address",
          "name": "newOwner",
          "type": "address"
        }
      ],
      "name": "transferOwnership",
      "outputs": [],
      "stateMutability": "nonpayable",
      "type": "function"
    },
    {
      "inputs": [],
      "name": "unpause",
      "outputs": [],
      "stateMutability": "nonpayable",
      "type": "function"
    },
    {
      "inputs": [],
      "name": "vaultType",
      "outputs": [
        {
          "internalType": "enum BucketVaultV2.VaultType",
          "name": "",
          "type": "uint8"
        }
      ],
      "stateMutability": "view",
      "type": "function"
    },
    {
      "inputs": [
        {
          "internalType": "uint256",
          "name": "assets",
          "type": "uint256"
        },
        {
          "internalType": "address",
          "name": "receiver",
          "type": "address"
        },
        {
          "internalType": "address",
          "name": "owner",
          "type": "address"
        }
      ],
      "name": "withdraw",
      "outputs": [
        {
          "internalType": "uint256",
          "name": "shares",
          "type": "uint256"
        }
      ],
      "stateMutability": "nonpayable",
      "type": "function"
    },
    {
      "inputs": [
        {
          "internalType": "uint256",
          "name": "shares",
          "type": "uint256"
        }
      ],
      "name": "withdrawFromYieldProtocol",
      "outputs": [],
      "stateMutability": "nonpayable",
      "type": "function"
    },
    {
      "inputs": [],
      "name": "withdrawalDelaySeconds",
      "outputs": [
        {
          "internalType": "uint256",
          "name": "",
          "type": "uint256"
        }
      ],
      "stateMutability": "view",
      "type": "function"
    },
    {
      "inputs": [],
      "name": "withdrawalFeeBps",
      "outputs": [
        {
          "internalType": "uint256",
          "name": "",
          "type": "uint256"
        }
      ],
      "stateMutability": "view",
      "type": "function"
    },
    {
      "inputs": [],
      "name": "yieldEnabled",
      "outputs": [
        {
          "internalType": "bool",
          "name": "",
          "type": "bool"
        }
      ],
      "stateMutability": "view",
      "type": "function"
    },
    {
      "inputs": [],
      "name": "yieldProtocol",
      "outputs": [
        {
          "internalType": "address",
          "name": "",
          "type": "address"
        }
      ],
      "stateMutability": "view",
      "type": "function"
    }
  ],
  "bytecode": "0x60e0604081815234620004595780826200243580380380916200002382856200047a565b833981010312620004595781516001600160a01b039290838116810362000459576020809201519183519062000059826200045e565b601a82527f50616c6d427564676574205370656e6461626c65205661756c740000000000008183015284519262000090846200045e565b60078452661c1894d411539160ca1b8285015282516001600160401b039081811162000359576003958654916001968784811c941680156200044e575b8785101462000438578190601f94858111620003e2575b5087908583116001146200037b576000926200036f575b5050600019828a1b1c191690871b1787555b8051928311620003595760049485548781811c911680156200034e575b8282101462000339579081848695949311620002df575b508092841160011462000275575060009262000269575b505060001982871b1c191690841b1782555b62000175816200049e565b901562000260575b60a0526080523315620002495750600580546001600160a01b031980821633908117909355955196167f8be0079c531659141344cd1fd0a4f28419497f9722a3daafe3b4186f6b6457e0600080a360065560c052600855603260095542600f553390600d541617600d556000600a556000600b5560ff60a81b1960075416600755611eba90816200057b8239608051818181610b0501528181610eb3015281816112460152818161169b01528181611bf40152611d0f015260a0518161128b015260c0518161106c0152f35b6024906000865191631e4fbdf760e01b8352820152fd5b5060126200017d565b01519050388062000158565b9190879450601f1984168760005283600020936000905b828210620002c55750508411620002ac575b505050811b0182556200016a565b015160001983891b60f8161c191690553880806200029e565b8484015186558a979095019493840193908101906200028c565b909192935086600052816000208480870160051c8201928488106200032f575b9187968b92969594930160051c01915b8281106200031f57505062000141565b600081558796508a91016200030f565b92508192620002ff565b602287634e487b7160e01b6000525260246000fd5b90607f16906200012a565b634e487b7160e01b600052604160045260246000fd5b015190503880620000fb565b90899350601f198316918b600052896000209260005b8b828210620003cb5750508411620003b2575b505050811b0187556200010d565b0151600019838c1b60f8161c19169055388080620003a4565b8385015186558d9790950194938401930162000391565b90915089600052876000208580850160051c8201928a86106200042e575b918b91869594930160051c01915b8281106200041e575050620000e4565b600081558594508b91016200040e565b9250819262000400565b634e487b7160e01b600052602260045260246000fd5b93607f1693620000cd565b600080fd5b604081019081106001600160401b038211176200035957604052565b601f909101601f19168101906001600160401b038211908210176200035957604052565b906040516020908181019063313ce56760e01b825260048152620004c2816200045e565b5160009485928392916001600160a01b03165afa3d1562000571573d906001600160401b0382116200055d576040519162000507601f8201601f19168501846200047a565b82523d858484013e5b8062000551575b62000523575b50508190565b81818051810103126200054d57015160ff8111156200054357806200051d565b6001925060ff1690565b8380fd5b50818151101562000517565b634e487b7160e01b85526041600452602485fd5b6060906200051056fe608060408181526004918236101561001657600080fd5b600092833560e01c918263012caae11461150a5750816301e1d114146114ed57816304336bb3146114ce57816306fdde03146113d757816307a2d13a14611053578163095ea7b31461132d5781630a28a477146103f757816318160ddd1461130e57816323b872dd146112d1578163313ce5671461127557816338d52e0f146112315781633bc725c3146111ab5781633f4ba83a14611141578163402d267d1461057257816343f68a49146110b15781634ac032be146110585781634cdad50614611053578163527132d814610f925781635312ea8e14610e1c5781635c975abb14610df8578163655d8dec14610dc05781636e553f6514610d615781636e98928b14610aaf57816370a08231146104b1578163715018a614610a525781637183941814610a335781637a62a8951461099e5781637e393cbe146109755781638456cb59146109095781638da5cb5b146108e05781638f8c8aee146108c15781638f9bcee8146108a457816394bf804d1461086f57816395d89b411461076a578163a9059cbb14610739578163b25a7a18146106b4578163b3d7f6b914610694578163b460af941461066a578163b63c44e71461064b578163ba087652146105bd578163c2752e4314610596578163c4aa739514610577578163c63d75b614610572578163c6e6f592146103f2578163cc00967914610553578163cd4c73a714610526578163ce96cb77146104ed578163d905777e146104b1578163dd62ed3e14610468578163dfe608351461041a578163ec1883e9146103f7578163ef8b30f7146103f2578163f1009899146103ce578163f1b1c37514610340578163f2fde38b146102ac575063fd967f471461028d57600080fd5b346102a857816003193601126102a857602090516127108152f35b5080fd5b90503461033c57602036600319011261033c576102c76115a3565b906102d0611a73565b6001600160a01b03918216928315610326575050600554826bffffffffffffffffffffffff60a01b821617600555167f8be0079c531659141344cd1fd0a4f28419497f9722a3daafe3b4186f6b6457e08380a380f35b51631e4fbdf760e01b8152908101849052602490fd5b8280fd5b90503461033c57602036600319011261033c5780359061035e611a9f565b610366611a73565b60ff60075460a81c16156103c05781156103b25750907fc2e390771ee2b6cad5cb1244f940b577352851c4d635277c314747be299eba4b918151908082526020820152a1600160065580f35b825163162908e360e11b8152fd5b825163666f681360e01b8152fd5b5050346102a857816003193601126102a8576020906103eb6117fb565b9051908152f35b61162a565b82843461041757602036600319011261041757506103eb6020923561186c565b80fd5b90503461033c57602036600319011261033c577f514bf0f65cb844af227a51e123dbb8b5be8fac221f8feeb9d20591e81c46e50b91602091359061045c611a73565b8160085551908152a180f35b5050346102a857806003193601126102a857806020926104866115a3565b61048e6115b9565b6001600160a01b0391821683526001865283832091168252845220549051908152f35b5050346102a85760203660031901126102a8576020906103eb6104d26115a3565b6001600160a01b031660009081526020819052604090205490565b5050346102a85760203660031901126102a8576020916103eb9082906001600160a01b036105196115a3565b1681528085522054611841565b5050346102a857816003193601126102a857600754905160089190911c6001600160a01b03168152602090f35b5050346102a857816003193601126102a857602090600e549051908152f35b6115cf565b5050346102a857816003193601126102a8576020906009549051908152f35b5050346102a857816003193601126102a85760209060ff60075460a81c1690519015158152f35b82843461041757506105ce366115f5565b9291936105ee8460018060a01b0316600052600060205260406000205490565b8086116106165750508361061091610607602096611841565b94859133611cb8565b51908152f35b9251632e52afbb60e21b81526001600160a01b0390941690840190815260208101949094525060408301529081906060010390fd5b5050346102a857816003193601126102a8576020906008549051908152f35b82843461041757602061061083610680366115f5565b939161068b8161186c565b94859233611cb8565b82843461041757602036600319011261041757506103eb60209235611813565b90503461033c57602036600319011261033c576106cf6115a3565b6106d7611a73565b6001600160a01b03169182156107045750506bffffffffffffffffffffffff60a01b600d541617600d5580f35b906020606492519162461bcd60e51b8352820152600f60248201526e496e76616c6964206164647265737360881b6044820152fd5b5050346102a857806003193601126102a8576020906107636107596115a3565b6024359033611995565b5160018152f35b8383346102a857816003193601126102a85780519180938054916001908360011c9260018516948515610865575b60209586861081146108525785895290811561082e57506001146107d6575b6107d287876107c8828c0383611648565b519182918261152f565b0390f35b81529295507f8a35acfbc15ff81a39ae7d344fd709f28e8600b4aa8c65c6b64bfe7fe36bd19b5b82841061081b57505050826107d2946107c8928201019486806107b7565b80548685018801529286019281016107fd565b60ff19168887015250505050151560051b83010192506107c8826107d286806107b7565b634e487b7160e01b845260228352602484fd5b93607f1693610798565b90503461033c578160031936011261033c576020925035906106106108926115b9565b9261089c81611813565b809433611b9f565b5050346102a857816003193601126102a857602090516101f48152f35b5050346102a857816003193601126102a857602090600f549051908152f35b5050346102a857816003193601126102a85760055490516001600160a01b039091168152602090f35b90503461033c578260031936011261033c57610923611a73565b6007549060ff8216610967575060ff1916600117600755513381527f62e78cea01bee320cd4e420270b5ea74000d11b0c9f74754ebdbfc544b05a25890602090a180f35b825163d93c066560e01b8152fd5b833461041757806003193601126104175761098e611a9f565b610996611755565b600160065580f35b8383346102a857806003193601126102a8578235602435936109be611a73565b6103e88511610a0157507f7c532154661afd5f579d75e0bcfec458372e7a0127bbfaecb32e275ac844b683929381600a5580600b5582519182526020820152a180f35b606490602084519162461bcd60e51b8352820152600c60248201526b08ccaca40e8dede40d0d2ced60a31b6044820152fd5b5050346102a857816003193601126102a857602090600a549051908152f35b8334610417578060031936011261041757610a6b611a73565b600580546001600160a01b0319811690915581906001600160a01b03167f8be0079c531659141344cd1fd0a4f28419497f9722a3daafe3b4186f6b6457e08280a380f35b8383346102a85760208060031936011261033c578335610acd611a9f565b610ad5611a73565b60075460ff8160a81c1615610d51578115610d415783516370a0823160e01b815230878201526001600160a01b037f000000000000000000000000000000000000000000000000000000000000000081169290918581602481875afa908115610d37579085918991610d02575b5010610cf25760081c16908451636eb1769f60e11b815230888201528260248201528481604481855afa8015610ce85784908890610cb3575b610b859250611748565b855163095ea7b360e01b8682018181526001600160a01b03861660248401526044808401949094529282529093909186908990610bc3606488611648565b86519082875af188513d82610c97575b505015610c12575b877fa248d81b377afe8736fe397f5a9f8f0d7c581e67ff6ae4037df29a672a92133b888888825191818352820152a1600160065580f35b865191868301526024820152866044820152604481526080810181811067ffffffffffffffff821117610c84577fa248d81b377afe8736fe397f5a9f8f0d7c581e67ff6ae4037df29a672a92133b979850610c7a939291610c7591885282611d8a565b611d8a565b8493868080610bdb565b634e487b7160e01b885260418952602488fd5b909150610cab5750823b15155b8a80610bd3565b600114610ca4565b50508481813d8311610ce1575b610cca8183611648565b81010312610cdd5783610b859151610b7b565b8680fd5b503d610cc0565b86513d89823e3d90fd5b8551631e9acf1760e31b81528890fd5b809250878092503d8311610d30575b610d1b8183611648565b81010312610d2c578490518a610b42565b8780fd5b503d610d11565b87513d8a823e3d90fd5b835163162908e360e11b81528690fd5b835163666f681360e01b81528690fd5b82843461041757816003193601126104175750813590610d7f6115b9565b92610d9183610d8c611680565b611748565b60085410610db25750610610602093610da984611897565b93849133611b9f565b905163e4bac01b60e01b8152fd5b5050346102a85760203660031901126102a85760209181906001600160a01b03610de86115a3565b168152600c845220549051908152f35b5050346102a857816003193601126102a85760209060ff6007541690519015158152f35b8383346102a85760203660031901126102a857823590610e3a611a9f565b8115610f5f57610e498261186c565b9133845283602052828285205410610f26576101f481026101f31982820401610f135790610ea8610ea16127107f56da9a5ae0bcf6e7c3fdd78a10550e7d0458de1c39bfb7f6e96a3e92dd344a68959404809361173b565b9433611ac2565b6001600160a01b03817f00000000000000000000000000000000000000000000000000000000000000008216610edf873383611b61565b81610efd575b505050815193845260208401523392a2600160065580f35b610f0b92600d541690611b61565b858181610ee5565b634e487b7160e01b855260118652602485fd5b815162461bcd60e51b81526020818701526013602482015272496e73756666696369656e742073686172657360681b6044820152606490fd5b5162461bcd60e51b8152602081850152600e60248201526d125b9d985b1a5908185b5bdd5b9d60921b6044820152606490fd5b839150346102a857826003193601126102a857610fad6115a3565b602435929091906001600160a01b0383161561101c5784849133815280602052205410610fe257602084610763858533611995565b606490602085519162461bcd60e51b83528201526014602482015273496e73756666696369656e742062616c616e636560601b6044820152fd5b845162461bcd60e51b81526020818401526011602482015270125b9d985b1a59081c9958da5c1a595b9d607a1b6044820152606490fd5b611578565b8383346102a857816003193601126102a8577f00000000000000000000000000000000000000000000000000000000000000009051918382101561109e57602083838152f35b634e487b7160e01b815260218452602490fd5b9190503461033c57602036600319011261033c578135916110d0611a73565b6101f4831161110b5750816020917f0e327decf8cd0c8c1ff089972fca9360ed4f35e93bc2c9c28a9ea0dfb428ea919360095551908152a180f35b6020606492519162461bcd60e51b835282015260116024820152700a6d8d2e0e0c2ceca40e8dede40d0d2ced607b1b6044820152fd5b90503461033c578260031936011261033c5761115b611a73565b6007549060ff82161561119d575060ff1916600755513381527f5db9ee0a495bf2e6ff9c91a7834c1ba4fdd244a5e8aa4e537bd38aeae4b073aa90602090a180f35b8251638dfc202b60e01b8152fd5b8334610417576020366003190112610417576111c56115a3565b6111cd611a73565b60078054610100600160b01b031916600883901b610100600160a81b0316176001600160a01b039290921680151560a81b60ff60a81b169290921790557f6d70c8cd6b23bde6c51ca79816ad4d35c700845e43feefc3e65ca0d9cc6f45218280a280f35b5050346102a857816003193601126102a857517f00000000000000000000000000000000000000000000000000000000000000006001600160a01b03168152602090f35b8383346102a857816003193601126102a85760ff7f0000000000000000000000000000000000000000000000000000000000000000169160ff83116112be576020838351908152f35b634e487b7160e01b815260118452602490fd5b5050346102a85760603660031901126102a8576020906107636112f26115a3565b6112fa6115b9565b604435916113098333836118c2565b611995565b5050346102a857816003193601126102a8576020906002549051908152f35b90503461033c578160031936011261033c576113476115a3565b6024359033156113c0576001600160a01b03169182156113a957508083602095338152600187528181208582528752205582519081527f8c5be1e5ebec7d5bd14f71427d1e84f3dd0314c0f7b2291e5b200ac8c7c3b925843392a35160018152f35b8351634a1406b160e11b8152908101859052602490fd5b835163e602df0560e01b8152808401869052602490fd5b9190503461033c578260031936011261033c5780519183600354906001908260011c926001811680156114c4575b60209586861082146114b1575084885290811561148f5750600114611436575b6107d286866107c8828b0383611648565b929550600383527fc2575a0e9e593c00f959f8c92f12db2869c3395a3b0502d05e2516446f71f85b5b82841061147c57505050826107d2946107c8928201019438611425565b805486850188015292860192810161145f565b60ff191687860152505050151560051b83010192506107c8826107d238611425565b634e487b7160e01b845260229052602483fd5b93607f1693611405565b5050346102a857816003193601126102a857602090600b549051908152f35b5050346102a857816003193601126102a8576020906103eb611680565b8490346102a857816003193601126102a857600d546001600160a01b03168152602090f35b6020808252825181830181905290939260005b82811061156457505060409293506000838284010152601f8019910116010190565b818101860151848201604001528501611542565b3461159e57602036600319011261159e576020611596600435611841565b604051908152f35b600080fd5b600435906001600160a01b038216820361159e57565b602435906001600160a01b038216820361159e57565b3461159e57602036600319011261159e576115e86115a3565b5060206040516000198152f35b606090600319011261159e57600435906001600160a01b0390602435828116810361159e5791604435908116810361159e5790565b3461159e57602036600319011261159e576020611596600435611897565b90601f8019910116810190811067ffffffffffffffff82111761166a57604052565b634e487b7160e01b600052604160045260246000fd5b6040516370a0823160e01b81523060048201526020816024817f00000000000000000000000000000000000000000000000000000000000000006001600160a01b03165afa908115611706576000916116d7575090565b90506020813d6020116116fe575b816116f260209383611648565b8101031261159e575190565b3d91506116e5565b6040513d6000823e3d90fd5b8181029291811591840414171561172557565b634e487b7160e01b600052601160045260246000fd5b9190820391821161172557565b9190820180921161172557565b60ff60075460a81c16156117e95761176f600f544261173b565b80156117e65761179d64496cebb8009161179861178a611680565b6117926117fb565b90611712565b611712565b04806117a65750565b6020816117d67fcfad015a1c9077dd207d62466bb2fe714162b7bda0cca54bb619a967837102ae93600e54611748565b600e5542600f55604051908152a1565b50565b60405163666f681360e01b8152600490fd5b60ff60075460a81c161561180e57600090565b600090565b61181b611680565b600181018091116117255760025490600182018092116117255761183e92611d54565b90565b611849611680565b600181018091116117255760025490600182018092116117255761183e92611de6565b6002546001810180911161172557611882611680565b90600182018092116117255761183e92611d54565b60025460018101809111611725576118ad611680565b90600182018092116117255761183e92611de6565b9160018060a01b038093169160009383855260016020526040938486209183169182875260205284862054926000198410611901575b50505050505050565b8484106119655750801561194d578115611935578552600160205283852090855260205203912055388080808080806118f8565b8451634a1406b160e11b815260048101879052602490fd5b845163e602df0560e01b815260048101879052602490fd5b8551637dc7a0d960e11b81526001600160a01b039190911660048201526024810184905260448101859052606490fd5b916001600160a01b03808416928315611a5a5716928315611a415760009083825281602052604082205490838210611a0f575091604082827fddf252ad1be2c89b69c2b068fc378daa952ba7f163c4a11628f55a4df523b3ef958760209652828652038282205586815220818154019055604051908152a3565b60405163391434e360e21b81526001600160a01b03919091166004820152602481019190915260448101839052606490fd5b60405163ec442f0560e01b815260006004820152602490fd5b604051634b637e8f60e11b815260006004820152602490fd5b6005546001600160a01b03163303611a8757565b60405163118cdaa760e01b8152336004820152602490fd5b600260065414611ab0576002600655565b604051633ee5aeb560e01b8152600490fd5b906001600160a01b038216908115611a5a5760009282845283602052604084205490828210611b2f5750817fddf252ad1be2c89b69c2b068fc378daa952ba7f163c4a11628f55a4df523b3ef926020928587528684520360408620558060025403600255604051908152a3565b60405163391434e360e21b81526001600160a01b03919091166004820152602481019190915260448101829052606490fd5b60405163a9059cbb60e01b60208201526001600160a01b03929092166024830152604480830193909352918152611b9d91610c75606483611648565b565b9160018060a01b03604092818451956323b872dd60e01b602088015216948560248201523060448201528360648201526064815260a081019080821067ffffffffffffffff83111761166a57611c19918652837f000000000000000000000000000000000000000000000000000000000000000016611d8a565b16938415611ca0579081611c517fdcbc1c05240f31ff3ad067ef1ee35ce4997762752e3a095284754544f4c709d79493600254611748565b600255856000526000602052826000208181540190558560007fddf252ad1be2c89b69c2b068fc378daa952ba7f163c4a11628f55a4df523b3ef60208651858152a382519182526020820152a3565b825163ec442f0560e01b815260006004820152602490fd5b6001600160a01b0380841695818316947ffbde797d201c681b91056529119e0b02407c7bb96a4a2c75c01fc9667232c8db94604094909291611d0791839190828c8b03611d43575b5050611ac2565b611d348783857f000000000000000000000000000000000000000000000000000000000000000016611b61565b835196875260208701521693a4565b611d4d91836118c2565b3882611d00565b91611d60818385611de6565b918115611d745761183e9309151590611748565b634e487b7160e01b600052601260045260246000fd5b906000602091828151910182855af115611706576000513d611ddd57506001600160a01b0381163b155b611dbb5750565b604051635274afe760e01b81526001600160a01b039091166004820152602490fd5b60011415611db4565b90916000198383099280830292838086109503948086039514611e765784831115611e5d579082910981600003821680920460028082600302188083028203028083028203028083028203028083028203028083028203028092029003029360018380600003040190848311900302920304170290565b82634e487b71600052156003026011186020526024601cfd5b505080925015611d7457049056fea26469706673582212200d67a9c4ae1414fc47d03f141663d9fe2b305b5f67eb758847232e747c612d5064736f6c63430008160033",
  "linkReferences": {},
  "deployedLinkReferences": {}
}