{
  "_format": "hh-sol-artifact-1",
  "contractName": "SpendableVault",
  "sourceName": "contracts/src/vaults/SpendableVault.sol",
  "abi": [
    {
      "inputs": [
        {
          "internalType": "contract IERC20",
          "name": "asset_",
          "type": "address"
        },
        {
          "internalType": "uint256",
          "name": "maxDeposit_",
          "type": "uint256"
        }
      ],
      "stateMutability": "nonpayable",
      "type": "constructor"
    },
    {
      "inputs": [
        {
          "internalType": "address",
          "name": "spender",
          "type": "address"
        },
        {
          "internalType": "uint256",
          "name": "allowance",
          "type": "uint256"
        },
        {
          "internalType": "uint256",
          "name": "needed",
          "type": "uint256"
        }
      ],
      "name": "ERC20InsufficientAllowance",
      "type": "error"
    },
    {
      "inputs": [
        {
          "internalType": "address",
          "name": "sender",
          "type": "address"
        },
        {
          "internalType": "uint256",
          "name": "balance",
          "type": "uint256"
        },
        {
          "internalType": "uint256",
          "name": "needed",
          "type": "uint256"
        }
      ],
      "name": "ERC20InsufficientBalance",
      "type": "error"
    },
    {
      "inputs": [
        {
          "internalType": "address",
          "name": "approver",
          "type": "address"
        }
      ],
      "name": "ERC20InvalidApprover",
      "type": "error"
    },
    {
      "inputs": [
        {
          "internalType": "address",
          "name": "receiver",
          "type": "address"
        }
      ],
      "name": "ERC20InvalidReceiver",
      "type": "error"
    },
    {
      "inputs": [
        {
          "internalType": "address",
          "name": "sender",
          "type": "address"
        }
      ],
      "name": "ERC20InvalidSender",
      "type": "error"
    },
    {
      "inputs": [
        {
          "internalType": "address",
          "name": "spender",
          "type": "address"
        }
      ],
      "name": "ERC20InvalidSpender",
      "type": "error"
    },
    {
      "inputs": [
        {
          "internalType": "address",
          "name": "receiver",
          "type": "address"
        },
        {
          "internalType": "uint256",
          "name": "assets",
          "type": "uint256"
        },
        {
          "internalType": "uint256",
          "name": "max",
          "type": "uint256"
        }
      ],
      "name": "ERC4626ExceededMaxDeposit",
      "type": "error"
    },
    {
      "inputs": [
        {
          "internalType": "address",
          "name": "receiver",
          "type": "address"
        },
        {
          "internalType": "uint256",
          "name": "shares",
          "type": "uint256"
        },
        {
          "internalType": "uint256",
          "name": "max",
          "type": "uint256"
        }
      ],
      "name": "ERC4626ExceededMaxMint",
      "type": "error"
    },
    {
      "inputs": [
        {
          "internalType": "address",
          "name": "owner",
          "type": "address"
        },
        {
          "internalType": "uint256",
          "name": "shares",
          "type": "uint256"
        },
        {
          "internalType": "uint256",
          "name": "max",
          "type": "uint256"
        }
      ],
      "name": "ERC4626ExceededMaxRedeem",
      "type": "error"
    },
    {
      "inputs": [
        {
          "internalType": "address",
          "name": "owner",
          "type": "address"
        },
        {
          "internalType": "uint256",
          "name": "assets",
          "type": "uint256"
        },
        {
          "internalType": "uint256",
          "name": "max",
          "type": "uint256"
        }
      ],
      "name": "ERC4626ExceededMaxWithdraw",
      "type": "error"
    },
    {
      "inputs": [],
      "name": "EmergencyWithdrawalPenaltyTooHigh",
      "type": "error"
    },
    {
      "inputs": [],
      "name": "EnforcedPause",
      "type": "error"
    },
    {
      "inputs": [],
      "name": "ExceedsMaxDeposit",
      "type": "error"
    },
    {
      "inputs": [],
      "name": "ExceedsMaxSlippage",
      "type": "error"
    },
    {
      "inputs": [],
      "name": "ExpectedPause",
      "type": "error"
    },
    {
      "inputs": [],
      "name": "InsufficientBalance",
      "type": "error"
    },
    {
      "inputs": [],
      "name": "InvalidAmount",
      "type": "error"
    },
    {
      "inputs": [
        {
          "internalType": "address",
          "name": "owner",
          "type": "address"
        }
      ],
      "name": "OwnableInvalidOwner",
      "type": "error"
    },
    {
      "inputs": [
        {
          "internalType": "address",
          "name": "account",
          "type": "address"
        }
      ],
      "name": "OwnableUnauthorizedAccount",
      "type": "error"
    },
    {
      "inputs": [],
      "name": "ReentrancyGuardReentrantCall",
      "type": "error"
    },
    {
      "inputs": [
        {
          "internalType": "address",
          "name": "token",
          "type": "address"
        }
      ],
      "name": "SafeERC20FailedOperation",
      "type": "error"
    },
    {
      "inputs": [],
      "name": "WithdrawalDelayNotMet",
      "type": "error"
    },
    {
      "inputs": [],
      "name": "YieldProtocolCallFailed",
      "type": "error"
    },
    {
      "inputs": [],
      "name": "YieldProtocolNotSet",
      "type": "error"
    },
    {
      "anonymous": false,
      "inputs": [
        {
          "indexed": true,
          "internalType": "address",
          "name": "owner",
          "type": "address"
        },
        {
          "indexed": true,
          "internalType": "address",
          "name": "spender",
          "type": "address"
        },
        {
          "indexed": false,
          "internalType": "uint256",
          "name": "value",
          "type": "uint256"
        }
      ],
      "name": "Approval",
      "type": "event"
    },
    {
      "anonymous": false,
      "inputs": [
        {
          "indexed": true,
          "internalType": "address",
          "name": "sender",
          "type": "address"
        },
        {
          "indexed": true,
          "internalType": "address",
          "name": "owner",
          "type": "address"
        },
        {
          "indexed": false,
          "internalType": "uint256",
          "name": "assets",
          "type": "uint256"
        },
        {
          "indexed": false,
          "internalType": "uint256",
          "name": "shares",
          "type": "uint256"
        }
      ],
      "name": "Deposit",
      "type": "event"
    },
    {
      "anonymous": false,
      "inputs": [
        {
          "indexed": true,
          "internalType": "address",
          "name": "user",
          "type": "address"
        },
        {
          "indexed": false,
          "internalType": "uint256",
          "name": "amount",
          "type": "uint256"
        },
        {
          "indexed": false,
          "internalType": "uint256",
          "name": "penalty",
          "type": "uint256"
        }
      ],
      "name": "EmergencyWithdrawal",
      "type": "event"
    },
    {
      "anonymous": false,
      "inputs": [
        {
          "indexed": false,
          "internalType": "uint256",
          "name": "newLimit",
          "type": "uint256"
        }
      ],
      "name": "MaxDepositLimitUpdated",
      "type": "event"
    },
    {
      "anonymous": false,
      "inputs": [
        {
          "indexed": true,
          "internalType": "address",
          "name": "previousOwner",
          "type": "address"
        },
        {
          "indexed": true,
          "internalType": "address",
          "name": "newOwner",
          "type": "address"
        }
      ],
      "name": "OwnershipTransferred",
      "type": "event"
    },
    {
      "anonymous": false,
      "inputs": [
        {
          "indexed": false,
          "internalType": "address",
          "name": "account",
          "type": "address"
        }
      ],
      "name": "Paused",
      "type": "event"
    },
    {
      "anonymous": false,
      "inputs": [
        {
          "indexed": false,
          "internalType": "uint256",
          "name": "maxSlippageBps",
          "type": "uint256"
        }
      ],
      "name": "SlippageProtectionUpdated",
      "type": "event"
    },
    {
      "anonymous": false,
      "inputs": [
        {
          "indexed": true,
          "internalType": "address",
          "name": "from",
          "type": "address"
        },
        {
          "indexed": true,
          "internalType": "address",
          "name": "to",
          "type": "address"
        },
        {
          "indexed": false,
          "internalType": "uint256",
          "name": "value",
          "type": "uint256"
        }
      ],
      "name": "Transfer",
      "type": "event"
    },
    {
      "anonymous": false,
      "inputs": [
        {
          "indexed": false,
          "internalType": "address",
          "name": "account",
          "type": "address"
        }
      ],
      "name": "Unpaused",
      "type": "event"
    },
    {
      "anonymous": false,
      "inputs": [
        {
          "indexed": true,
          "internalType": "address",
          "name": "sender",
          "type": "address"
        },
        {
          "indexed": true,
          "internalType": "address",
          "name": "receiver",
          "type": "address"
        },
        {
          "indexed": true,
          "internalType": "address",
          "name": "owner",
          "type": "address"
        },
        {
          "indexed": false,
          "internalType": "uint256",
          "name": "assets",
          "type": "uint256"
        },
        {
          "indexed": false,
          "internalType": "uint256",
          "name": "shares",
          "type": "uint256"
        }
      ],
      "name": "Withdraw",
      "type": "event"
    },
    {
      "anonymous": false,
      "inputs": [
        {
          "indexed": false,
          "internalType": "uint256",
          "name": "delaySeconds",
          "type": "uint256"
        },
        {
          "indexed": false,
          "internalType": "uint256",
          "name": "feeBps",
          "type": "uint256"
        }
      ],
      "name": "WithdrawalConfigUpdated",
      "type": "event"
    },
    {
      "anonymous": false,
      "inputs": [
        {
          "indexed": false,
          "internalType": "uint256",
          "name": "amount",
          "type": "uint256"
        }
      ],
      "name": "YieldCompounded",
      "type": "event"
    },
    {
      "anonymous": false,
      "inputs": [
        {
          "indexed": false,
          "internalType": "uint256",
          "name": "amount",
          "type": "uint256"
        },
        {
          "indexed": false,
          "internalType": "uint256",
          "name": "shares",
          "type": "uint256"
        }
      ],
      "name": "YieldDeposited",
      "type": "event"
    },
    {
      "anonymous": false,
      "inputs": [
        {
          "indexed": true,
          "internalType": "address",
          "name": "protocol",
          "type": "address"
        }
      ],
      "name": "YieldProtocolSet",
      "type": "event"
    },
    {
      "anonymous": false,
      "inputs": [
        {
          "indexed": false,
          "internalType": "uint256",
          "name": "shares",
          "type": "uint256"
        },
        {
          "indexed": false,
          "internalType": "uint256",
          "name": "amount",
          "type": "uint256"
        }
      ],
      "name": "YieldWithdrawn",
      "type": "event"
    },
    {
      "inputs": [],
      "name": "EMERGENCY_PENALTY_BPS",
      "outputs": [
        {
          "internalType": "uint256",
          "name": "",
          "type": "uint256"
        }
      ],
      "stateMutability": "view",
      "type": "function"
    },
    {
      "inputs": [],
      "name": "MAX_BPS",
      "outputs": [
        {
          "internalType": "uint256",
          "name": "",
          "type": "uint256"
        }
      ],
      "stateMutability": "view",
      "type": "function"
    },
    {
      "inputs": [
        {
          "internalType": "address",
          "name": "owner",
          "type": "address"
        },
        {
          "internalType": "address",
          "name": "spender",
          "type": "address"
        }
      ],
      "name": "allowance",
      "outputs": [
        {
          "internalType": "uint256",
          "name": "",
          "type": "uint256"
        }
      ],
      "stateMutability": "view",
      "type": "function"
    },
    {
      "inputs": [
        {
          "internalType": "address",
          "name": "spender",
          "type": "address"
        },
        {
          "internalType": "uint256",
          "name": "value",
          "type": "uint256"
        }
      ],
      "name": "approve",
      "outputs": [
        {
          "internalType": "bool",
          "name": "",
          "type": "bool"
        }
      ],
      "stateMutability": "nonpayable",
      "type": "function"
    },
    {
      "inputs": [],
      "name": "asset",
      "outputs": [
        {
          "internalType": "address",
          "name": "",
          "type": "address"
        }
      ],
      "stateMutability": "view",
      "type": "function"
    },
    {
      "inputs": [
        {
          "internalType": "address",
          "name": "account",
          "type": "address"
        }
      ],
      "name": "balanceOf",
      "outputs": [
        {
          "internalType": "uint256",
          "name": "",
          "type": "uint256"
        }
      ],
      "stateMutability": "view",
      "type": "function"
    },
    {
      "inputs": [],
      "name": "compoundYield",
      "outputs": [],
      "stateMutability": "nonpayable",
      "type": "function"
    },
    {
      "inputs": [
        {
          "internalType": "uint256",
          "name": "shares",
          "type": "uint256"
        }
      ],
      "name": "convertToAssets",
      "outputs": [
        {
          "internalType": "uint256",
          "name": "",
          "type": "uint256"
        }
      ],
      "stateMutability": "view",
      "type": "function"
    },
    {
      "inputs": [
        {
          "internalType": "uint256",
          "name": "assets",
          "type": "uint256"
        }
      ],
      "name": "convertToShares",
      "outputs": [
        {
          "internalType": "uint256",
          "name": "",
          "type": "uint256"
        }
      ],
      "stateMutability": "view",
      "type": "function"
    },
    {
      "inputs": [],
      "name": "decimals",
      "outputs": [
        {
          "internalType": "uint8",
          "name": "",
          "type": "uint8"
        }
      ],
      "stateMutability": "view",
      "type": "function"
    },
    {
      "inputs": [
        {
          "internalType": "uint256",
          "name": "assets",
          "type": "uint256"
        },
        {
          "internalType": "address",
          "name": "receiver",
          "type": "address"
        }
      ],
      "name": "deposit",
      "outputs": [
        {
          "internalType": "uint256",
          "name": "shares",
          "type": "uint256"
        }
      ],
      "stateMutability": "nonpayable",
      "type": "function"
    },
    {
      "inputs": [
        {
          "internalType": "uint256",
          "name": "amount",
          "type": "uint256"
        }
      ],
      "name": "depositToYieldProtocol",
      "outputs": [],
      "stateMutability": "nonpayable",
      "type": "function"
    },
    {
      "inputs": [
        {
          "internalType": "uint256",
          "name": "assets",
          "type": "uint256"
        }
      ],
      "name": "emergencyWithdraw",
      "outputs": [],
      "stateMutability": "nonpayable",
      "type": "function"
    },
    {
      "inputs": [
        {
          "internalType": "address",
          "name": "to",
          "type": "address"
        },
        {
          "internalType": "uint256",
          "name": "shares",
          "type": "uint256"
        }
      ],
      "name": "fastTransfer",
      "outputs": [
        {
          "internalType": "bool",
          "name": "",
          "type": "bool"
        }
      ],
      "stateMutability": "nonpayable",
      "type": "function"
    },
    {
      "inputs": [],
      "name": "getYieldRate",
      "outputs": [
        {
          "internalType": "uint256",
          "name": "",
          "type": "uint256"
        }
      ],
      "stateMutability": "view",
      "type": "function"
    },
    {
      "inputs": [
        {
          "internalType": "address",
          "name": "",
          "type": "address"
        }
      ],
      "name": "lastDepositTimestamp",
      "outputs": [
        {
          "internalType": "uint256",
          "name": "",
          "type": "uint256"
        }
      ],
      "stateMutability": "view",
      "type": "function"
    },
    {
      "inputs": [],
      "name": "lastYieldUpdate",
      "outputs": [
        {
          "internalType": "uint256",
          "name": "",
          "type": "uint256"
        }
      ],
      "stateMutability": "view",
      "type": "function"
    },
    {
      "inputs": [
        {
          "internalType": "address",
          "name": "",
          "type": "address"
        }
      ],
      "name": "maxDeposit",
      "outputs": [
        {
          "internalType": "uint256",
          "name": "",
          "type": "uint256"
        }
      ],
      "stateMutability": "view",
      "type": "function"
    },
    {
      "inputs": [],
      "name": "maxDepositLimit",
      "outputs": [
        {
          "internalType": "uint256",
          "name": "",
          "type": "uint256"
        }
      ],
      "stateMutability": "view",
      "type": "function"
    },
    {
      "inputs": [
        {
          "internalType": "address",
          "name": "",
          "type": "address"
        }
      ],
      "name": "maxMint",
      "outputs": [
        {
          "internalType": "uint256",
          "name": "",
          "type": "uint256"
        }
      ],
      "stateMutability": "view",
      "type": "function"
    },
    {
      "inputs": [
        {
          "internalType": "address",
          "name": "owner",
          "type": "address"
        }
      ],
      "name": "maxRedeem",
      "outputs": [
        {
          "internalType": "uint256",
          "name": "",
          "type": "uint256"
        }
      ],
      "stateMutability": "view",
      "type": "function"
    },
    {
      "inputs": [],
      "name": "maxSlippageBps",
      "outputs": [
        {
          "internalType": "uint256",
          "name": "",
          "type": "uint256"
        }
      ],
      "stateMutability": "view",
      "type": "function"
    },
    {
      "inputs": [
        {
          "internalType": "address",
          "name": "owner",
          "type": "address"
        }
      ],
      "name": "maxWithdraw",
      "outputs": [
        {
          "internalType": "uint256",
          "name": "",
          "type": "uint256"
        }
      ],
      "stateMutability": "view",
      "type": "function"
    },
    {
      "inputs": [
        {
          "internalType": "uint256",
          "name": "shares",
          "type": "uint256"
        },
        {
          "internalType": "address",
          "name": "receiver",
          "type": "address"
        }
      ],
      "name": "mint",
      "outputs": [
        {
          "internalType": "uint256",
          "name": "",
          "type": "uint256"
        }
      ],
      "stateMutability": "nonpayable",
      "type": "function"
    },
    {
      "inputs": [],
      "name": "name",
      "outputs": [
        {
          "internalType": "string",
          "name": "",
          "type": "string"
        }
      ],
      "stateMutability": "view",
      "type": "function"
    },
    {
      "inputs": [],
      "name": "owner",
      "outputs": [
        {
          "internalType": "address",
          "name": "",
          "type": "address"
        }
      ],
      "stateMutability": "view",
      "type": "function"
    },
    {
      "inputs": [],
      "name": "pause",
      "outputs": [],
      "stateMutability": "nonpayable",
      "type": "function"
    },
    {
      "inputs": [],
      "name": "paused",
      "outputs": [
        {
          "internalType": "bool",
          "name": "",
          "type": "bool"
        }
      ],
      "stateMutability": "view",
      "type": "function"
    },
    {
      "inputs": [],
      "name": "penaltyRecipient",
      "outputs": [
        {
          "internalType": "address",
          "name": "",
          "type": "address"
        }
      ],
      "stateMutability": "view",
      "type": "function"
    },
    {
      "inputs": [
        {
          "internalType": "uint256",
          "name": "assets",
          "type": "uint256"
        }
      ],
      "name": "previewDeposit",
      "outputs": [
        {
          "internalType": "uint256",
          "name": "",
          "type": "uint256"
        }
      ],
      "stateMutability": "view",
      "type": "function"
    },
    {
      "inputs": [
        {
          "internalType": "uint256",
          "name": "assets",
          "type": "uint256"
        }
      ],
      "name": "previewInstantWithdraw",
      "outputs": [
        {
          "internalType": "uint256",
          "name": "shares",
          "type": "uint256"
        }
      ],
      "stateMutability": "view",
      "type": "function"
    },
    {
      "inputs": [
        {
          "internalType": "uint256",
          "name": "shares",
          "type": "uint256"
        }
      ],
      "name": "previewMint",
      "outputs": [
        {
          "internalType": "uint256",
          "name": "",
          "type": "uint256"
        }
      ],
      "stateMutability": "view",
      "type": "function"
    },
    {
      "inputs": [
        {
          "internalType": "uint256",
          "name": "shares",
          "type": "uint256"
        }
      ],
      "name": "previewRedeem",
      "outputs": [
        {
          "internalType": "uint256",
          "name": "",
          "type": "uint256"
        }
      ],
      "stateMutability": "view",
      "type": "function"
    },
    {
      "inputs": [
        {
          "internalType": "uint256",
          "name": "assets",
          "type": "uint256"
        }
      ],
      "name": "previewWithdraw",
      "outputs": [
        {
          "internalType": "uint256",
          "name": "",
          "type": "uint256"
        }
      ],
      "stateMutability": "view",
      "type": "function"
    },
    {
      "inputs": [
        {
          "internalType": "uint256",
          "name": "shares",
          "type": "uint256"
        },
        {
          "internalType": "address",
          "name": "receiver",
          "type": "address"
        },
        {
          "internalType": "address",
          "name": "owner",
          "type": "address"
        }
      ],
      "name": "redeem",
      "outputs": [
        {
          "internalType": "uint256",
          "name": "",
          "type": "uint256"
        }
      ],
      "stateMutability": "nonpayable",
      "type": "function"
    },
    {
      "inputs": [],
      "name": "renounceOwnership",
      "outputs": [],
      "stateMutability": "nonpayable",
      "type": "function"
    },
    {
      "inputs": [
        {
          "internalType": "uint256",
          "name": "newLimit",
          "type": "uint256"
        }
      ],
      "name": "setMaxDepositLimit",
      "outputs": [],
      "stateMutability": "nonpayable",
      "type": "function"
    },
    {
      "inputs": [
        {
          "internalType": "uint256",
          "name": "slippageBps",
          "type": "uint256"
        }
      ],
      "name": "setMaxSlippage",
      "outputs": [],
      "stateMutability": "nonpayable",
      "type": "function"
    },
    {
      "inputs": [
        {
          "internalType": "address",
          "name": "recipient",
          "type": "address"
        }
      ],
      "name": "setPenaltyRecipient",
      "outputs": [],
      "stateMutability": "nonpayable",
      "type": "function"
    },
    {
      "inputs": [
        {
          "internalType": "uint256",
          "name": "delaySeconds",
          "type": "uint256"
        },
        {
          "internalType": "uint256",
          "name": "feeBps",
          "type": "uint256"
        }
      ],
      "name": "setWithdrawalConfig",
      "outputs": [],
      "stateMutability": "nonpayable",
      "type": "function"
    },
    {
      "inputs": [
        {
          "internalType": "address",
          "name": "protocol",
          "type": "address"
        }
      ],
      "name": "setYieldProtocol",
      "outputs": [],
      "stateMutability": "nonpayable",
      "type": "function"
    },
    {
      "inputs": [],
      "name": "symbol",
      "outputs": [
        {
          "internalType": "string",
          "name": "",
          "type": "string"
        }
      ],
      "stateMutability": "view",
      "type": "function"
    },
    {
      "inputs": [],
      "name": "totalAssets",
      "outputs": [
        {
          "internalType": "uint256",
          "name": "",
          "type": "uint256"
        }
      ],
      "stateMutability": "view",
      "type": "function"
    },
    {
      "inputs": [],
      "name": "totalSupply",
      "outputs": [
        {
          "internalType": "uint256",
          "name": "",
          "type": "uint256"
        }
      ],
      "stateMutability": "view",
      "type": "function"
    },
    {
      "inputs": [],
      "name": "totalYieldEarned",
      "outputs": [
        {
          "internalType": "uint256",
          "name": "",
          "type": "uint256"
        }
      ],
      "stateMutability": "view",
      "type": "function"
    },
    {
      "inputs": [
        {
          "internalType": "address",
          "name": "to",
          "type": "address"
        },
        {
          "internalType": "uint256",
          "name": "value",
          "type": "uint256"
        }
      ],
      "name": "transfer",
      "outputs": [
        {
          "internalType": "bool",
          "name": "",
          "type": "bool"
        }
      ],
      "stateMutability": "nonpayable",
      "type": "function"
    },
    {
      "inputs": [
        {
          "internalType": "address",
          "name": "from",
          "type": "address"
        },
        {
          "internalType": "address",
          "name": "to",
          "type": "address"
        },
        {
          "internalType": "uint256",
          "name": "value",
          "type": "uint256"
        }
      ],
      "name": "transferFrom",
      "outputs": [
        {
          "internalType": "bool",
          "name": "",
          "type": "bool"
        }
      ],
      "stateMutability": "nonpayable",
      "type": "function"
    },
    {
      "inputs": [
        {
          "internalType": "address",
          "name": "newOwner",
          "type": "address"
        }
      ],
      "name": "transferOwnership",
      "outputs": [],
      "stateMutability": "nonpayable",
      "type": "function"
    },
    {
      "inputs": [],
      "name": "unpause",
      "outputs": [],
      "stateMutability": "nonpayable",
      "type": "function"
    },
    {
      "inputs": [],
      "name": "vaultType",
      "outputs": [
        {
          "internalType": "enum BucketVaultV2.VaultType",
          "name": "",
          "type": "uint8"
        }
      ],
      "stateMutability": "view",
      "type": "function"
    },
    {
      "inputs": [
        {
          "internalType": "uint256",
          "name": "assets",
          "type": "uint256"
        },
        {
          "internalType": "address",
          "name": "receiver",
          "type": "address"
        },
        {
          "internalType": "address",
          "name": "owner",
          "type": "address"
        }
      ],
      "name": "withdraw",
      "outputs": [
        {
          "internalType": "uint256",
          "name": "shares",
          "type": "uint256"
        }
      ],
      "stateMutability": "nonpayable",
      "type": "function"
    },
    {
      "inputs": [
        {
          "internalType": "uint256",
          "name": "shares",
          "type": "uint256"
        }
      ],
      "name": "withdrawFromYieldProtocol",
      "outputs": [],
      "stateMutability": "nonpayable",
      "type": "function"
    },
    {
      "inputs": [],
      "name": "withdrawalDelaySeconds",
      "outputs": [
        {
          "internalType": "uint256",
          "name": "",
          "type": "uint256"
        }
      ],
      "stateMutability": "view",
      "type": "function"
    },
    {
      "inputs": [],
      "name": "withdrawalFeeBps",
      "outputs": [
        {
          "internalType": "uint256",
          "name": "",
          "type": "uint256"
        }
      ],
      "stateMutability": "view",
      "type": "function"
    },
    {
      "inputs": [],
      "name": "yieldEnabled",
      "outputs": [
        {
          "internalType": "bool",
          "name": "",
          "type": "bool"
        }
      ],
      "stateMutability": "view",
      "type": "function"
    },
    {
      "inputs": [],
      "name": "yieldProtocol",
      "outputs": [
        {
          "internalType": "address",
          "name": "",
          "type": "address"
        }
      ],
      "stateMutability": "view",
      "type": "function"
    }
  ],
  "bytecode": "0x60e0604081815234620004595780826200243280380380916200002382856200047a565b833981010312620004595781516001600160a01b039290838116810362000459576020809201519183519062000059826200045e565b601a82527f50616c6d427564676574205370656e6461626c65205661756c740000000000008183015284519262000090846200045e565b60078452661c1894d411539160ca1b8285015282516001600160401b039081811162000359576003958654916001968784811c941680156200044e575b8785101462000438578190601f94858111620003e2575b5087908583116001146200037b576000926200036f575b5050600019828a1b1c191690871b1787555b8051928311620003595760049485548781811c911680156200034e575b8282101462000339579081848695949311620002df575b508092841160011462000275575060009262000269575b505060001982871b1c191690841b1782555b62000175816200049e565b901562000260575b60a0526080523315620002495750600580546001600160a01b031980821633908117909355955196167f8be0079c531659141344cd1fd0a4f28419497f9722a3daafe3b4186f6b6457e0600080a360065560c052600855603260095542600f553390600d541617600d556000600a556000600b5560ff60a81b1960075416600755611eb790816200057b8239608051818181610aff01528181610ead015281816112400152818161198201528181611a9d0152611e17015260a05181611285015260c051816110660152f35b6024906000865191631e4fbdf760e01b8352820152fd5b5060126200017d565b01519050388062000158565b9190879450601f1984168760005283600020936000905b828210620002c55750508411620002ac575b505050811b0182556200016a565b015160001983891b60f8161c191690553880806200029e565b8484015186558a979095019493840193908101906200028c565b909192935086600052816000208480870160051c8201928488106200032f575b9187968b92969594930160051c01915b8281106200031f57505062000141565b600081558796508a91016200030f565b92508192620002ff565b602287634e487b7160e01b6000525260246000fd5b90607f16906200012a565b634e487b7160e01b600052604160045260246000fd5b015190503880620000fb565b90899350601f198316918b600052896000209260005b8b828210620003cb5750508411620003b2575b505050811b0187556200010d565b0151600019838c1b60f8161c19169055388080620003a4565b8385015186558d9790950194938401930162000391565b90915089600052876000208580850160051c8201928a86106200042e575b918b91869594930160051c01915b8281106200041e575050620000e4565b600081558594508b91016200040e565b9250819262000400565b634e487b7160e01b600052602260045260246000fd5b93607f1693620000cd565b600080fd5b604081019081106001600160401b038211176200035957604052565b601f909101601f19168101906001600160401b038211908210176200035957604052565b906040516020908181019063313ce56760e01b825260048152620004c2816200045e565b5160009485928392916001600160a01b03165afa3d1562000571573d906001600160401b0382116200055d576040519162000507601f8201601f19168501846200047a565b82523d858484013e5b8062000551575b62000523575b50508190565b81818051810103126200054d57015160ff8111156200054357806200051d565b6001925060ff1690565b8380fd5b50818151101562000517565b634e487b7160e01b85526041600452602485fd5b6060906200051056fe608060408181526004918236101561001657600080fd5b600092833560e01c918263012caae1146115025750816301e1d114146114e557816304336bb3146114c657816306fdde03146113d157816307a2d13a1461104d578163095ea7b3146113275781630a28a477146103f757816318160ddd1461130857816323b872dd146112cb578163313ce5671461126f57816338d52e0f1461122b5781633bc725c3146111a55781633f4ba83a1461113b578163402d267d1461057257816343f68a49146110ab5781634ac032be146110525781634cdad5061461104d578163527132d814610f8c5781635312ea8e14610e165781635c975abb14610df2578163655d8dec14610dba5781636e553f6514610d5b5781636e98928b14610aa957816370a08231146104b1578163715018a614610a4c5781637183941814610a2d5781637a62a895146109985781637e393cbe1461096f5781638456cb59146109035781638da5cb5b146108da5781638f8c8aee146108bb5781638f9bcee81461089e57816394bf804d1461086957816395d89b4114610766578163a9059cbb14610735578163b25a7a18146106b0578163b3d7f6b914610690578163b460af9414610666578163b63c44e714610647578163ba087652146105bd578163c2752e4314610596578163c4aa739514610577578163c63d75b614610572578163c6e6f592146103f2578163cc00967914610553578163cd4c73a714610526578163ce96cb77146104ed578163d905777e146104b1578163dd62ed3e14610468578163dfe608351461041a578163ec1883e9146103f7578163ef8b30f7146103f2578163f1009899146103ce578163f1b1c37514610340578163f2fde38b146102ac575063fd967f471461028d57600080fd5b346102a857816003193601126102a857602090516127108152f35b5080fd5b90503461033c57602036600319011261033c576102c761159b565b906102d0611640565b6001600160a01b03918216928315610326575050600554826bffffffffffffffffffffffff60a01b821617600555167f8be0079c531659141344cd1fd0a4f28419497f9722a3daafe3b4186f6b6457e08380a380f35b51631e4fbdf760e01b8152908101849052602490fd5b8280fd5b90503461033c57602036600319011261033c5780359061035e611cfb565b610366611640565b60ff60075460a81c16156103c05781156103b25750907fc2e390771ee2b6cad5cb1244f940b577352851c4d635277c314747be299eba4b918151908082526020820152a1600160065580f35b825163162908e360e11b8152fd5b825163666f681360e01b8152fd5b5050346102a857816003193601126102a8576020906103eb611de4565b9051908152f35b611622565b82843461041757602036600319011261041757506103eb60209235611878565b80fd5b90503461033c57602036600319011261033c577f514bf0f65cb844af227a51e123dbb8b5be8fac221f8feeb9d20591e81c46e50b91602091359061045c611640565b8160085551908152a180f35b5050346102a857806003193601126102a8578060209261048661159b565b61048e6115b1565b6001600160a01b0391821683526001865283832091168252845220549051908152f35b5050346102a85760203660031901126102a8576020906103eb6104d261159b565b6001600160a01b031660009081526020819052604090205490565b5050346102a85760203660031901126102a8576020916103eb9082906001600160a01b0361051961159b565b16815280855220546118fc565b5050346102a857816003193601126102a857600754905160089190911c6001600160a01b03168152602090f35b5050346102a857816003193601126102a857602090600e549051908152f35b6115c7565b5050346102a857816003193601126102a8576020906009549051908152f35b5050346102a857816003193601126102a85760209060ff60075460a81c1690519015158152f35b905082346104175782906105d0366115ed565b6001600160a01b038116845260208490529590922054909493908086116106125750508361060c916106036020966118fc565b94859133611a46565b51908152f35b9251632e52afbb60e21b81526001600160a01b0390941690840190815260208101949094525060408301529081906060010390fd5b5050346102a857816003193601126102a8576020906008549051908152f35b82843461041757602061060c8361067c366115ed565b939161068781611878565b94859233611a46565b82843461041757602036600319011261041757506103eb602092356118d1565b90503461033c57602036600319011261033c576106cb61159b565b6106d3611640565b6001600160a01b03169182156107005750506bffffffffffffffffffffffff60a01b600d541617600d5580f35b906020606492519162461bcd60e51b8352820152600f60248201526e496e76616c6964206164647265737360881b6044820152fd5b5050346102a857806003193601126102a85760209061075f61075561159b565b60243590336116a4565b5160018152f35b8383346102a857816003193601126102a857805191809380549160019083821c9282851694851561085f575b602095868610811461084c5785895290811561082857506001146107d0575b6107cc87876107c2828c038361166c565b5191829182611527565b0390f35b81529295507f8a35acfbc15ff81a39ae7d344fd709f28e8600b4aa8c65c6b64bfe7fe36bd19b5b82841061081557505050826107cc946107c2928201019486806107b1565b80548685018801529286019281016107f7565b60ff19168887015250505050151560051b83010192506107c2826107cc86806107b1565b634e487b7160e01b845260228352602484fd5b93607f1693610792565b90503461033c578160031936011261033c5760209250359061060c61088c6115b1565b92610896816118d1565b809433611927565b5050346102a857816003193601126102a857602090516101f48152f35b5050346102a857816003193601126102a857602090600f549051908152f35b5050346102a857816003193601126102a85760055490516001600160a01b039091168152602090f35b90503461033c578260031936011261033c5761091d611640565b6007549060ff8216610961575060ff1916600117600755513381527f62e78cea01bee320cd4e420270b5ea74000d11b0c9f74754ebdbfc544b05a25890602090a180f35b825163d93c066560e01b8152fd5b8334610417578060031936011261041757610988611cfb565b610990611d3e565b600160065580f35b8383346102a857806003193601126102a8578235602435936109b8611640565b6103e885116109fb57507f7c532154661afd5f579d75e0bcfec458372e7a0127bbfaecb32e275ac844b683929381600a5580600b5582519182526020820152a180f35b606490602084519162461bcd60e51b8352820152600c60248201526b08ccaca40e8dede40d0d2ced60a31b6044820152fd5b5050346102a857816003193601126102a857602090600a549051908152f35b8334610417578060031936011261041757610a65611640565b600580546001600160a01b0319811690915581906001600160a01b03167f8be0079c531659141344cd1fd0a4f28419497f9722a3daafe3b4186f6b6457e08280a380f35b8383346102a85760208060031936011261033c578335610ac7611cfb565b610acf611640565b60075460ff8160a81c1615610d4b578115610d3b5783516370a0823160e01b815230878201526001600160a01b037f000000000000000000000000000000000000000000000000000000000000000081169290918581602481875afa908115610d31579085918991610cfc575b5010610cec5760081c16908451636eb1769f60e11b815230888201528260248201528481604481855afa8015610ce25784908890610cad575b610b7f9250611782565b855163095ea7b360e01b8682018181526001600160a01b03861660248401526044808401949094529282529093909186908990610bbd60648861166c565b86519082875af188513d82610c91575b505015610c0c575b877fa248d81b377afe8736fe397f5a9f8f0d7c581e67ff6ae4037df29a672a92133b888888825191818352820152a1600160065580f35b865191868301526024820152866044820152604481526080810181811067ffffffffffffffff821117610c7e577fa248d81b377afe8736fe397f5a9f8f0d7c581e67ff6ae4037df29a672a92133b979850610c74939291610c6f91885282611bbf565b611bbf565b8493868080610bd5565b634e487b7160e01b885260418952602488fd5b909150610ca55750823b15155b8a80610bcd565b600114610c9e565b50508481813d8311610cdb575b610cc4818361166c565b81010312610cd75783610b7f9151610b75565b8680fd5b503d610cba565b86513d89823e3d90fd5b8551631e9acf1760e31b81528890fd5b809250878092503d8311610d2a575b610d15818361166c565b81010312610d26578490518a610b3c565b8780fd5b503d610d0b565b87513d8a823e3d90fd5b835163162908e360e11b81528690fd5b835163666f681360e01b81528690fd5b82843461041757816003193601126104175750813590610d796115b1565b92610d8b83610d86611dfc565b611782565b60085410610dac575061060c602093610da3846118a6565b93849133611927565b905163e4bac01b60e01b8152fd5b5050346102a85760203660031901126102a85760209181906001600160a01b03610de261159b565b168152600c845220549051908152f35b5050346102a857816003193601126102a85760209060ff6007541690519015158152f35b8383346102a85760203660031901126102a857823590610e34611cfb565b8115610f5957610e4382611878565b9133845283602052828285205410610f20576101f481026101f31982820401610f0d5790610ea2610e9b6127107f56da9a5ae0bcf6e7c3fdd78a10550e7d0458de1c39bfb7f6e96a3e92dd344a689594048093611d1e565b9433611ae2565b6001600160a01b03817f00000000000000000000000000000000000000000000000000000000000000008216610ed9873383611b81565b81610ef7575b505050815193845260208401523392a2600160065580f35b610f0592600d541690611b81565b858181610edf565b634e487b7160e01b855260118652602485fd5b815162461bcd60e51b81526020818701526013602482015272496e73756666696369656e742073686172657360681b6044820152606490fd5b5162461bcd60e51b8152602081850152600e60248201526d125b9d985b1a5908185b5bdd5b9d60921b6044820152606490fd5b839150346102a857826003193601126102a857610fa761159b565b602435929091906001600160a01b038316156110165784849133815280602052205410610fdc5760208461075f8585336116a4565b606490602085519162461bcd60e51b83528201526014602482015273496e73756666696369656e742062616c616e636560601b6044820152fd5b845162461bcd60e51b81526020818401526011602482015270125b9d985b1a59081c9958da5c1a595b9d607a1b6044820152606490fd5b611570565b8383346102a857816003193601126102a8577f00000000000000000000000000000000000000000000000000000000000000009051918382101561109857602083838152f35b634e487b7160e01b815260218452602490fd5b9190503461033c57602036600319011261033c578135916110ca611640565b6101f483116111055750816020917f0e327decf8cd0c8c1ff089972fca9360ed4f35e93bc2c9c28a9ea0dfb428ea919360095551908152a180f35b6020606492519162461bcd60e51b835282015260116024820152700a6d8d2e0e0c2ceca40e8dede40d0d2ced607b1b6044820152fd5b90503461033c578260031936011261033c57611155611640565b6007549060ff821615611197575060ff1916600755513381527f5db9ee0a495bf2e6ff9c91a7834c1ba4fdd244a5e8aa4e537bd38aeae4b073aa90602090a180f35b8251638dfc202b60e01b8152fd5b8334610417576020366003190112610417576111bf61159b565b6111c7611640565b60078054610100600160b01b031916600883901b610100600160a81b0316176001600160a01b039290921680151560a81b60ff60a81b169290921790557f6d70c8cd6b23bde6c51ca79816ad4d35c700845e43feefc3e65ca0d9cc6f45218280a280f35b5050346102a857816003193601126102a857517f00000000000000000000000000000000000000000000000000000000000000006001600160a01b03168152602090f35b8383346102a857816003193601126102a85760ff7f0000000000000000000000000000000000000000000000000000000000000000169160ff83116112b8576020838351908152f35b634e487b7160e01b815260118452602490fd5b5050346102a85760603660031901126102a85760209061075f6112ec61159b565b6112f46115b1565b604435916113038333836117a5565b6116a4565b5050346102a857816003193601126102a8576020906002549051908152f35b90503461033c578160031936011261033c5761134161159b565b6024359033156113ba576001600160a01b03169182156113a357508083602095338152600187528181208582528752205582519081527f8c5be1e5ebec7d5bd14f71427d1e84f3dd0314c0f7b2291e5b200ac8c7c3b925843392a35160018152f35b8351634a1406b160e11b8152908101859052602490fd5b835163e602df0560e01b8152808401869052602490fd5b9190503461033c578260031936011261033c57805191836003549060019082821c9282811680156114bc575b60209586861082146114a95750848852908115611487575060011461142e575b6107cc86866107c2828b038361166c565b929550600383527fc2575a0e9e593c00f959f8c92f12db2869c3395a3b0502d05e2516446f71f85b5b82841061147457505050826107cc946107c292820101943861141d565b8054868501880152928601928101611457565b60ff191687860152505050151560051b83010192506107c2826107cc3861141d565b634e487b7160e01b845260229052602483fd5b93607f16936113fd565b5050346102a857816003193601126102a857602090600b549051908152f35b5050346102a857816003193601126102a8576020906103eb611dfc565b8490346102a857816003193601126102a857600d546001600160a01b03168152602090f35b6020808252825181830181905290939260005b82811061155c57505060409293506000838284010152601f8019910116010190565b81810186015184820160400152850161153a565b3461159657602036600319011261159657602061158e6004356118fc565b604051908152f35b600080fd5b600435906001600160a01b038216820361159657565b602435906001600160a01b038216820361159657565b34611596576020366003190112611596576115e061159b565b5060206040516000198152f35b606090600319011261159657600435906001600160a01b03906024358281168103611596579160443590811681036115965790565b3461159657602036600319011261159657602061158e6004356118a6565b6005546001600160a01b0316330361165457565b60405163118cdaa760e01b8152336004820152602490fd5b90601f8019910116810190811067ffffffffffffffff82111761168e57604052565b634e487b7160e01b600052604160045260246000fd5b916001600160a01b038084169283156117695716928315611750576000908382528160205260408220549083821061171e575091604082827fddf252ad1be2c89b69c2b068fc378daa952ba7f163c4a11628f55a4df523b3ef958760209652828652038282205586815220818154019055604051908152a3565b60405163391434e360e21b81526001600160a01b03919091166004820152602481019190915260448101839052606490fd5b60405163ec442f0560e01b815260006004820152602490fd5b604051634b637e8f60e11b815260006004820152602490fd5b9190820180921161178f57565b634e487b7160e01b600052601160045260246000fd5b9160018060a01b0380931691600093838552600160205260409384862091831691828752602052848620549260001984106117e4575b50505050505050565b84841061184857508015611830578115611818578552600160205283852090855260205203912055388080808080806117db565b8451634a1406b160e11b815260048101879052602490fd5b845163e602df0560e01b815260048101879052602490fd5b8551637dc7a0d960e11b81526001600160a01b039190911660048201526024810184905260448101859052606490fd5b6002546001810180911161178f5761188e611dfc565b906001820180921161178f576118a392611c27565b90565b6002546001810180911161178f576118bc611dfc565b906001820180921161178f576118a392611c5d565b6118d9611dfc565b6001810180911161178f57600254906001820180921161178f576118a392611c27565b611904611dfc565b6001810180911161178f57600254906001820180921161178f576118a392611c5d565b604080516323b872dd60e01b60208201526001600160a01b0392831660248201819052306044830152606480830187905282529491939192919060a081019067ffffffffffffffff82118183101761168e576119a7918652837f000000000000000000000000000000000000000000000000000000000000000016611bbf565b16938415611a2e5790816119df7fdcbc1c05240f31ff3ad067ef1ee35ce4997762752e3a095284754544f4c709d79493600254611782565b600255856000526000602052826000208181540190558560007fddf252ad1be2c89b69c2b068fc378daa952ba7f163c4a11628f55a4df523b3ef60208651858152a382519182526020820152a3565b825163ec442f0560e01b815260006004820152602490fd5b6001600160a01b0380841695818316947ffbde797d201c681b91056529119e0b02407c7bb96a4a2c75c01fc9667232c8db94604094909291611a9591839190828c8b03611ad1575b5050611ae2565b611ac28783857f000000000000000000000000000000000000000000000000000000000000000016611b81565b835196875260208701521693a4565b611adb91836117a5565b3882611a8e565b906001600160a01b0382169081156117695760009282845283602052604084205490828210611b4f5750817fddf252ad1be2c89b69c2b068fc378daa952ba7f163c4a11628f55a4df523b3ef926020928587528684520360408620558060025403600255604051908152a3565b60405163391434e360e21b81526001600160a01b03919091166004820152602481019190915260448101829052606490fd5b60405163a9059cbb60e01b60208201526001600160a01b03929092166024830152604480830193909352918152611bbd91610c6f60648361166c565b565b906000602091828151910182855af115611c1b576000513d611c1257506001600160a01b0381163b155b611bf05750565b604051635274afe760e01b81526001600160a01b039091166004820152602490fd5b60011415611be9565b6040513d6000823e3d90fd5b91611c33818385611c5d565b918115611c47576118a39309151590611782565b634e487b7160e01b600052601260045260246000fd5b90916000198383099280830292838086109503948086039514611ced5784831115611cd4579082910981600003821680920460028082600302188083028203028083028203028083028203028083028203028083028203028092029003029360018380600003040190848311900302920304170290565b82634e487b71600052156003026011186020526024601cfd5b505080925015611c47570490565b600260065414611d0c576002600655565b604051633ee5aeb560e01b8152600490fd5b9190820391821161178f57565b8181029291811591840414171561178f57565b60ff60075460a81c1615611dd257611d58600f5442611d1e565b8015611dcf57611d8664496cebb80091611d81611d73611dfc565b611d7b611de4565b90611d2b565b611d2b565b0480611d8f5750565b602081611dbf7fcfad015a1c9077dd207d62466bb2fe714162b7bda0cca54bb619a967837102ae93600e54611782565b600e5542600f55604051908152a1565b50565b60405163666f681360e01b8152600490fd5b60ff60075460a81c1615611df757600090565b600090565b6040516370a0823160e01b81523060048201526020816024817f00000000000000000000000000000000000000000000000000000000000000006001600160a01b03165afa908115611c1b57600091611e53575090565b906020823d8211611e79575b81611e6c6020938361166c565b8101031261041757505190565b3d9150611e5f56fea2646970667358221220bd152ac9ea134629eeff40b5c19889183ced547d5aef38f5946f9d2b7df22d2f64736f6c63430008140033",
  "linkReferences": {},
  "deployedLinkReferences": {}
}